{
  "_format": "hh-sol-artifact-1",
  "contractName": "AbitoRandomNFTGenerator",
  "sourceName": "contracts/AbitoRandomNFTGenerator.sol",
  "abi": [
    {
      "inputs": [
        {
          "internalType": "uint256",
          "name": "_maxWhitelistedAddresses",
          "type": "uint256"
        },
        {
          "internalType": "uint256",
          "name": "_maxNFTLimit",
          "type": "uint256"
        },
        {
          "internalType": "uint256",
          "name": "_maxNFTLimitWhitelist",
          "type": "uint256"
        },
        {
          "internalType": "address",
          "name": "coordinator",
          "type": "address"
        },
        {
          "internalType": "uint64",
          "name": "subscriptionId",
          "type": "uint64"
        },
        {
          "internalType": "bytes32",
          "name": "gasLane",
          "type": "bytes32"
        },
        {
          "internalType": "uint32",
          "name": "callbackGasLimit",
          "type": "uint32"
        },
        {
          "internalType": "string[3]",
          "name": "tokenURIs",
          "type": "string[3]"
        },
        {
          "internalType": "uint256",
          "name": "mintFee",
          "type": "uint256"
        }
      ],
      "stateMutability": "nonpayable",
      "type": "constructor"
    },
    {
      "inputs": [],
      "name": "AbitoRandomNFTGenerator__AlreadyInitialized",
      "type": "error"
    },
    {
      "inputs": [],
      "name": "AbitoRandomNFTGenerator__NotEnoughETHSent",
      "type": "error"
    },
    {
      "inputs": [],
      "name": "AbitoRandomNFTGenerator__RangeOutOfScope",
      "type": "error"
    },
    {
      "inputs": [],
      "name": "AbitoRandomNFTGenerator__TransferFailed",
      "type": "error"
    },
    {
      "inputs": [
        {
          "internalType": "address",
          "name": "have",
          "type": "address"
        },
        {
          "internalType": "address",
          "name": "want",
          "type": "address"
        }
      ],
      "name": "OnlyCoordinatorCanFulfill",
      "type": "error"
    },
    {
      "anonymous": false,
      "inputs": [
        {
          "indexed": true,
          "internalType": "address",
          "name": "owner",
          "type": "address"
        },
        {
          "indexed": true,
          "internalType": "address",
          "name": "approved",
          "type": "address"
        },
        {
          "indexed": true,
          "internalType": "uint256",
          "name": "tokenId",
          "type": "uint256"
        }
      ],
      "name": "Approval",
      "type": "event"
    },
    {
      "anonymous": false,
      "inputs": [
        {
          "indexed": true,
          "internalType": "address",
          "name": "owner",
          "type": "address"
        },
        {
          "indexed": true,
          "internalType": "address",
          "name": "operator",
          "type": "address"
        },
        {
          "indexed": false,
          "internalType": "bool",
          "name": "approved",
          "type": "bool"
        }
      ],
      "name": "ApprovalForAll",
      "type": "event"
    },
    {
      "anonymous": false,
      "inputs": [
        {
          "indexed": false,
          "internalType": "enum AbitoRandomNFTGenerator.Selection",
          "name": "selection",
          "type": "uint8"
        },
        {
          "indexed": false,
          "internalType": "address",
          "name": "minter",
          "type": "address"
        }
      ],
      "name": "NFTMinted",
      "type": "event"
    },
    {
      "anonymous": false,
      "inputs": [
        {
          "indexed": true,
          "internalType": "uint256",
          "name": "requestId",
          "type": "uint256"
        },
        {
          "indexed": false,
          "internalType": "address",
          "name": "requester",
          "type": "address"
        }
      ],
      "name": "NFTRequested",
      "type": "event"
    },
    {
      "anonymous": false,
      "inputs": [
        {
          "indexed": true,
          "internalType": "address",
          "name": "previousOwner",
          "type": "address"
        },
        {
          "indexed": true,
          "internalType": "address",
          "name": "newOwner",
          "type": "address"
        }
      ],
      "name": "OwnershipTransferred",
      "type": "event"
    },
    {
      "anonymous": false,
      "inputs": [
        {
          "indexed": false,
          "internalType": "address",
          "name": "account",
          "type": "address"
        }
      ],
      "name": "Paused",
      "type": "event"
    },
    {
      "anonymous": false,
      "inputs": [
        {
          "indexed": true,
          "internalType": "bytes32",
          "name": "role",
          "type": "bytes32"
        },
        {
          "indexed": true,
          "internalType": "bytes32",
          "name": "previousAdminRole",
          "type": "bytes32"
        },
        {
          "indexed": true,
          "internalType": "bytes32",
          "name": "newAdminRole",
          "type": "bytes32"
        }
      ],
      "name": "RoleAdminChanged",
      "type": "event"
    },
    {
      "anonymous": false,
      "inputs": [
        {
          "indexed": true,
          "internalType": "bytes32",
          "name": "role",
          "type": "bytes32"
        },
        {
          "indexed": true,
          "internalType": "address",
          "name": "account",
          "type": "address"
        },
        {
          "indexed": true,
          "internalType": "address",
          "name": "sender",
          "type": "address"
        }
      ],
      "name": "RoleGranted",
      "type": "event"
    },
    {
      "anonymous": false,
      "inputs": [
        {
          "indexed": true,
          "internalType": "bytes32",
          "name": "role",
          "type": "bytes32"
        },
        {
          "indexed": true,
          "internalType": "address",
          "name": "account",
          "type": "address"
        },
        {
          "indexed": true,
          "internalType": "address",
          "name": "sender",
          "type": "address"
        }
      ],
      "name": "RoleRevoked",
      "type": "event"
    },
    {
      "anonymous": false,
      "inputs": [
        {
          "indexed": true,
          "internalType": "address",
          "name": "from",
          "type": "address"
        },
        {
          "indexed": true,
          "internalType": "address",
          "name": "to",
          "type": "address"
        },
        {
          "indexed": true,
          "internalType": "uint256",
          "name": "tokenId",
          "type": "uint256"
        }
      ],
      "name": "Transfer",
      "type": "event"
    },
    {
      "anonymous": false,
      "inputs": [
        {
          "indexed": false,
          "internalType": "address",
          "name": "account",
          "type": "address"
        }
      ],
      "name": "Unpaused",
      "type": "event"
    },
    {
      "inputs": [],
      "name": "DEFAULT_ADMIN_ROLE",
      "outputs": [
        {
          "internalType": "bytes32",
          "name": "",
          "type": "bytes32"
        }
      ],
      "stateMutability": "view",
      "type": "function"
    },
    {
      "inputs": [],
      "name": "MINTER_ROLE",
      "outputs": [
        {
          "internalType": "bytes32",
          "name": "",
          "type": "bytes32"
        }
      ],
      "stateMutability": "view",
      "type": "function"
    },
    {
      "inputs": [],
      "name": "PAUSER_ROLE",
      "outputs": [
        {
          "internalType": "bytes32",
          "name": "",
          "type": "bytes32"
        }
      ],
      "stateMutability": "view",
      "type": "function"
    },
    {
      "inputs": [
        {
          "internalType": "address",
          "name": "_addressToWhitelist",
          "type": "address"
        }
      ],
      "name": "addUserAddressToWhitelist",
      "outputs": [],
      "stateMutability": "nonpayable",
      "type": "function"
    },
    {
      "inputs": [
        {
          "internalType": "address",
          "name": "to",
          "type": "address"
        },
        {
          "internalType": "uint256",
          "name": "tokenId",
          "type": "uint256"
        }
      ],
      "name": "approve",
      "outputs": [],
      "stateMutability": "nonpayable",
      "type": "function"
    },
    {
      "inputs": [
        {
          "internalType": "address",
          "name": "owner",
          "type": "address"
        }
      ],
      "name": "balanceOf",
      "outputs": [
        {
          "internalType": "uint256",
          "name": "",
          "type": "uint256"
        }
      ],
      "stateMutability": "view",
      "type": "function"
    },
    {
      "inputs": [
        {
          "internalType": "uint256",
          "name": "tokenId",
          "type": "uint256"
        }
      ],
      "name": "getApproved",
      "outputs": [
        {
          "internalType": "address",
          "name": "",
          "type": "address"
        }
      ],
      "stateMutability": "view",
      "type": "function"
    },
    {
      "inputs": [],
      "name": "getInitialized",
      "outputs": [
        {
          "internalType": "bool",
          "name": "",
          "type": "bool"
        }
      ],
      "stateMutability": "view",
      "type": "function"
    },
    {
      "inputs": [],
      "name": "getMaxNumberOfWhitelistedAddresses",
      "outputs": [
        {
          "internalType": "uint256",
          "name": "",
          "type": "uint256"
        }
      ],
      "stateMutability": "view",
      "type": "function"
    },
    {
      "inputs": [],
      "name": "getMintFee",
      "outputs": [
        {
          "internalType": "uint256",
          "name": "",
          "type": "uint256"
        }
      ],
      "stateMutability": "view",
      "type": "function"
    },
    {
      "inputs": [],
      "name": "getNumberOfWhitelistedAddresses",
      "outputs": [
        {
          "internalType": "uint256",
          "name": "",
          "type": "uint256"
        }
      ],
      "stateMutability": "view",
      "type": "function"
    },
    {
      "inputs": [
        {
          "internalType": "bytes32",
          "name": "role",
          "type": "bytes32"
        }
      ],
      "name": "getRoleAdmin",
      "outputs": [
        {
          "internalType": "bytes32",
          "name": "",
          "type": "bytes32"
        }
      ],
      "stateMutability": "view",
      "type": "function"
    },
    {
      "inputs": [],
      "name": "getTokenCounter",
      "outputs": [
        {
          "internalType": "uint256",
          "name": "",
          "type": "uint256"
        }
      ],
      "stateMutability": "view",
      "type": "function"
    },
    {
      "inputs": [
        {
          "internalType": "uint256",
          "name": "index",
          "type": "uint256"
        }
      ],
      "name": "getTokenURIs",
      "outputs": [
        {
          "internalType": "string",
          "name": "",
          "type": "string"
        }
      ],
      "stateMutability": "view",
      "type": "function"
    },
    {
      "inputs": [
        {
          "internalType": "bytes32",
          "name": "role",
          "type": "bytes32"
        },
        {
          "internalType": "address",
          "name": "account",
          "type": "address"
        }
      ],
      "name": "grantRole",
      "outputs": [],
      "stateMutability": "nonpayable",
      "type": "function"
    },
    {
      "inputs": [
        {
          "internalType": "bytes32",
          "name": "role",
          "type": "bytes32"
        },
        {
          "internalType": "address",
          "name": "account",
          "type": "address"
        }
      ],
      "name": "hasRole",
      "outputs": [
        {
          "internalType": "bool",
          "name": "",
          "type": "bool"
        }
      ],
      "stateMutability": "view",
      "type": "function"
    },
    {
      "inputs": [
        {
          "internalType": "address",
          "name": "owner",
          "type": "address"
        },
        {
          "internalType": "address",
          "name": "operator",
          "type": "address"
        }
      ],
      "name": "isApprovedForAll",
      "outputs": [
        {
          "internalType": "bool",
          "name": "",
          "type": "bool"
        }
      ],
      "stateMutability": "view",
      "type": "function"
    },
    {
      "inputs": [
        {
          "internalType": "address",
          "name": "_whitelistedAddress",
          "type": "address"
        }
      ],
      "name": "isWhitelisted",
      "outputs": [
        {
          "internalType": "bool",
          "name": "",
          "type": "bool"
        }
      ],
      "stateMutability": "view",
      "type": "function"
    },
    {
      "inputs": [],
      "name": "maxNFTLimit",
      "outputs": [
        {
          "internalType": "uint256",
          "name": "",
          "type": "uint256"
        }
      ],
      "stateMutability": "view",
      "type": "function"
    },
    {
      "inputs": [],
      "name": "maxNFTLimitWhitelist",
      "outputs": [
        {
          "internalType": "uint256",
          "name": "",
          "type": "uint256"
        }
      ],
      "stateMutability": "view",
      "type": "function"
    },
    {
      "inputs": [],
      "name": "maxNumberOfWhitelistedAddresses",
      "outputs": [
        {
          "internalType": "uint256",
          "name": "",
          "type": "uint256"
        }
      ],
      "stateMutability": "view",
      "type": "function"
    },
    {
      "inputs": [],
      "name": "mintWhitelist",
      "outputs": [],
      "stateMutability": "payable",
      "type": "function"
    },
    {
      "inputs": [],
      "name": "name",
      "outputs": [
        {
          "internalType": "string",
          "name": "",
          "type": "string"
        }
      ],
      "stateMutability": "view",
      "type": "function"
    },
    {
      "inputs": [],
      "name": "nftMinted",
      "outputs": [
        {
          "internalType": "uint256",
          "name": "",
          "type": "uint256"
        }
      ],
      "stateMutability": "view",
      "type": "function"
    },
    {
      "inputs": [],
      "name": "numberOfAddressesWhitelisted",
      "outputs": [
        {
          "internalType": "uint256",
          "name": "",
          "type": "uint256"
        }
      ],
      "stateMutability": "view",
      "type": "function"
    },
    {
      "inputs": [],
      "name": "owner",
      "outputs": [
        {
          "internalType": "address",
          "name": "",
          "type": "address"
        }
      ],
      "stateMutability": "view",
      "type": "function"
    },
    {
      "inputs": [
        {
          "internalType": "uint256",
          "name": "tokenId",
          "type": "uint256"
        }
      ],
      "name": "ownerOf",
      "outputs": [
        {
          "internalType": "address",
          "name": "",
          "type": "address"
        }
      ],
      "stateMutability": "view",
      "type": "function"
    },
    {
      "inputs": [],
      "name": "pause",
      "outputs": [],
      "stateMutability": "nonpayable",
      "type": "function"
    },
    {
      "inputs": [],
      "name": "paused",
      "outputs": [
        {
          "internalType": "bool",
          "name": "",
          "type": "bool"
        }
      ],
      "stateMutability": "view",
      "type": "function"
    },
    {
      "inputs": [],
      "name": "publicMint",
      "outputs": [],
      "stateMutability": "payable",
      "type": "function"
    },
    {
      "inputs": [
        {
          "internalType": "uint256",
          "name": "requestId",
          "type": "uint256"
        },
        {
          "internalType": "uint256[]",
          "name": "randomWords",
          "type": "uint256[]"
        }
      ],
      "name": "rawFulfillRandomWords",
      "outputs": [],
      "stateMutability": "nonpayable",
      "type": "function"
    },
    {
      "inputs": [
        {
          "internalType": "address",
          "name": "_addressToRemove",
          "type": "address"
        }
      ],
      "name": "removeUserAddressFromWhitelist",
      "outputs": [],
      "stateMutability": "nonpayable",
      "type": "function"
    },
    {
      "inputs": [],
      "name": "renounceOwnership",
      "outputs": [],
      "stateMutability": "nonpayable",
      "type": "function"
    },
    {
      "inputs": [
        {
          "internalType": "bytes32",
          "name": "role",
          "type": "bytes32"
        },
        {
          "internalType": "address",
          "name": "account",
          "type": "address"
        }
      ],
      "name": "renounceRole",
      "outputs": [],
      "stateMutability": "nonpayable",
      "type": "function"
    },
    {
      "inputs": [],
      "name": "requestNFT",
      "outputs": [
        {
          "internalType": "uint256",
          "name": "requestId",
          "type": "uint256"
        }
      ],
      "stateMutability": "payable",
      "type": "function"
    },
    {
      "inputs": [
        {
          "internalType": "bytes32",
          "name": "role",
          "type": "bytes32"
        },
        {
          "internalType": "address",
          "name": "account",
          "type": "address"
        }
      ],
      "name": "revokeRole",
      "outputs": [],
      "stateMutability": "nonpayable",
      "type": "function"
    },
    {
      "inputs": [
        {
          "internalType": "uint256",
          "name": "",
          "type": "uint256"
        }
      ],
      "name": "s_requestIdToSender",
      "outputs": [
        {
          "internalType": "address",
          "name": "",
          "type": "address"
        }
      ],
      "stateMutability": "view",
      "type": "function"
    },
    {
      "inputs": [],
      "name": "s_tokenCounter",
      "outputs": [
        {
          "internalType": "uint256",
          "name": "",
          "type": "uint256"
        }
      ],
      "stateMutability": "view",
      "type": "function"
    },
    {
      "inputs": [
        {
          "internalType": "address",
          "name": "from",
          "type": "address"
        },
        {
          "internalType": "address",
          "name": "to",
          "type": "address"
        },
        {
          "internalType": "uint256",
          "name": "tokenId",
          "type": "uint256"
        }
      ],
      "name": "safeTransferFrom",
      "outputs": [],
      "stateMutability": "nonpayable",
      "type": "function"
    },
    {
      "inputs": [
        {
          "internalType": "address",
          "name": "from",
          "type": "address"
        },
        {
          "internalType": "address",
          "name": "to",
          "type": "address"
        },
        {
          "internalType": "uint256",
          "name": "tokenId",
          "type": "uint256"
        },
        {
          "internalType": "bytes",
          "name": "data",
          "type": "bytes"
        }
      ],
      "name": "safeTransferFrom",
      "outputs": [],
      "stateMutability": "nonpayable",
      "type": "function"
    },
    {
      "inputs": [
        {
          "internalType": "uint256",
          "name": "moddedRNG",
          "type": "uint256"
        }
      ],
      "name": "selectionFromModdedRNG",
      "outputs": [
        {
          "internalType": "enum AbitoRandomNFTGenerator.Selection",
          "name": "",
          "type": "uint8"
        }
      ],
      "stateMutability": "pure",
      "type": "function"
    },
    {
      "inputs": [
        {
          "internalType": "address",
          "name": "operator",
          "type": "address"
        },
        {
          "internalType": "bool",
          "name": "approved",
          "type": "bool"
        }
      ],
      "name": "setApprovalForAll",
      "outputs": [],
      "stateMutability": "nonpayable",
      "type": "function"
    },
    {
      "inputs": [],
      "name": "setChanceArray",
      "outputs": [
        {
          "internalType": "uint256[3]",
          "name": "",
          "type": "uint256[3]"
        }
      ],
      "stateMutability": "pure",
      "type": "function"
    },
    {
      "inputs": [
        {
          "internalType": "bytes4",
          "name": "interfaceId",
          "type": "bytes4"
        }
      ],
      "name": "supportsInterface",
      "outputs": [
        {
          "internalType": "bool",
          "name": "",
          "type": "bool"
        }
      ],
      "stateMutability": "view",
      "type": "function"
    },
    {
      "inputs": [],
      "name": "symbol",
      "outputs": [
        {
          "internalType": "string",
          "name": "",
          "type": "string"
        }
      ],
      "stateMutability": "view",
      "type": "function"
    },
    {
      "inputs": [
        {
          "internalType": "uint256",
          "name": "tokenId",
          "type": "uint256"
        }
      ],
      "name": "tokenURI",
      "outputs": [
        {
          "internalType": "string",
          "name": "",
          "type": "string"
        }
      ],
      "stateMutability": "view",
      "type": "function"
    },
    {
      "inputs": [
        {
          "internalType": "address",
          "name": "from",
          "type": "address"
        },
        {
          "internalType": "address",
          "name": "to",
          "type": "address"
        },
        {
          "internalType": "uint256",
          "name": "tokenId",
          "type": "uint256"
        }
      ],
      "name": "transferFrom",
      "outputs": [],
      "stateMutability": "nonpayable",
      "type": "function"
    },
    {
      "inputs": [
        {
          "internalType": "address",
          "name": "newOwner",
          "type": "address"
        }
      ],
      "name": "transferOwnership",
      "outputs": [],
      "stateMutability": "nonpayable",
      "type": "function"
    },
    {
      "inputs": [],
      "name": "unpause",
      "outputs": [],
      "stateMutability": "nonpayable",
      "type": "function"
    },
    {
      "inputs": [
        {
          "internalType": "address",
          "name": "_whitelistedAddress",
          "type": "address"
        }
      ],
      "name": "verifyUserAddress",
      "outputs": [
        {
          "internalType": "bool",
          "name": "",
          "type": "bool"
        }
      ],
      "stateMutability": "view",
      "type": "function"
    },
    {
      "inputs": [],
      "name": "withdraw",
      "outputs": [],
      "stateMutability": "nonpayable",
      "type": "function"
    }
  ],
  "bytecode": "0x6101206040523480156200001257600080fd5b50604051620062ea380380620062ea8339818101604052810190620000389190620009d5565b856040518060400160405280601d81526020017f4f70656e5a657070656c696e20426f6f7463616d702050726f6a6563740000008152506040518060400160405280600381526020017f4f425000000000000000000000000000000000000000000000000000000000008152508160019081620000b6919062000d14565b508060029081620000c8919062000d14565b505050620000eb620000df6200025d60201b60201c565b6200026560201b60201c565b6000600860146101000a81548160ff0219169083151502179055508073ffffffffffffffffffffffffffffffffffffffff1660808173ffffffffffffffffffffffffffffffffffffffff1681525050508573ffffffffffffffffffffffffffffffffffffffff1660a08173ffffffffffffffffffffffffffffffffffffffff16815250508467ffffffffffffffff1660c08167ffffffffffffffff16815250508360e08181525050806010819055508263ffffffff166101008163ffffffff1681525050620001c0826200032b60201b60201c565b620001d56000801b33620003a560201b60201c565b620002077f65d7a28e3265b37a6474929f336521b332c1681b933f6cb9f3376673440d862a33620003a560201b60201c565b620002397f9f2df0fed2c77648de5860a4cc508cd0818c85b8b8a1ab4ceeef8d981c8956a633620003a560201b60201c565b88600a8190555087600d8190555086600e8190555050505050505050505062000dfb565b600033905090565b6000600860009054906101000a900473ffffffffffffffffffffffffffffffffffffffff16905081600860006101000a81548173ffffffffffffffffffffffffffffffffffffffff021916908373ffffffffffffffffffffffffffffffffffffffff1602179055508173ffffffffffffffffffffffffffffffffffffffff168173ffffffffffffffffffffffffffffffffffffffff167f8be0079c531659141344cd1fd0a4f28419497f9722a3daafe3b4186f6b6457e060405160405180910390a35050565b601460009054906101000a900460ff161562000373576040517f4da657d900000000000000000000000000000000000000000000000000000000815260040160405180910390fd5b8060139060036200038692919062000500565b506001601460006101000a81548160ff02191690831515021790555050565b620003b782826200049660201b60201c565b6200049257600160008084815260200190815260200160002060000160008373ffffffffffffffffffffffffffffffffffffffff1673ffffffffffffffffffffffffffffffffffffffff16815260200190815260200160002060006101000a81548160ff021916908315150217905550620004376200025d60201b60201c565b73ffffffffffffffffffffffffffffffffffffffff168173ffffffffffffffffffffffffffffffffffffffff16837f2f8788117e7eff1d82e926ec794901d17c78024a50270940304540a733656f0d60405160405180910390a45b5050565b600080600084815260200190815260200160002060000160008373ffffffffffffffffffffffffffffffffffffffff1673ffffffffffffffffffffffffffffffffffffffff16815260200190815260200160002060009054906101000a900460ff16905092915050565b8280548282559060005260206000209081019282156200054d579160200282015b828111156200054c5782518290816200053b919062000d14565b509160200191906001019062000521565b5b5090506200055c919062000560565b5090565b5b808211156200058457600081816200057a919062000588565b5060010162000561565b5090565b508054620005969062000b0d565b6000825580601f10620005aa5750620005cb565b601f016020900490600052602060002090810190620005ca9190620005ce565b5b50565b5b80821115620005e9576000816000905550600101620005cf565b5090565b6000604051905090565b600080fd5b600080fd5b6000819050919050565b620006168162000601565b81146200062257600080fd5b50565b60008151905062000636816200060b565b92915050565b600073ffffffffffffffffffffffffffffffffffffffff82169050919050565b600062000669826200063c565b9050919050565b6200067b816200065c565b81146200068757600080fd5b50565b6000815190506200069b8162000670565b92915050565b600067ffffffffffffffff82169050919050565b620006c081620006a1565b8114620006cc57600080fd5b50565b600081519050620006e081620006b5565b92915050565b6000819050919050565b620006fb81620006e6565b81146200070757600080fd5b50565b6000815190506200071b81620006f0565b92915050565b600063ffffffff82169050919050565b6200073c8162000721565b81146200074857600080fd5b50565b6000815190506200075c8162000731565b92915050565b600080fd5b6000601f19601f8301169050919050565b7f4e487b7100000000000000000000000000000000000000000000000000000000600052604160045260246000fd5b620007b28262000767565b810181811067ffffffffffffffff82111715620007d457620007d362000778565b5b80604052505050565b6000620007e9620005ed565b9050620007f78282620007a7565b919050565b600067ffffffffffffffff8211156200081a576200081962000778565b5b602082029050919050565b600080fd5b600080fd5b600067ffffffffffffffff8211156200084d576200084c62000778565b5b620008588262000767565b9050602081019050919050565b60005b838110156200088557808201518184015260208101905062000868565b8381111562000895576000848401525b50505050565b6000620008b2620008ac846200082f565b620007dd565b905082815260208101848484011115620008d157620008d06200082a565b5b620008de84828562000865565b509392505050565b600082601f830112620008fe57620008fd62000762565b5b8151620009108482602086016200089b565b91505092915050565b6000620009306200092a84620007fc565b620007dd565b905080602084028301858111156200094d576200094c62000825565b5b835b818110156200099b57805167ffffffffffffffff81111562000976576200097562000762565b5b808601620009858982620008e6565b855260208501945050506020810190506200094f565b5050509392505050565b600082601f830112620009bd57620009bc62000762565b5b6003620009cc84828562000919565b91505092915050565b60008060008060008060008060006101208a8c031215620009fb57620009fa620005f7565b5b600062000a0b8c828d0162000625565b995050602062000a1e8c828d0162000625565b985050604062000a318c828d0162000625565b975050606062000a448c828d016200068a565b965050608062000a578c828d01620006cf565b95505060a062000a6a8c828d016200070a565b94505060c062000a7d8c828d016200074b565b93505060e08a015167ffffffffffffffff81111562000aa15762000aa0620005fc565b5b62000aaf8c828d01620009a5565b92505061010062000ac38c828d0162000625565b9150509295985092959850929598565b600081519050919050565b7f4e487b7100000000000000000000000000000000000000000000000000000000600052602260045260246000fd5b6000600282049050600182168062000b2657607f821691505b60208210810362000b3c5762000b3b62000ade565b5b50919050565b60008190508160005260206000209050919050565b60006020601f8301049050919050565b600082821b905092915050565b60006008830262000ba67fffffffffffffffffffffffffffffffffffffffffffffffffffffffffffffffff8262000b67565b62000bb2868362000b67565b95508019841693508086168417925050509392505050565b6000819050919050565b600062000bf562000bef62000be98462000601565b62000bca565b62000601565b9050919050565b6000819050919050565b62000c118362000bd4565b62000c2962000c208262000bfc565b84845462000b74565b825550505050565b600090565b62000c4062000c31565b62000c4d81848462000c06565b505050565b5b8181101562000c755762000c6960008262000c36565b60018101905062000c53565b5050565b601f82111562000cc45762000c8e8162000b42565b62000c998462000b57565b8101602085101562000ca9578190505b62000cc162000cb88562000b57565b83018262000c52565b50505b505050565b600082821c905092915050565b600062000ce96000198460080262000cc9565b1980831691505092915050565b600062000d04838362000cd6565b9150826002028217905092915050565b62000d1f8262000ad3565b67ffffffffffffffff81111562000d3b5762000d3a62000778565b5b62000d47825462000b0d565b62000d5482828562000c79565b600060209050601f83116001811462000d8c576000841562000d77578287015190505b62000d83858262000cf6565b86555062000df3565b601f19841662000d9c8662000b42565b60005b8281101562000dc65784890151825560018201915060208501945060208101905062000d9f565b8683101562000de6578489015162000de2601f89168262000cd6565b8355505b6001600288020188555050505b505050505050565b60805160a05160c05160e051610100516154a362000e4760003960006116d701526000611693015260006116b401526000611657015260008181610db60152610e0a01526154a36000f3fe6080604052600436106102e45760003560e01c80637235303311610190578063a22cb465116100dc578063d539139311610095578063e985e9c51161006f578063e985e9c514610adf578063ee89dab414610b1c578063f2fde38b14610b47578063f359462a14610b70576102e4565b8063d539139314610a60578063d547741f14610a8b578063e63ab1e914610ab4576102e4565b8063a22cb4651461093e578063a36f573b14610967578063b88d4fde146109a4578063ba436547146109cd578063bd27baea146109f8578063c87b56dd14610a23576102e4565b80638cd5a0b91161014957806391d148541161012357806391d148541461086e578063921a5b48146108ab57806395d89b41146108e8578063a217fddf14610913576102e4565b80638cd5a0b9146107ef5780638da5cb5b1461081857806391b1734914610843576102e4565b8063723530331461070e5780637a5caab3146107395780637a662f8f146107645780637abd25d11461078f5780637fa638c8146107ad5780638456cb59146107d8576102e4565b806336568abe1161024f57806358ef67471161020857806364224120116101e257806364224120146106525780636e02007d1461068f57806370a08231146106ba578063715018a6146106f7576102e4565b806358ef6747146105c15780635c975abb146105ea5780636352211e14610615576102e4565b806336568abe146104d95780633af32abf146105025780633ca632621461053f5780633ccfd60b1461056a5780633f4ba83a1461058157806342842e0e14610598576102e4565b806323b872dd116102a157806323b872dd1461040b578063248a9ca31461043457806326092b83146104715780632d3df31f1461047b5780632f2ff15d146104855780633651f5e4146104ae576102e4565b806301ffc9a7146102e957806306fdde0314610326578063081812fc14610351578063095ea7b31461038e5780630b21a83b146103b75780631fe543e3146103e2575b600080fd5b3480156102f557600080fd5b50610310600480360381019061030b91906136dc565b610bad565b60405161031d9190613724565b60405180910390f35b34801561033257600080fd5b5061033b610bbf565b60405161034891906137d8565b60405180910390f35b34801561035d57600080fd5b5061037860048036038101906103739190613830565b610c51565b604051610385919061389e565b60405180910390f35b34801561039a57600080fd5b506103b560048036038101906103b091906138e5565b610c97565b005b3480156103c357600080fd5b506103cc610dae565b6040516103d99190613934565b60405180910390f35b3480156103ee57600080fd5b5061040960048036038101906104049190613a97565b610db4565b005b34801561041757600080fd5b50610432600480360381019061042d9190613af3565b610e74565b005b34801561044057600080fd5b5061045b60048036038101906104569190613b7c565b610ed4565b6040516104689190613bb8565b60405180910390f35b610479610ef3565b005b610483610f8b565b005b34801561049157600080fd5b506104ac60048036038101906104a79190613bd3565b611025565b005b3480156104ba57600080fd5b506104c3611046565b6040516104d09190613934565b60405180910390f35b3480156104e557600080fd5b5061050060048036038101906104fb9190613bd3565b61104c565b005b34801561050e57600080fd5b5061052960048036038101906105249190613c13565b6110cf565b6040516105369190613724565b60405180910390f35b34801561054b57600080fd5b50610554611125565b6040516105619190613ceb565b60405180910390f35b34801561057657600080fd5b5061057f611151565b005b34801561058d57600080fd5b50610596611205565b005b3480156105a457600080fd5b506105bf60048036038101906105ba9190613af3565b61123a565b005b3480156105cd57600080fd5b506105e860048036038101906105e39190613c13565b61125a565b005b3480156105f657600080fd5b506105ff6113b0565b60405161060c9190613724565b60405180910390f35b34801561062157600080fd5b5061063c60048036038101906106379190613830565b6113c7565b604051610649919061389e565b60405180910390f35b34801561065e57600080fd5b5061067960048036038101906106749190613830565b611478565b60405161068691906137d8565b60405180910390f35b34801561069b57600080fd5b506106a4611528565b6040516106b19190613934565b60405180910390f35b3480156106c657600080fd5b506106e160048036038101906106dc9190613c13565b611532565b6040516106ee9190613934565b60405180910390f35b34801561070357600080fd5b5061070c6115e9565b005b34801561071a57600080fd5b506107236115fd565b6040516107309190613934565b60405180910390f35b34801561074557600080fd5b5061074e611603565b60405161075b9190613934565b60405180910390f35b34801561077057600080fd5b5061077961160d565b6040516107869190613934565b60405180910390f35b610797611617565b6040516107a49190613934565b60405180910390f35b3480156107b957600080fd5b506107c26117ea565b6040516107cf9190613934565b60405180910390f35b3480156107e457600080fd5b506107ed6117f0565b005b3480156107fb57600080fd5b5061081660048036038101906108119190613c13565b611825565b005b34801561082457600080fd5b5061082d611934565b60405161083a919061389e565b60405180910390f35b34801561084f57600080fd5b5061085861195e565b6040516108659190613934565b60405180910390f35b34801561087a57600080fd5b5061089560048036038101906108909190613bd3565b611968565b6040516108a29190613724565b60405180910390f35b3480156108b757600080fd5b506108d260048036038101906108cd9190613c13565b6119d2565b6040516108df9190613724565b60405180910390f35b3480156108f457600080fd5b506108fd611a2d565b60405161090a91906137d8565b60405180910390f35b34801561091f57600080fd5b50610928611abf565b6040516109359190613bb8565b60405180910390f35b34801561094a57600080fd5b5061096560048036038101906109609190613d32565b611ac6565b005b34801561097357600080fd5b5061098e60048036038101906109899190613830565b611adc565b60405161099b919061389e565b60405180910390f35b3480156109b057600080fd5b506109cb60048036038101906109c69190613e27565b611b0f565b005b3480156109d957600080fd5b506109e2611b71565b6040516109ef9190613934565b60405180910390f35b348015610a0457600080fd5b50610a0d611b77565b604051610a1a9190613934565b60405180910390f35b348015610a2f57600080fd5b50610a4a6004803603810190610a459190613830565b611b7d565b604051610a5791906137d8565b60405180910390f35b348015610a6c57600080fd5b50610a75611c8f565b604051610a829190613bb8565b60405180910390f35b348015610a9757600080fd5b50610ab26004803603810190610aad9190613bd3565b611cb3565b005b348015610ac057600080fd5b50610ac9611cd4565b604051610ad69190613bb8565b60405180910390f35b348015610aeb57600080fd5b50610b066004803603810190610b019190613eaa565b611cf8565b604051610b139190613724565b60405180910390f35b348015610b2857600080fd5b50610b31611d8c565b604051610b3e9190613724565b60405180910390f35b348015610b5357600080fd5b50610b6e6004803603810190610b699190613c13565b611da3565b005b348015610b7c57600080fd5b50610b976004803603810190610b929190613830565b611e26565b604051610ba49190613f61565b60405180910390f35b6000610bb882611efd565b9050919050565b606060018054610bce90613fab565b80601f0160208091040260200160405190810160405280929190818152602001828054610bfa90613fab565b8015610c475780601f10610c1c57610100808354040283529160200191610c47565b820191906000526020600020905b815481529060010190602001808311610c2a57829003601f168201915b5050505050905090565b6000610c5c82611fdf565b6005600083815260200190815260200160002060009054906101000a900473ffffffffffffffffffffffffffffffffffffffff169050919050565b6000610ca2826113c7565b90508073ffffffffffffffffffffffffffffffffffffffff168373ffffffffffffffffffffffffffffffffffffffff1603610d12576040517f08c379a0000000000000000000000000000000000000000000000000000000008152600401610d099061404e565b60405180910390fd5b8073ffffffffffffffffffffffffffffffffffffffff16610d3161202a565b73ffffffffffffffffffffffffffffffffffffffff161480610d605750610d5f81610d5a61202a565b611cf8565b5b610d9f576040517f08c379a0000000000000000000000000000000000000000000000000000000008152600401610d96906140e0565b60405180910390fd5b610da98383612032565b505050565b60115481565b7f000000000000000000000000000000000000000000000000000000000000000073ffffffffffffffffffffffffffffffffffffffff163373ffffffffffffffffffffffffffffffffffffffff1614610e6657337f00000000000000000000000000000000000000000000000000000000000000006040517f1cf993f4000000000000000000000000000000000000000000000000000000008152600401610e5d929190614100565b60405180910390fd5b610e7082826120eb565b5050565b610e85610e7f61202a565b82612286565b610ec4576040517f08c379a0000000000000000000000000000000000000000000000000000000008152600401610ebb9061419b565b60405180910390fd5b610ecf83838361231b565b505050565b6000806000838152602001908152602001600020600101549050919050565b600f54600d541115610f3a576040517f08c379a0000000000000000000000000000000000000000000000000000000008152600401610f3190614207565b60405180910390fd5b600f54600e5411610f80576040517f08c379a0000000000000000000000000000000000000000000000000000000008152600401610f7790614299565b60405180910390fd5b610f88611617565b50565b600f54600e541115610fd2576040517f08c379a0000000000000000000000000000000000000000000000000000000008152600401610fc990614305565b60405180910390fd5b610fdb336110cf565b61101a576040517f08c379a000000000000000000000000000000000000000000000000000000000815260040161101190614371565b60405180910390fd5b611022611617565b50565b61102e82610ed4565b61103781612581565b6110418383612595565b505050565b600f5481565b61105461202a565b73ffffffffffffffffffffffffffffffffffffffff168173ffffffffffffffffffffffffffffffffffffffff16146110c1576040517f08c379a00000000000000000000000000000000000000000000000000000000081526004016110b890614403565b60405180910390fd5b6110cb8282612675565b5050565b6000600c60008373ffffffffffffffffffffffffffffffffffffffff1673ffffffffffffffffffffffffffffffffffffffff16815260200190815260200160002060009054906101000a900460ff169050919050565b61112d61364e565b6040518060600160405280600a8152602001606481526020016103e8815250905090565b611159612756565b600047905060003373ffffffffffffffffffffffffffffffffffffffff168260405161118490614454565b60006040518083038185875af1925050503d80600081146111c1576040519150601f19603f3d011682016040523d82523d6000602084013e6111c6565b606091505b5050905080611201576040517f0ae9055500000000000000000000000000000000000000000000000000000000815260040160405180910390fd5b5050565b7f65d7a28e3265b37a6474929f336521b332c1681b933f6cb9f3376673440d862a61122f81612581565b6112376127d4565b50565b61125583838360405180602001604052806000815250611b0f565b505050565b6000801b61126781612581565b600c60008373ffffffffffffffffffffffffffffffffffffffff1673ffffffffffffffffffffffffffffffffffffffff16815260200190815260200160002060009054906101000a900460ff16156112f4576040517f08c379a00000000000000000000000000000000000000000000000000000000081526004016112eb906144b5565b60405180910390fd5b600a54600b541061133a576040517f08c379a000000000000000000000000000000000000000000000000000000000815260040161133190614521565b60405180910390fd5b6001600c60008473ffffffffffffffffffffffffffffffffffffffff1673ffffffffffffffffffffffffffffffffffffffff16815260200190815260200160002060006101000a81548160ff0219169083151502179055506001600b60008282546113a59190614570565b925050819055505050565b6000600860149054906101000a900460ff16905090565b6000806003600084815260200190815260200160002060009054906101000a900473ffffffffffffffffffffffffffffffffffffffff169050600073ffffffffffffffffffffffffffffffffffffffff168173ffffffffffffffffffffffffffffffffffffffff160361146f576040517f08c379a000000000000000000000000000000000000000000000000000000000815260040161146690614612565b60405180910390fd5b80915050919050565b60606013828154811061148e5761148d614632565b5b9060005260206000200180546114a390613fab565b80601f01602080910402602001604051908101604052809291908181526020018280546114cf90613fab565b801561151c5780601f106114f15761010080835404028352916020019161151c565b820191906000526020600020905b8154815290600101906020018083116114ff57829003601f168201915b50505050509050919050565b6000601154905090565b60008073ffffffffffffffffffffffffffffffffffffffff168273ffffffffffffffffffffffffffffffffffffffff16036115a2576040517f08c379a0000000000000000000000000000000000000000000000000000000008152600401611599906146d3565b60405180910390fd5b600460008373ffffffffffffffffffffffffffffffffffffffff1673ffffffffffffffffffffffffffffffffffffffff168152602001908152602001600020549050919050565b6115f1612756565b6115fb6000612837565b565b600b5481565b6000601054905090565b6000600b54905090565b6000601054341015611655576040517f15c6de4100000000000000000000000000000000000000000000000000000000815260040160405180910390fd5b7f000000000000000000000000000000000000000000000000000000000000000073ffffffffffffffffffffffffffffffffffffffff16635d3b1d307f00000000000000000000000000000000000000000000000000000000000000007f000000000000000000000000000000000000000000000000000000000000000060037f000000000000000000000000000000000000000000000000000000000000000060016040518663ffffffff1660e01b8152600401611718959493929190614752565b6020604051808303816000875af1158015611737573d6000803e3d6000fd5b505050506040513d601f19601f8201168201806040525081019061175b91906147ba565b9050336015600083815260200190815260200160002060006101000a81548173ffffffffffffffffffffffffffffffffffffffff021916908373ffffffffffffffffffffffffffffffffffffffff160217905550807f4e1c2f1eae56e29ec039a2b882eec626e6c420ed5a5b93a203c8b8b695e911b1336040516117df919061389e565b60405180910390a290565b600d5481565b7f65d7a28e3265b37a6474929f336521b332c1681b933f6cb9f3376673440d862a61181a81612581565b6118226128fd565b50565b6000801b61183281612581565b600c60008373ffffffffffffffffffffffffffffffffffffffff1673ffffffffffffffffffffffffffffffffffffffff16815260200190815260200160002060009054906101000a900460ff166118be576040517f08c379a00000000000000000000000000000000000000000000000000000000081526004016118b590614833565b60405180910390fd5b6000600c60008473ffffffffffffffffffffffffffffffffffffffff1673ffffffffffffffffffffffffffffffffffffffff16815260200190815260200160002060006101000a81548160ff0219169083151502179055506001600b60008282546119299190614853565b925050819055505050565b6000600860009054906101000a900473ffffffffffffffffffffffffffffffffffffffff16905090565b6000600a54905090565b600080600084815260200190815260200160002060000160008373ffffffffffffffffffffffffffffffffffffffff1673ffffffffffffffffffffffffffffffffffffffff16815260200190815260200160002060009054906101000a900460ff16905092915050565b600080600c60008473ffffffffffffffffffffffffffffffffffffffff1673ffffffffffffffffffffffffffffffffffffffff16815260200190815260200160002060009054906101000a900460ff16905080915050919050565b606060028054611a3c90613fab565b80601f0160208091040260200160405190810160405280929190818152602001828054611a6890613fab565b8015611ab55780601f10611a8a57610100808354040283529160200191611ab5565b820191906000526020600020905b815481529060010190602001808311611a9857829003601f168201915b5050505050905090565b6000801b81565b611ad8611ad161202a565b8383612960565b5050565b60156020528060005260406000206000915054906101000a900473ffffffffffffffffffffffffffffffffffffffff1681565b611b20611b1a61202a565b83612286565b611b5f576040517f08c379a0000000000000000000000000000000000000000000000000000000008152600401611b569061419b565b60405180910390fd5b611b6b84848484612acc565b50505050565b600a5481565b600e5481565b6060611b8882611fdf565b6000600760008481526020019081526020016000208054611ba890613fab565b80601f0160208091040260200160405190810160405280929190818152602001828054611bd490613fab565b8015611c215780601f10611bf657610100808354040283529160200191611c21565b820191906000526020600020905b815481529060010190602001808311611c0457829003601f168201915b505050505090506000611c32612b28565b90506000815103611c47578192505050611c8a565b600082511115611c7c578082604051602001611c649291906148c3565b60405160208183030381529060405292505050611c8a565b611c8584612b3f565b925050505b919050565b7f9f2df0fed2c77648de5860a4cc508cd0818c85b8b8a1ab4ceeef8d981c8956a681565b611cbc82610ed4565b611cc581612581565b611ccf8383612675565b505050565b7f65d7a28e3265b37a6474929f336521b332c1681b933f6cb9f3376673440d862a81565b6000600660008473ffffffffffffffffffffffffffffffffffffffff1673ffffffffffffffffffffffffffffffffffffffff16815260200190815260200160002060008373ffffffffffffffffffffffffffffffffffffffff1673ffffffffffffffffffffffffffffffffffffffff16815260200190815260200160002060009054906101000a900460ff16905092915050565b6000601460009054906101000a900460ff16905090565b611dab612756565b600073ffffffffffffffffffffffffffffffffffffffff168173ffffffffffffffffffffffffffffffffffffffff1603611e1a576040517f08c379a0000000000000000000000000000000000000000000000000000000008152600401611e1190614959565b60405180910390fd5b611e2381612837565b50565b600080600090506000611e37611125565b905060005b6003811015611ec557828510158015611e765750818160038110611e6357611e62614632565b5b602002015183611e739190614570565b85105b15611e9857806002811115611e8e57611e8d613eea565b5b9350505050611ef8565b818160038110611eab57611eaa614632565b5b602002015192508080611ebd90614979565b915050611e3c565b506040517f1a47b41b00000000000000000000000000000000000000000000000000000000815260040160405180910390fd5b919050565b60007f80ac58cd000000000000000000000000000000000000000000000000000000007bffffffffffffffffffffffffffffffffffffffffffffffffffffffff1916827bffffffffffffffffffffffffffffffffffffffffffffffffffffffff19161480611fc857507f5b5e139f000000000000000000000000000000000000000000000000000000007bffffffffffffffffffffffffffffffffffffffffffffffffffffffff1916827bffffffffffffffffffffffffffffffffffffffffffffffffffffffff1916145b80611fd85750611fd782612ba7565b5b9050919050565b611fe881612c21565b612027576040517f08c379a000000000000000000000000000000000000000000000000000000000815260040161201e90614612565b60405180910390fd5b50565b600033905090565b816005600083815260200190815260200160002060006101000a81548173ffffffffffffffffffffffffffffffffffffffff021916908373ffffffffffffffffffffffffffffffffffffffff160217905550808273ffffffffffffffffffffffffffffffffffffffff166120a5836113c7565b73ffffffffffffffffffffffffffffffffffffffff167f8c5be1e5ebec7d5bd14f71427d1e84f3dd0314c0f7b2291e5b200ac8c7c3b92560405160405180910390a45050565b60006015600084815260200190815260200160002060009054906101000a900473ffffffffffffffffffffffffffffffffffffffff1690506000601154905060016011546121399190614570565b60118190555060006103e88460008151811061215857612157614632565b5b602002602001015161216a91906149f0565b9050600061217782611e26565b90506121838484612c8d565b61224583601383600281111561219c5761219b613eea565b5b815481106121ad576121ac614632565b5b9060005260206000200180546121c290613fab565b80601f01602080910402602001604051908101604052809291908181526020018280546121ee90613fab565b801561223b5780601f106122105761010080835404028352916020019161223b565b820191906000526020600020905b81548152906001019060200180831161221e57829003601f168201915b5050505050612cab565b7fab79897476febbd649710b1bd1dc3e93a316d3dee65f65b022ab89a4b7e206b58185604051612276929190614a21565b60405180910390a1505050505050565b600080612292836113c7565b90508073ffffffffffffffffffffffffffffffffffffffff168473ffffffffffffffffffffffffffffffffffffffff1614806122d457506122d38185611cf8565b5b8061231257508373ffffffffffffffffffffffffffffffffffffffff166122fa84610c51565b73ffffffffffffffffffffffffffffffffffffffff16145b91505092915050565b8273ffffffffffffffffffffffffffffffffffffffff1661233b826113c7565b73ffffffffffffffffffffffffffffffffffffffff1614612391576040517f08c379a000000000000000000000000000000000000000000000000000000000815260040161238890614abc565b60405180910390fd5b600073ffffffffffffffffffffffffffffffffffffffff168273ffffffffffffffffffffffffffffffffffffffff1603612400576040517f08c379a00000000000000000000000000000000000000000000000000000000081526004016123f790614b4e565b60405180910390fd5b61240b838383612d18565b612416600082612032565b6001600460008573ffffffffffffffffffffffffffffffffffffffff1673ffffffffffffffffffffffffffffffffffffffff16815260200190815260200160002060008282546124669190614853565b925050819055506001600460008473ffffffffffffffffffffffffffffffffffffffff1673ffffffffffffffffffffffffffffffffffffffff16815260200190815260200160002060008282546124bd9190614570565b92505081905550816003600083815260200190815260200160002060006101000a81548173ffffffffffffffffffffffffffffffffffffffff021916908373ffffffffffffffffffffffffffffffffffffffff160217905550808273ffffffffffffffffffffffffffffffffffffffff168473ffffffffffffffffffffffffffffffffffffffff167fddf252ad1be2c89b69c2b068fc378daa952ba7f163c4a11628f55a4df523b3ef60405160405180910390a461257c838383612d30565b505050565b6125928161258d61202a565b612d35565b50565b61259f8282611968565b61267157600160008084815260200190815260200160002060000160008373ffffffffffffffffffffffffffffffffffffffff1673ffffffffffffffffffffffffffffffffffffffff16815260200190815260200160002060006101000a81548160ff02191690831515021790555061261661202a565b73ffffffffffffffffffffffffffffffffffffffff168173ffffffffffffffffffffffffffffffffffffffff16837f2f8788117e7eff1d82e926ec794901d17c78024a50270940304540a733656f0d60405160405180910390a45b5050565b61267f8282611968565b1561275257600080600084815260200190815260200160002060000160008373ffffffffffffffffffffffffffffffffffffffff1673ffffffffffffffffffffffffffffffffffffffff16815260200190815260200160002060006101000a81548160ff0219169083151502179055506126f761202a565b73ffffffffffffffffffffffffffffffffffffffff168173ffffffffffffffffffffffffffffffffffffffff16837ff6391f5c32d9c69d2a47ea670b442974b53935d1edc7fd64eb21e047a839171b60405160405180910390a45b5050565b61275e61202a565b73ffffffffffffffffffffffffffffffffffffffff1661277c611934565b73ffffffffffffffffffffffffffffffffffffffff16146127d2576040517f08c379a00000000000000000000000000000000000000000000000000000000081526004016127c990614bba565b60405180910390fd5b565b6127dc612dd2565b6000600860146101000a81548160ff0219169083151502179055507f5db9ee0a495bf2e6ff9c91a7834c1ba4fdd244a5e8aa4e537bd38aeae4b073aa61282061202a565b60405161282d919061389e565b60405180910390a1565b6000600860009054906101000a900473ffffffffffffffffffffffffffffffffffffffff16905081600860006101000a81548173ffffffffffffffffffffffffffffffffffffffff021916908373ffffffffffffffffffffffffffffffffffffffff1602179055508173ffffffffffffffffffffffffffffffffffffffff168173ffffffffffffffffffffffffffffffffffffffff167f8be0079c531659141344cd1fd0a4f28419497f9722a3daafe3b4186f6b6457e060405160405180910390a35050565b612905612e1b565b6001600860146101000a81548160ff0219169083151502179055507f62e78cea01bee320cd4e420270b5ea74000d11b0c9f74754ebdbfc544b05a25861294961202a565b604051612956919061389e565b60405180910390a1565b8173ffffffffffffffffffffffffffffffffffffffff168373ffffffffffffffffffffffffffffffffffffffff16036129ce576040517f08c379a00000000000000000000000000000000000000000000000000000000081526004016129c590614c26565b60405180910390fd5b80600660008573ffffffffffffffffffffffffffffffffffffffff1673ffffffffffffffffffffffffffffffffffffffff16815260200190815260200160002060008473ffffffffffffffffffffffffffffffffffffffff1673ffffffffffffffffffffffffffffffffffffffff16815260200190815260200160002060006101000a81548160ff0219169083151502179055508173ffffffffffffffffffffffffffffffffffffffff168373ffffffffffffffffffffffffffffffffffffffff167f17307eab39ab6107e8899845ad3d59bd9653f200f220920489ca2b5937696c3183604051612abf9190613724565b60405180910390a3505050565b612ad784848461231b565b612ae384848484612e65565b612b22576040517f08c379a0000000000000000000000000000000000000000000000000000000008152600401612b1990614cb8565b60405180910390fd5b50505050565b606060405180602001604052806000815250905090565b6060612b4a82611fdf565b6000612b54612b28565b90506000815111612b745760405180602001604052806000815250612b9f565b80612b7e84612fec565b604051602001612b8f9291906148c3565b6040516020818303038152906040525b915050919050565b60007f7965db0b000000000000000000000000000000000000000000000000000000007bffffffffffffffffffffffffffffffffffffffffffffffffffffffff1916827bffffffffffffffffffffffffffffffffffffffffffffffffffffffff19161480612c1a5750612c198261314c565b5b9050919050565b60008073ffffffffffffffffffffffffffffffffffffffff166003600084815260200190815260200160002060009054906101000a900473ffffffffffffffffffffffffffffffffffffffff1673ffffffffffffffffffffffffffffffffffffffff1614159050919050565b612ca78282604051806020016040528060008152506131b6565b5050565b612cb482612c21565b612cf3576040517f08c379a0000000000000000000000000000000000000000000000000000000008152600401612cea90614d4a565b60405180910390fd5b80600760008481526020019081526020016000209081612d139190614f16565b505050565b612d20612e1b565b612d2b838383613211565b505050565b505050565b612d3f8282611968565b612dce57612d648173ffffffffffffffffffffffffffffffffffffffff166014613216565b612d728360001c6020613216565b604051602001612d83929190615080565b6040516020818303038152906040526040517f08c379a0000000000000000000000000000000000000000000000000000000008152600401612dc591906137d8565b60405180910390fd5b5050565b612dda6113b0565b612e19576040517f08c379a0000000000000000000000000000000000000000000000000000000008152600401612e1090615106565b60405180910390fd5b565b612e236113b0565b15612e63576040517f08c379a0000000000000000000000000000000000000000000000000000000008152600401612e5a90615172565b60405180910390fd5b565b6000612e868473ffffffffffffffffffffffffffffffffffffffff16613452565b15612fdf578373ffffffffffffffffffffffffffffffffffffffff1663150b7a02612eaf61202a565b8786866040518563ffffffff1660e01b8152600401612ed194939291906151e7565b6020604051808303816000875af1925050508015612f0d57506040513d601f19601f82011682018060405250810190612f0a9190615248565b60015b612f8f573d8060008114612f3d576040519150601f19603f3d011682016040523d82523d6000602084013e612f42565b606091505b506000815103612f87576040517f08c379a0000000000000000000000000000000000000000000000000000000008152600401612f7e90614cb8565b60405180910390fd5b805181602001fd5b63150b7a0260e01b7bffffffffffffffffffffffffffffffffffffffffffffffffffffffff1916817bffffffffffffffffffffffffffffffffffffffffffffffffffffffff191614915050612fe4565b600190505b949350505050565b606060008203613033576040518060400160405280600181526020017f30000000000000000000000000000000000000000000000000000000000000008152509050613147565b600082905060005b6000821461306557808061304e90614979565b915050600a8261305e9190615275565b915061303b565b60008167ffffffffffffffff81111561308157613080613954565b5b6040519080825280601f01601f1916602001820160405280156130b35781602001600182028036833780820191505090505b5090505b60008514613140576001826130cc9190614853565b9150600a856130db91906149f0565b60306130e79190614570565b60f81b8183815181106130fd576130fc614632565b5b60200101907effffffffffffffffffffffffffffffffffffffffffffffffffffffffffffff1916908160001a905350600a856131399190615275565b94506130b7565b8093505050505b919050565b60007f01ffc9a7000000000000000000000000000000000000000000000000000000007bffffffffffffffffffffffffffffffffffffffffffffffffffffffff1916827bffffffffffffffffffffffffffffffffffffffffffffffffffffffff1916149050919050565b6131c08383613475565b6131cd6000848484612e65565b61320c576040517f08c379a000000000000000000000000000000000000000000000000000000000815260040161320390614cb8565b60405180910390fd5b505050565b505050565b60606000600283600261322991906152a6565b6132339190614570565b67ffffffffffffffff81111561324c5761324b613954565b5b6040519080825280601f01601f19166020018201604052801561327e5781602001600182028036833780820191505090505b5090507f3000000000000000000000000000000000000000000000000000000000000000816000815181106132b6576132b5614632565b5b60200101907effffffffffffffffffffffffffffffffffffffffffffffffffffffffffffff1916908160001a9053507f78000000000000000000000000000000000000000000000000000000000000008160018151811061331a57613319614632565b5b60200101907effffffffffffffffffffffffffffffffffffffffffffffffffffffffffffff1916908160001a9053506000600184600261335a91906152a6565b6133649190614570565b90505b6001811115613404577f3031323334353637383961626364656600000000000000000000000000000000600f8616601081106133a6576133a5614632565b5b1a60f81b8282815181106133bd576133bc614632565b5b60200101907effffffffffffffffffffffffffffffffffffffffffffffffffffffffffffff1916908160001a905350600485901c9450806133fd90615300565b9050613367565b5060008414613448576040517f08c379a000000000000000000000000000000000000000000000000000000000815260040161343f90615375565b60405180910390fd5b8091505092915050565b6000808273ffffffffffffffffffffffffffffffffffffffff163b119050919050565b600073ffffffffffffffffffffffffffffffffffffffff168273ffffffffffffffffffffffffffffffffffffffff16036134e4576040517f08c379a00000000000000000000000000000000000000000000000000000000081526004016134db906153e1565b60405180910390fd5b6134ed81612c21565b1561352d576040517f08c379a00000000000000000000000000000000000000000000000000000000081526004016135249061544d565b60405180910390fd5b61353960008383612d18565b6001600460008473ffffffffffffffffffffffffffffffffffffffff1673ffffffffffffffffffffffffffffffffffffffff16815260200190815260200160002060008282546135899190614570565b92505081905550816003600083815260200190815260200160002060006101000a81548173ffffffffffffffffffffffffffffffffffffffff021916908373ffffffffffffffffffffffffffffffffffffffff160217905550808273ffffffffffffffffffffffffffffffffffffffff16600073ffffffffffffffffffffffffffffffffffffffff167fddf252ad1be2c89b69c2b068fc378daa952ba7f163c4a11628f55a4df523b3ef60405160405180910390a461364a60008383612d30565b5050565b6040518060600160405280600390602082028036833780820191505090505090565b6000604051905090565b600080fd5b600080fd5b60007fffffffff0000000000000000000000000000000000000000000000000000000082169050919050565b6136b981613684565b81146136c457600080fd5b50565b6000813590506136d6816136b0565b92915050565b6000602082840312156136f2576136f161367a565b5b6000613700848285016136c7565b91505092915050565b60008115159050919050565b61371e81613709565b82525050565b60006020820190506137396000830184613715565b92915050565b600081519050919050565b600082825260208201905092915050565b60005b8381101561377957808201518184015260208101905061375e565b83811115613788576000848401525b50505050565b6000601f19601f8301169050919050565b60006137aa8261373f565b6137b4818561374a565b93506137c481856020860161375b565b6137cd8161378e565b840191505092915050565b600060208201905081810360008301526137f2818461379f565b905092915050565b6000819050919050565b61380d816137fa565b811461381857600080fd5b50565b60008135905061382a81613804565b92915050565b6000602082840312156138465761384561367a565b5b60006138548482850161381b565b91505092915050565b600073ffffffffffffffffffffffffffffffffffffffff82169050919050565b60006138888261385d565b9050919050565b6138988161387d565b82525050565b60006020820190506138b3600083018461388f565b92915050565b6138c28161387d565b81146138cd57600080fd5b50565b6000813590506138df816138b9565b92915050565b600080604083850312156138fc576138fb61367a565b5b600061390a858286016138d0565b925050602061391b8582860161381b565b9150509250929050565b61392e816137fa565b82525050565b60006020820190506139496000830184613925565b92915050565b600080fd5b7f4e487b7100000000000000000000000000000000000000000000000000000000600052604160045260246000fd5b61398c8261378e565b810181811067ffffffffffffffff821117156139ab576139aa613954565b5b80604052505050565b60006139be613670565b90506139ca8282613983565b919050565b600067ffffffffffffffff8211156139ea576139e9613954565b5b602082029050602081019050919050565b600080fd5b6000613a13613a0e846139cf565b6139b4565b90508083825260208201905060208402830185811115613a3657613a356139fb565b5b835b81811015613a5f5780613a4b888261381b565b845260208401935050602081019050613a38565b5050509392505050565b600082601f830112613a7e57613a7d61394f565b5b8135613a8e848260208601613a00565b91505092915050565b60008060408385031215613aae57613aad61367a565b5b6000613abc8582860161381b565b925050602083013567ffffffffffffffff811115613add57613adc61367f565b5b613ae985828601613a69565b9150509250929050565b600080600060608486031215613b0c57613b0b61367a565b5b6000613b1a868287016138d0565b9350506020613b2b868287016138d0565b9250506040613b3c8682870161381b565b9150509250925092565b6000819050919050565b613b5981613b46565b8114613b6457600080fd5b50565b600081359050613b7681613b50565b92915050565b600060208284031215613b9257613b9161367a565b5b6000613ba084828501613b67565b91505092915050565b613bb281613b46565b82525050565b6000602082019050613bcd6000830184613ba9565b92915050565b60008060408385031215613bea57613be961367a565b5b6000613bf885828601613b67565b9250506020613c09858286016138d0565b9150509250929050565b600060208284031215613c2957613c2861367a565b5b6000613c37848285016138d0565b91505092915050565b600060039050919050565b600081905092915050565b6000819050919050565b613c69816137fa565b82525050565b6000613c7b8383613c60565b60208301905092915050565b6000602082019050919050565b613c9d81613c40565b613ca78184613c4b565b9250613cb282613c56565b8060005b83811015613ce3578151613cca8782613c6f565b9650613cd583613c87565b925050600181019050613cb6565b505050505050565b6000606082019050613d006000830184613c94565b92915050565b613d0f81613709565b8114613d1a57600080fd5b50565b600081359050613d2c81613d06565b92915050565b60008060408385031215613d4957613d4861367a565b5b6000613d57858286016138d0565b9250506020613d6885828601613d1d565b9150509250929050565b600080fd5b600067ffffffffffffffff821115613d9257613d91613954565b5b613d9b8261378e565b9050602081019050919050565b82818337600083830152505050565b6000613dca613dc584613d77565b6139b4565b905082815260208101848484011115613de657613de5613d72565b5b613df1848285613da8565b509392505050565b600082601f830112613e0e57613e0d61394f565b5b8135613e1e848260208601613db7565b91505092915050565b60008060008060808587031215613e4157613e4061367a565b5b6000613e4f878288016138d0565b9450506020613e60878288016138d0565b9350506040613e718782880161381b565b925050606085013567ffffffffffffffff811115613e9257613e9161367f565b5b613e9e87828801613df9565b91505092959194509250565b60008060408385031215613ec157613ec061367a565b5b6000613ecf858286016138d0565b9250506020613ee0858286016138d0565b9150509250929050565b7f4e487b7100000000000000000000000000000000000000000000000000000000600052602160045260246000fd5b60038110613f2a57613f29613eea565b5b50565b6000819050613f3b82613f19565b919050565b6000613f4b82613f2d565b9050919050565b613f5b81613f40565b82525050565b6000602082019050613f766000830184613f52565b92915050565b7f4e487b7100000000000000000000000000000000000000000000000000000000600052602260045260246000fd5b60006002820490506001821680613fc357607f821691505b602082108103613fd657613fd5613f7c565b5b50919050565b7f4552433732313a20617070726f76616c20746f2063757272656e74206f776e6560008201527f7200000000000000000000000000000000000000000000000000000000000000602082015250565b600061403860218361374a565b915061404382613fdc565b604082019050919050565b600060208201905081810360008301526140678161402b565b9050919050565b7f4552433732313a20617070726f76652063616c6c6572206973206e6f7420746f60008201527f6b656e206f776e6572206e6f7220617070726f76656420666f7220616c6c0000602082015250565b60006140ca603e8361374a565b91506140d58261406e565b604082019050919050565b600060208201905081810360008301526140f9816140bd565b9050919050565b6000604082019050614115600083018561388f565b614122602083018461388f565b9392505050565b7f4552433732313a2063616c6c6572206973206e6f7420746f6b656e206f776e6560008201527f72206e6f7220617070726f766564000000000000000000000000000000000000602082015250565b6000614185602e8361374a565b915061419082614129565b604082019050919050565b600060208201905081810360008301526141b481614178565b9050919050565b7f4e6f206d6f72652073746f636b2e000000000000000000000000000000000000600082015250565b60006141f1600e8361374a565b91506141fc826141bb565b602082019050919050565b60006020820190508181036000830152614220816141e4565b9050919050565b7f57686974656c697374206d696e74696e6720697320696e2070726f677265737360008201527f2e00000000000000000000000000000000000000000000000000000000000000602082015250565b600061428360218361374a565b915061428e82614227565b604082019050919050565b600060208201905081810360008301526142b281614276565b9050919050565b7f57686974656c697374206d61782e206c696d69742e0000000000000000000000600082015250565b60006142ef60158361374a565b91506142fa826142b9565b602082019050919050565b6000602082019050818103600083015261431e816142e2565b9050919050565b7f55736572206973206e6f742077686974656c69737465642e0000000000000000600082015250565b600061435b60188361374a565b915061436682614325565b602082019050919050565b6000602082019050818103600083015261438a8161434e565b9050919050565b7f416363657373436f6e74726f6c3a2063616e206f6e6c792072656e6f756e636560008201527f20726f6c657320666f722073656c660000000000000000000000000000000000602082015250565b60006143ed602f8361374a565b91506143f882614391565b604082019050919050565b6000602082019050818103600083015261441c816143e0565b9050919050565b600081905092915050565b50565b600061443e600083614423565b91506144498261442e565b600082019050919050565b600061445f82614431565b9150819050919050565b7f53656e64657220616c72656164792077686974656c69737465642e0000000000600082015250565b600061449f601b8361374a565b91506144aa82614469565b602082019050919050565b600060208201905081810360008301526144ce81614492565b9050919050565b7f4572726f723a2057686974656c697374206c696d69742065786365656465642e600082015250565b600061450b60208361374a565b9150614516826144d5565b602082019050919050565b6000602082019050818103600083015261453a816144fe565b9050919050565b7f4e487b7100000000000000000000000000000000000000000000000000000000600052601160045260246000fd5b600061457b826137fa565b9150614586836137fa565b9250827fffffffffffffffffffffffffffffffffffffffffffffffffffffffffffffffff038211156145bb576145ba614541565b5b828201905092915050565b7f4552433732313a20696e76616c696420746f6b656e2049440000000000000000600082015250565b60006145fc60188361374a565b9150614607826145c6565b602082019050919050565b6000602082019050818103600083015261462b816145ef565b9050919050565b7f4e487b7100000000000000000000000000000000000000000000000000000000600052603260045260246000fd5b7f4552433732313a2061646472657373207a65726f206973206e6f74206120766160008201527f6c6964206f776e65720000000000000000000000000000000000000000000000602082015250565b60006146bd60298361374a565b91506146c882614661565b604082019050919050565b600060208201905081810360008301526146ec816146b0565b9050919050565b600067ffffffffffffffff82169050919050565b614710816146f3565b82525050565b600061ffff82169050919050565b61472d81614716565b82525050565b600063ffffffff82169050919050565b61474c81614733565b82525050565b600060a0820190506147676000830188613ba9565b6147746020830187614707565b6147816040830186614724565b61478e6060830185614743565b61479b6080830184614743565b9695505050505050565b6000815190506147b481613804565b92915050565b6000602082840312156147d0576147cf61367a565b5b60006147de848285016147a5565b91505092915050565b7f53656e646572206973206e6f742077686974656c69737465642e6164646d6f64600082015250565b600061481d60208361374a565b9150614828826147e7565b602082019050919050565b6000602082019050818103600083015261484c81614810565b9050919050565b600061485e826137fa565b9150614869836137fa565b92508282101561487c5761487b614541565b5b828203905092915050565b600081905092915050565b600061489d8261373f565b6148a78185614887565b93506148b781856020860161375b565b80840191505092915050565b60006148cf8285614892565b91506148db8284614892565b91508190509392505050565b7f4f776e61626c653a206e6577206f776e657220697320746865207a65726f206160008201527f6464726573730000000000000000000000000000000000000000000000000000602082015250565b600061494360268361374a565b915061494e826148e7565b604082019050919050565b6000602082019050818103600083015261497281614936565b9050919050565b6000614984826137fa565b91507fffffffffffffffffffffffffffffffffffffffffffffffffffffffffffffffff82036149b6576149b5614541565b5b600182019050919050565b7f4e487b7100000000000000000000000000000000000000000000000000000000600052601260045260246000fd5b60006149fb826137fa565b9150614a06836137fa565b925082614a1657614a156149c1565b5b828206905092915050565b6000604082019050614a366000830185613f52565b614a43602083018461388f565b9392505050565b7f4552433732313a207472616e736665722066726f6d20696e636f72726563742060008201527f6f776e6572000000000000000000000000000000000000000000000000000000602082015250565b6000614aa660258361374a565b9150614ab182614a4a565b604082019050919050565b60006020820190508181036000830152614ad581614a99565b9050919050565b7f4552433732313a207472616e7366657220746f20746865207a65726f2061646460008201527f7265737300000000000000000000000000000000000000000000000000000000602082015250565b6000614b3860248361374a565b9150614b4382614adc565b604082019050919050565b60006020820190508181036000830152614b6781614b2b565b9050919050565b7f4f776e61626c653a2063616c6c6572206973206e6f7420746865206f776e6572600082015250565b6000614ba460208361374a565b9150614baf82614b6e565b602082019050919050565b60006020820190508181036000830152614bd381614b97565b9050919050565b7f4552433732313a20617070726f766520746f2063616c6c657200000000000000600082015250565b6000614c1060198361374a565b9150614c1b82614bda565b602082019050919050565b60006020820190508181036000830152614c3f81614c03565b9050919050565b7f4552433732313a207472616e7366657220746f206e6f6e20455243373231526560008201527f63656976657220696d706c656d656e7465720000000000000000000000000000602082015250565b6000614ca260328361374a565b9150614cad82614c46565b604082019050919050565b60006020820190508181036000830152614cd181614c95565b9050919050565b7f45524337323155524953746f726167653a2055524920736574206f66206e6f6e60008201527f6578697374656e7420746f6b656e000000000000000000000000000000000000602082015250565b6000614d34602e8361374a565b9150614d3f82614cd8565b604082019050919050565b60006020820190508181036000830152614d6381614d27565b9050919050565b60008190508160005260206000209050919050565b60006020601f8301049050919050565b600082821b905092915050565b600060088302614dcc7fffffffffffffffffffffffffffffffffffffffffffffffffffffffffffffffff82614d8f565b614dd68683614d8f565b95508019841693508086168417925050509392505050565b6000819050919050565b6000614e13614e0e614e09846137fa565b614dee565b6137fa565b9050919050565b6000819050919050565b614e2d83614df8565b614e41614e3982614e1a565b848454614d9c565b825550505050565b600090565b614e56614e49565b614e61818484614e24565b505050565b5b81811015614e8557614e7a600082614e4e565b600181019050614e67565b5050565b601f821115614eca57614e9b81614d6a565b614ea484614d7f565b81016020851015614eb3578190505b614ec7614ebf85614d7f565b830182614e66565b50505b505050565b600082821c905092915050565b6000614eed60001984600802614ecf565b1980831691505092915050565b6000614f068383614edc565b9150826002028217905092915050565b614f1f8261373f565b67ffffffffffffffff811115614f3857614f37613954565b5b614f428254613fab565b614f4d828285614e89565b600060209050601f831160018114614f805760008415614f6e578287015190505b614f788582614efa565b865550614fe0565b601f198416614f8e86614d6a565b60005b82811015614fb657848901518255600182019150602085019450602081019050614f91565b86831015614fd35784890151614fcf601f891682614edc565b8355505b6001600288020188555050505b505050505050565b7f416363657373436f6e74726f6c3a206163636f756e7420000000000000000000600082015250565b600061501e601783614887565b915061502982614fe8565b601782019050919050565b7f206973206d697373696e6720726f6c6520000000000000000000000000000000600082015250565b600061506a601183614887565b915061507582615034565b601182019050919050565b600061508b82615011565b91506150978285614892565b91506150a28261505d565b91506150ae8284614892565b91508190509392505050565b7f5061757361626c653a206e6f7420706175736564000000000000000000000000600082015250565b60006150f060148361374a565b91506150fb826150ba565b602082019050919050565b6000602082019050818103600083015261511f816150e3565b9050919050565b7f5061757361626c653a2070617573656400000000000000000000000000000000600082015250565b600061515c60108361374a565b915061516782615126565b602082019050919050565b6000602082019050818103600083015261518b8161514f565b9050919050565b600081519050919050565b600082825260208201905092915050565b60006151b982615192565b6151c3818561519d565b93506151d381856020860161375b565b6151dc8161378e565b840191505092915050565b60006080820190506151fc600083018761388f565b615209602083018661388f565b6152166040830185613925565b818103606083015261522881846151ae565b905095945050505050565b600081519050615242816136b0565b92915050565b60006020828403121561525e5761525d61367a565b5b600061526c84828501615233565b91505092915050565b6000615280826137fa565b915061528b836137fa565b92508261529b5761529a6149c1565b5b828204905092915050565b60006152b1826137fa565b91506152bc836137fa565b9250817fffffffffffffffffffffffffffffffffffffffffffffffffffffffffffffffff04831182151516156152f5576152f4614541565b5b828202905092915050565b600061530b826137fa565b91506000820361531e5761531d614541565b5b600182039050919050565b7f537472696e67733a20686578206c656e67746820696e73756666696369656e74600082015250565b600061535f60208361374a565b915061536a82615329565b602082019050919050565b6000602082019050818103600083015261538e81615352565b9050919050565b7f4552433732313a206d696e7420746f20746865207a65726f2061646472657373600082015250565b60006153cb60208361374a565b91506153d682615395565b602082019050919050565b600060208201905081810360008301526153fa816153be565b9050919050565b7f4552433732313a20746f6b656e20616c7265616479206d696e74656400000000600082015250565b6000615437601c8361374a565b915061544282615401565b602082019050919050565b600060208201905081810360008301526154668161542a565b905091905056fea26469706673582212202368b8379badb7fb5ccb564d4c45d939151ae4ddf7ddab98b14cd335b4dc07e964736f6c634300080f0033",
  "linkReferences": {},
  "deployedLinkReferences": {}
}