{
  "_format": "hh-sol-artifact-1",
  "contractName": "AbitoRandomNFTGenerator",
  "sourceName": "contracts/AbitoRandomNFTGenerator.sol",
  "abi": [
    {
      "inputs": [
        {
          "internalType": "uint256",
          "name": "_maxWhitelistedAddresses",
          "type": "uint256"
        },
        {
          "internalType": "uint256",
          "name": "_maxNFTLimit",
          "type": "uint256"
        },
        {
          "internalType": "uint256",
          "name": "_maxNFTLimitWhitelist",
          "type": "uint256"
        },
        {
          "internalType": "address",
          "name": "coordinator",
          "type": "address"
        },
        {
          "internalType": "uint64",
          "name": "subscriptionId",
          "type": "uint64"
        },
        {
          "internalType": "bytes32",
          "name": "gasLane",
          "type": "bytes32"
        },
        {
          "internalType": "uint32",
          "name": "callbackGasLimit",
          "type": "uint32"
        },
        {
          "internalType": "string[3]",
          "name": "tokenURIs",
          "type": "string[3]"
        },
        {
          "internalType": "uint256",
          "name": "mintFee",
          "type": "uint256"
        }
      ],
      "stateMutability": "nonpayable",
      "type": "constructor"
    },
    {
      "inputs": [],
      "name": "AbitoRandomNFTGenerator__AlreadyInitialized",
      "type": "error"
    },
    {
      "inputs": [],
      "name": "AbitoRandomNFTGenerator__NotEnoughETHSent",
      "type": "error"
    },
    {
      "inputs": [],
      "name": "AbitoRandomNFTGenerator__NotWhitelisted",
      "type": "error"
    },
    {
      "inputs": [],
      "name": "AbitoRandomNFTGenerator__RangeOutOfScope",
      "type": "error"
    },
    {
      "inputs": [],
      "name": "AbitoRandomNFTGenerator__TransferFailed",
      "type": "error"
    },
    {
      "inputs": [
        {
          "internalType": "address",
          "name": "have",
          "type": "address"
        },
        {
          "internalType": "address",
          "name": "want",
          "type": "address"
        }
      ],
      "name": "OnlyCoordinatorCanFulfill",
      "type": "error"
    },
    {
      "anonymous": false,
      "inputs": [
        {
          "indexed": true,
          "internalType": "address",
          "name": "owner",
          "type": "address"
        },
        {
          "indexed": true,
          "internalType": "address",
          "name": "approved",
          "type": "address"
        },
        {
          "indexed": true,
          "internalType": "uint256",
          "name": "tokenId",
          "type": "uint256"
        }
      ],
      "name": "Approval",
      "type": "event"
    },
    {
      "anonymous": false,
      "inputs": [
        {
          "indexed": true,
          "internalType": "address",
          "name": "owner",
          "type": "address"
        },
        {
          "indexed": true,
          "internalType": "address",
          "name": "operator",
          "type": "address"
        },
        {
          "indexed": false,
          "internalType": "bool",
          "name": "approved",
          "type": "bool"
        }
      ],
      "name": "ApprovalForAll",
      "type": "event"
    },
    {
      "anonymous": false,
      "inputs": [
        {
          "indexed": false,
          "internalType": "enum AbitoRandomNFTGenerator.Selection",
          "name": "selection",
          "type": "uint8"
        },
        {
          "indexed": false,
          "internalType": "address",
          "name": "minter",
          "type": "address"
        }
      ],
      "name": "NFTMinted",
      "type": "event"
    },
    {
      "anonymous": false,
      "inputs": [
        {
          "indexed": true,
          "internalType": "uint256",
          "name": "requestId",
          "type": "uint256"
        },
        {
          "indexed": false,
          "internalType": "address",
          "name": "requester",
          "type": "address"
        }
      ],
      "name": "NFTRequested",
      "type": "event"
    },
    {
      "anonymous": false,
      "inputs": [
        {
          "indexed": true,
          "internalType": "address",
          "name": "previousOwner",
          "type": "address"
        },
        {
          "indexed": true,
          "internalType": "address",
          "name": "newOwner",
          "type": "address"
        }
      ],
      "name": "OwnershipTransferred",
      "type": "event"
    },
    {
      "anonymous": false,
      "inputs": [
        {
          "indexed": false,
          "internalType": "address",
          "name": "account",
          "type": "address"
        }
      ],
      "name": "Paused",
      "type": "event"
    },
    {
      "anonymous": false,
      "inputs": [
        {
          "indexed": true,
          "internalType": "bytes32",
          "name": "role",
          "type": "bytes32"
        },
        {
          "indexed": true,
          "internalType": "bytes32",
          "name": "previousAdminRole",
          "type": "bytes32"
        },
        {
          "indexed": true,
          "internalType": "bytes32",
          "name": "newAdminRole",
          "type": "bytes32"
        }
      ],
      "name": "RoleAdminChanged",
      "type": "event"
    },
    {
      "anonymous": false,
      "inputs": [
        {
          "indexed": true,
          "internalType": "bytes32",
          "name": "role",
          "type": "bytes32"
        },
        {
          "indexed": true,
          "internalType": "address",
          "name": "account",
          "type": "address"
        },
        {
          "indexed": true,
          "internalType": "address",
          "name": "sender",
          "type": "address"
        }
      ],
      "name": "RoleGranted",
      "type": "event"
    },
    {
      "anonymous": false,
      "inputs": [
        {
          "indexed": true,
          "internalType": "bytes32",
          "name": "role",
          "type": "bytes32"
        },
        {
          "indexed": true,
          "internalType": "address",
          "name": "account",
          "type": "address"
        },
        {
          "indexed": true,
          "internalType": "address",
          "name": "sender",
          "type": "address"
        }
      ],
      "name": "RoleRevoked",
      "type": "event"
    },
    {
      "anonymous": false,
      "inputs": [
        {
          "indexed": true,
          "internalType": "address",
          "name": "from",
          "type": "address"
        },
        {
          "indexed": true,
          "internalType": "address",
          "name": "to",
          "type": "address"
        },
        {
          "indexed": true,
          "internalType": "uint256",
          "name": "tokenId",
          "type": "uint256"
        }
      ],
      "name": "Transfer",
      "type": "event"
    },
    {
      "anonymous": false,
      "inputs": [
        {
          "indexed": false,
          "internalType": "address",
          "name": "account",
          "type": "address"
        }
      ],
      "name": "Unpaused",
      "type": "event"
    },
    {
      "inputs": [],
      "name": "DEFAULT_ADMIN_ROLE",
      "outputs": [
        {
          "internalType": "bytes32",
          "name": "",
          "type": "bytes32"
        }
      ],
      "stateMutability": "view",
      "type": "function"
    },
    {
      "inputs": [],
      "name": "PAUSER_ROLE",
      "outputs": [
        {
          "internalType": "bytes32",
          "name": "",
          "type": "bytes32"
        }
      ],
      "stateMutability": "view",
      "type": "function"
    },
    {
      "inputs": [
        {
          "internalType": "address",
          "name": "_addressToWhitelist",
          "type": "address"
        }
      ],
      "name": "addUserAddressToWhitelist",
      "outputs": [],
      "stateMutability": "nonpayable",
      "type": "function"
    },
    {
      "inputs": [
        {
          "internalType": "address",
          "name": "to",
          "type": "address"
        },
        {
          "internalType": "uint256",
          "name": "tokenId",
          "type": "uint256"
        }
      ],
      "name": "approve",
      "outputs": [],
      "stateMutability": "nonpayable",
      "type": "function"
    },
    {
      "inputs": [
        {
          "internalType": "address",
          "name": "owner",
          "type": "address"
        }
      ],
      "name": "balanceOf",
      "outputs": [
        {
          "internalType": "uint256",
          "name": "",
          "type": "uint256"
        }
      ],
      "stateMutability": "view",
      "type": "function"
    },
    {
      "inputs": [
        {
          "internalType": "uint256",
          "name": "tokenId",
          "type": "uint256"
        }
      ],
      "name": "getApproved",
      "outputs": [
        {
          "internalType": "address",
          "name": "",
          "type": "address"
        }
      ],
      "stateMutability": "view",
      "type": "function"
    },
    {
      "inputs": [],
      "name": "getInitialized",
      "outputs": [
        {
          "internalType": "bool",
          "name": "",
          "type": "bool"
        }
      ],
      "stateMutability": "view",
      "type": "function"
    },
    {
      "inputs": [],
      "name": "getMaxNumberOfWhitelistedAddresses",
      "outputs": [
        {
          "internalType": "uint256",
          "name": "",
          "type": "uint256"
        }
      ],
      "stateMutability": "view",
      "type": "function"
    },
    {
      "inputs": [],
      "name": "getMintFee",
      "outputs": [
        {
          "internalType": "uint256",
          "name": "",
          "type": "uint256"
        }
      ],
      "stateMutability": "view",
      "type": "function"
    },
    {
      "inputs": [],
      "name": "getNumberOfWhitelistedAddresses",
      "outputs": [
        {
          "internalType": "uint256",
          "name": "",
          "type": "uint256"
        }
      ],
      "stateMutability": "view",
      "type": "function"
    },
    {
      "inputs": [
        {
          "internalType": "bytes32",
          "name": "role",
          "type": "bytes32"
        }
      ],
      "name": "getRoleAdmin",
      "outputs": [
        {
          "internalType": "bytes32",
          "name": "",
          "type": "bytes32"
        }
      ],
      "stateMutability": "view",
      "type": "function"
    },
    {
      "inputs": [],
      "name": "getTokenCounter",
      "outputs": [
        {
          "internalType": "uint256",
          "name": "",
          "type": "uint256"
        }
      ],
      "stateMutability": "view",
      "type": "function"
    },
    {
      "inputs": [
        {
          "internalType": "uint256",
          "name": "index",
          "type": "uint256"
        }
      ],
      "name": "getTokenURIs",
      "outputs": [
        {
          "internalType": "string",
          "name": "",
          "type": "string"
        }
      ],
      "stateMutability": "view",
      "type": "function"
    },
    {
      "inputs": [
        {
          "internalType": "bytes32",
          "name": "role",
          "type": "bytes32"
        },
        {
          "internalType": "address",
          "name": "account",
          "type": "address"
        }
      ],
      "name": "grantRole",
      "outputs": [],
      "stateMutability": "nonpayable",
      "type": "function"
    },
    {
      "inputs": [
        {
          "internalType": "bytes32",
          "name": "role",
          "type": "bytes32"
        },
        {
          "internalType": "address",
          "name": "account",
          "type": "address"
        }
      ],
      "name": "hasRole",
      "outputs": [
        {
          "internalType": "bool",
          "name": "",
          "type": "bool"
        }
      ],
      "stateMutability": "view",
      "type": "function"
    },
    {
      "inputs": [
        {
          "internalType": "address",
          "name": "owner",
          "type": "address"
        },
        {
          "internalType": "address",
          "name": "operator",
          "type": "address"
        }
      ],
      "name": "isApprovedForAll",
      "outputs": [
        {
          "internalType": "bool",
          "name": "",
          "type": "bool"
        }
      ],
      "stateMutability": "view",
      "type": "function"
    },
    {
      "inputs": [
        {
          "internalType": "address",
          "name": "_whitelistedAddress",
          "type": "address"
        }
      ],
      "name": "isWhitelisted",
      "outputs": [
        {
          "internalType": "bool",
          "name": "",
          "type": "bool"
        }
      ],
      "stateMutability": "view",
      "type": "function"
    },
    {
      "inputs": [],
      "name": "maxNFTLimit",
      "outputs": [
        {
          "internalType": "uint256",
          "name": "",
          "type": "uint256"
        }
      ],
      "stateMutability": "view",
      "type": "function"
    },
    {
      "inputs": [],
      "name": "maxNFTLimitWhitelist",
      "outputs": [
        {
          "internalType": "uint256",
          "name": "",
          "type": "uint256"
        }
      ],
      "stateMutability": "view",
      "type": "function"
    },
    {
      "inputs": [],
      "name": "maxNumberOfWhitelistedAddresses",
      "outputs": [
        {
          "internalType": "uint256",
          "name": "",
          "type": "uint256"
        }
      ],
      "stateMutability": "view",
      "type": "function"
    },
    {
      "inputs": [],
      "name": "mintedNFT",
      "outputs": [
        {
          "internalType": "uint256",
          "name": "",
          "type": "uint256"
        }
      ],
      "stateMutability": "view",
      "type": "function"
    },
    {
      "inputs": [],
      "name": "name",
      "outputs": [
        {
          "internalType": "string",
          "name": "",
          "type": "string"
        }
      ],
      "stateMutability": "view",
      "type": "function"
    },
    {
      "inputs": [],
      "name": "numberOfAddressesWhitelisted",
      "outputs": [
        {
          "internalType": "uint256",
          "name": "",
          "type": "uint256"
        }
      ],
      "stateMutability": "view",
      "type": "function"
    },
    {
      "inputs": [],
      "name": "owner",
      "outputs": [
        {
          "internalType": "address",
          "name": "",
          "type": "address"
        }
      ],
      "stateMutability": "view",
      "type": "function"
    },
    {
      "inputs": [
        {
          "internalType": "uint256",
          "name": "tokenId",
          "type": "uint256"
        }
      ],
      "name": "ownerOf",
      "outputs": [
        {
          "internalType": "address",
          "name": "",
          "type": "address"
        }
      ],
      "stateMutability": "view",
      "type": "function"
    },
    {
      "inputs": [],
      "name": "pause",
      "outputs": [],
      "stateMutability": "nonpayable",
      "type": "function"
    },
    {
      "inputs": [],
      "name": "paused",
      "outputs": [
        {
          "internalType": "bool",
          "name": "",
          "type": "bool"
        }
      ],
      "stateMutability": "view",
      "type": "function"
    },
    {
      "inputs": [],
      "name": "publicRequest",
      "outputs": [
        {
          "internalType": "uint256",
          "name": "requestId",
          "type": "uint256"
        }
      ],
      "stateMutability": "payable",
      "type": "function"
    },
    {
      "inputs": [
        {
          "internalType": "uint256",
          "name": "requestId",
          "type": "uint256"
        },
        {
          "internalType": "uint256[]",
          "name": "randomWords",
          "type": "uint256[]"
        }
      ],
      "name": "rawFulfillRandomWords",
      "outputs": [],
      "stateMutability": "nonpayable",
      "type": "function"
    },
    {
      "inputs": [
        {
          "internalType": "address",
          "name": "_addressToRemove",
          "type": "address"
        }
      ],
      "name": "removeUserAddressFromWhitelist",
      "outputs": [],
      "stateMutability": "nonpayable",
      "type": "function"
    },
    {
      "inputs": [],
      "name": "renounceOwnership",
      "outputs": [],
      "stateMutability": "nonpayable",
      "type": "function"
    },
    {
      "inputs": [
        {
          "internalType": "bytes32",
          "name": "role",
          "type": "bytes32"
        },
        {
          "internalType": "address",
          "name": "account",
          "type": "address"
        }
      ],
      "name": "renounceRole",
      "outputs": [],
      "stateMutability": "nonpayable",
      "type": "function"
    },
    {
      "inputs": [
        {
          "internalType": "bytes32",
          "name": "role",
          "type": "bytes32"
        },
        {
          "internalType": "address",
          "name": "account",
          "type": "address"
        }
      ],
      "name": "revokeRole",
      "outputs": [],
      "stateMutability": "nonpayable",
      "type": "function"
    },
    {
      "inputs": [
        {
          "internalType": "uint256",
          "name": "",
          "type": "uint256"
        }
      ],
      "name": "s_requestIdToSender",
      "outputs": [
        {
          "internalType": "address",
          "name": "",
          "type": "address"
        }
      ],
      "stateMutability": "view",
      "type": "function"
    },
    {
      "inputs": [],
      "name": "s_tokenCounter",
      "outputs": [
        {
          "internalType": "uint256",
          "name": "",
          "type": "uint256"
        }
      ],
      "stateMutability": "view",
      "type": "function"
    },
    {
      "inputs": [
        {
          "internalType": "address",
          "name": "from",
          "type": "address"
        },
        {
          "internalType": "address",
          "name": "to",
          "type": "address"
        },
        {
          "internalType": "uint256",
          "name": "tokenId",
          "type": "uint256"
        }
      ],
      "name": "safeTransferFrom",
      "outputs": [],
      "stateMutability": "nonpayable",
      "type": "function"
    },
    {
      "inputs": [
        {
          "internalType": "address",
          "name": "from",
          "type": "address"
        },
        {
          "internalType": "address",
          "name": "to",
          "type": "address"
        },
        {
          "internalType": "uint256",
          "name": "tokenId",
          "type": "uint256"
        },
        {
          "internalType": "bytes",
          "name": "data",
          "type": "bytes"
        }
      ],
      "name": "safeTransferFrom",
      "outputs": [],
      "stateMutability": "nonpayable",
      "type": "function"
    },
    {
      "inputs": [
        {
          "internalType": "uint256",
          "name": "moddedRNG",
          "type": "uint256"
        }
      ],
      "name": "selectionFromModdedRNG",
      "outputs": [
        {
          "internalType": "enum AbitoRandomNFTGenerator.Selection",
          "name": "",
          "type": "uint8"
        }
      ],
      "stateMutability": "pure",
      "type": "function"
    },
    {
      "inputs": [
        {
          "internalType": "address",
          "name": "operator",
          "type": "address"
        },
        {
          "internalType": "bool",
          "name": "approved",
          "type": "bool"
        }
      ],
      "name": "setApprovalForAll",
      "outputs": [],
      "stateMutability": "nonpayable",
      "type": "function"
    },
    {
      "inputs": [],
      "name": "setChanceArray",
      "outputs": [
        {
          "internalType": "uint256[3]",
          "name": "",
          "type": "uint256[3]"
        }
      ],
      "stateMutability": "pure",
      "type": "function"
    },
    {
      "inputs": [
        {
          "internalType": "bytes4",
          "name": "interfaceId",
          "type": "bytes4"
        }
      ],
      "name": "supportsInterface",
      "outputs": [
        {
          "internalType": "bool",
          "name": "",
          "type": "bool"
        }
      ],
      "stateMutability": "view",
      "type": "function"
    },
    {
      "inputs": [],
      "name": "symbol",
      "outputs": [
        {
          "internalType": "string",
          "name": "",
          "type": "string"
        }
      ],
      "stateMutability": "view",
      "type": "function"
    },
    {
      "inputs": [
        {
          "internalType": "uint256",
          "name": "tokenId",
          "type": "uint256"
        }
      ],
      "name": "tokenURI",
      "outputs": [
        {
          "internalType": "string",
          "name": "",
          "type": "string"
        }
      ],
      "stateMutability": "view",
      "type": "function"
    },
    {
      "inputs": [
        {
          "internalType": "address",
          "name": "from",
          "type": "address"
        },
        {
          "internalType": "address",
          "name": "to",
          "type": "address"
        },
        {
          "internalType": "uint256",
          "name": "tokenId",
          "type": "uint256"
        }
      ],
      "name": "transferFrom",
      "outputs": [],
      "stateMutability": "nonpayable",
      "type": "function"
    },
    {
      "inputs": [
        {
          "internalType": "address",
          "name": "newOwner",
          "type": "address"
        }
      ],
      "name": "transferOwnership",
      "outputs": [],
      "stateMutability": "nonpayable",
      "type": "function"
    },
    {
      "inputs": [],
      "name": "unpause",
      "outputs": [],
      "stateMutability": "nonpayable",
      "type": "function"
    },
    {
      "inputs": [
        {
          "internalType": "address",
          "name": "_whitelistedAddress",
          "type": "address"
        }
      ],
      "name": "verifyUserAddress",
      "outputs": [
        {
          "internalType": "bool",
          "name": "",
          "type": "bool"
        }
      ],
      "stateMutability": "view",
      "type": "function"
    },
    {
      "inputs": [],
      "name": "whitelistRequest",
      "outputs": [
        {
          "internalType": "uint256",
          "name": "requestId",
          "type": "uint256"
        }
      ],
      "stateMutability": "payable",
      "type": "function"
    },
    {
      "inputs": [],
      "name": "withdraw",
      "outputs": [],
      "stateMutability": "nonpayable",
      "type": "function"
    }
  ],
  "bytecode": "0x6101206040523480156200001257600080fd5b50604051620063a1380380620063a18339818101604052810190620000389190620009a3565b856040518060400160405280601d81526020017f4f70656e5a657070656c696e20426f6f7463616d702050726f6a6563740000008152506040518060400160405280600381526020017f4f425000000000000000000000000000000000000000000000000000000000008152508160019081620000b6919062000ce2565b508060029081620000c8919062000ce2565b505050620000eb620000df6200022b60201b60201c565b6200023360201b60201c565b6000600860146101000a81548160ff0219169083151502179055508073ffffffffffffffffffffffffffffffffffffffff1660808173ffffffffffffffffffffffffffffffffffffffff1681525050508573ffffffffffffffffffffffffffffffffffffffff1660a08173ffffffffffffffffffffffffffffffffffffffff16815250508467ffffffffffffffff1660c08167ffffffffffffffff16815250508360e08181525050806010819055508263ffffffff166101008163ffffffff1681525050620001c082620002f960201b60201c565b620001d56000801b336200037360201b60201c565b620002077f65d7a28e3265b37a6474929f336521b332c1681b933f6cb9f3376673440d862a336200037360201b60201c565b88600a8190555087600d8190555086600e8190555050505050505050505062000dc9565b600033905090565b6000600860009054906101000a900473ffffffffffffffffffffffffffffffffffffffff16905081600860006101000a81548173ffffffffffffffffffffffffffffffffffffffff021916908373ffffffffffffffffffffffffffffffffffffffff1602179055508173ffffffffffffffffffffffffffffffffffffffff168173ffffffffffffffffffffffffffffffffffffffff167f8be0079c531659141344cd1fd0a4f28419497f9722a3daafe3b4186f6b6457e060405160405180910390a35050565b601460009054906101000a900460ff161562000341576040517f4da657d900000000000000000000000000000000000000000000000000000000815260040160405180910390fd5b80601390600362000354929190620004ce565b506001601460006101000a81548160ff02191690831515021790555050565b6200038582826200046460201b60201c565b6200046057600160008084815260200190815260200160002060000160008373ffffffffffffffffffffffffffffffffffffffff1673ffffffffffffffffffffffffffffffffffffffff16815260200190815260200160002060006101000a81548160ff021916908315150217905550620004056200022b60201b60201c565b73ffffffffffffffffffffffffffffffffffffffff168173ffffffffffffffffffffffffffffffffffffffff16837f2f8788117e7eff1d82e926ec794901d17c78024a50270940304540a733656f0d60405160405180910390a45b5050565b600080600084815260200190815260200160002060000160008373ffffffffffffffffffffffffffffffffffffffff1673ffffffffffffffffffffffffffffffffffffffff16815260200190815260200160002060009054906101000a900460ff16905092915050565b8280548282559060005260206000209081019282156200051b579160200282015b828111156200051a57825182908162000509919062000ce2565b5091602001919060010190620004ef565b5b5090506200052a91906200052e565b5090565b5b8082111562000552576000818162000548919062000556565b506001016200052f565b5090565b508054620005649062000adb565b6000825580601f1062000578575062000599565b601f0160209004906000526020600020908101906200059891906200059c565b5b50565b5b80821115620005b75760008160009055506001016200059d565b5090565b6000604051905090565b600080fd5b600080fd5b6000819050919050565b620005e481620005cf565b8114620005f057600080fd5b50565b6000815190506200060481620005d9565b92915050565b600073ffffffffffffffffffffffffffffffffffffffff82169050919050565b600062000637826200060a565b9050919050565b62000649816200062a565b81146200065557600080fd5b50565b60008151905062000669816200063e565b92915050565b600067ffffffffffffffff82169050919050565b6200068e816200066f565b81146200069a57600080fd5b50565b600081519050620006ae8162000683565b92915050565b6000819050919050565b620006c981620006b4565b8114620006d557600080fd5b50565b600081519050620006e981620006be565b92915050565b600063ffffffff82169050919050565b6200070a81620006ef565b81146200071657600080fd5b50565b6000815190506200072a81620006ff565b92915050565b600080fd5b6000601f19601f8301169050919050565b7f4e487b7100000000000000000000000000000000000000000000000000000000600052604160045260246000fd5b620007808262000735565b810181811067ffffffffffffffff82111715620007a257620007a162000746565b5b80604052505050565b6000620007b7620005bb565b9050620007c5828262000775565b919050565b600067ffffffffffffffff821115620007e857620007e762000746565b5b602082029050919050565b600080fd5b600080fd5b600067ffffffffffffffff8211156200081b576200081a62000746565b5b620008268262000735565b9050602081019050919050565b60005b838110156200085357808201518184015260208101905062000836565b8381111562000863576000848401525b50505050565b6000620008806200087a84620007fd565b620007ab565b9050828152602081018484840111156200089f576200089e620007f8565b5b620008ac84828562000833565b509392505050565b600082601f830112620008cc57620008cb62000730565b5b8151620008de84826020860162000869565b91505092915050565b6000620008fe620008f884620007ca565b620007ab565b905080602084028301858111156200091b576200091a620007f3565b5b835b818110156200096957805167ffffffffffffffff81111562000944576200094362000730565b5b808601620009538982620008b4565b855260208501945050506020810190506200091d565b5050509392505050565b600082601f8301126200098b576200098a62000730565b5b60036200099a848285620008e7565b91505092915050565b60008060008060008060008060006101208a8c031215620009c957620009c8620005c5565b5b6000620009d98c828d01620005f3565b9950506020620009ec8c828d01620005f3565b9850506040620009ff8c828d01620005f3565b975050606062000a128c828d0162000658565b965050608062000a258c828d016200069d565b95505060a062000a388c828d01620006d8565b94505060c062000a4b8c828d0162000719565b93505060e08a015167ffffffffffffffff81111562000a6f5762000a6e620005ca565b5b62000a7d8c828d0162000973565b92505061010062000a918c828d01620005f3565b9150509295985092959850929598565b600081519050919050565b7f4e487b7100000000000000000000000000000000000000000000000000000000600052602260045260246000fd5b6000600282049050600182168062000af457607f821691505b60208210810362000b0a5762000b0962000aac565b5b50919050565b60008190508160005260206000209050919050565b60006020601f8301049050919050565b600082821b905092915050565b60006008830262000b747fffffffffffffffffffffffffffffffffffffffffffffffffffffffffffffffff8262000b35565b62000b80868362000b35565b95508019841693508086168417925050509392505050565b6000819050919050565b600062000bc362000bbd62000bb784620005cf565b62000b98565b620005cf565b9050919050565b6000819050919050565b62000bdf8362000ba2565b62000bf762000bee8262000bca565b84845462000b42565b825550505050565b600090565b62000c0e62000bff565b62000c1b81848462000bd4565b505050565b5b8181101562000c435762000c3760008262000c04565b60018101905062000c21565b5050565b601f82111562000c925762000c5c8162000b10565b62000c678462000b25565b8101602085101562000c77578190505b62000c8f62000c868562000b25565b83018262000c20565b50505b505050565b600082821c905092915050565b600062000cb76000198460080262000c97565b1980831691505092915050565b600062000cd2838362000ca4565b9150826002028217905092915050565b62000ced8262000aa1565b67ffffffffffffffff81111562000d095762000d0862000746565b5b62000d15825462000adb565b62000d2282828562000c47565b600060209050601f83116001811462000d5a576000841562000d45578287015190505b62000d51858262000cc4565b86555062000dc1565b601f19841662000d6a8662000b10565b60005b8281101562000d945784890151825560018201915060208501945060208101905062000d6d565b8683101562000db4578489015162000db0601f89168262000ca4565b8355505b6001600288020188555050505b505050505050565b60805160a05160c05160e0516101005161557062000e3160003960008181610fe20152611bc7015260008181610f9e0152611b83015260008181610fbf0152611ba4015260008181610f620152611b47015260008181610d5f0152610db301526155706000f3fe6080604052600436106102ae5760003560e01c80637235303311610175578063a22cb465116100dc578063c87b56dd11610095578063e985e9c51161006f578063e985e9c514610a88578063ee89dab414610ac5578063f2fde38b14610af0578063f359462a14610b19576102ae565b8063c87b56dd146109f7578063d547741f14610a34578063e63ab1e914610a5d576102ae565b8063a22cb465146108f4578063a36f573b1461091d578063b88d4fde1461095a578063ba43654714610983578063bd27baea146109ae578063c1e5e732146109d9576102ae565b80638da5cb5b1161012e5780638da5cb5b146107ce57806391b17349146107f957806391d1485414610824578063921a5b481461086157806395d89b411461089e578063a217fddf146108c9576102ae565b806372353033146106e25780637a5caab31461070d5780637a662f8f146107385780637fa638c8146107635780638456cb591461078e5780638cd5a0b9146107a5576102ae565b80633ca63262116102195780636352211e116101d25780636352211e146105be57806364224120146105fb5780636e02007d146106385780636f0b78711461066357806370a082311461068e578063715018a6146106cb576102ae565b80633ca63262146104e85780633ccfd60b146105135780633f4ba83a1461052a57806342842e0e1461054157806358ef67471461056a5780635c975abb14610593576102ae565b806323b872dd1161026b57806323b872dd146103d5578063248a9ca3146103fe5780632ac2a9ce1461043b5780632f2ff15d1461045957806336568abe146104825780633af32abf146104ab576102ae565b806301ffc9a7146102b357806306fdde03146102f0578063081812fc1461031b578063095ea7b3146103585780630b21a83b146103815780631fe543e3146103ac575b600080fd5b3480156102bf57600080fd5b506102da60048036038101906102d59190613815565b610b56565b6040516102e7919061385d565b60405180910390f35b3480156102fc57600080fd5b50610305610b68565b6040516103129190613911565b60405180910390f35b34801561032757600080fd5b50610342600480360381019061033d9190613969565b610bfa565b60405161034f91906139d7565b60405180910390f35b34801561036457600080fd5b5061037f600480360381019061037a9190613a1e565b610c40565b005b34801561038d57600080fd5b50610396610d57565b6040516103a39190613a6d565b60405180910390f35b3480156103b857600080fd5b506103d360048036038101906103ce9190613bd0565b610d5d565b005b3480156103e157600080fd5b506103fc60048036038101906103f79190613c2c565b610e1d565b005b34801561040a57600080fd5b5061042560048036038101906104209190613cb5565b610e7d565b6040516104329190613cf1565b60405180910390f35b610443610e9c565b6040516104509190613a6d565b60405180910390f35b34801561046557600080fd5b50610480600480360381019061047b9190613d0c565b6110f5565b005b34801561048e57600080fd5b506104a960048036038101906104a49190613d0c565b611116565b005b3480156104b757600080fd5b506104d260048036038101906104cd9190613d4c565b611199565b6040516104df919061385d565b60405180910390f35b3480156104f457600080fd5b506104fd6111ef565b60405161050a9190613e24565b60405180910390f35b34801561051f57600080fd5b5061052861121b565b005b34801561053657600080fd5b5061053f6112cf565b005b34801561054d57600080fd5b5061056860048036038101906105639190613c2c565b611304565b005b34801561057657600080fd5b50610591600480360381019061058c9190613d4c565b611324565b005b34801561059f57600080fd5b506105a861147a565b6040516105b5919061385d565b60405180910390f35b3480156105ca57600080fd5b506105e560048036038101906105e09190613969565b611491565b6040516105f291906139d7565b60405180910390f35b34801561060757600080fd5b50610622600480360381019061061d9190613969565b611542565b60405161062f9190613911565b60405180910390f35b34801561064457600080fd5b5061064d6115f2565b60405161065a9190613a6d565b60405180910390f35b34801561066f57600080fd5b506106786115fc565b6040516106859190613a6d565b60405180910390f35b34801561069a57600080fd5b506106b560048036038101906106b09190613d4c565b611602565b6040516106c29190613a6d565b60405180910390f35b3480156106d757600080fd5b506106e06116b9565b005b3480156106ee57600080fd5b506106f76116cd565b6040516107049190613a6d565b60405180910390f35b34801561071957600080fd5b506107226116d3565b60405161072f9190613a6d565b60405180910390f35b34801561074457600080fd5b5061074d6116dd565b60405161075a9190613a6d565b60405180910390f35b34801561076f57600080fd5b506107786116e7565b6040516107859190613a6d565b60405180910390f35b34801561079a57600080fd5b506107a36116ed565b005b3480156107b157600080fd5b506107cc60048036038101906107c79190613d4c565b611722565b005b3480156107da57600080fd5b506107e3611831565b6040516107f091906139d7565b60405180910390f35b34801561080557600080fd5b5061080e61185b565b60405161081b9190613a6d565b60405180910390f35b34801561083057600080fd5b5061084b60048036038101906108469190613d0c565b611865565b604051610858919061385d565b60405180910390f35b34801561086d57600080fd5b5061088860048036038101906108839190613d4c565b6118cf565b604051610895919061385d565b60405180910390f35b3480156108aa57600080fd5b506108b361192a565b6040516108c09190613911565b60405180910390f35b3480156108d557600080fd5b506108de6119bc565b6040516108eb9190613cf1565b60405180910390f35b34801561090057600080fd5b5061091b60048036038101906109169190613e6b565b6119c3565b005b34801561092957600080fd5b50610944600480360381019061093f9190613969565b6119d9565b60405161095191906139d7565b60405180910390f35b34801561096657600080fd5b50610981600480360381019061097c9190613f60565b611a0c565b005b34801561098f57600080fd5b50610998611a6e565b6040516109a59190613a6d565b60405180910390f35b3480156109ba57600080fd5b506109c3611a74565b6040516109d09190613a6d565b60405180910390f35b6109e1611a7a565b6040516109ee9190613a6d565b60405180910390f35b348015610a0357600080fd5b50610a1e6004803603810190610a199190613969565b611cda565b604051610a2b9190613911565b60405180910390f35b348015610a4057600080fd5b50610a5b6004803603810190610a569190613d0c565b611dec565b005b348015610a6957600080fd5b50610a72611e0d565b604051610a7f9190613cf1565b60405180910390f35b348015610a9457600080fd5b50610aaf6004803603810190610aaa9190613fe3565b611e31565b604051610abc919061385d565b60405180910390f35b348015610ad157600080fd5b50610ada611ec5565b604051610ae7919061385d565b60405180910390f35b348015610afc57600080fd5b50610b176004803603810190610b129190613d4c565b611edc565b005b348015610b2557600080fd5b50610b406004803603810190610b3b9190613969565b611f5f565b604051610b4d919061409a565b60405180910390f35b6000610b6182612036565b9050919050565b606060018054610b77906140e4565b80601f0160208091040260200160405190810160405280929190818152602001828054610ba3906140e4565b8015610bf05780601f10610bc557610100808354040283529160200191610bf0565b820191906000526020600020905b815481529060010190602001808311610bd357829003601f168201915b5050505050905090565b6000610c0582612118565b6005600083815260200190815260200160002060009054906101000a900473ffffffffffffffffffffffffffffffffffffffff169050919050565b6000610c4b82611491565b90508073ffffffffffffffffffffffffffffffffffffffff168373ffffffffffffffffffffffffffffffffffffffff1603610cbb576040517f08c379a0000000000000000000000000000000000000000000000000000000008152600401610cb290614187565b60405180910390fd5b8073ffffffffffffffffffffffffffffffffffffffff16610cda612163565b73ffffffffffffffffffffffffffffffffffffffff161480610d095750610d0881610d03612163565b611e31565b5b610d48576040517f08c379a0000000000000000000000000000000000000000000000000000000008152600401610d3f90614219565b60405180910390fd5b610d52838361216b565b505050565b60115481565b7f000000000000000000000000000000000000000000000000000000000000000073ffffffffffffffffffffffffffffffffffffffff163373ffffffffffffffffffffffffffffffffffffffff1614610e0f57337f00000000000000000000000000000000000000000000000000000000000000006040517f1cf993f4000000000000000000000000000000000000000000000000000000008152600401610e06929190614239565b60405180910390fd5b610e198282612224565b5050565b610e2e610e28612163565b826123bf565b610e6d576040517f08c379a0000000000000000000000000000000000000000000000000000000008152600401610e64906142d4565b60405180910390fd5b610e78838383612454565b505050565b6000806000838152602001908152602001600020600101549050919050565b6000600f54600e541115610ee5576040517f08c379a0000000000000000000000000000000000000000000000000000000008152600401610edc90614340565b60405180910390fd5b601054341015610f21576040517f15c6de4100000000000000000000000000000000000000000000000000000000815260040160405180910390fd5b610f2a33611199565b610f60576040517fae8671be00000000000000000000000000000000000000000000000000000000815260040160405180910390fd5b7f000000000000000000000000000000000000000000000000000000000000000073ffffffffffffffffffffffffffffffffffffffff16635d3b1d307f00000000000000000000000000000000000000000000000000000000000000007f000000000000000000000000000000000000000000000000000000000000000060037f000000000000000000000000000000000000000000000000000000000000000060016040518663ffffffff1660e01b81526004016110239594939291906143bf565b6020604051808303816000875af1158015611042573d6000803e3d6000fd5b505050506040513d601f19601f820116820180604052508101906110669190614427565b9050336015600083815260200190815260200160002060006101000a81548173ffffffffffffffffffffffffffffffffffffffff021916908373ffffffffffffffffffffffffffffffffffffffff160217905550807f4e1c2f1eae56e29ec039a2b882eec626e6c420ed5a5b93a203c8b8b695e911b1336040516110ea91906139d7565b60405180910390a290565b6110fe82610e7d565b611107816126ba565b61111183836126ce565b505050565b61111e612163565b73ffffffffffffffffffffffffffffffffffffffff168173ffffffffffffffffffffffffffffffffffffffff161461118b576040517f08c379a0000000000000000000000000000000000000000000000000000000008152600401611182906144c6565b60405180910390fd5b61119582826127ae565b5050565b6000600c60008373ffffffffffffffffffffffffffffffffffffffff1673ffffffffffffffffffffffffffffffffffffffff16815260200190815260200160002060009054906101000a900460ff169050919050565b6111f7613787565b6040518060600160405280600a8152602001606481526020016103e8815250905090565b61122361288f565b600047905060003373ffffffffffffffffffffffffffffffffffffffff168260405161124e90614517565b60006040518083038185875af1925050503d806000811461128b576040519150601f19603f3d011682016040523d82523d6000602084013e611290565b606091505b50509050806112cb576040517f0ae9055500000000000000000000000000000000000000000000000000000000815260040160405180910390fd5b5050565b7f65d7a28e3265b37a6474929f336521b332c1681b933f6cb9f3376673440d862a6112f9816126ba565b61130161290d565b50565b61131f83838360405180602001604052806000815250611a0c565b505050565b6000801b611331816126ba565b600c60008373ffffffffffffffffffffffffffffffffffffffff1673ffffffffffffffffffffffffffffffffffffffff16815260200190815260200160002060009054906101000a900460ff16156113be576040517f08c379a00000000000000000000000000000000000000000000000000000000081526004016113b590614578565b60405180910390fd5b600a54600b5410611404576040517f08c379a00000000000000000000000000000000000000000000000000000000081526004016113fb906145e4565b60405180910390fd5b6001600c60008473ffffffffffffffffffffffffffffffffffffffff1673ffffffffffffffffffffffffffffffffffffffff16815260200190815260200160002060006101000a81548160ff0219169083151502179055506001600b600082825461146f9190614633565b925050819055505050565b6000600860149054906101000a900460ff16905090565b6000806003600084815260200190815260200160002060009054906101000a900473ffffffffffffffffffffffffffffffffffffffff169050600073ffffffffffffffffffffffffffffffffffffffff168173ffffffffffffffffffffffffffffffffffffffff1603611539576040517f08c379a0000000000000000000000000000000000000000000000000000000008152600401611530906146d5565b60405180910390fd5b80915050919050565b606060138281548110611558576115576146f5565b5b90600052602060002001805461156d906140e4565b80601f0160208091040260200160405190810160405280929190818152602001828054611599906140e4565b80156115e65780601f106115bb576101008083540402835291602001916115e6565b820191906000526020600020905b8154815290600101906020018083116115c957829003601f168201915b50505050509050919050565b6000601154905090565b600f5481565b60008073ffffffffffffffffffffffffffffffffffffffff168273ffffffffffffffffffffffffffffffffffffffff1603611672576040517f08c379a000000000000000000000000000000000000000000000000000000000815260040161166990614796565b60405180910390fd5b600460008373ffffffffffffffffffffffffffffffffffffffff1673ffffffffffffffffffffffffffffffffffffffff168152602001908152602001600020549050919050565b6116c161288f565b6116cb6000612970565b565b600b5481565b6000601054905090565b6000600b54905090565b600d5481565b7f65d7a28e3265b37a6474929f336521b332c1681b933f6cb9f3376673440d862a611717816126ba565b61171f612a36565b50565b6000801b61172f816126ba565b600c60008373ffffffffffffffffffffffffffffffffffffffff1673ffffffffffffffffffffffffffffffffffffffff16815260200190815260200160002060009054906101000a900460ff166117bb576040517f08c379a00000000000000000000000000000000000000000000000000000000081526004016117b290614802565b60405180910390fd5b6000600c60008473ffffffffffffffffffffffffffffffffffffffff1673ffffffffffffffffffffffffffffffffffffffff16815260200190815260200160002060006101000a81548160ff0219169083151502179055506001600b60008282546118269190614822565b925050819055505050565b6000600860009054906101000a900473ffffffffffffffffffffffffffffffffffffffff16905090565b6000600a54905090565b600080600084815260200190815260200160002060000160008373ffffffffffffffffffffffffffffffffffffffff1673ffffffffffffffffffffffffffffffffffffffff16815260200190815260200160002060009054906101000a900460ff16905092915050565b600080600c60008473ffffffffffffffffffffffffffffffffffffffff1673ffffffffffffffffffffffffffffffffffffffff16815260200190815260200160002060009054906101000a900460ff16905080915050919050565b606060028054611939906140e4565b80601f0160208091040260200160405190810160405280929190818152602001828054611965906140e4565b80156119b25780601f10611987576101008083540402835291602001916119b2565b820191906000526020600020905b81548152906001019060200180831161199557829003601f168201915b5050505050905090565b6000801b81565b6119d56119ce612163565b8383612a99565b5050565b60156020528060005260406000206000915054906101000a900473ffffffffffffffffffffffffffffffffffffffff1681565b611a1d611a17612163565b836123bf565b611a5c576040517f08c379a0000000000000000000000000000000000000000000000000000000008152600401611a53906142d4565b60405180910390fd5b611a6884848484612c05565b50505050565b600a5481565b600e5481565b6000600f54600d541115611ac3576040517f08c379a0000000000000000000000000000000000000000000000000000000008152600401611aba906148a2565b60405180910390fd5b600f54600e5411611b09576040517f08c379a0000000000000000000000000000000000000000000000000000000008152600401611b0090614934565b60405180910390fd5b601054341015611b45576040517f15c6de4100000000000000000000000000000000000000000000000000000000815260040160405180910390fd5b7f000000000000000000000000000000000000000000000000000000000000000073ffffffffffffffffffffffffffffffffffffffff16635d3b1d307f00000000000000000000000000000000000000000000000000000000000000007f000000000000000000000000000000000000000000000000000000000000000060037f000000000000000000000000000000000000000000000000000000000000000060016040518663ffffffff1660e01b8152600401611c089594939291906143bf565b6020604051808303816000875af1158015611c27573d6000803e3d6000fd5b505050506040513d601f19601f82011682018060405250810190611c4b9190614427565b9050336015600083815260200190815260200160002060006101000a81548173ffffffffffffffffffffffffffffffffffffffff021916908373ffffffffffffffffffffffffffffffffffffffff160217905550807f4e1c2f1eae56e29ec039a2b882eec626e6c420ed5a5b93a203c8b8b695e911b133604051611ccf91906139d7565b60405180910390a290565b6060611ce582612118565b6000600760008481526020019081526020016000208054611d05906140e4565b80601f0160208091040260200160405190810160405280929190818152602001828054611d31906140e4565b8015611d7e5780601f10611d5357610100808354040283529160200191611d7e565b820191906000526020600020905b815481529060010190602001808311611d6157829003601f168201915b505050505090506000611d8f612c61565b90506000815103611da4578192505050611de7565b600082511115611dd9578082604051602001611dc1929190614990565b60405160208183030381529060405292505050611de7565b611de284612c78565b925050505b919050565b611df582610e7d565b611dfe816126ba565b611e0883836127ae565b505050565b7f65d7a28e3265b37a6474929f336521b332c1681b933f6cb9f3376673440d862a81565b6000600660008473ffffffffffffffffffffffffffffffffffffffff1673ffffffffffffffffffffffffffffffffffffffff16815260200190815260200160002060008373ffffffffffffffffffffffffffffffffffffffff1673ffffffffffffffffffffffffffffffffffffffff16815260200190815260200160002060009054906101000a900460ff16905092915050565b6000601460009054906101000a900460ff16905090565b611ee461288f565b600073ffffffffffffffffffffffffffffffffffffffff168173ffffffffffffffffffffffffffffffffffffffff1603611f53576040517f08c379a0000000000000000000000000000000000000000000000000000000008152600401611f4a90614a26565b60405180910390fd5b611f5c81612970565b50565b600080600090506000611f706111ef565b905060005b6003811015611ffe57828510158015611faf5750818160038110611f9c57611f9b6146f5565b5b602002015183611fac9190614633565b85105b15611fd157806002811115611fc757611fc6614023565b5b9350505050612031565b818160038110611fe457611fe36146f5565b5b602002015192508080611ff690614a46565b915050611f75565b506040517f1a47b41b00000000000000000000000000000000000000000000000000000000815260040160405180910390fd5b919050565b60007f80ac58cd000000000000000000000000000000000000000000000000000000007bffffffffffffffffffffffffffffffffffffffffffffffffffffffff1916827bffffffffffffffffffffffffffffffffffffffffffffffffffffffff1916148061210157507f5b5e139f000000000000000000000000000000000000000000000000000000007bffffffffffffffffffffffffffffffffffffffffffffffffffffffff1916827bffffffffffffffffffffffffffffffffffffffffffffffffffffffff1916145b80612111575061211082612ce0565b5b9050919050565b61212181612d5a565b612160576040517f08c379a0000000000000000000000000000000000000000000000000000000008152600401612157906146d5565b60405180910390fd5b50565b600033905090565b816005600083815260200190815260200160002060006101000a81548173ffffffffffffffffffffffffffffffffffffffff021916908373ffffffffffffffffffffffffffffffffffffffff160217905550808273ffffffffffffffffffffffffffffffffffffffff166121de83611491565b73ffffffffffffffffffffffffffffffffffffffff167f8c5be1e5ebec7d5bd14f71427d1e84f3dd0314c0f7b2291e5b200ac8c7c3b92560405160405180910390a45050565b60006015600084815260200190815260200160002060009054906101000a900473ffffffffffffffffffffffffffffffffffffffff1690506000601154905060016011546122729190614633565b60118190555060006103e884600081518110612291576122906146f5565b5b60200260200101516122a39190614abd565b905060006122b082611f5f565b90506122bc8484612dc6565b61237e8360138360028111156122d5576122d4614023565b5b815481106122e6576122e56146f5565b5b9060005260206000200180546122fb906140e4565b80601f0160208091040260200160405190810160405280929190818152602001828054612327906140e4565b80156123745780601f1061234957610100808354040283529160200191612374565b820191906000526020600020905b81548152906001019060200180831161235757829003601f168201915b5050505050612de4565b7fab79897476febbd649710b1bd1dc3e93a316d3dee65f65b022ab89a4b7e206b581856040516123af929190614aee565b60405180910390a1505050505050565b6000806123cb83611491565b90508073ffffffffffffffffffffffffffffffffffffffff168473ffffffffffffffffffffffffffffffffffffffff16148061240d575061240c8185611e31565b5b8061244b57508373ffffffffffffffffffffffffffffffffffffffff1661243384610bfa565b73ffffffffffffffffffffffffffffffffffffffff16145b91505092915050565b8273ffffffffffffffffffffffffffffffffffffffff1661247482611491565b73ffffffffffffffffffffffffffffffffffffffff16146124ca576040517f08c379a00000000000000000000000000000000000000000000000000000000081526004016124c190614b89565b60405180910390fd5b600073ffffffffffffffffffffffffffffffffffffffff168273ffffffffffffffffffffffffffffffffffffffff1603612539576040517f08c379a000000000000000000000000000000000000000000000000000000000815260040161253090614c1b565b60405180910390fd5b612544838383612e51565b61254f60008261216b565b6001600460008573ffffffffffffffffffffffffffffffffffffffff1673ffffffffffffffffffffffffffffffffffffffff168152602001908152602001600020600082825461259f9190614822565b925050819055506001600460008473ffffffffffffffffffffffffffffffffffffffff1673ffffffffffffffffffffffffffffffffffffffff16815260200190815260200160002060008282546125f69190614633565b92505081905550816003600083815260200190815260200160002060006101000a81548173ffffffffffffffffffffffffffffffffffffffff021916908373ffffffffffffffffffffffffffffffffffffffff160217905550808273ffffffffffffffffffffffffffffffffffffffff168473ffffffffffffffffffffffffffffffffffffffff167fddf252ad1be2c89b69c2b068fc378daa952ba7f163c4a11628f55a4df523b3ef60405160405180910390a46126b5838383612e69565b505050565b6126cb816126c6612163565b612e6e565b50565b6126d88282611865565b6127aa57600160008084815260200190815260200160002060000160008373ffffffffffffffffffffffffffffffffffffffff1673ffffffffffffffffffffffffffffffffffffffff16815260200190815260200160002060006101000a81548160ff02191690831515021790555061274f612163565b73ffffffffffffffffffffffffffffffffffffffff168173ffffffffffffffffffffffffffffffffffffffff16837f2f8788117e7eff1d82e926ec794901d17c78024a50270940304540a733656f0d60405160405180910390a45b5050565b6127b88282611865565b1561288b57600080600084815260200190815260200160002060000160008373ffffffffffffffffffffffffffffffffffffffff1673ffffffffffffffffffffffffffffffffffffffff16815260200190815260200160002060006101000a81548160ff021916908315150217905550612830612163565b73ffffffffffffffffffffffffffffffffffffffff168173ffffffffffffffffffffffffffffffffffffffff16837ff6391f5c32d9c69d2a47ea670b442974b53935d1edc7fd64eb21e047a839171b60405160405180910390a45b5050565b612897612163565b73ffffffffffffffffffffffffffffffffffffffff166128b5611831565b73ffffffffffffffffffffffffffffffffffffffff161461290b576040517f08c379a000000000000000000000000000000000000000000000000000000000815260040161290290614c87565b60405180910390fd5b565b612915612f0b565b6000600860146101000a81548160ff0219169083151502179055507f5db9ee0a495bf2e6ff9c91a7834c1ba4fdd244a5e8aa4e537bd38aeae4b073aa612959612163565b60405161296691906139d7565b60405180910390a1565b6000600860009054906101000a900473ffffffffffffffffffffffffffffffffffffffff16905081600860006101000a81548173ffffffffffffffffffffffffffffffffffffffff021916908373ffffffffffffffffffffffffffffffffffffffff1602179055508173ffffffffffffffffffffffffffffffffffffffff168173ffffffffffffffffffffffffffffffffffffffff167f8be0079c531659141344cd1fd0a4f28419497f9722a3daafe3b4186f6b6457e060405160405180910390a35050565b612a3e612f54565b6001600860146101000a81548160ff0219169083151502179055507f62e78cea01bee320cd4e420270b5ea74000d11b0c9f74754ebdbfc544b05a258612a82612163565b604051612a8f91906139d7565b60405180910390a1565b8173ffffffffffffffffffffffffffffffffffffffff168373ffffffffffffffffffffffffffffffffffffffff1603612b07576040517f08c379a0000000000000000000000000000000000000000000000000000000008152600401612afe90614cf3565b60405180910390fd5b80600660008573ffffffffffffffffffffffffffffffffffffffff1673ffffffffffffffffffffffffffffffffffffffff16815260200190815260200160002060008473ffffffffffffffffffffffffffffffffffffffff1673ffffffffffffffffffffffffffffffffffffffff16815260200190815260200160002060006101000a81548160ff0219169083151502179055508173ffffffffffffffffffffffffffffffffffffffff168373ffffffffffffffffffffffffffffffffffffffff167f17307eab39ab6107e8899845ad3d59bd9653f200f220920489ca2b5937696c3183604051612bf8919061385d565b60405180910390a3505050565b612c10848484612454565b612c1c84848484612f9e565b612c5b576040517f08c379a0000000000000000000000000000000000000000000000000000000008152600401612c5290614d85565b60405180910390fd5b50505050565b606060405180602001604052806000815250905090565b6060612c8382612118565b6000612c8d612c61565b90506000815111612cad5760405180602001604052806000815250612cd8565b80612cb784613125565b604051602001612cc8929190614990565b6040516020818303038152906040525b915050919050565b60007f7965db0b000000000000000000000000000000000000000000000000000000007bffffffffffffffffffffffffffffffffffffffffffffffffffffffff1916827bffffffffffffffffffffffffffffffffffffffffffffffffffffffff19161480612d535750612d5282613285565b5b9050919050565b60008073ffffffffffffffffffffffffffffffffffffffff166003600084815260200190815260200160002060009054906101000a900473ffffffffffffffffffffffffffffffffffffffff1673ffffffffffffffffffffffffffffffffffffffff1614159050919050565b612de08282604051806020016040528060008152506132ef565b5050565b612ded82612d5a565b612e2c576040517f08c379a0000000000000000000000000000000000000000000000000000000008152600401612e2390614e17565b60405180910390fd5b80600760008481526020019081526020016000209081612e4c9190614fe3565b505050565b612e59612f54565b612e6483838361334a565b505050565b505050565b612e788282611865565b612f0757612e9d8173ffffffffffffffffffffffffffffffffffffffff16601461334f565b612eab8360001c602061334f565b604051602001612ebc92919061514d565b6040516020818303038152906040526040517f08c379a0000000000000000000000000000000000000000000000000000000008152600401612efe9190613911565b60405180910390fd5b5050565b612f1361147a565b612f52576040517f08c379a0000000000000000000000000000000000000000000000000000000008152600401612f49906151d3565b60405180910390fd5b565b612f5c61147a565b15612f9c576040517f08c379a0000000000000000000000000000000000000000000000000000000008152600401612f939061523f565b60405180910390fd5b565b6000612fbf8473ffffffffffffffffffffffffffffffffffffffff1661358b565b15613118578373ffffffffffffffffffffffffffffffffffffffff1663150b7a02612fe8612163565b8786866040518563ffffffff1660e01b815260040161300a94939291906152b4565b6020604051808303816000875af192505050801561304657506040513d601f19601f820116820180604052508101906130439190615315565b60015b6130c8573d8060008114613076576040519150601f19603f3d011682016040523d82523d6000602084013e61307b565b606091505b5060008151036130c0576040517f08c379a00000000000000000000000000000000000000000000000000000000081526004016130b790614d85565b60405180910390fd5b805181602001fd5b63150b7a0260e01b7bffffffffffffffffffffffffffffffffffffffffffffffffffffffff1916817bffffffffffffffffffffffffffffffffffffffffffffffffffffffff19161491505061311d565b600190505b949350505050565b60606000820361316c576040518060400160405280600181526020017f30000000000000000000000000000000000000000000000000000000000000008152509050613280565b600082905060005b6000821461319e57808061318790614a46565b915050600a826131979190615342565b9150613174565b60008167ffffffffffffffff8111156131ba576131b9613a8d565b5b6040519080825280601f01601f1916602001820160405280156131ec5781602001600182028036833780820191505090505b5090505b60008514613279576001826132059190614822565b9150600a856132149190614abd565b60306132209190614633565b60f81b818381518110613236576132356146f5565b5b60200101907effffffffffffffffffffffffffffffffffffffffffffffffffffffffffffff1916908160001a905350600a856132729190615342565b94506131f0565b8093505050505b919050565b60007f01ffc9a7000000000000000000000000000000000000000000000000000000007bffffffffffffffffffffffffffffffffffffffffffffffffffffffff1916827bffffffffffffffffffffffffffffffffffffffffffffffffffffffff1916149050919050565b6132f983836135ae565b6133066000848484612f9e565b613345576040517f08c379a000000000000000000000000000000000000000000000000000000000815260040161333c90614d85565b60405180910390fd5b505050565b505050565b6060600060028360026133629190615373565b61336c9190614633565b67ffffffffffffffff81111561338557613384613a8d565b5b6040519080825280601f01601f1916602001820160405280156133b75781602001600182028036833780820191505090505b5090507f3000000000000000000000000000000000000000000000000000000000000000816000815181106133ef576133ee6146f5565b5b60200101907effffffffffffffffffffffffffffffffffffffffffffffffffffffffffffff1916908160001a9053507f780000000000000000000000000000000000000000000000000000000000000081600181518110613453576134526146f5565b5b60200101907effffffffffffffffffffffffffffffffffffffffffffffffffffffffffffff1916908160001a905350600060018460026134939190615373565b61349d9190614633565b90505b600181111561353d577f3031323334353637383961626364656600000000000000000000000000000000600f8616601081106134df576134de6146f5565b5b1a60f81b8282815181106134f6576134f56146f5565b5b60200101907effffffffffffffffffffffffffffffffffffffffffffffffffffffffffffff1916908160001a905350600485901c945080613536906153cd565b90506134a0565b5060008414613581576040517f08c379a000000000000000000000000000000000000000000000000000000000815260040161357890615442565b60405180910390fd5b8091505092915050565b6000808273ffffffffffffffffffffffffffffffffffffffff163b119050919050565b600073ffffffffffffffffffffffffffffffffffffffff168273ffffffffffffffffffffffffffffffffffffffff160361361d576040517f08c379a0000000000000000000000000000000000000000000000000000000008152600401613614906154ae565b60405180910390fd5b61362681612d5a565b15613666576040517f08c379a000000000000000000000000000000000000000000000000000000000815260040161365d9061551a565b60405180910390fd5b61367260008383612e51565b6001600460008473ffffffffffffffffffffffffffffffffffffffff1673ffffffffffffffffffffffffffffffffffffffff16815260200190815260200160002060008282546136c29190614633565b92505081905550816003600083815260200190815260200160002060006101000a81548173ffffffffffffffffffffffffffffffffffffffff021916908373ffffffffffffffffffffffffffffffffffffffff160217905550808273ffffffffffffffffffffffffffffffffffffffff16600073ffffffffffffffffffffffffffffffffffffffff167fddf252ad1be2c89b69c2b068fc378daa952ba7f163c4a11628f55a4df523b3ef60405160405180910390a461378360008383612e69565b5050565b6040518060600160405280600390602082028036833780820191505090505090565b6000604051905090565b600080fd5b600080fd5b60007fffffffff0000000000000000000000000000000000000000000000000000000082169050919050565b6137f2816137bd565b81146137fd57600080fd5b50565b60008135905061380f816137e9565b92915050565b60006020828403121561382b5761382a6137b3565b5b600061383984828501613800565b91505092915050565b60008115159050919050565b61385781613842565b82525050565b6000602082019050613872600083018461384e565b92915050565b600081519050919050565b600082825260208201905092915050565b60005b838110156138b2578082015181840152602081019050613897565b838111156138c1576000848401525b50505050565b6000601f19601f8301169050919050565b60006138e382613878565b6138ed8185613883565b93506138fd818560208601613894565b613906816138c7565b840191505092915050565b6000602082019050818103600083015261392b81846138d8565b905092915050565b6000819050919050565b61394681613933565b811461395157600080fd5b50565b6000813590506139638161393d565b92915050565b60006020828403121561397f5761397e6137b3565b5b600061398d84828501613954565b91505092915050565b600073ffffffffffffffffffffffffffffffffffffffff82169050919050565b60006139c182613996565b9050919050565b6139d1816139b6565b82525050565b60006020820190506139ec60008301846139c8565b92915050565b6139fb816139b6565b8114613a0657600080fd5b50565b600081359050613a18816139f2565b92915050565b60008060408385031215613a3557613a346137b3565b5b6000613a4385828601613a09565b9250506020613a5485828601613954565b9150509250929050565b613a6781613933565b82525050565b6000602082019050613a826000830184613a5e565b92915050565b600080fd5b7f4e487b7100000000000000000000000000000000000000000000000000000000600052604160045260246000fd5b613ac5826138c7565b810181811067ffffffffffffffff82111715613ae457613ae3613a8d565b5b80604052505050565b6000613af76137a9565b9050613b038282613abc565b919050565b600067ffffffffffffffff821115613b2357613b22613a8d565b5b602082029050602081019050919050565b600080fd5b6000613b4c613b4784613b08565b613aed565b90508083825260208201905060208402830185811115613b6f57613b6e613b34565b5b835b81811015613b985780613b848882613954565b845260208401935050602081019050613b71565b5050509392505050565b600082601f830112613bb757613bb6613a88565b5b8135613bc7848260208601613b39565b91505092915050565b60008060408385031215613be757613be66137b3565b5b6000613bf585828601613954565b925050602083013567ffffffffffffffff811115613c1657613c156137b8565b5b613c2285828601613ba2565b9150509250929050565b600080600060608486031215613c4557613c446137b3565b5b6000613c5386828701613a09565b9350506020613c6486828701613a09565b9250506040613c7586828701613954565b9150509250925092565b6000819050919050565b613c9281613c7f565b8114613c9d57600080fd5b50565b600081359050613caf81613c89565b92915050565b600060208284031215613ccb57613cca6137b3565b5b6000613cd984828501613ca0565b91505092915050565b613ceb81613c7f565b82525050565b6000602082019050613d066000830184613ce2565b92915050565b60008060408385031215613d2357613d226137b3565b5b6000613d3185828601613ca0565b9250506020613d4285828601613a09565b9150509250929050565b600060208284031215613d6257613d616137b3565b5b6000613d7084828501613a09565b91505092915050565b600060039050919050565b600081905092915050565b6000819050919050565b613da281613933565b82525050565b6000613db48383613d99565b60208301905092915050565b6000602082019050919050565b613dd681613d79565b613de08184613d84565b9250613deb82613d8f565b8060005b83811015613e1c578151613e038782613da8565b9650613e0e83613dc0565b925050600181019050613def565b505050505050565b6000606082019050613e396000830184613dcd565b92915050565b613e4881613842565b8114613e5357600080fd5b50565b600081359050613e6581613e3f565b92915050565b60008060408385031215613e8257613e816137b3565b5b6000613e9085828601613a09565b9250506020613ea185828601613e56565b9150509250929050565b600080fd5b600067ffffffffffffffff821115613ecb57613eca613a8d565b5b613ed4826138c7565b9050602081019050919050565b82818337600083830152505050565b6000613f03613efe84613eb0565b613aed565b905082815260208101848484011115613f1f57613f1e613eab565b5b613f2a848285613ee1565b509392505050565b600082601f830112613f4757613f46613a88565b5b8135613f57848260208601613ef0565b91505092915050565b60008060008060808587031215613f7a57613f796137b3565b5b6000613f8887828801613a09565b9450506020613f9987828801613a09565b9350506040613faa87828801613954565b925050606085013567ffffffffffffffff811115613fcb57613fca6137b8565b5b613fd787828801613f32565b91505092959194509250565b60008060408385031215613ffa57613ff96137b3565b5b600061400885828601613a09565b925050602061401985828601613a09565b9150509250929050565b7f4e487b7100000000000000000000000000000000000000000000000000000000600052602160045260246000fd5b6003811061406357614062614023565b5b50565b600081905061407482614052565b919050565b600061408482614066565b9050919050565b61409481614079565b82525050565b60006020820190506140af600083018461408b565b92915050565b7f4e487b7100000000000000000000000000000000000000000000000000000000600052602260045260246000fd5b600060028204905060018216806140fc57607f821691505b60208210810361410f5761410e6140b5565b5b50919050565b7f4552433732313a20617070726f76616c20746f2063757272656e74206f776e6560008201527f7200000000000000000000000000000000000000000000000000000000000000602082015250565b6000614171602183613883565b915061417c82614115565b604082019050919050565b600060208201905081810360008301526141a081614164565b9050919050565b7f4552433732313a20617070726f76652063616c6c6572206973206e6f7420746f60008201527f6b656e206f776e6572206e6f7220617070726f76656420666f7220616c6c0000602082015250565b6000614203603e83613883565b915061420e826141a7565b604082019050919050565b60006020820190508181036000830152614232816141f6565b9050919050565b600060408201905061424e60008301856139c8565b61425b60208301846139c8565b9392505050565b7f4552433732313a2063616c6c6572206973206e6f7420746f6b656e206f776e6560008201527f72206e6f7220617070726f766564000000000000000000000000000000000000602082015250565b60006142be602e83613883565b91506142c982614262565b604082019050919050565b600060208201905081810360008301526142ed816142b1565b9050919050565b7f57686974656c697374206d61782e206c696d69742e0000000000000000000000600082015250565b600061432a601583613883565b9150614335826142f4565b602082019050919050565b600060208201905081810360008301526143598161431d565b9050919050565b600067ffffffffffffffff82169050919050565b61437d81614360565b82525050565b600061ffff82169050919050565b61439a81614383565b82525050565b600063ffffffff82169050919050565b6143b9816143a0565b82525050565b600060a0820190506143d46000830188613ce2565b6143e16020830187614374565b6143ee6040830186614391565b6143fb60608301856143b0565b61440860808301846143b0565b9695505050505050565b6000815190506144218161393d565b92915050565b60006020828403121561443d5761443c6137b3565b5b600061444b84828501614412565b91505092915050565b7f416363657373436f6e74726f6c3a2063616e206f6e6c792072656e6f756e636560008201527f20726f6c657320666f722073656c660000000000000000000000000000000000602082015250565b60006144b0602f83613883565b91506144bb82614454565b604082019050919050565b600060208201905081810360008301526144df816144a3565b9050919050565b600081905092915050565b50565b60006145016000836144e6565b915061450c826144f1565b600082019050919050565b6000614522826144f4565b9150819050919050565b7f53656e64657220616c72656164792077686974656c69737465642e0000000000600082015250565b6000614562601b83613883565b915061456d8261452c565b602082019050919050565b6000602082019050818103600083015261459181614555565b9050919050565b7f57686974656c697374206c696d69742065786365656465642e00000000000000600082015250565b60006145ce601983613883565b91506145d982614598565b602082019050919050565b600060208201905081810360008301526145fd816145c1565b9050919050565b7f4e487b7100000000000000000000000000000000000000000000000000000000600052601160045260246000fd5b600061463e82613933565b915061464983613933565b9250827fffffffffffffffffffffffffffffffffffffffffffffffffffffffffffffffff0382111561467e5761467d614604565b5b828201905092915050565b7f4552433732313a20696e76616c696420746f6b656e2049440000000000000000600082015250565b60006146bf601883613883565b91506146ca82614689565b602082019050919050565b600060208201905081810360008301526146ee816146b2565b9050919050565b7f4e487b7100000000000000000000000000000000000000000000000000000000600052603260045260246000fd5b7f4552433732313a2061646472657373207a65726f206973206e6f74206120766160008201527f6c6964206f776e65720000000000000000000000000000000000000000000000602082015250565b6000614780602983613883565b915061478b82614724565b604082019050919050565b600060208201905081810360008301526147af81614773565b9050919050565b7f53656e646572206973206e6f742077686974656c69737465642e000000000000600082015250565b60006147ec601a83613883565b91506147f7826147b6565b602082019050919050565b6000602082019050818103600083015261481b816147df565b9050919050565b600061482d82613933565b915061483883613933565b92508282101561484b5761484a614604565b5b828203905092915050565b7f4e6f206d6f72652073746f636b2e000000000000000000000000000000000000600082015250565b600061488c600e83613883565b915061489782614856565b602082019050919050565b600060208201905081810360008301526148bb8161487f565b9050919050565b7f57686974656c697374206d696e74696e6720697320696e2070726f677265737360008201527f2e00000000000000000000000000000000000000000000000000000000000000602082015250565b600061491e602183613883565b9150614929826148c2565b604082019050919050565b6000602082019050818103600083015261494d81614911565b9050919050565b600081905092915050565b600061496a82613878565b6149748185614954565b9350614984818560208601613894565b80840191505092915050565b600061499c828561495f565b91506149a8828461495f565b91508190509392505050565b7f4f776e61626c653a206e6577206f776e657220697320746865207a65726f206160008201527f6464726573730000000000000000000000000000000000000000000000000000602082015250565b6000614a10602683613883565b9150614a1b826149b4565b604082019050919050565b60006020820190508181036000830152614a3f81614a03565b9050919050565b6000614a5182613933565b91507fffffffffffffffffffffffffffffffffffffffffffffffffffffffffffffffff8203614a8357614a82614604565b5b600182019050919050565b7f4e487b7100000000000000000000000000000000000000000000000000000000600052601260045260246000fd5b6000614ac882613933565b9150614ad383613933565b925082614ae357614ae2614a8e565b5b828206905092915050565b6000604082019050614b03600083018561408b565b614b1060208301846139c8565b9392505050565b7f4552433732313a207472616e736665722066726f6d20696e636f72726563742060008201527f6f776e6572000000000000000000000000000000000000000000000000000000602082015250565b6000614b73602583613883565b9150614b7e82614b17565b604082019050919050565b60006020820190508181036000830152614ba281614b66565b9050919050565b7f4552433732313a207472616e7366657220746f20746865207a65726f2061646460008201527f7265737300000000000000000000000000000000000000000000000000000000602082015250565b6000614c05602483613883565b9150614c1082614ba9565b604082019050919050565b60006020820190508181036000830152614c3481614bf8565b9050919050565b7f4f776e61626c653a2063616c6c6572206973206e6f7420746865206f776e6572600082015250565b6000614c71602083613883565b9150614c7c82614c3b565b602082019050919050565b60006020820190508181036000830152614ca081614c64565b9050919050565b7f4552433732313a20617070726f766520746f2063616c6c657200000000000000600082015250565b6000614cdd601983613883565b9150614ce882614ca7565b602082019050919050565b60006020820190508181036000830152614d0c81614cd0565b9050919050565b7f4552433732313a207472616e7366657220746f206e6f6e20455243373231526560008201527f63656976657220696d706c656d656e7465720000000000000000000000000000602082015250565b6000614d6f603283613883565b9150614d7a82614d13565b604082019050919050565b60006020820190508181036000830152614d9e81614d62565b9050919050565b7f45524337323155524953746f726167653a2055524920736574206f66206e6f6e60008201527f6578697374656e7420746f6b656e000000000000000000000000000000000000602082015250565b6000614e01602e83613883565b9150614e0c82614da5565b604082019050919050565b60006020820190508181036000830152614e3081614df4565b9050919050565b60008190508160005260206000209050919050565b60006020601f8301049050919050565b600082821b905092915050565b600060088302614e997fffffffffffffffffffffffffffffffffffffffffffffffffffffffffffffffff82614e5c565b614ea38683614e5c565b95508019841693508086168417925050509392505050565b6000819050919050565b6000614ee0614edb614ed684613933565b614ebb565b613933565b9050919050565b6000819050919050565b614efa83614ec5565b614f0e614f0682614ee7565b848454614e69565b825550505050565b600090565b614f23614f16565b614f2e818484614ef1565b505050565b5b81811015614f5257614f47600082614f1b565b600181019050614f34565b5050565b601f821115614f9757614f6881614e37565b614f7184614e4c565b81016020851015614f80578190505b614f94614f8c85614e4c565b830182614f33565b50505b505050565b600082821c905092915050565b6000614fba60001984600802614f9c565b1980831691505092915050565b6000614fd38383614fa9565b9150826002028217905092915050565b614fec82613878565b67ffffffffffffffff81111561500557615004613a8d565b5b61500f82546140e4565b61501a828285614f56565b600060209050601f83116001811461504d576000841561503b578287015190505b6150458582614fc7565b8655506150ad565b601f19841661505b86614e37565b60005b828110156150835784890151825560018201915060208501945060208101905061505e565b868310156150a0578489015161509c601f891682614fa9565b8355505b6001600288020188555050505b505050505050565b7f416363657373436f6e74726f6c3a206163636f756e7420000000000000000000600082015250565b60006150eb601783614954565b91506150f6826150b5565b601782019050919050565b7f206973206d697373696e6720726f6c6520000000000000000000000000000000600082015250565b6000615137601183614954565b915061514282615101565b601182019050919050565b6000615158826150de565b9150615164828561495f565b915061516f8261512a565b915061517b828461495f565b91508190509392505050565b7f5061757361626c653a206e6f7420706175736564000000000000000000000000600082015250565b60006151bd601483613883565b91506151c882615187565b602082019050919050565b600060208201905081810360008301526151ec816151b0565b9050919050565b7f5061757361626c653a2070617573656400000000000000000000000000000000600082015250565b6000615229601083613883565b9150615234826151f3565b602082019050919050565b600060208201905081810360008301526152588161521c565b9050919050565b600081519050919050565b600082825260208201905092915050565b60006152868261525f565b615290818561526a565b93506152a0818560208601613894565b6152a9816138c7565b840191505092915050565b60006080820190506152c960008301876139c8565b6152d660208301866139c8565b6152e36040830185613a5e565b81810360608301526152f5818461527b565b905095945050505050565b60008151905061530f816137e9565b92915050565b60006020828403121561532b5761532a6137b3565b5b600061533984828501615300565b91505092915050565b600061534d82613933565b915061535883613933565b92508261536857615367614a8e565b5b828204905092915050565b600061537e82613933565b915061538983613933565b9250817fffffffffffffffffffffffffffffffffffffffffffffffffffffffffffffffff04831182151516156153c2576153c1614604565b5b828202905092915050565b60006153d882613933565b9150600082036153eb576153ea614604565b5b600182039050919050565b7f537472696e67733a20686578206c656e67746820696e73756666696369656e74600082015250565b600061542c602083613883565b9150615437826153f6565b602082019050919050565b6000602082019050818103600083015261545b8161541f565b9050919050565b7f4552433732313a206d696e7420746f20746865207a65726f2061646472657373600082015250565b6000615498602083613883565b91506154a382615462565b602082019050919050565b600060208201905081810360008301526154c78161548b565b9050919050565b7f4552433732313a20746f6b656e20616c7265616479206d696e74656400000000600082015250565b6000615504601c83613883565b915061550f826154ce565b602082019050919050565b60006020820190508181036000830152615533816154f7565b905091905056fea2646970667358221220eeaead5a84c321cb9c758329c1d138261ded8eaaf21899cd8b0d9a8117e6c2bc64736f6c634300080f0033",
  "linkReferences": {},
  "deployedLinkReferences": {}
}