{
  "_format": "hh-sol-artifact-1",
  "contractName": "ABITO",
  "sourceName": "contracts/ABITO.sol",
  "abi": [
    {
      "inputs": [
        {
          "internalType": "uint256",
          "name": "_maxWhitelistedAddresses",
          "type": "uint256"
        },
        {
          "internalType": "uint256",
          "name": "_maxNFTLimit",
          "type": "uint256"
        }
      ],
      "stateMutability": "nonpayable",
      "type": "constructor"
    },
    {
      "anonymous": false,
      "inputs": [
        {
          "indexed": true,
          "internalType": "address",
          "name": "owner",
          "type": "address"
        },
        {
          "indexed": true,
          "internalType": "address",
          "name": "approved",
          "type": "address"
        },
        {
          "indexed": true,
          "internalType": "uint256",
          "name": "tokenId",
          "type": "uint256"
        }
      ],
      "name": "Approval",
      "type": "event"
    },
    {
      "anonymous": false,
      "inputs": [
        {
          "indexed": true,
          "internalType": "address",
          "name": "owner",
          "type": "address"
        },
        {
          "indexed": true,
          "internalType": "address",
          "name": "operator",
          "type": "address"
        },
        {
          "indexed": false,
          "internalType": "bool",
          "name": "approved",
          "type": "bool"
        }
      ],
      "name": "ApprovalForAll",
      "type": "event"
    },
    {
      "anonymous": false,
      "inputs": [
        {
          "indexed": false,
          "internalType": "address",
          "name": "account",
          "type": "address"
        }
      ],
      "name": "Paused",
      "type": "event"
    },
    {
      "anonymous": false,
      "inputs": [
        {
          "indexed": true,
          "internalType": "bytes32",
          "name": "role",
          "type": "bytes32"
        },
        {
          "indexed": true,
          "internalType": "bytes32",
          "name": "previousAdminRole",
          "type": "bytes32"
        },
        {
          "indexed": true,
          "internalType": "bytes32",
          "name": "newAdminRole",
          "type": "bytes32"
        }
      ],
      "name": "RoleAdminChanged",
      "type": "event"
    },
    {
      "anonymous": false,
      "inputs": [
        {
          "indexed": true,
          "internalType": "bytes32",
          "name": "role",
          "type": "bytes32"
        },
        {
          "indexed": true,
          "internalType": "address",
          "name": "account",
          "type": "address"
        },
        {
          "indexed": true,
          "internalType": "address",
          "name": "sender",
          "type": "address"
        }
      ],
      "name": "RoleGranted",
      "type": "event"
    },
    {
      "anonymous": false,
      "inputs": [
        {
          "indexed": true,
          "internalType": "bytes32",
          "name": "role",
          "type": "bytes32"
        },
        {
          "indexed": true,
          "internalType": "address",
          "name": "account",
          "type": "address"
        },
        {
          "indexed": true,
          "internalType": "address",
          "name": "sender",
          "type": "address"
        }
      ],
      "name": "RoleRevoked",
      "type": "event"
    },
    {
      "anonymous": false,
      "inputs": [
        {
          "indexed": true,
          "internalType": "address",
          "name": "from",
          "type": "address"
        },
        {
          "indexed": true,
          "internalType": "address",
          "name": "to",
          "type": "address"
        },
        {
          "indexed": true,
          "internalType": "uint256",
          "name": "tokenId",
          "type": "uint256"
        }
      ],
      "name": "Transfer",
      "type": "event"
    },
    {
      "anonymous": false,
      "inputs": [
        {
          "indexed": false,
          "internalType": "address",
          "name": "account",
          "type": "address"
        }
      ],
      "name": "Unpaused",
      "type": "event"
    },
    {
      "inputs": [],
      "name": "DEFAULT_ADMIN_ROLE",
      "outputs": [
        {
          "internalType": "bytes32",
          "name": "",
          "type": "bytes32"
        }
      ],
      "stateMutability": "view",
      "type": "function"
    },
    {
      "inputs": [],
      "name": "MINTER_ROLE",
      "outputs": [
        {
          "internalType": "bytes32",
          "name": "",
          "type": "bytes32"
        }
      ],
      "stateMutability": "view",
      "type": "function"
    },
    {
      "inputs": [],
      "name": "PAUSER_ROLE",
      "outputs": [
        {
          "internalType": "bytes32",
          "name": "",
          "type": "bytes32"
        }
      ],
      "stateMutability": "view",
      "type": "function"
    },
    {
      "inputs": [
        {
          "internalType": "address",
          "name": "_addressToWhitelist",
          "type": "address"
        }
      ],
      "name": "addUserAddressToWhitelist",
      "outputs": [],
      "stateMutability": "nonpayable",
      "type": "function"
    },
    {
      "inputs": [
        {
          "internalType": "address",
          "name": "to",
          "type": "address"
        },
        {
          "internalType": "uint256",
          "name": "tokenId",
          "type": "uint256"
        }
      ],
      "name": "approve",
      "outputs": [],
      "stateMutability": "nonpayable",
      "type": "function"
    },
    {
      "inputs": [
        {
          "internalType": "address",
          "name": "owner",
          "type": "address"
        }
      ],
      "name": "balanceOf",
      "outputs": [
        {
          "internalType": "uint256",
          "name": "",
          "type": "uint256"
        }
      ],
      "stateMutability": "view",
      "type": "function"
    },
    {
      "inputs": [
        {
          "internalType": "uint256",
          "name": "tokenId",
          "type": "uint256"
        }
      ],
      "name": "getApproved",
      "outputs": [
        {
          "internalType": "address",
          "name": "",
          "type": "address"
        }
      ],
      "stateMutability": "view",
      "type": "function"
    },
    {
      "inputs": [],
      "name": "getMaxNumberOfWhitelistedAddresses",
      "outputs": [
        {
          "internalType": "uint256",
          "name": "",
          "type": "uint256"
        }
      ],
      "stateMutability": "view",
      "type": "function"
    },
    {
      "inputs": [],
      "name": "getNumberOfWhitelistedAddresses",
      "outputs": [
        {
          "internalType": "uint256",
          "name": "",
          "type": "uint256"
        }
      ],
      "stateMutability": "view",
      "type": "function"
    },
    {
      "inputs": [
        {
          "internalType": "bytes32",
          "name": "role",
          "type": "bytes32"
        }
      ],
      "name": "getRoleAdmin",
      "outputs": [
        {
          "internalType": "bytes32",
          "name": "",
          "type": "bytes32"
        }
      ],
      "stateMutability": "view",
      "type": "function"
    },
    {
      "inputs": [
        {
          "internalType": "bytes32",
          "name": "role",
          "type": "bytes32"
        },
        {
          "internalType": "address",
          "name": "account",
          "type": "address"
        }
      ],
      "name": "grantRole",
      "outputs": [],
      "stateMutability": "nonpayable",
      "type": "function"
    },
    {
      "inputs": [
        {
          "internalType": "bytes32",
          "name": "role",
          "type": "bytes32"
        },
        {
          "internalType": "address",
          "name": "account",
          "type": "address"
        }
      ],
      "name": "hasRole",
      "outputs": [
        {
          "internalType": "bool",
          "name": "",
          "type": "bool"
        }
      ],
      "stateMutability": "view",
      "type": "function"
    },
    {
      "inputs": [
        {
          "internalType": "address",
          "name": "owner",
          "type": "address"
        },
        {
          "internalType": "address",
          "name": "operator",
          "type": "address"
        }
      ],
      "name": "isApprovedForAll",
      "outputs": [
        {
          "internalType": "bool",
          "name": "",
          "type": "bool"
        }
      ],
      "stateMutability": "view",
      "type": "function"
    },
    {
      "inputs": [
        {
          "internalType": "address",
          "name": "_whitelistedAddress",
          "type": "address"
        }
      ],
      "name": "isWhitelisted",
      "outputs": [
        {
          "internalType": "bool",
          "name": "",
          "type": "bool"
        }
      ],
      "stateMutability": "view",
      "type": "function"
    },
    {
      "inputs": [],
      "name": "maxNFTLimit",
      "outputs": [
        {
          "internalType": "uint256",
          "name": "",
          "type": "uint256"
        }
      ],
      "stateMutability": "view",
      "type": "function"
    },
    {
      "inputs": [],
      "name": "maxNumberOfWhitelistedAddresses",
      "outputs": [
        {
          "internalType": "uint256",
          "name": "",
          "type": "uint256"
        }
      ],
      "stateMutability": "view",
      "type": "function"
    },
    {
      "inputs": [
        {
          "internalType": "address",
          "name": "to",
          "type": "address"
        }
      ],
      "name": "mintWhiteList",
      "outputs": [],
      "stateMutability": "nonpayable",
      "type": "function"
    },
    {
      "inputs": [],
      "name": "name",
      "outputs": [
        {
          "internalType": "string",
          "name": "",
          "type": "string"
        }
      ],
      "stateMutability": "view",
      "type": "function"
    },
    {
      "inputs": [],
      "name": "nftMinted",
      "outputs": [
        {
          "internalType": "uint256",
          "name": "",
          "type": "uint256"
        }
      ],
      "stateMutability": "view",
      "type": "function"
    },
    {
      "inputs": [],
      "name": "numberOfAddressesWhitelisted",
      "outputs": [
        {
          "internalType": "uint256",
          "name": "",
          "type": "uint256"
        }
      ],
      "stateMutability": "view",
      "type": "function"
    },
    {
      "inputs": [
        {
          "internalType": "uint256",
          "name": "tokenId",
          "type": "uint256"
        }
      ],
      "name": "ownerOf",
      "outputs": [
        {
          "internalType": "address",
          "name": "",
          "type": "address"
        }
      ],
      "stateMutability": "view",
      "type": "function"
    },
    {
      "inputs": [],
      "name": "pause",
      "outputs": [],
      "stateMutability": "nonpayable",
      "type": "function"
    },
    {
      "inputs": [],
      "name": "paused",
      "outputs": [
        {
          "internalType": "bool",
          "name": "",
          "type": "bool"
        }
      ],
      "stateMutability": "view",
      "type": "function"
    },
    {
      "inputs": [
        {
          "internalType": "address",
          "name": "_addressToRemove",
          "type": "address"
        }
      ],
      "name": "removeUserAddressFromWhitelist",
      "outputs": [],
      "stateMutability": "nonpayable",
      "type": "function"
    },
    {
      "inputs": [
        {
          "internalType": "bytes32",
          "name": "role",
          "type": "bytes32"
        },
        {
          "internalType": "address",
          "name": "account",
          "type": "address"
        }
      ],
      "name": "renounceRole",
      "outputs": [],
      "stateMutability": "nonpayable",
      "type": "function"
    },
    {
      "inputs": [
        {
          "internalType": "bytes32",
          "name": "role",
          "type": "bytes32"
        },
        {
          "internalType": "address",
          "name": "account",
          "type": "address"
        }
      ],
      "name": "revokeRole",
      "outputs": [],
      "stateMutability": "nonpayable",
      "type": "function"
    },
    {
      "inputs": [
        {
          "internalType": "address",
          "name": "to",
          "type": "address"
        }
      ],
      "name": "safeMint",
      "outputs": [],
      "stateMutability": "nonpayable",
      "type": "function"
    },
    {
      "inputs": [
        {
          "internalType": "address",
          "name": "from",
          "type": "address"
        },
        {
          "internalType": "address",
          "name": "to",
          "type": "address"
        },
        {
          "internalType": "uint256",
          "name": "tokenId",
          "type": "uint256"
        }
      ],
      "name": "safeTransferFrom",
      "outputs": [],
      "stateMutability": "nonpayable",
      "type": "function"
    },
    {
      "inputs": [
        {
          "internalType": "address",
          "name": "from",
          "type": "address"
        },
        {
          "internalType": "address",
          "name": "to",
          "type": "address"
        },
        {
          "internalType": "uint256",
          "name": "tokenId",
          "type": "uint256"
        },
        {
          "internalType": "bytes",
          "name": "data",
          "type": "bytes"
        }
      ],
      "name": "safeTransferFrom",
      "outputs": [],
      "stateMutability": "nonpayable",
      "type": "function"
    },
    {
      "inputs": [
        {
          "internalType": "address",
          "name": "operator",
          "type": "address"
        },
        {
          "internalType": "bool",
          "name": "approved",
          "type": "bool"
        }
      ],
      "name": "setApprovalForAll",
      "outputs": [],
      "stateMutability": "nonpayable",
      "type": "function"
    },
    {
      "inputs": [
        {
          "internalType": "bytes4",
          "name": "interfaceId",
          "type": "bytes4"
        }
      ],
      "name": "supportsInterface",
      "outputs": [
        {
          "internalType": "bool",
          "name": "",
          "type": "bool"
        }
      ],
      "stateMutability": "view",
      "type": "function"
    },
    {
      "inputs": [],
      "name": "symbol",
      "outputs": [
        {
          "internalType": "string",
          "name": "",
          "type": "string"
        }
      ],
      "stateMutability": "view",
      "type": "function"
    },
    {
      "inputs": [
        {
          "internalType": "uint256",
          "name": "tokenId",
          "type": "uint256"
        }
      ],
      "name": "tokenURI",
      "outputs": [
        {
          "internalType": "string",
          "name": "",
          "type": "string"
        }
      ],
      "stateMutability": "view",
      "type": "function"
    },
    {
      "inputs": [
        {
          "internalType": "address",
          "name": "from",
          "type": "address"
        },
        {
          "internalType": "address",
          "name": "to",
          "type": "address"
        },
        {
          "internalType": "uint256",
          "name": "tokenId",
          "type": "uint256"
        }
      ],
      "name": "transferFrom",
      "outputs": [],
      "stateMutability": "nonpayable",
      "type": "function"
    },
    {
      "inputs": [],
      "name": "unpause",
      "outputs": [],
      "stateMutability": "nonpayable",
      "type": "function"
    },
    {
      "inputs": [
        {
          "internalType": "address",
          "name": "_whitelistedAddress",
          "type": "address"
        }
      ],
      "name": "verifyUserAddress",
      "outputs": [
        {
          "internalType": "bool",
          "name": "",
          "type": "bool"
        }
      ],
      "stateMutability": "view",
      "type": "function"
    }
  ],
  "bytecode": "0x60806040523480156200001157600080fd5b506040516200431d3803806200431d833981810160405281019062000037919062000318565b6040518060400160405280600581526020017f414249544f0000000000000000000000000000000000000000000000000000008152506040518060400160405280600381526020017f41424900000000000000000000000000000000000000000000000000000000008152508160009081620000b49190620005cf565b508060019081620000c69190620005cf565b5050506000600660006101000a81548160ff021916908315150217905550620000f96000801b336200017360201b60201c565b6200012b7f65d7a28e3265b37a6474929f336521b332c1681b933f6cb9f3376673440d862a336200017360201b60201c565b6200015d7f9f2df0fed2c77648de5860a4cc508cd0818c85b8b8a1ab4ceeef8d981c8956a6336200017360201b60201c565b8160098190555080600d819055505050620006b6565b6200018582826200026560201b60201c565b620002615760016007600084815260200190815260200160002060000160008373ffffffffffffffffffffffffffffffffffffffff1673ffffffffffffffffffffffffffffffffffffffff16815260200190815260200160002060006101000a81548160ff02191690831515021790555062000206620002d060201b60201c565b73ffffffffffffffffffffffffffffffffffffffff168173ffffffffffffffffffffffffffffffffffffffff16837f2f8788117e7eff1d82e926ec794901d17c78024a50270940304540a733656f0d60405160405180910390a45b5050565b60006007600084815260200190815260200160002060000160008373ffffffffffffffffffffffffffffffffffffffff1673ffffffffffffffffffffffffffffffffffffffff16815260200190815260200160002060009054906101000a900460ff16905092915050565b600033905090565b600080fd5b6000819050919050565b620002f281620002dd565b8114620002fe57600080fd5b50565b6000815190506200031281620002e7565b92915050565b60008060408385031215620003325762000331620002d8565b5b6000620003428582860162000301565b9250506020620003558582860162000301565b9150509250929050565b600081519050919050565b7f4e487b7100000000000000000000000000000000000000000000000000000000600052604160045260246000fd5b7f4e487b7100000000000000000000000000000000000000000000000000000000600052602260045260246000fd5b60006002820490506001821680620003e157607f821691505b602082108103620003f757620003f662000399565b5b50919050565b60008190508160005260206000209050919050565b60006020601f8301049050919050565b600082821b905092915050565b600060088302620004617fffffffffffffffffffffffffffffffffffffffffffffffffffffffffffffffff8262000422565b6200046d868362000422565b95508019841693508086168417925050509392505050565b6000819050919050565b6000620004b0620004aa620004a484620002dd565b62000485565b620002dd565b9050919050565b6000819050919050565b620004cc836200048f565b620004e4620004db82620004b7565b8484546200042f565b825550505050565b600090565b620004fb620004ec565b62000508818484620004c1565b505050565b5b81811015620005305762000524600082620004f1565b6001810190506200050e565b5050565b601f8211156200057f576200054981620003fd565b620005548462000412565b8101602085101562000564578190505b6200057c620005738562000412565b8301826200050d565b50505b505050565b600082821c905092915050565b6000620005a46000198460080262000584565b1980831691505092915050565b6000620005bf838362000591565b9150826002028217905092915050565b620005da826200035f565b67ffffffffffffffff811115620005f657620005f56200036a565b5b620006028254620003c8565b6200060f82828562000534565b600060209050601f83116001811462000647576000841562000632578287015190505b6200063e8582620005b1565b865550620006ae565b601f1984166200065786620003fd565b60005b8281101562000681578489015182556001820191506020850194506020810190506200065a565b86831015620006a157848901516200069d601f89168262000591565b8355505b6001600288020188555050505b505050505050565b613c5780620006c66000396000f3fe608060405234801561001057600080fd5b506004361061021c5760003560e01c80637a662f8f11610125578063a22cb465116100ad578063d53913931161007c578063d539139314610629578063d547741f14610647578063e63ab1e914610663578063e985e9c514610681578063f1eebee6146106b15761021c565b8063a22cb465146105a3578063b88d4fde146105bf578063ba436547146105db578063c87b56dd146105f95761021c565b806391b17349116100f457806391b17349146104e957806391d1485414610507578063921a5b481461053757806395d89b4114610567578063a217fddf146105855761021c565b80637a662f8f146104875780637fa638c8146104a55780638456cb59146104c35780638cd5a0b9146104cd5761021c565b80633af32abf116101a857806358ef67471161017757806358ef6747146103cf5780635c975abb146103eb5780636352211e1461040957806370a082311461043957806372353033146104695761021c565b80633af32abf1461035d5780633f4ba83a1461038d57806340d097c31461039757806342842e0e146103b35761021c565b806323b872dd116101ef57806323b872dd146102bb578063248a9ca3146102d75780632f2ff15d146103075780633651f5e41461032357806336568abe146103415761021c565b806301ffc9a71461022157806306fdde0314610251578063081812fc1461026f578063095ea7b31461029f575b600080fd5b61023b6004803603810190610236919061277e565b6106cd565b60405161024891906127c6565b60405180910390f35b6102596106df565b604051610266919061287a565b60405180910390f35b610289600480360381019061028491906128d2565b610771565b6040516102969190612940565b60405180910390f35b6102b960048036038101906102b49190612987565b6107b7565b005b6102d560048036038101906102d091906129c7565b6108ce565b005b6102f160048036038101906102ec9190612a50565b61092e565b6040516102fe9190612a8c565b60405180910390f35b610321600480360381019061031c9190612aa7565b61094e565b005b61032b61096f565b6040516103389190612af6565b60405180910390f35b61035b60048036038101906103569190612aa7565b610975565b005b61037760048036038101906103729190612b11565b6109f8565b60405161038491906127c6565b60405180910390f35b610395610a4e565b005b6103b160048036038101906103ac9190612b11565b610a83565b005b6103cd60048036038101906103c891906129c7565b610ad4565b005b6103e960048036038101906103e49190612b11565b610af4565b005b6103f3610c4a565b60405161040091906127c6565b60405180910390f35b610423600480360381019061041e91906128d2565b610c61565b6040516104309190612940565b60405180910390f35b610453600480360381019061044e9190612b11565b610d12565b6040516104609190612af6565b60405180910390f35b610471610dc9565b60405161047e9190612af6565b60405180910390f35b61048f610dcf565b60405161049c9190612af6565b60405180910390f35b6104ad610dd9565b6040516104ba9190612af6565b60405180910390f35b6104cb610ddf565b005b6104e760048036038101906104e29190612b11565b610e14565b005b6104f1610f23565b6040516104fe9190612af6565b60405180910390f35b610521600480360381019061051c9190612aa7565b610f2d565b60405161052e91906127c6565b60405180910390f35b610551600480360381019061054c9190612b11565b610f98565b60405161055e91906127c6565b60405180910390f35b61056f610ff3565b60405161057c919061287a565b60405180910390f35b61058d611085565b60405161059a9190612a8c565b60405180910390f35b6105bd60048036038101906105b89190612b6a565b61108c565b005b6105d960048036038101906105d49190612cdf565b6110a2565b005b6105e3611104565b6040516105f09190612af6565b60405180910390f35b610613600480360381019061060e91906128d2565b61110a565b604051610620919061287a565b60405180910390f35b610631611172565b60405161063e9190612a8c565b60405180910390f35b610661600480360381019061065c9190612aa7565b611196565b005b61066b6111b7565b6040516106789190612a8c565b60405180910390f35b61069b60048036038101906106969190612d62565b6111db565b6040516106a891906127c6565b60405180910390f35b6106cb60048036038101906106c69190612b11565b61126f565b005b60006106d88261134f565b9050919050565b6060600080546106ee90612dd1565b80601f016020809104026020016040519081016040528092919081815260200182805461071a90612dd1565b80156107675780601f1061073c57610100808354040283529160200191610767565b820191906000526020600020905b81548152906001019060200180831161074a57829003601f168201915b5050505050905090565b600061077c826113c9565b6004600083815260200190815260200160002060009054906101000a900473ffffffffffffffffffffffffffffffffffffffff169050919050565b60006107c282610c61565b90508073ffffffffffffffffffffffffffffffffffffffff168373ffffffffffffffffffffffffffffffffffffffff1603610832576040517f08c379a000000000000000000000000000000000000000000000000000000000815260040161082990612e74565b60405180910390fd5b8073ffffffffffffffffffffffffffffffffffffffff16610851611414565b73ffffffffffffffffffffffffffffffffffffffff161480610880575061087f8161087a611414565b6111db565b5b6108bf576040517f08c379a00000000000000000000000000000000000000000000000000000000081526004016108b690612f06565b60405180910390fd5b6108c9838361141c565b505050565b6108df6108d9611414565b826114d5565b61091e576040517f08c379a000000000000000000000000000000000000000000000000000000000815260040161091590612f98565b60405180910390fd5b61092983838361156a565b505050565b600060076000838152602001908152602001600020600101549050919050565b6109578261092e565b610960816117d0565b61096a83836117e4565b505050565b600e5481565b61097d611414565b73ffffffffffffffffffffffffffffffffffffffff168173ffffffffffffffffffffffffffffffffffffffff16146109ea576040517f08c379a00000000000000000000000000000000000000000000000000000000081526004016109e19061302a565b60405180910390fd5b6109f482826118c5565b5050565b6000600c60008373ffffffffffffffffffffffffffffffffffffffff1673ffffffffffffffffffffffffffffffffffffffff16815260200190815260200160002060009054906101000a900460ff169050919050565b7f65d7a28e3265b37a6474929f336521b332c1681b933f6cb9f3376673440d862a610a78816117d0565b610a806119a7565b50565b7f9f2df0fed2c77648de5860a4cc508cd0818c85b8b8a1ab4ceeef8d981c8956a6610aad816117d0565b6000610ab96008611a0a565b9050610ac56008611a18565b610acf8382611a2e565b505050565b610aef838383604051806020016040528060008152506110a2565b505050565b6000801b610b01816117d0565b600c60008373ffffffffffffffffffffffffffffffffffffffff1673ffffffffffffffffffffffffffffffffffffffff16815260200190815260200160002060009054906101000a900460ff1615610b8e576040517f08c379a0000000000000000000000000000000000000000000000000000000008152600401610b85906130bc565b60405180910390fd5b600954600a5410610bd4576040517f08c379a0000000000000000000000000000000000000000000000000000000008152600401610bcb90613128565b60405180910390fd5b6001600c60008473ffffffffffffffffffffffffffffffffffffffff1673ffffffffffffffffffffffffffffffffffffffff16815260200190815260200160002060006101000a81548160ff0219169083151502179055506001600a6000828254610c3f9190613177565b925050819055505050565b6000600660009054906101000a900460ff16905090565b6000806002600084815260200190815260200160002060009054906101000a900473ffffffffffffffffffffffffffffffffffffffff169050600073ffffffffffffffffffffffffffffffffffffffff168173ffffffffffffffffffffffffffffffffffffffff1603610d09576040517f08c379a0000000000000000000000000000000000000000000000000000000008152600401610d0090613219565b60405180910390fd5b80915050919050565b60008073ffffffffffffffffffffffffffffffffffffffff168273ffffffffffffffffffffffffffffffffffffffff1603610d82576040517f08c379a0000000000000000000000000000000000000000000000000000000008152600401610d79906132ab565b60405180910390fd5b600360008373ffffffffffffffffffffffffffffffffffffffff1673ffffffffffffffffffffffffffffffffffffffff168152602001908152602001600020549050919050565b600a5481565b6000600a54905090565b600d5481565b7f65d7a28e3265b37a6474929f336521b332c1681b933f6cb9f3376673440d862a610e09816117d0565b610e11611a4c565b50565b6000801b610e21816117d0565b600c60008373ffffffffffffffffffffffffffffffffffffffff1673ffffffffffffffffffffffffffffffffffffffff16815260200190815260200160002060009054906101000a900460ff16610ead576040517f08c379a0000000000000000000000000000000000000000000000000000000008152600401610ea490613317565b60405180910390fd5b6000600c60008473ffffffffffffffffffffffffffffffffffffffff1673ffffffffffffffffffffffffffffffffffffffff16815260200190815260200160002060006101000a81548160ff0219169083151502179055506001600a6000828254610f189190613337565b925050819055505050565b6000600954905090565b60006007600084815260200190815260200160002060000160008373ffffffffffffffffffffffffffffffffffffffff1673ffffffffffffffffffffffffffffffffffffffff16815260200190815260200160002060009054906101000a900460ff16905092915050565b600080600c60008473ffffffffffffffffffffffffffffffffffffffff1673ffffffffffffffffffffffffffffffffffffffff16815260200190815260200160002060009054906101000a900460ff16905080915050919050565b60606001805461100290612dd1565b80601f016020809104026020016040519081016040528092919081815260200182805461102e90612dd1565b801561107b5780601f106110505761010080835404028352916020019161107b565b820191906000526020600020905b81548152906001019060200180831161105e57829003601f168201915b5050505050905090565b6000801b81565b61109e611097611414565b8383611aaf565b5050565b6110b36110ad611414565b836114d5565b6110f2576040517f08c379a00000000000000000000000000000000000000000000000000000000081526004016110e990612f98565b60405180910390fd5b6110fe84848484611c1b565b50505050565b60095481565b6060611115826113c9565b600061111f611c77565b9050600081511161113f576040518060200160405280600081525061116a565b8061114984611c8e565b60405160200161115a9291906133a7565b6040516020818303038152906040525b915050919050565b7f9f2df0fed2c77648de5860a4cc508cd0818c85b8b8a1ab4ceeef8d981c8956a681565b61119f8261092e565b6111a8816117d0565b6111b283836118c5565b505050565b7f65d7a28e3265b37a6474929f336521b332c1681b933f6cb9f3376673440d862a81565b6000600560008473ffffffffffffffffffffffffffffffffffffffff1673ffffffffffffffffffffffffffffffffffffffff16815260200190815260200160002060008373ffffffffffffffffffffffffffffffffffffffff1673ffffffffffffffffffffffffffffffffffffffff16815260200190815260200160002060009054906101000a900460ff16905092915050565b7f9f2df0fed2c77648de5860a4cc508cd0818c85b8b8a1ab4ceeef8d981c8956a6611299816117d0565b600e54600d5411156112e0576040517f08c379a00000000000000000000000000000000000000000000000000000000081526004016112d790613417565b60405180910390fd5b60006112ec6008611a0a565b90506112f7836109f8565b611336576040517f08c379a000000000000000000000000000000000000000000000000000000000815260040161132d90613483565b60405180910390fd5b6113406008611a18565b61134a8382611a2e565b505050565b60007f7965db0b000000000000000000000000000000000000000000000000000000007bffffffffffffffffffffffffffffffffffffffffffffffffffffffff1916827bffffffffffffffffffffffffffffffffffffffffffffffffffffffff191614806113c257506113c182611dee565b5b9050919050565b6113d281611ed0565b611411576040517f08c379a000000000000000000000000000000000000000000000000000000000815260040161140890613219565b60405180910390fd5b50565b600033905090565b816004600083815260200190815260200160002060006101000a81548173ffffffffffffffffffffffffffffffffffffffff021916908373ffffffffffffffffffffffffffffffffffffffff160217905550808273ffffffffffffffffffffffffffffffffffffffff1661148f83610c61565b73ffffffffffffffffffffffffffffffffffffffff167f8c5be1e5ebec7d5bd14f71427d1e84f3dd0314c0f7b2291e5b200ac8c7c3b92560405160405180910390a45050565b6000806114e183610c61565b90508073ffffffffffffffffffffffffffffffffffffffff168473ffffffffffffffffffffffffffffffffffffffff161480611523575061152281856111db565b5b8061156157508373ffffffffffffffffffffffffffffffffffffffff1661154984610771565b73ffffffffffffffffffffffffffffffffffffffff16145b91505092915050565b8273ffffffffffffffffffffffffffffffffffffffff1661158a82610c61565b73ffffffffffffffffffffffffffffffffffffffff16146115e0576040517f08c379a00000000000000000000000000000000000000000000000000000000081526004016115d790613515565b60405180910390fd5b600073ffffffffffffffffffffffffffffffffffffffff168273ffffffffffffffffffffffffffffffffffffffff160361164f576040517f08c379a0000000000000000000000000000000000000000000000000000000008152600401611646906135a7565b60405180910390fd5b61165a838383611f3c565b61166560008261141c565b6001600360008573ffffffffffffffffffffffffffffffffffffffff1673ffffffffffffffffffffffffffffffffffffffff16815260200190815260200160002060008282546116b59190613337565b925050819055506001600360008473ffffffffffffffffffffffffffffffffffffffff1673ffffffffffffffffffffffffffffffffffffffff168152602001908152602001600020600082825461170c9190613177565b92505081905550816002600083815260200190815260200160002060006101000a81548173ffffffffffffffffffffffffffffffffffffffff021916908373ffffffffffffffffffffffffffffffffffffffff160217905550808273ffffffffffffffffffffffffffffffffffffffff168473ffffffffffffffffffffffffffffffffffffffff167fddf252ad1be2c89b69c2b068fc378daa952ba7f163c4a11628f55a4df523b3ef60405160405180910390a46117cb838383611f54565b505050565b6117e1816117dc611414565b611f59565b50565b6117ee8282610f2d565b6118c15760016007600084815260200190815260200160002060000160008373ffffffffffffffffffffffffffffffffffffffff1673ffffffffffffffffffffffffffffffffffffffff16815260200190815260200160002060006101000a81548160ff021916908315150217905550611866611414565b73ffffffffffffffffffffffffffffffffffffffff168173ffffffffffffffffffffffffffffffffffffffff16837f2f8788117e7eff1d82e926ec794901d17c78024a50270940304540a733656f0d60405160405180910390a45b5050565b6118cf8282610f2d565b156119a35760006007600084815260200190815260200160002060000160008373ffffffffffffffffffffffffffffffffffffffff1673ffffffffffffffffffffffffffffffffffffffff16815260200190815260200160002060006101000a81548160ff021916908315150217905550611948611414565b73ffffffffffffffffffffffffffffffffffffffff168173ffffffffffffffffffffffffffffffffffffffff16837ff6391f5c32d9c69d2a47ea670b442974b53935d1edc7fd64eb21e047a839171b60405160405180910390a45b5050565b6119af611ff6565b6000600660006101000a81548160ff0219169083151502179055507f5db9ee0a495bf2e6ff9c91a7834c1ba4fdd244a5e8aa4e537bd38aeae4b073aa6119f3611414565b604051611a009190612940565b60405180910390a1565b600081600001549050919050565b6001816000016000828254019250508190555050565b611a4882826040518060200160405280600081525061203f565b5050565b611a5461209a565b6001600660006101000a81548160ff0219169083151502179055507f62e78cea01bee320cd4e420270b5ea74000d11b0c9f74754ebdbfc544b05a258611a98611414565b604051611aa59190612940565b60405180910390a1565b8173ffffffffffffffffffffffffffffffffffffffff168373ffffffffffffffffffffffffffffffffffffffff1603611b1d576040517f08c379a0000000000000000000000000000000000000000000000000000000008152600401611b1490613613565b60405180910390fd5b80600560008573ffffffffffffffffffffffffffffffffffffffff1673ffffffffffffffffffffffffffffffffffffffff16815260200190815260200160002060008473ffffffffffffffffffffffffffffffffffffffff1673ffffffffffffffffffffffffffffffffffffffff16815260200190815260200160002060006101000a81548160ff0219169083151502179055508173ffffffffffffffffffffffffffffffffffffffff168373ffffffffffffffffffffffffffffffffffffffff167f17307eab39ab6107e8899845ad3d59bd9653f200f220920489ca2b5937696c3183604051611c0e91906127c6565b60405180910390a3505050565b611c2684848461156a565b611c32848484846120e4565b611c71576040517f08c379a0000000000000000000000000000000000000000000000000000000008152600401611c68906136a5565b60405180910390fd5b50505050565b606060405180602001604052806000815250905090565b606060008203611cd5576040518060400160405280600181526020017f30000000000000000000000000000000000000000000000000000000000000008152509050611de9565b600082905060005b60008214611d07578080611cf0906136c5565b915050600a82611d00919061373c565b9150611cdd565b60008167ffffffffffffffff811115611d2357611d22612bb4565b5b6040519080825280601f01601f191660200182016040528015611d555781602001600182028036833780820191505090505b5090505b60008514611de257600182611d6e9190613337565b9150600a85611d7d919061376d565b6030611d899190613177565b60f81b818381518110611d9f57611d9e61379e565b5b60200101907effffffffffffffffffffffffffffffffffffffffffffffffffffffffffffff1916908160001a905350600a85611ddb919061373c565b9450611d59565b8093505050505b919050565b60007f80ac58cd000000000000000000000000000000000000000000000000000000007bffffffffffffffffffffffffffffffffffffffffffffffffffffffff1916827bffffffffffffffffffffffffffffffffffffffffffffffffffffffff19161480611eb957507f5b5e139f000000000000000000000000000000000000000000000000000000007bffffffffffffffffffffffffffffffffffffffffffffffffffffffff1916827bffffffffffffffffffffffffffffffffffffffffffffffffffffffff1916145b80611ec95750611ec88261226b565b5b9050919050565b60008073ffffffffffffffffffffffffffffffffffffffff166002600084815260200190815260200160002060009054906101000a900473ffffffffffffffffffffffffffffffffffffffff1673ffffffffffffffffffffffffffffffffffffffff1614159050919050565b611f4461209a565b611f4f8383836122d5565b505050565b505050565b611f638282610f2d565b611ff257611f888173ffffffffffffffffffffffffffffffffffffffff1660146122da565b611f968360001c60206122da565b604051602001611fa7929190613865565b6040516020818303038152906040526040517f08c379a0000000000000000000000000000000000000000000000000000000008152600401611fe9919061287a565b60405180910390fd5b5050565b611ffe610c4a565b61203d576040517f08c379a0000000000000000000000000000000000000000000000000000000008152600401612034906138eb565b60405180910390fd5b565b6120498383612516565b61205660008484846120e4565b612095576040517f08c379a000000000000000000000000000000000000000000000000000000000815260040161208c906136a5565b60405180910390fd5b505050565b6120a2610c4a565b156120e2576040517f08c379a00000000000000000000000000000000000000000000000000000000081526004016120d990613957565b60405180910390fd5b565b60006121058473ffffffffffffffffffffffffffffffffffffffff166126ef565b1561225e578373ffffffffffffffffffffffffffffffffffffffff1663150b7a0261212e611414565b8786866040518563ffffffff1660e01b815260040161215094939291906139cc565b6020604051808303816000875af192505050801561218c57506040513d601f19601f820116820180604052508101906121899190613a2d565b60015b61220e573d80600081146121bc576040519150601f19603f3d011682016040523d82523d6000602084013e6121c1565b606091505b506000815103612206576040517f08c379a00000000000000000000000000000000000000000000000000000000081526004016121fd906136a5565b60405180910390fd5b805181602001fd5b63150b7a0260e01b7bffffffffffffffffffffffffffffffffffffffffffffffffffffffff1916817bffffffffffffffffffffffffffffffffffffffffffffffffffffffff191614915050612263565b600190505b949350505050565b60007f01ffc9a7000000000000000000000000000000000000000000000000000000007bffffffffffffffffffffffffffffffffffffffffffffffffffffffff1916827bffffffffffffffffffffffffffffffffffffffffffffffffffffffff1916149050919050565b505050565b6060600060028360026122ed9190613a5a565b6122f79190613177565b67ffffffffffffffff8111156123105761230f612bb4565b5b6040519080825280601f01601f1916602001820160405280156123425781602001600182028036833780820191505090505b5090507f30000000000000000000000000000000000000000000000000000000000000008160008151811061237a5761237961379e565b5b60200101907effffffffffffffffffffffffffffffffffffffffffffffffffffffffffffff1916908160001a9053507f7800000000000000000000000000000000000000000000000000000000000000816001815181106123de576123dd61379e565b5b60200101907effffffffffffffffffffffffffffffffffffffffffffffffffffffffffffff1916908160001a9053506000600184600261241e9190613a5a565b6124289190613177565b90505b60018111156124c8577f3031323334353637383961626364656600000000000000000000000000000000600f86166010811061246a5761246961379e565b5b1a60f81b8282815181106124815761248061379e565b5b60200101907effffffffffffffffffffffffffffffffffffffffffffffffffffffffffffff1916908160001a905350600485901c9450806124c190613ab4565b905061242b565b506000841461250c576040517f08c379a000000000000000000000000000000000000000000000000000000000815260040161250390613b29565b60405180910390fd5b8091505092915050565b600073ffffffffffffffffffffffffffffffffffffffff168273ffffffffffffffffffffffffffffffffffffffff1603612585576040517f08c379a000000000000000000000000000000000000000000000000000000000815260040161257c90613b95565b60405180910390fd5b61258e81611ed0565b156125ce576040517f08c379a00000000000000000000000000000000000000000000000000000000081526004016125c590613c01565b60405180910390fd5b6125da60008383611f3c565b6001600360008473ffffffffffffffffffffffffffffffffffffffff1673ffffffffffffffffffffffffffffffffffffffff168152602001908152602001600020600082825461262a9190613177565b92505081905550816002600083815260200190815260200160002060006101000a81548173ffffffffffffffffffffffffffffffffffffffff021916908373ffffffffffffffffffffffffffffffffffffffff160217905550808273ffffffffffffffffffffffffffffffffffffffff16600073ffffffffffffffffffffffffffffffffffffffff167fddf252ad1be2c89b69c2b068fc378daa952ba7f163c4a11628f55a4df523b3ef60405160405180910390a46126eb60008383611f54565b5050565b6000808273ffffffffffffffffffffffffffffffffffffffff163b119050919050565b6000604051905090565b600080fd5b600080fd5b60007fffffffff0000000000000000000000000000000000000000000000000000000082169050919050565b61275b81612726565b811461276657600080fd5b50565b60008135905061277881612752565b92915050565b6000602082840312156127945761279361271c565b5b60006127a284828501612769565b91505092915050565b60008115159050919050565b6127c0816127ab565b82525050565b60006020820190506127db60008301846127b7565b92915050565b600081519050919050565b600082825260208201905092915050565b60005b8381101561281b578082015181840152602081019050612800565b8381111561282a576000848401525b50505050565b6000601f19601f8301169050919050565b600061284c826127e1565b61285681856127ec565b93506128668185602086016127fd565b61286f81612830565b840191505092915050565b600060208201905081810360008301526128948184612841565b905092915050565b6000819050919050565b6128af8161289c565b81146128ba57600080fd5b50565b6000813590506128cc816128a6565b92915050565b6000602082840312156128e8576128e761271c565b5b60006128f6848285016128bd565b91505092915050565b600073ffffffffffffffffffffffffffffffffffffffff82169050919050565b600061292a826128ff565b9050919050565b61293a8161291f565b82525050565b60006020820190506129556000830184612931565b92915050565b6129648161291f565b811461296f57600080fd5b50565b6000813590506129818161295b565b92915050565b6000806040838503121561299e5761299d61271c565b5b60006129ac85828601612972565b92505060206129bd858286016128bd565b9150509250929050565b6000806000606084860312156129e0576129df61271c565b5b60006129ee86828701612972565b93505060206129ff86828701612972565b9250506040612a10868287016128bd565b9150509250925092565b6000819050919050565b612a2d81612a1a565b8114612a3857600080fd5b50565b600081359050612a4a81612a24565b92915050565b600060208284031215612a6657612a6561271c565b5b6000612a7484828501612a3b565b91505092915050565b612a8681612a1a565b82525050565b6000602082019050612aa16000830184612a7d565b92915050565b60008060408385031215612abe57612abd61271c565b5b6000612acc85828601612a3b565b9250506020612add85828601612972565b9150509250929050565b612af08161289c565b82525050565b6000602082019050612b0b6000830184612ae7565b92915050565b600060208284031215612b2757612b2661271c565b5b6000612b3584828501612972565b91505092915050565b612b47816127ab565b8114612b5257600080fd5b50565b600081359050612b6481612b3e565b92915050565b60008060408385031215612b8157612b8061271c565b5b6000612b8f85828601612972565b9250506020612ba085828601612b55565b9150509250929050565b600080fd5b600080fd5b7f4e487b7100000000000000000000000000000000000000000000000000000000600052604160045260246000fd5b612bec82612830565b810181811067ffffffffffffffff82111715612c0b57612c0a612bb4565b5b80604052505050565b6000612c1e612712565b9050612c2a8282612be3565b919050565b600067ffffffffffffffff821115612c4a57612c49612bb4565b5b612c5382612830565b9050602081019050919050565b82818337600083830152505050565b6000612c82612c7d84612c2f565b612c14565b905082815260208101848484011115612c9e57612c9d612baf565b5b612ca9848285612c60565b509392505050565b600082601f830112612cc657612cc5612baa565b5b8135612cd6848260208601612c6f565b91505092915050565b60008060008060808587031215612cf957612cf861271c565b5b6000612d0787828801612972565b9450506020612d1887828801612972565b9350506040612d29878288016128bd565b925050606085013567ffffffffffffffff811115612d4a57612d49612721565b5b612d5687828801612cb1565b91505092959194509250565b60008060408385031215612d7957612d7861271c565b5b6000612d8785828601612972565b9250506020612d9885828601612972565b9150509250929050565b7f4e487b7100000000000000000000000000000000000000000000000000000000600052602260045260246000fd5b60006002820490506001821680612de957607f821691505b602082108103612dfc57612dfb612da2565b5b50919050565b7f4552433732313a20617070726f76616c20746f2063757272656e74206f776e6560008201527f7200000000000000000000000000000000000000000000000000000000000000602082015250565b6000612e5e6021836127ec565b9150612e6982612e02565b604082019050919050565b60006020820190508181036000830152612e8d81612e51565b9050919050565b7f4552433732313a20617070726f76652063616c6c6572206973206e6f7420746f60008201527f6b656e206f776e6572206e6f7220617070726f76656420666f7220616c6c0000602082015250565b6000612ef0603e836127ec565b9150612efb82612e94565b604082019050919050565b60006020820190508181036000830152612f1f81612ee3565b9050919050565b7f4552433732313a2063616c6c6572206973206e6f7420746f6b656e206f776e6560008201527f72206e6f7220617070726f766564000000000000000000000000000000000000602082015250565b6000612f82602e836127ec565b9150612f8d82612f26565b604082019050919050565b60006020820190508181036000830152612fb181612f75565b9050919050565b7f416363657373436f6e74726f6c3a2063616e206f6e6c792072656e6f756e636560008201527f20726f6c657320666f722073656c660000000000000000000000000000000000602082015250565b6000613014602f836127ec565b915061301f82612fb8565b604082019050919050565b6000602082019050818103600083015261304381613007565b9050919050565b7f4572726f723a2053656e64657220616c7265616479206265656e20776869746560008201527f6c69737465640000000000000000000000000000000000000000000000000000602082015250565b60006130a66026836127ec565b91506130b18261304a565b604082019050919050565b600060208201905081810360008301526130d581613099565b9050919050565b7f4572726f723a2057686974656c697374204c696d697420657863656564656400600082015250565b6000613112601f836127ec565b915061311d826130dc565b602082019050919050565b6000602082019050818103600083015261314181613105565b9050919050565b7f4e487b7100000000000000000000000000000000000000000000000000000000600052601160045260246000fd5b60006131828261289c565b915061318d8361289c565b9250827fffffffffffffffffffffffffffffffffffffffffffffffffffffffffffffffff038211156131c2576131c1613148565b5b828201905092915050565b7f4552433732313a20696e76616c696420746f6b656e2049440000000000000000600082015250565b60006132036018836127ec565b915061320e826131cd565b602082019050919050565b60006020820190508181036000830152613232816131f6565b9050919050565b7f4552433732313a2061646472657373207a65726f206973206e6f74206120766160008201527f6c6964206f776e65720000000000000000000000000000000000000000000000602082015250565b60006132956029836127ec565b91506132a082613239565b604082019050919050565b600060208201905081810360008301526132c481613288565b9050919050565b7f4572726f723a2053656e646572206973206e6f742077686974656c6973746564600082015250565b60006133016020836127ec565b915061330c826132cb565b602082019050919050565b60006020820190508181036000830152613330816132f4565b9050919050565b60006133428261289c565b915061334d8361289c565b9250828210156133605761335f613148565b5b828203905092915050565b600081905092915050565b6000613381826127e1565b61338b818561336b565b935061339b8185602086016127fd565b80840191505092915050565b60006133b38285613376565b91506133bf8284613376565b91508190509392505050565b7f536f72727920676f20746f20746865207075626c6963206d696e74696e672100600082015250565b6000613401601f836127ec565b915061340c826133cb565b602082019050919050565b60006020820190508181036000830152613430816133f4565b9050919050565b7f55736572206973206e6f742077686974656c6973746564000000000000000000600082015250565b600061346d6017836127ec565b915061347882613437565b602082019050919050565b6000602082019050818103600083015261349c81613460565b9050919050565b7f4552433732313a207472616e736665722066726f6d20696e636f72726563742060008201527f6f776e6572000000000000000000000000000000000000000000000000000000602082015250565b60006134ff6025836127ec565b915061350a826134a3565b604082019050919050565b6000602082019050818103600083015261352e816134f2565b9050919050565b7f4552433732313a207472616e7366657220746f20746865207a65726f2061646460008201527f7265737300000000000000000000000000000000000000000000000000000000602082015250565b60006135916024836127ec565b915061359c82613535565b604082019050919050565b600060208201905081810360008301526135c081613584565b9050919050565b7f4552433732313a20617070726f766520746f2063616c6c657200000000000000600082015250565b60006135fd6019836127ec565b9150613608826135c7565b602082019050919050565b6000602082019050818103600083015261362c816135f0565b9050919050565b7f4552433732313a207472616e7366657220746f206e6f6e20455243373231526560008201527f63656976657220696d706c656d656e7465720000000000000000000000000000602082015250565b600061368f6032836127ec565b915061369a82613633565b604082019050919050565b600060208201905081810360008301526136be81613682565b9050919050565b60006136d08261289c565b91507fffffffffffffffffffffffffffffffffffffffffffffffffffffffffffffffff820361370257613701613148565b5b600182019050919050565b7f4e487b7100000000000000000000000000000000000000000000000000000000600052601260045260246000fd5b60006137478261289c565b91506137528361289c565b9250826137625761376161370d565b5b828204905092915050565b60006137788261289c565b91506137838361289c565b9250826137935761379261370d565b5b828206905092915050565b7f4e487b7100000000000000000000000000000000000000000000000000000000600052603260045260246000fd5b7f416363657373436f6e74726f6c3a206163636f756e7420000000000000000000600082015250565b600061380360178361336b565b915061380e826137cd565b601782019050919050565b7f206973206d697373696e6720726f6c6520000000000000000000000000000000600082015250565b600061384f60118361336b565b915061385a82613819565b601182019050919050565b6000613870826137f6565b915061387c8285613376565b915061388782613842565b91506138938284613376565b91508190509392505050565b7f5061757361626c653a206e6f7420706175736564000000000000000000000000600082015250565b60006138d56014836127ec565b91506138e08261389f565b602082019050919050565b60006020820190508181036000830152613904816138c8565b9050919050565b7f5061757361626c653a2070617573656400000000000000000000000000000000600082015250565b60006139416010836127ec565b915061394c8261390b565b602082019050919050565b6000602082019050818103600083015261397081613934565b9050919050565b600081519050919050565b600082825260208201905092915050565b600061399e82613977565b6139a88185613982565b93506139b88185602086016127fd565b6139c181612830565b840191505092915050565b60006080820190506139e16000830187612931565b6139ee6020830186612931565b6139fb6040830185612ae7565b8181036060830152613a0d8184613993565b905095945050505050565b600081519050613a2781612752565b92915050565b600060208284031215613a4357613a4261271c565b5b6000613a5184828501613a18565b91505092915050565b6000613a658261289c565b9150613a708361289c565b9250817fffffffffffffffffffffffffffffffffffffffffffffffffffffffffffffffff0483118215151615613aa957613aa8613148565b5b828202905092915050565b6000613abf8261289c565b915060008203613ad257613ad1613148565b5b600182039050919050565b7f537472696e67733a20686578206c656e67746820696e73756666696369656e74600082015250565b6000613b136020836127ec565b9150613b1e82613add565b602082019050919050565b60006020820190508181036000830152613b4281613b06565b9050919050565b7f4552433732313a206d696e7420746f20746865207a65726f2061646472657373600082015250565b6000613b7f6020836127ec565b9150613b8a82613b49565b602082019050919050565b60006020820190508181036000830152613bae81613b72565b9050919050565b7f4552433732313a20746f6b656e20616c7265616479206d696e74656400000000600082015250565b6000613beb601c836127ec565b9150613bf682613bb5565b602082019050919050565b60006020820190508181036000830152613c1a81613bde565b905091905056fea26469706673582212200b759d431a45996e82c0dad633e2085b022e0d63cc0fbeb4871c90412eb3d6b964736f6c634300080f0033",
  "linkReferences": {},
  "deployedLinkReferences": {}
}