{
  "_format": "hh-sol-artifact-1",
  "contractName": "AbitoRandomNFTGenerator",
  "sourceName": "contracts/ABITO.sol",
  "abi": [
    {
      "inputs": [
        {
          "internalType": "uint256",
          "name": "_maxWhitelistedAddresses",
          "type": "uint256"
        },
        {
          "internalType": "uint256",
          "name": "_maxNFTLimit",
          "type": "uint256"
        },
        {
          "internalType": "uint256",
          "name": "_maxNFTLimitWhitelist",
          "type": "uint256"
        },
        {
          "internalType": "address",
          "name": "VRFCoordinatorV2",
          "type": "address"
        },
        {
          "internalType": "bytes32",
          "name": "gasLane",
          "type": "bytes32"
        },
        {
          "internalType": "uint64",
          "name": "subscriptionId",
          "type": "uint64"
        },
        {
          "internalType": "uint32",
          "name": "callbackGasLimit",
          "type": "uint32"
        },
        {
          "internalType": "string[3]",
          "name": "tokenURIs",
          "type": "string[3]"
        }
      ],
      "stateMutability": "nonpayable",
      "type": "constructor"
    },
    {
      "inputs": [
        {
          "internalType": "address",
          "name": "have",
          "type": "address"
        },
        {
          "internalType": "address",
          "name": "want",
          "type": "address"
        }
      ],
      "name": "OnlyCoordinatorCanFulfill",
      "type": "error"
    },
    {
      "anonymous": false,
      "inputs": [
        {
          "indexed": true,
          "internalType": "address",
          "name": "owner",
          "type": "address"
        },
        {
          "indexed": true,
          "internalType": "address",
          "name": "approved",
          "type": "address"
        },
        {
          "indexed": true,
          "internalType": "uint256",
          "name": "tokenId",
          "type": "uint256"
        }
      ],
      "name": "Approval",
      "type": "event"
    },
    {
      "anonymous": false,
      "inputs": [
        {
          "indexed": true,
          "internalType": "address",
          "name": "owner",
          "type": "address"
        },
        {
          "indexed": true,
          "internalType": "address",
          "name": "operator",
          "type": "address"
        },
        {
          "indexed": false,
          "internalType": "bool",
          "name": "approved",
          "type": "bool"
        }
      ],
      "name": "ApprovalForAll",
      "type": "event"
    },
    {
      "anonymous": false,
      "inputs": [
        {
          "indexed": false,
          "internalType": "address",
          "name": "account",
          "type": "address"
        }
      ],
      "name": "Paused",
      "type": "event"
    },
    {
      "anonymous": false,
      "inputs": [
        {
          "indexed": true,
          "internalType": "bytes32",
          "name": "role",
          "type": "bytes32"
        },
        {
          "indexed": true,
          "internalType": "bytes32",
          "name": "previousAdminRole",
          "type": "bytes32"
        },
        {
          "indexed": true,
          "internalType": "bytes32",
          "name": "newAdminRole",
          "type": "bytes32"
        }
      ],
      "name": "RoleAdminChanged",
      "type": "event"
    },
    {
      "anonymous": false,
      "inputs": [
        {
          "indexed": true,
          "internalType": "bytes32",
          "name": "role",
          "type": "bytes32"
        },
        {
          "indexed": true,
          "internalType": "address",
          "name": "account",
          "type": "address"
        },
        {
          "indexed": true,
          "internalType": "address",
          "name": "sender",
          "type": "address"
        }
      ],
      "name": "RoleGranted",
      "type": "event"
    },
    {
      "anonymous": false,
      "inputs": [
        {
          "indexed": true,
          "internalType": "bytes32",
          "name": "role",
          "type": "bytes32"
        },
        {
          "indexed": true,
          "internalType": "address",
          "name": "account",
          "type": "address"
        },
        {
          "indexed": true,
          "internalType": "address",
          "name": "sender",
          "type": "address"
        }
      ],
      "name": "RoleRevoked",
      "type": "event"
    },
    {
      "anonymous": false,
      "inputs": [
        {
          "indexed": true,
          "internalType": "address",
          "name": "from",
          "type": "address"
        },
        {
          "indexed": true,
          "internalType": "address",
          "name": "to",
          "type": "address"
        },
        {
          "indexed": true,
          "internalType": "uint256",
          "name": "tokenId",
          "type": "uint256"
        }
      ],
      "name": "Transfer",
      "type": "event"
    },
    {
      "anonymous": false,
      "inputs": [
        {
          "indexed": false,
          "internalType": "address",
          "name": "account",
          "type": "address"
        }
      ],
      "name": "Unpaused",
      "type": "event"
    },
    {
      "inputs": [],
      "name": "DEFAULT_ADMIN_ROLE",
      "outputs": [
        {
          "internalType": "bytes32",
          "name": "",
          "type": "bytes32"
        }
      ],
      "stateMutability": "view",
      "type": "function"
    },
    {
      "inputs": [],
      "name": "MINTER_ROLE",
      "outputs": [
        {
          "internalType": "bytes32",
          "name": "",
          "type": "bytes32"
        }
      ],
      "stateMutability": "view",
      "type": "function"
    },
    {
      "inputs": [],
      "name": "PAUSER_ROLE",
      "outputs": [
        {
          "internalType": "bytes32",
          "name": "",
          "type": "bytes32"
        }
      ],
      "stateMutability": "view",
      "type": "function"
    },
    {
      "inputs": [
        {
          "internalType": "address",
          "name": "_addressToWhitelist",
          "type": "address"
        }
      ],
      "name": "addUserAddressToWhitelist",
      "outputs": [],
      "stateMutability": "nonpayable",
      "type": "function"
    },
    {
      "inputs": [
        {
          "internalType": "address",
          "name": "to",
          "type": "address"
        },
        {
          "internalType": "uint256",
          "name": "tokenId",
          "type": "uint256"
        }
      ],
      "name": "approve",
      "outputs": [],
      "stateMutability": "nonpayable",
      "type": "function"
    },
    {
      "inputs": [
        {
          "internalType": "address",
          "name": "owner",
          "type": "address"
        }
      ],
      "name": "balanceOf",
      "outputs": [
        {
          "internalType": "uint256",
          "name": "",
          "type": "uint256"
        }
      ],
      "stateMutability": "view",
      "type": "function"
    },
    {
      "inputs": [
        {
          "internalType": "uint256",
          "name": "tokenId",
          "type": "uint256"
        }
      ],
      "name": "getApproved",
      "outputs": [
        {
          "internalType": "address",
          "name": "",
          "type": "address"
        }
      ],
      "stateMutability": "view",
      "type": "function"
    },
    {
      "inputs": [],
      "name": "getCallbackGasLimit",
      "outputs": [
        {
          "internalType": "uint32",
          "name": "",
          "type": "uint32"
        }
      ],
      "stateMutability": "view",
      "type": "function"
    },
    {
      "inputs": [],
      "name": "getChanceArray",
      "outputs": [
        {
          "internalType": "uint256[3]",
          "name": "",
          "type": "uint256[3]"
        }
      ],
      "stateMutability": "pure",
      "type": "function"
    },
    {
      "inputs": [],
      "name": "getGasLane",
      "outputs": [
        {
          "internalType": "bytes32",
          "name": "",
          "type": "bytes32"
        }
      ],
      "stateMutability": "view",
      "type": "function"
    },
    {
      "inputs": [],
      "name": "getMaxNumberOfWhitelistedAddresses",
      "outputs": [
        {
          "internalType": "uint256",
          "name": "",
          "type": "uint256"
        }
      ],
      "stateMutability": "view",
      "type": "function"
    },
    {
      "inputs": [],
      "name": "getNumberOfWhitelistedAddresses",
      "outputs": [
        {
          "internalType": "uint256",
          "name": "",
          "type": "uint256"
        }
      ],
      "stateMutability": "view",
      "type": "function"
    },
    {
      "inputs": [
        {
          "internalType": "bytes32",
          "name": "role",
          "type": "bytes32"
        }
      ],
      "name": "getRoleAdmin",
      "outputs": [
        {
          "internalType": "bytes32",
          "name": "",
          "type": "bytes32"
        }
      ],
      "stateMutability": "view",
      "type": "function"
    },
    {
      "inputs": [],
      "name": "getSubscriptionID",
      "outputs": [
        {
          "internalType": "uint64",
          "name": "",
          "type": "uint64"
        }
      ],
      "stateMutability": "view",
      "type": "function"
    },
    {
      "inputs": [],
      "name": "getVRFCoordinator",
      "outputs": [
        {
          "internalType": "contract VRFCoordinatorV2Interface",
          "name": "",
          "type": "address"
        }
      ],
      "stateMutability": "view",
      "type": "function"
    },
    {
      "inputs": [
        {
          "internalType": "bytes32",
          "name": "role",
          "type": "bytes32"
        },
        {
          "internalType": "address",
          "name": "account",
          "type": "address"
        }
      ],
      "name": "grantRole",
      "outputs": [],
      "stateMutability": "nonpayable",
      "type": "function"
    },
    {
      "inputs": [
        {
          "internalType": "bytes32",
          "name": "role",
          "type": "bytes32"
        },
        {
          "internalType": "address",
          "name": "account",
          "type": "address"
        }
      ],
      "name": "hasRole",
      "outputs": [
        {
          "internalType": "bool",
          "name": "",
          "type": "bool"
        }
      ],
      "stateMutability": "view",
      "type": "function"
    },
    {
      "inputs": [
        {
          "internalType": "address",
          "name": "owner",
          "type": "address"
        },
        {
          "internalType": "address",
          "name": "operator",
          "type": "address"
        }
      ],
      "name": "isApprovedForAll",
      "outputs": [
        {
          "internalType": "bool",
          "name": "",
          "type": "bool"
        }
      ],
      "stateMutability": "view",
      "type": "function"
    },
    {
      "inputs": [
        {
          "internalType": "address",
          "name": "_whitelistedAddress",
          "type": "address"
        }
      ],
      "name": "isWhitelisted",
      "outputs": [
        {
          "internalType": "bool",
          "name": "",
          "type": "bool"
        }
      ],
      "stateMutability": "view",
      "type": "function"
    },
    {
      "inputs": [],
      "name": "maxNFTLimit",
      "outputs": [
        {
          "internalType": "uint256",
          "name": "",
          "type": "uint256"
        }
      ],
      "stateMutability": "view",
      "type": "function"
    },
    {
      "inputs": [],
      "name": "maxNFTLimitWhitelist",
      "outputs": [
        {
          "internalType": "uint256",
          "name": "",
          "type": "uint256"
        }
      ],
      "stateMutability": "view",
      "type": "function"
    },
    {
      "inputs": [],
      "name": "maxNumberOfWhitelistedAddresses",
      "outputs": [
        {
          "internalType": "uint256",
          "name": "",
          "type": "uint256"
        }
      ],
      "stateMutability": "view",
      "type": "function"
    },
    {
      "inputs": [
        {
          "internalType": "uint256",
          "name": "requestId",
          "type": "uint256"
        },
        {
          "internalType": "uint256[]",
          "name": "randomWords",
          "type": "uint256[]"
        }
      ],
      "name": "mintWhiteList",
      "outputs": [],
      "stateMutability": "nonpayable",
      "type": "function"
    },
    {
      "inputs": [],
      "name": "name",
      "outputs": [
        {
          "internalType": "string",
          "name": "",
          "type": "string"
        }
      ],
      "stateMutability": "view",
      "type": "function"
    },
    {
      "inputs": [],
      "name": "nftMinted",
      "outputs": [
        {
          "internalType": "uint256",
          "name": "",
          "type": "uint256"
        }
      ],
      "stateMutability": "view",
      "type": "function"
    },
    {
      "inputs": [],
      "name": "numberOfAddressesWhitelisted",
      "outputs": [
        {
          "internalType": "uint256",
          "name": "",
          "type": "uint256"
        }
      ],
      "stateMutability": "view",
      "type": "function"
    },
    {
      "inputs": [
        {
          "internalType": "uint256",
          "name": "tokenId",
          "type": "uint256"
        }
      ],
      "name": "ownerOf",
      "outputs": [
        {
          "internalType": "address",
          "name": "",
          "type": "address"
        }
      ],
      "stateMutability": "view",
      "type": "function"
    },
    {
      "inputs": [],
      "name": "pause",
      "outputs": [],
      "stateMutability": "nonpayable",
      "type": "function"
    },
    {
      "inputs": [],
      "name": "paused",
      "outputs": [
        {
          "internalType": "bool",
          "name": "",
          "type": "bool"
        }
      ],
      "stateMutability": "view",
      "type": "function"
    },
    {
      "inputs": [
        {
          "internalType": "uint256",
          "name": "requestId",
          "type": "uint256"
        },
        {
          "internalType": "uint256[]",
          "name": "randomWords",
          "type": "uint256[]"
        }
      ],
      "name": "publicMint",
      "outputs": [],
      "stateMutability": "nonpayable",
      "type": "function"
    },
    {
      "inputs": [
        {
          "internalType": "uint256",
          "name": "requestId",
          "type": "uint256"
        },
        {
          "internalType": "uint256[]",
          "name": "randomWords",
          "type": "uint256[]"
        }
      ],
      "name": "rawFulfillRandomWords",
      "outputs": [],
      "stateMutability": "nonpayable",
      "type": "function"
    },
    {
      "inputs": [
        {
          "internalType": "address",
          "name": "_addressToRemove",
          "type": "address"
        }
      ],
      "name": "removeUserAddressFromWhitelist",
      "outputs": [],
      "stateMutability": "nonpayable",
      "type": "function"
    },
    {
      "inputs": [
        {
          "internalType": "bytes32",
          "name": "role",
          "type": "bytes32"
        },
        {
          "internalType": "address",
          "name": "account",
          "type": "address"
        }
      ],
      "name": "renounceRole",
      "outputs": [],
      "stateMutability": "nonpayable",
      "type": "function"
    },
    {
      "inputs": [],
      "name": "requestObject",
      "outputs": [
        {
          "internalType": "uint256",
          "name": "requestId",
          "type": "uint256"
        }
      ],
      "stateMutability": "nonpayable",
      "type": "function"
    },
    {
      "inputs": [
        {
          "internalType": "bytes32",
          "name": "role",
          "type": "bytes32"
        },
        {
          "internalType": "address",
          "name": "account",
          "type": "address"
        }
      ],
      "name": "revokeRole",
      "outputs": [],
      "stateMutability": "nonpayable",
      "type": "function"
    },
    {
      "inputs": [],
      "name": "s_tokenCounter",
      "outputs": [
        {
          "internalType": "uint256",
          "name": "",
          "type": "uint256"
        }
      ],
      "stateMutability": "view",
      "type": "function"
    },
    {
      "inputs": [
        {
          "internalType": "uint256",
          "name": "",
          "type": "uint256"
        }
      ],
      "name": "s_tokenURIs",
      "outputs": [
        {
          "internalType": "string",
          "name": "",
          "type": "string"
        }
      ],
      "stateMutability": "view",
      "type": "function"
    },
    {
      "inputs": [
        {
          "internalType": "address",
          "name": "from",
          "type": "address"
        },
        {
          "internalType": "address",
          "name": "to",
          "type": "address"
        },
        {
          "internalType": "uint256",
          "name": "tokenId",
          "type": "uint256"
        }
      ],
      "name": "safeTransferFrom",
      "outputs": [],
      "stateMutability": "nonpayable",
      "type": "function"
    },
    {
      "inputs": [
        {
          "internalType": "address",
          "name": "from",
          "type": "address"
        },
        {
          "internalType": "address",
          "name": "to",
          "type": "address"
        },
        {
          "internalType": "uint256",
          "name": "tokenId",
          "type": "uint256"
        },
        {
          "internalType": "bytes",
          "name": "data",
          "type": "bytes"
        }
      ],
      "name": "safeTransferFrom",
      "outputs": [],
      "stateMutability": "nonpayable",
      "type": "function"
    },
    {
      "inputs": [
        {
          "internalType": "uint256",
          "name": "moddedRng",
          "type": "uint256"
        }
      ],
      "name": "selectFromModdedRng",
      "outputs": [
        {
          "internalType": "uint256",
          "name": "",
          "type": "uint256"
        }
      ],
      "stateMutability": "pure",
      "type": "function"
    },
    {
      "inputs": [
        {
          "internalType": "address",
          "name": "operator",
          "type": "address"
        },
        {
          "internalType": "bool",
          "name": "approved",
          "type": "bool"
        }
      ],
      "name": "setApprovalForAll",
      "outputs": [],
      "stateMutability": "nonpayable",
      "type": "function"
    },
    {
      "inputs": [
        {
          "internalType": "bytes4",
          "name": "interfaceId",
          "type": "bytes4"
        }
      ],
      "name": "supportsInterface",
      "outputs": [
        {
          "internalType": "bool",
          "name": "",
          "type": "bool"
        }
      ],
      "stateMutability": "view",
      "type": "function"
    },
    {
      "inputs": [],
      "name": "symbol",
      "outputs": [
        {
          "internalType": "string",
          "name": "",
          "type": "string"
        }
      ],
      "stateMutability": "view",
      "type": "function"
    },
    {
      "inputs": [
        {
          "internalType": "uint256",
          "name": "tokenId",
          "type": "uint256"
        }
      ],
      "name": "tokenURI",
      "outputs": [
        {
          "internalType": "string",
          "name": "",
          "type": "string"
        }
      ],
      "stateMutability": "view",
      "type": "function"
    },
    {
      "inputs": [
        {
          "internalType": "address",
          "name": "from",
          "type": "address"
        },
        {
          "internalType": "address",
          "name": "to",
          "type": "address"
        },
        {
          "internalType": "uint256",
          "name": "tokenId",
          "type": "uint256"
        }
      ],
      "name": "transferFrom",
      "outputs": [],
      "stateMutability": "nonpayable",
      "type": "function"
    },
    {
      "inputs": [],
      "name": "unpause",
      "outputs": [],
      "stateMutability": "nonpayable",
      "type": "function"
    },
    {
      "inputs": [
        {
          "internalType": "address",
          "name": "_whitelistedAddress",
          "type": "address"
        }
      ],
      "name": "verifyUserAddress",
      "outputs": [
        {
          "internalType": "bool",
          "name": "",
          "type": "bool"
        }
      ],
      "stateMutability": "view",
      "type": "function"
    }
  ],
  "bytecode": "0x6101206040523480156200001257600080fd5b50604051620059f4380380620059f483398181016040528101906200003891906200086d565b846040518060400160405280600581526020017f414249544f0000000000000000000000000000000000000000000000000000008152506040518060400160405280600381526020017f41424900000000000000000000000000000000000000000000000000000000008152508160009081620000b6919062000b96565b508060019081620000c8919062000b96565b5050508073ffffffffffffffffffffffffffffffffffffffff1660808173ffffffffffffffffffffffffffffffffffffffff1681525050506000600760006101000a81548160ff0219169083151502179055508473ffffffffffffffffffffffffffffffffffffffff1660a08173ffffffffffffffffffffffffffffffffffffffff16815250508360c081815250508267ffffffffffffffff1660e08167ffffffffffffffff16815250508163ffffffff166101008163ffffffff16815250506000601581905550806012906003620001a3929190620003a5565b50620001b96000801b336200024060201b60201c565b620001eb7f65d7a28e3265b37a6474929f336521b332c1681b933f6cb9f3376673440d862a336200024060201b60201c565b6200021d7f9f2df0fed2c77648de5860a4cc508cd0818c85b8b8a1ab4ceeef8d981c8956a6336200024060201b60201c565b87600a8190555086600e8190555085600f81905550505050505050505062000c7d565b6200025282826200033260201b60201c565b6200032e5760016008600084815260200190815260200160002060000160008373ffffffffffffffffffffffffffffffffffffffff1673ffffffffffffffffffffffffffffffffffffffff16815260200190815260200160002060006101000a81548160ff021916908315150217905550620002d36200039d60201b60201c565b73ffffffffffffffffffffffffffffffffffffffff168173ffffffffffffffffffffffffffffffffffffffff16837f2f8788117e7eff1d82e926ec794901d17c78024a50270940304540a733656f0d60405160405180910390a45b5050565b60006008600084815260200190815260200160002060000160008373ffffffffffffffffffffffffffffffffffffffff1673ffffffffffffffffffffffffffffffffffffffff16815260200190815260200160002060009054906101000a900460ff16905092915050565b600033905090565b8260038101928215620003e5579160200282015b82811115620003e4578251829081620003d3919062000b96565b5091602001919060010190620003b9565b5b509050620003f49190620003f8565b5090565b5b808211156200041c576000818162000412919062000420565b50600101620003f9565b5090565b5080546200042e906200098f565b6000825580601f1062000442575062000463565b601f01602090049060005260206000209081019062000462919062000466565b5b50565b5b808211156200048157600081600090555060010162000467565b5090565b6000604051905090565b600080fd5b600080fd5b6000819050919050565b620004ae8162000499565b8114620004ba57600080fd5b50565b600081519050620004ce81620004a3565b92915050565b600073ffffffffffffffffffffffffffffffffffffffff82169050919050565b60006200050182620004d4565b9050919050565b6200051381620004f4565b81146200051f57600080fd5b50565b600081519050620005338162000508565b92915050565b6000819050919050565b6200054e8162000539565b81146200055a57600080fd5b50565b6000815190506200056e8162000543565b92915050565b600067ffffffffffffffff82169050919050565b620005938162000574565b81146200059f57600080fd5b50565b600081519050620005b38162000588565b92915050565b600063ffffffff82169050919050565b620005d481620005b9565b8114620005e057600080fd5b50565b600081519050620005f481620005c9565b92915050565b600080fd5b6000601f19601f8301169050919050565b7f4e487b7100000000000000000000000000000000000000000000000000000000600052604160045260246000fd5b6200064a82620005ff565b810181811067ffffffffffffffff821117156200066c576200066b62000610565b5b80604052505050565b60006200068162000485565b90506200068f82826200063f565b919050565b600067ffffffffffffffff821115620006b257620006b162000610565b5b602082029050919050565b600080fd5b600080fd5b600067ffffffffffffffff821115620006e557620006e462000610565b5b620006f082620005ff565b9050602081019050919050565b60005b838110156200071d57808201518184015260208101905062000700565b838111156200072d576000848401525b50505050565b60006200074a6200074484620006c7565b62000675565b905082815260208101848484011115620007695762000768620006c2565b5b62000776848285620006fd565b509392505050565b600082601f830112620007965762000795620005fa565b5b8151620007a884826020860162000733565b91505092915050565b6000620007c8620007c28462000694565b62000675565b90508060208402830185811115620007e557620007e4620006bd565b5b835b818110156200083357805167ffffffffffffffff8111156200080e576200080d620005fa565b5b8086016200081d89826200077e565b85526020850194505050602081019050620007e7565b5050509392505050565b600082601f830112620008555762000854620005fa565b5b600362000864848285620007b1565b91505092915050565b600080600080600080600080610100898b0312156200089157620008906200048f565b5b6000620008a18b828c01620004bd565b9850506020620008b48b828c01620004bd565b9750506040620008c78b828c01620004bd565b9650506060620008da8b828c0162000522565b9550506080620008ed8b828c016200055d565b94505060a0620009008b828c01620005a2565b93505060c0620009138b828c01620005e3565b92505060e089015167ffffffffffffffff81111562000937576200093662000494565b5b620009458b828c016200083d565b9150509295985092959890939650565b600081519050919050565b7f4e487b7100000000000000000000000000000000000000000000000000000000600052602260045260246000fd5b60006002820490506001821680620009a857607f821691505b602082108103620009be57620009bd62000960565b5b50919050565b60008190508160005260206000209050919050565b60006020601f8301049050919050565b600082821b905092915050565b60006008830262000a287fffffffffffffffffffffffffffffffffffffffffffffffffffffffffffffffff82620009e9565b62000a348683620009e9565b95508019841693508086168417925050509392505050565b6000819050919050565b600062000a7762000a7162000a6b8462000499565b62000a4c565b62000499565b9050919050565b6000819050919050565b62000a938362000a56565b62000aab62000aa28262000a7e565b848454620009f6565b825550505050565b600090565b62000ac262000ab3565b62000acf81848462000a88565b505050565b5b8181101562000af75762000aeb60008262000ab8565b60018101905062000ad5565b5050565b601f82111562000b465762000b1081620009c4565b62000b1b84620009d9565b8101602085101562000b2b578190505b62000b4362000b3a85620009d9565b83018262000ad4565b50505b505050565b600082821c905092915050565b600062000b6b6000198460080262000b4b565b1980831691505092915050565b600062000b86838362000b58565b9150826002028217905092915050565b62000ba18262000955565b67ffffffffffffffff81111562000bbd5762000bbc62000610565b5b62000bc982546200098f565b62000bd682828562000afb565b600060209050601f83116001811462000c0e576000841562000bf9578287015190505b62000c05858262000b78565b86555062000c75565b601f19841662000c1e86620009c4565b60005b8281101562000c485784890151825560018201915060208501945060208101905062000c21565b8683101562000c68578489015162000c64601f89168262000b58565b8355505b6001600288020188555050505b505050505050565b60805160a05160c05160e05161010051614d0f62000ce560003960008181610b3d0152611956015260008181610b1a01526115c6015260008181610af90152611733015260008181610abd015261169d015260008181610c1a0152610c6e0152614d0f6000f3fe608060405234801561001057600080fd5b50600436106102955760003560e01c80637de44c6311610167578063a378f371116100ce578063d4cb890c11610087578063d4cb890c146107f0578063d53913931461080c578063d547741f1461082a578063de8be8e714610846578063e63ab1e914610864578063e985e9c51461088257610295565b8063a378f3711461072c578063b88d4fde1461074a578063ba43654714610766578063bd27baea14610784578063c19dd76b146107a2578063c87b56dd146107c057610295565b806391d148541161012057806391d1485414610656578063921a5b481461068657806395d7427a146106b657806395d89b41146106d4578063a217fddf146106f2578063a22cb4651461071057610295565b80637de44c63146105a85780637fa638c8146105d85780638456cb59146105f65780638727c8a6146106005780638cd5a0b91461061c57806391b173491461063857610295565b806336568abe1161020b5780635c975abb116101c45780635c975abb146104d05780635dacf5f4146104ee5780636352211e1461050c57806370a082311461053c578063723530331461056c5780637a662f8f1461058a57610295565b806336568abe146104125780633af32abf1461042e5780633f4ba83a1461045e57806342842e0e1461046857806358ef6747146104845780635c014863146104a057610295565b806318225b641161025d57806318225b64146103525780631fe543e31461037057806323b872dd1461038c578063248a9ca3146103a85780632f2ff15d146103d85780633651f5e4146103f457610295565b806301ffc9a71461029a57806306fdde03146102ca578063081812fc146102e8578063095ea7b3146103185780630b21a83b14610334575b600080fd5b6102b460048036038101906102af919061307b565b6108b2565b6040516102c191906130c3565b60405180910390f35b6102d26108c4565b6040516102df9190613177565b60405180910390f35b61030260048036038101906102fd91906131cf565b610956565b60405161030f919061323d565b60405180910390f35b610332600480360381019061032d9190613284565b61099c565b005b61033c610ab3565b60405161034991906132d3565b60405180910390f35b61035a610ab9565b60405161036791906132d3565b60405180910390f35b61038a60048036038101906103859190613436565b610c18565b005b6103a660048036038101906103a19190613492565b610cd8565b005b6103c260048036038101906103bd919061351b565b610d38565b6040516103cf9190613557565b60405180910390f35b6103f260048036038101906103ed9190613572565b610d58565b005b6103fc610d79565b60405161040991906132d3565b60405180910390f35b61042c60048036038101906104279190613572565b610d7f565b005b610448600480360381019061044391906135b2565b610e02565b60405161045591906130c3565b60405180910390f35b610466610e58565b005b610482600480360381019061047d9190613492565b610e8d565b005b61049e600480360381019061049991906135b2565b610ead565b005b6104ba60048036038101906104b591906131cf565b611003565b6040516104c79190613177565b60405180910390f35b6104d86110a6565b6040516104e591906130c3565b60405180910390f35b6104f66110bd565b604051610503919061368a565b60405180910390f35b610526600480360381019061052191906131cf565b6110e9565b604051610533919061323d565b60405180910390f35b610556600480360381019061055191906135b2565b61119a565b60405161056391906132d3565b60405180910390f35b610574611251565b60405161058191906132d3565b60405180910390f35b610592611257565b60405161059f91906132d3565b60405180910390f35b6105c260048036038101906105bd91906131cf565b611261565b6040516105cf91906132d3565b60405180910390f35b6105e0611302565b6040516105ed91906132d3565b60405180910390f35b6105fe611308565b005b61061a60048036038101906106159190613436565b61133d565b005b610636600480360381019061063191906135b2565b6113e3565b005b6106406114f2565b60405161064d91906132d3565b60405180910390f35b610670600480360381019061066b9190613572565b6114fc565b60405161067d91906130c3565b60405180910390f35b6106a0600480360381019061069b91906135b2565b611567565b6040516106ad91906130c3565b60405180910390f35b6106be6115c2565b6040516106cb91906136c8565b60405180910390f35b6106dc6115ea565b6040516106e99190613177565b60405180910390f35b6106fa61167c565b6040516107079190613557565b60405180910390f35b61072a6004803603810190610725919061370f565b611683565b005b610734611699565b60405161074191906137ae565b60405180910390f35b610764600480360381019061075f919061387e565b6116c1565b005b61076e611723565b60405161077b91906132d3565b60405180910390f35b61078c611729565b60405161079991906132d3565b60405180910390f35b6107aa61172f565b6040516107b79190613557565b60405180910390f35b6107da60048036038101906107d591906131cf565b611757565b6040516107e79190613177565b60405180910390f35b61080a60048036038101906108059190613436565b611869565b005b61081461190d565b6040516108219190613557565b60405180910390f35b610844600480360381019061083f9190613572565b611931565b005b61084e611952565b60405161085b9190613920565b60405180910390f35b61086c61197a565b6040516108799190613557565b60405180910390f35b61089c6004803603810190610897919061393b565b61199e565b6040516108a991906130c3565b60405180910390f35b60006108bd82611a32565b9050919050565b6060600080546108d3906139aa565b80601f01602080910402602001604051908101604052809291908181526020018280546108ff906139aa565b801561094c5780601f106109215761010080835404028352916020019161094c565b820191906000526020600020905b81548152906001019060200180831161092f57829003601f168201915b5050505050905090565b600061096182611aac565b6004600083815260200190815260200160002060009054906101000a900473ffffffffffffffffffffffffffffffffffffffff169050919050565b60006109a7826110e9565b90508073ffffffffffffffffffffffffffffffffffffffff168373ffffffffffffffffffffffffffffffffffffffff1603610a17576040517f08c379a0000000000000000000000000000000000000000000000000000000008152600401610a0e90613a4d565b60405180910390fd5b8073ffffffffffffffffffffffffffffffffffffffff16610a36611af7565b73ffffffffffffffffffffffffffffffffffffffff161480610a655750610a6481610a5f611af7565b61199e565b5b610aa4576040517f08c379a0000000000000000000000000000000000000000000000000000000008152600401610a9b90613adf565b60405180910390fd5b610aae8383611aff565b505050565b60155481565b60007f000000000000000000000000000000000000000000000000000000000000000073ffffffffffffffffffffffffffffffffffffffff16635d3b1d307f00000000000000000000000000000000000000000000000000000000000000007f000000000000000000000000000000000000000000000000000000000000000060037f000000000000000000000000000000000000000000000000000000000000000060016040518663ffffffff1660e01b8152600401610b7e959493929190613b1c565b6020604051808303816000875af1158015610b9d573d6000803e3d6000fd5b505050506040513d601f19601f82011682018060405250810190610bc19190613b84565b9050336011600083815260200190815260200160002060006101000a81548173ffffffffffffffffffffffffffffffffffffffff021916908373ffffffffffffffffffffffffffffffffffffffff16021790555090565b7f000000000000000000000000000000000000000000000000000000000000000073ffffffffffffffffffffffffffffffffffffffff163373ffffffffffffffffffffffffffffffffffffffff1614610cca57337f00000000000000000000000000000000000000000000000000000000000000006040517f1cf993f4000000000000000000000000000000000000000000000000000000008152600401610cc1929190613bb1565b60405180910390fd5b610cd48282611bb8565b5050565b610ce9610ce3611af7565b82611cff565b610d28576040517f08c379a0000000000000000000000000000000000000000000000000000000008152600401610d1f90613c4c565b60405180910390fd5b610d33838383611d94565b505050565b600060086000838152602001908152602001600020600101549050919050565b610d6182610d38565b610d6a81611ffa565b610d74838361200e565b505050565b60105481565b610d87611af7565b73ffffffffffffffffffffffffffffffffffffffff168173ffffffffffffffffffffffffffffffffffffffff1614610df4576040517f08c379a0000000000000000000000000000000000000000000000000000000008152600401610deb90613cde565b60405180910390fd5b610dfe82826120ef565b5050565b6000600d60008373ffffffffffffffffffffffffffffffffffffffff1673ffffffffffffffffffffffffffffffffffffffff16815260200190815260200160002060009054906101000a900460ff169050919050565b7f65d7a28e3265b37a6474929f336521b332c1681b933f6cb9f3376673440d862a610e8281611ffa565b610e8a6121d1565b50565b610ea8838383604051806020016040528060008152506116c1565b505050565b6000801b610eba81611ffa565b600d60008373ffffffffffffffffffffffffffffffffffffffff1673ffffffffffffffffffffffffffffffffffffffff16815260200190815260200160002060009054906101000a900460ff1615610f47576040517f08c379a0000000000000000000000000000000000000000000000000000000008152600401610f3e90613d70565b60405180910390fd5b600a54600b5410610f8d576040517f08c379a0000000000000000000000000000000000000000000000000000000008152600401610f8490613ddc565b60405180910390fd5b6001600d60008473ffffffffffffffffffffffffffffffffffffffff1673ffffffffffffffffffffffffffffffffffffffff16815260200190815260200160002060006101000a81548160ff0219169083151502179055506001600b6000828254610ff89190613e2b565b925050819055505050565b6012816003811061101357600080fd5b016000915090508054611025906139aa565b80601f0160208091040260200160405190810160405280929190818152602001828054611051906139aa565b801561109e5780601f106110735761010080835404028352916020019161109e565b820191906000526020600020905b81548152906001019060200180831161108157829003601f168201915b505050505081565b6000600760009054906101000a900460ff16905090565b6110c5612fed565b6040518060600160405280600a8152602001606481526020016103e8815250905090565b6000806002600084815260200190815260200160002060009054906101000a900473ffffffffffffffffffffffffffffffffffffffff169050600073ffffffffffffffffffffffffffffffffffffffff168173ffffffffffffffffffffffffffffffffffffffff1603611191576040517f08c379a000000000000000000000000000000000000000000000000000000000815260040161118890613ecd565b60405180910390fd5b80915050919050565b60008073ffffffffffffffffffffffffffffffffffffffff168273ffffffffffffffffffffffffffffffffffffffff160361120a576040517f08c379a000000000000000000000000000000000000000000000000000000000815260040161120190613f5f565b60405180910390fd5b600360008373ffffffffffffffffffffffffffffffffffffffff1673ffffffffffffffffffffffffffffffffffffffff168152602001908152602001600020549050919050565b600b5481565b6000600b54905090565b6000806000905060006112726110bd565b905060005b60038110156112f9578285101580156112b1575081816003811061129e5761129d613f7f565b5b6020020151836112ae9190613e2b565b85105b156112c1578093505050506112fd565b8181600381106112d4576112d3613f7f565b5b6020020151836112e49190613e2b565b925080806112f190613fae565b915050611277565b5050505b919050565b600e5481565b7f65d7a28e3265b37a6474929f336521b332c1681b933f6cb9f3376673440d862a61133281611ffa565b61133a612234565b50565b601054600f541115611384576040517f08c379a000000000000000000000000000000000000000000000000000000000815260040161137b90614042565b60405180910390fd5b61138d33610e02565b6113cc576040517f08c379a00000000000000000000000000000000000000000000000000000000081526004016113c3906140ae565b60405180910390fd5b6113d4610ab9565b506113df8282611bb8565b5050565b6000801b6113f081611ffa565b600d60008373ffffffffffffffffffffffffffffffffffffffff1673ffffffffffffffffffffffffffffffffffffffff16815260200190815260200160002060009054906101000a900460ff1661147c576040517f08c379a00000000000000000000000000000000000000000000000000000000081526004016114739061411a565b60405180910390fd5b6000600d60008473ffffffffffffffffffffffffffffffffffffffff1673ffffffffffffffffffffffffffffffffffffffff16815260200190815260200160002060006101000a81548160ff0219169083151502179055506001600b60008282546114e7919061413a565b925050819055505050565b6000600a54905090565b60006008600084815260200190815260200160002060000160008373ffffffffffffffffffffffffffffffffffffffff1673ffffffffffffffffffffffffffffffffffffffff16815260200190815260200160002060009054906101000a900460ff16905092915050565b600080600d60008473ffffffffffffffffffffffffffffffffffffffff1673ffffffffffffffffffffffffffffffffffffffff16815260200190815260200160002060009054906101000a900460ff16905080915050919050565b60007f0000000000000000000000000000000000000000000000000000000000000000905090565b6060600180546115f9906139aa565b80601f0160208091040260200160405190810160405280929190818152602001828054611625906139aa565b80156116725780601f1061164757610100808354040283529160200191611672565b820191906000526020600020905b81548152906001019060200180831161165557829003601f168201915b5050505050905090565b6000801b81565b61169561168e611af7565b8383612297565b5050565b60007f0000000000000000000000000000000000000000000000000000000000000000905090565b6116d26116cc611af7565b83611cff565b611711576040517f08c379a000000000000000000000000000000000000000000000000000000000815260040161170890613c4c565b60405180910390fd5b61171d84848484612403565b50505050565b600a5481565b600f5481565b60007f0000000000000000000000000000000000000000000000000000000000000000905090565b606061176282611aac565b6000600660008481526020019081526020016000208054611782906139aa565b80601f01602080910402602001604051908101604052809291908181526020018280546117ae906139aa565b80156117fb5780601f106117d0576101008083540402835291602001916117fb565b820191906000526020600020905b8154815290600101906020018083116117de57829003601f168201915b50505050509050600061180c61245f565b90506000815103611821578192505050611864565b60008251111561185657808260405160200161183e9291906141aa565b60405160208183030381529060405292505050611864565b61185f84612476565b925050505b919050565b601054600e5411156118b0576040517f08c379a00000000000000000000000000000000000000000000000000000000081526004016118a79061421a565b60405180910390fd5b601054600f54116118f6576040517f08c379a00000000000000000000000000000000000000000000000000000000081526004016118ed906142ac565b60405180910390fd5b6118fe610ab9565b506119098282611bb8565b5050565b7f9f2df0fed2c77648de5860a4cc508cd0818c85b8b8a1ab4ceeef8d981c8956a681565b61193a82610d38565b61194381611ffa565b61194d83836120ef565b505050565b60007f0000000000000000000000000000000000000000000000000000000000000000905090565b7f65d7a28e3265b37a6474929f336521b332c1681b933f6cb9f3376673440d862a81565b6000600560008473ffffffffffffffffffffffffffffffffffffffff1673ffffffffffffffffffffffffffffffffffffffff16815260200190815260200160002060008373ffffffffffffffffffffffffffffffffffffffff1673ffffffffffffffffffffffffffffffffffffffff16815260200190815260200160002060009054906101000a900460ff16905092915050565b60007f7965db0b000000000000000000000000000000000000000000000000000000007bffffffffffffffffffffffffffffffffffffffffffffffffffffffff1916827bffffffffffffffffffffffffffffffffffffffffffffffffffffffff19161480611aa55750611aa4826124de565b5b9050919050565b611ab5816125c0565b611af4576040517f08c379a0000000000000000000000000000000000000000000000000000000008152600401611aeb90613ecd565b60405180910390fd5b50565b600033905090565b816004600083815260200190815260200160002060006101000a81548173ffffffffffffffffffffffffffffffffffffffff021916908373ffffffffffffffffffffffffffffffffffffffff160217905550808273ffffffffffffffffffffffffffffffffffffffff16611b72836110e9565b73ffffffffffffffffffffffffffffffffffffffff167f8c5be1e5ebec7d5bd14f71427d1e84f3dd0314c0f7b2291e5b200ac8c7c3b92560405160405180910390a45050565b60006011600084815260200190815260200160002060009054906101000a900473ffffffffffffffffffffffffffffffffffffffff169050600060155490506001601554611c069190613e2b565b60158190555060006103e884600081518110611c2557611c24613f7f565b5b6020026020010151611c3791906142fb565b90506000611c4482611261565b9050611c50848461262c565b611cf78360128360038110611c6857611c67613f7f565b5b018054611c74906139aa565b80601f0160208091040260200160405190810160405280929190818152602001828054611ca0906139aa565b8015611ced5780601f10611cc257610100808354040283529160200191611ced565b820191906000526020600020905b815481529060010190602001808311611cd057829003601f168201915b505050505061264a565b505050505050565b600080611d0b836110e9565b90508073ffffffffffffffffffffffffffffffffffffffff168473ffffffffffffffffffffffffffffffffffffffff161480611d4d5750611d4c818561199e565b5b80611d8b57508373ffffffffffffffffffffffffffffffffffffffff16611d7384610956565b73ffffffffffffffffffffffffffffffffffffffff16145b91505092915050565b8273ffffffffffffffffffffffffffffffffffffffff16611db4826110e9565b73ffffffffffffffffffffffffffffffffffffffff1614611e0a576040517f08c379a0000000000000000000000000000000000000000000000000000000008152600401611e019061439e565b60405180910390fd5b600073ffffffffffffffffffffffffffffffffffffffff168273ffffffffffffffffffffffffffffffffffffffff1603611e79576040517f08c379a0000000000000000000000000000000000000000000000000000000008152600401611e7090614430565b60405180910390fd5b611e848383836126b7565b611e8f600082611aff565b6001600360008573ffffffffffffffffffffffffffffffffffffffff1673ffffffffffffffffffffffffffffffffffffffff1681526020019081526020016000206000828254611edf919061413a565b925050819055506001600360008473ffffffffffffffffffffffffffffffffffffffff1673ffffffffffffffffffffffffffffffffffffffff1681526020019081526020016000206000828254611f369190613e2b565b92505081905550816002600083815260200190815260200160002060006101000a81548173ffffffffffffffffffffffffffffffffffffffff021916908373ffffffffffffffffffffffffffffffffffffffff160217905550808273ffffffffffffffffffffffffffffffffffffffff168473ffffffffffffffffffffffffffffffffffffffff167fddf252ad1be2c89b69c2b068fc378daa952ba7f163c4a11628f55a4df523b3ef60405160405180910390a4611ff58383836126cf565b505050565b61200b81612006611af7565b6126d4565b50565b61201882826114fc565b6120eb5760016008600084815260200190815260200160002060000160008373ffffffffffffffffffffffffffffffffffffffff1673ffffffffffffffffffffffffffffffffffffffff16815260200190815260200160002060006101000a81548160ff021916908315150217905550612090611af7565b73ffffffffffffffffffffffffffffffffffffffff168173ffffffffffffffffffffffffffffffffffffffff16837f2f8788117e7eff1d82e926ec794901d17c78024a50270940304540a733656f0d60405160405180910390a45b5050565b6120f982826114fc565b156121cd5760006008600084815260200190815260200160002060000160008373ffffffffffffffffffffffffffffffffffffffff1673ffffffffffffffffffffffffffffffffffffffff16815260200190815260200160002060006101000a81548160ff021916908315150217905550612172611af7565b73ffffffffffffffffffffffffffffffffffffffff168173ffffffffffffffffffffffffffffffffffffffff16837ff6391f5c32d9c69d2a47ea670b442974b53935d1edc7fd64eb21e047a839171b60405160405180910390a45b5050565b6121d9612771565b6000600760006101000a81548160ff0219169083151502179055507f5db9ee0a495bf2e6ff9c91a7834c1ba4fdd244a5e8aa4e537bd38aeae4b073aa61221d611af7565b60405161222a919061323d565b60405180910390a1565b61223c6127ba565b6001600760006101000a81548160ff0219169083151502179055507f62e78cea01bee320cd4e420270b5ea74000d11b0c9f74754ebdbfc544b05a258612280611af7565b60405161228d919061323d565b60405180910390a1565b8173ffffffffffffffffffffffffffffffffffffffff168373ffffffffffffffffffffffffffffffffffffffff1603612305576040517f08c379a00000000000000000000000000000000000000000000000000000000081526004016122fc9061449c565b60405180910390fd5b80600560008573ffffffffffffffffffffffffffffffffffffffff1673ffffffffffffffffffffffffffffffffffffffff16815260200190815260200160002060008473ffffffffffffffffffffffffffffffffffffffff1673ffffffffffffffffffffffffffffffffffffffff16815260200190815260200160002060006101000a81548160ff0219169083151502179055508173ffffffffffffffffffffffffffffffffffffffff168373ffffffffffffffffffffffffffffffffffffffff167f17307eab39ab6107e8899845ad3d59bd9653f200f220920489ca2b5937696c31836040516123f691906130c3565b60405180910390a3505050565b61240e848484611d94565b61241a84848484612804565b612459576040517f08c379a00000000000000000000000000000000000000000000000000000000081526004016124509061452e565b60405180910390fd5b50505050565b606060405180602001604052806000815250905090565b606061248182611aac565b600061248b61245f565b905060008151116124ab57604051806020016040528060008152506124d6565b806124b58461298b565b6040516020016124c69291906141aa565b6040516020818303038152906040525b915050919050565b60007f80ac58cd000000000000000000000000000000000000000000000000000000007bffffffffffffffffffffffffffffffffffffffffffffffffffffffff1916827bffffffffffffffffffffffffffffffffffffffffffffffffffffffff191614806125a957507f5b5e139f000000000000000000000000000000000000000000000000000000007bffffffffffffffffffffffffffffffffffffffffffffffffffffffff1916827bffffffffffffffffffffffffffffffffffffffffffffffffffffffff1916145b806125b957506125b882612aeb565b5b9050919050565b60008073ffffffffffffffffffffffffffffffffffffffff166002600084815260200190815260200160002060009054906101000a900473ffffffffffffffffffffffffffffffffffffffff1673ffffffffffffffffffffffffffffffffffffffff1614159050919050565b612646828260405180602001604052806000815250612b55565b5050565b612653826125c0565b612692576040517f08c379a0000000000000000000000000000000000000000000000000000000008152600401612689906145c0565b60405180910390fd5b806006600084815260200190815260200160002090816126b29190614782565b505050565b6126bf6127ba565b6126ca838383612bb0565b505050565b505050565b6126de82826114fc565b61276d576127038173ffffffffffffffffffffffffffffffffffffffff166014612bb5565b6127118360001c6020612bb5565b6040516020016127229291906148ec565b6040516020818303038152906040526040517f08c379a00000000000000000000000000000000000000000000000000000000081526004016127649190613177565b60405180910390fd5b5050565b6127796110a6565b6127b8576040517f08c379a00000000000000000000000000000000000000000000000000000000081526004016127af90614972565b60405180910390fd5b565b6127c26110a6565b15612802576040517f08c379a00000000000000000000000000000000000000000000000000000000081526004016127f9906149de565b60405180910390fd5b565b60006128258473ffffffffffffffffffffffffffffffffffffffff16612df1565b1561297e578373ffffffffffffffffffffffffffffffffffffffff1663150b7a0261284e611af7565b8786866040518563ffffffff1660e01b81526004016128709493929190614a53565b6020604051808303816000875af19250505080156128ac57506040513d601f19601f820116820180604052508101906128a99190614ab4565b60015b61292e573d80600081146128dc576040519150601f19603f3d011682016040523d82523d6000602084013e6128e1565b606091505b506000815103612926576040517f08c379a000000000000000000000000000000000000000000000000000000000815260040161291d9061452e565b60405180910390fd5b805181602001fd5b63150b7a0260e01b7bffffffffffffffffffffffffffffffffffffffffffffffffffffffff1916817bffffffffffffffffffffffffffffffffffffffffffffffffffffffff191614915050612983565b600190505b949350505050565b6060600082036129d2576040518060400160405280600181526020017f30000000000000000000000000000000000000000000000000000000000000008152509050612ae6565b600082905060005b60008214612a045780806129ed90613fae565b915050600a826129fd9190614ae1565b91506129da565b60008167ffffffffffffffff811115612a2057612a1f6132f3565b5b6040519080825280601f01601f191660200182016040528015612a525781602001600182028036833780820191505090505b5090505b60008514612adf57600182612a6b919061413a565b9150600a85612a7a91906142fb565b6030612a869190613e2b565b60f81b818381518110612a9c57612a9b613f7f565b5b60200101907effffffffffffffffffffffffffffffffffffffffffffffffffffffffffffff1916908160001a905350600a85612ad89190614ae1565b9450612a56565b8093505050505b919050565b60007f01ffc9a7000000000000000000000000000000000000000000000000000000007bffffffffffffffffffffffffffffffffffffffffffffffffffffffff1916827bffffffffffffffffffffffffffffffffffffffffffffffffffffffff1916149050919050565b612b5f8383612e14565b612b6c6000848484612804565b612bab576040517f08c379a0000000000000000000000000000000000000000000000000000000008152600401612ba29061452e565b60405180910390fd5b505050565b505050565b606060006002836002612bc89190614b12565b612bd29190613e2b565b67ffffffffffffffff811115612beb57612bea6132f3565b5b6040519080825280601f01601f191660200182016040528015612c1d5781602001600182028036833780820191505090505b5090507f300000000000000000000000000000000000000000000000000000000000000081600081518110612c5557612c54613f7f565b5b60200101907effffffffffffffffffffffffffffffffffffffffffffffffffffffffffffff1916908160001a9053507f780000000000000000000000000000000000000000000000000000000000000081600181518110612cb957612cb8613f7f565b5b60200101907effffffffffffffffffffffffffffffffffffffffffffffffffffffffffffff1916908160001a90535060006001846002612cf99190614b12565b612d039190613e2b565b90505b6001811115612da3577f3031323334353637383961626364656600000000000000000000000000000000600f861660108110612d4557612d44613f7f565b5b1a60f81b828281518110612d5c57612d5b613f7f565b5b60200101907effffffffffffffffffffffffffffffffffffffffffffffffffffffffffffff1916908160001a905350600485901c945080612d9c90614b6c565b9050612d06565b5060008414612de7576040517f08c379a0000000000000000000000000000000000000000000000000000000008152600401612dde90614be1565b60405180910390fd5b8091505092915050565b6000808273ffffffffffffffffffffffffffffffffffffffff163b119050919050565b600073ffffffffffffffffffffffffffffffffffffffff168273ffffffffffffffffffffffffffffffffffffffff1603612e83576040517f08c379a0000000000000000000000000000000000000000000000000000000008152600401612e7a90614c4d565b60405180910390fd5b612e8c816125c0565b15612ecc576040517f08c379a0000000000000000000000000000000000000000000000000000000008152600401612ec390614cb9565b60405180910390fd5b612ed8600083836126b7565b6001600360008473ffffffffffffffffffffffffffffffffffffffff1673ffffffffffffffffffffffffffffffffffffffff1681526020019081526020016000206000828254612f289190613e2b565b92505081905550816002600083815260200190815260200160002060006101000a81548173ffffffffffffffffffffffffffffffffffffffff021916908373ffffffffffffffffffffffffffffffffffffffff160217905550808273ffffffffffffffffffffffffffffffffffffffff16600073ffffffffffffffffffffffffffffffffffffffff167fddf252ad1be2c89b69c2b068fc378daa952ba7f163c4a11628f55a4df523b3ef60405160405180910390a4612fe9600083836126cf565b5050565b6040518060600160405280600390602082028036833780820191505090505090565b6000604051905090565b600080fd5b600080fd5b60007fffffffff0000000000000000000000000000000000000000000000000000000082169050919050565b61305881613023565b811461306357600080fd5b50565b6000813590506130758161304f565b92915050565b60006020828403121561309157613090613019565b5b600061309f84828501613066565b91505092915050565b60008115159050919050565b6130bd816130a8565b82525050565b60006020820190506130d860008301846130b4565b92915050565b600081519050919050565b600082825260208201905092915050565b60005b838110156131185780820151818401526020810190506130fd565b83811115613127576000848401525b50505050565b6000601f19601f8301169050919050565b6000613149826130de565b61315381856130e9565b93506131638185602086016130fa565b61316c8161312d565b840191505092915050565b60006020820190508181036000830152613191818461313e565b905092915050565b6000819050919050565b6131ac81613199565b81146131b757600080fd5b50565b6000813590506131c9816131a3565b92915050565b6000602082840312156131e5576131e4613019565b5b60006131f3848285016131ba565b91505092915050565b600073ffffffffffffffffffffffffffffffffffffffff82169050919050565b6000613227826131fc565b9050919050565b6132378161321c565b82525050565b6000602082019050613252600083018461322e565b92915050565b6132618161321c565b811461326c57600080fd5b50565b60008135905061327e81613258565b92915050565b6000806040838503121561329b5761329a613019565b5b60006132a98582860161326f565b92505060206132ba858286016131ba565b9150509250929050565b6132cd81613199565b82525050565b60006020820190506132e860008301846132c4565b92915050565b600080fd5b7f4e487b7100000000000000000000000000000000000000000000000000000000600052604160045260246000fd5b61332b8261312d565b810181811067ffffffffffffffff8211171561334a576133496132f3565b5b80604052505050565b600061335d61300f565b90506133698282613322565b919050565b600067ffffffffffffffff821115613389576133886132f3565b5b602082029050602081019050919050565b600080fd5b60006133b26133ad8461336e565b613353565b905080838252602082019050602084028301858111156133d5576133d461339a565b5b835b818110156133fe57806133ea88826131ba565b8452602084019350506020810190506133d7565b5050509392505050565b600082601f83011261341d5761341c6132ee565b5b813561342d84826020860161339f565b91505092915050565b6000806040838503121561344d5761344c613019565b5b600061345b858286016131ba565b925050602083013567ffffffffffffffff81111561347c5761347b61301e565b5b61348885828601613408565b9150509250929050565b6000806000606084860312156134ab576134aa613019565b5b60006134b98682870161326f565b93505060206134ca8682870161326f565b92505060406134db868287016131ba565b9150509250925092565b6000819050919050565b6134f8816134e5565b811461350357600080fd5b50565b600081359050613515816134ef565b92915050565b60006020828403121561353157613530613019565b5b600061353f84828501613506565b91505092915050565b613551816134e5565b82525050565b600060208201905061356c6000830184613548565b92915050565b6000806040838503121561358957613588613019565b5b600061359785828601613506565b92505060206135a88582860161326f565b9150509250929050565b6000602082840312156135c8576135c7613019565b5b60006135d68482850161326f565b91505092915050565b600060039050919050565b600081905092915050565b6000819050919050565b61360881613199565b82525050565b600061361a83836135ff565b60208301905092915050565b6000602082019050919050565b61363c816135df565b61364681846135ea565b9250613651826135f5565b8060005b83811015613682578151613669878261360e565b965061367483613626565b925050600181019050613655565b505050505050565b600060608201905061369f6000830184613633565b92915050565b600067ffffffffffffffff82169050919050565b6136c2816136a5565b82525050565b60006020820190506136dd60008301846136b9565b92915050565b6136ec816130a8565b81146136f757600080fd5b50565b600081359050613709816136e3565b92915050565b6000806040838503121561372657613725613019565b5b60006137348582860161326f565b9250506020613745858286016136fa565b9150509250929050565b6000819050919050565b600061377461376f61376a846131fc565b61374f565b6131fc565b9050919050565b600061378682613759565b9050919050565b60006137988261377b565b9050919050565b6137a88161378d565b82525050565b60006020820190506137c3600083018461379f565b92915050565b600080fd5b600067ffffffffffffffff8211156137e9576137e86132f3565b5b6137f28261312d565b9050602081019050919050565b82818337600083830152505050565b600061382161381c846137ce565b613353565b90508281526020810184848401111561383d5761383c6137c9565b5b6138488482856137ff565b509392505050565b600082601f830112613865576138646132ee565b5b813561387584826020860161380e565b91505092915050565b6000806000806080858703121561389857613897613019565b5b60006138a68782880161326f565b94505060206138b78782880161326f565b93505060406138c8878288016131ba565b925050606085013567ffffffffffffffff8111156138e9576138e861301e565b5b6138f587828801613850565b91505092959194509250565b600063ffffffff82169050919050565b61391a81613901565b82525050565b60006020820190506139356000830184613911565b92915050565b6000806040838503121561395257613951613019565b5b60006139608582860161326f565b92505060206139718582860161326f565b9150509250929050565b7f4e487b7100000000000000000000000000000000000000000000000000000000600052602260045260246000fd5b600060028204905060018216806139c257607f821691505b6020821081036139d5576139d461397b565b5b50919050565b7f4552433732313a20617070726f76616c20746f2063757272656e74206f776e6560008201527f7200000000000000000000000000000000000000000000000000000000000000602082015250565b6000613a376021836130e9565b9150613a42826139db565b604082019050919050565b60006020820190508181036000830152613a6681613a2a565b9050919050565b7f4552433732313a20617070726f76652063616c6c6572206973206e6f7420746f60008201527f6b656e206f776e6572206e6f7220617070726f76656420666f7220616c6c0000602082015250565b6000613ac9603e836130e9565b9150613ad482613a6d565b604082019050919050565b60006020820190508181036000830152613af881613abc565b9050919050565b600061ffff82169050919050565b613b1681613aff565b82525050565b600060a082019050613b316000830188613548565b613b3e60208301876136b9565b613b4b6040830186613b0d565b613b586060830185613911565b613b656080830184613911565b9695505050505050565b600081519050613b7e816131a3565b92915050565b600060208284031215613b9a57613b99613019565b5b6000613ba884828501613b6f565b91505092915050565b6000604082019050613bc6600083018561322e565b613bd3602083018461322e565b9392505050565b7f4552433732313a2063616c6c6572206973206e6f7420746f6b656e206f776e6560008201527f72206e6f7220617070726f766564000000000000000000000000000000000000602082015250565b6000613c36602e836130e9565b9150613c4182613bda565b604082019050919050565b60006020820190508181036000830152613c6581613c29565b9050919050565b7f416363657373436f6e74726f6c3a2063616e206f6e6c792072656e6f756e636560008201527f20726f6c657320666f722073656c660000000000000000000000000000000000602082015250565b6000613cc8602f836130e9565b9150613cd382613c6c565b604082019050919050565b60006020820190508181036000830152613cf781613cbb565b9050919050565b7f4572726f723a2053656e64657220616c7265616479206265656e20776869746560008201527f6c69737465640000000000000000000000000000000000000000000000000000602082015250565b6000613d5a6026836130e9565b9150613d6582613cfe565b604082019050919050565b60006020820190508181036000830152613d8981613d4d565b9050919050565b7f4572726f723a2057686974656c697374204c696d697420657863656564656400600082015250565b6000613dc6601f836130e9565b9150613dd182613d90565b602082019050919050565b60006020820190508181036000830152613df581613db9565b9050919050565b7f4e487b7100000000000000000000000000000000000000000000000000000000600052601160045260246000fd5b6000613e3682613199565b9150613e4183613199565b9250827fffffffffffffffffffffffffffffffffffffffffffffffffffffffffffffffff03821115613e7657613e75613dfc565b5b828201905092915050565b7f4552433732313a20696e76616c696420746f6b656e2049440000000000000000600082015250565b6000613eb76018836130e9565b9150613ec282613e81565b602082019050919050565b60006020820190508181036000830152613ee681613eaa565b9050919050565b7f4552433732313a2061646472657373207a65726f206973206e6f74206120766160008201527f6c6964206f776e65720000000000000000000000000000000000000000000000602082015250565b6000613f496029836130e9565b9150613f5482613eed565b604082019050919050565b60006020820190508181036000830152613f7881613f3c565b9050919050565b7f4e487b7100000000000000000000000000000000000000000000000000000000600052603260045260246000fd5b6000613fb982613199565b91507fffffffffffffffffffffffffffffffffffffffffffffffffffffffffffffffff8203613feb57613fea613dfc565b5b600182019050919050565b7f536f72727920676f20746f20746865207075626c6963206d696e74696e672100600082015250565b600061402c601f836130e9565b915061403782613ff6565b602082019050919050565b6000602082019050818103600083015261405b8161401f565b9050919050565b7f55736572206973206e6f742077686974656c6973746564000000000000000000600082015250565b60006140986017836130e9565b91506140a382614062565b602082019050919050565b600060208201905081810360008301526140c78161408b565b9050919050565b7f4572726f723a2053656e646572206973206e6f742077686974656c6973746564600082015250565b60006141046020836130e9565b915061410f826140ce565b602082019050919050565b60006020820190508181036000830152614133816140f7565b9050919050565b600061414582613199565b915061415083613199565b92508282101561416357614162613dfc565b5b828203905092915050565b600081905092915050565b6000614184826130de565b61418e818561416e565b935061419e8185602086016130fa565b80840191505092915050565b60006141b68285614179565b91506141c28284614179565b91508190509392505050565b7f536f7272792077652061726520656d70747920696e2073746f636b0000000000600082015250565b6000614204601b836130e9565b915061420f826141ce565b602082019050919050565b60006020820190508181036000830152614233816141f7565b9050919050565b7f506c6561736520776169742c77686974656c697374206d696e74696e6720617260008201527f6520696e2070726f677265737300000000000000000000000000000000000000602082015250565b6000614296602d836130e9565b91506142a18261423a565b604082019050919050565b600060208201905081810360008301526142c581614289565b9050919050565b7f4e487b7100000000000000000000000000000000000000000000000000000000600052601260045260246000fd5b600061430682613199565b915061431183613199565b925082614321576143206142cc565b5b828206905092915050565b7f4552433732313a207472616e736665722066726f6d20696e636f72726563742060008201527f6f776e6572000000000000000000000000000000000000000000000000000000602082015250565b60006143886025836130e9565b91506143938261432c565b604082019050919050565b600060208201905081810360008301526143b78161437b565b9050919050565b7f4552433732313a207472616e7366657220746f20746865207a65726f2061646460008201527f7265737300000000000000000000000000000000000000000000000000000000602082015250565b600061441a6024836130e9565b9150614425826143be565b604082019050919050565b600060208201905081810360008301526144498161440d565b9050919050565b7f4552433732313a20617070726f766520746f2063616c6c657200000000000000600082015250565b60006144866019836130e9565b915061449182614450565b602082019050919050565b600060208201905081810360008301526144b581614479565b9050919050565b7f4552433732313a207472616e7366657220746f206e6f6e20455243373231526560008201527f63656976657220696d706c656d656e7465720000000000000000000000000000602082015250565b60006145186032836130e9565b9150614523826144bc565b604082019050919050565b600060208201905081810360008301526145478161450b565b9050919050565b7f45524337323155524953746f726167653a2055524920736574206f66206e6f6e60008201527f6578697374656e7420746f6b656e000000000000000000000000000000000000602082015250565b60006145aa602e836130e9565b91506145b58261454e565b604082019050919050565b600060208201905081810360008301526145d98161459d565b9050919050565b60008190508160005260206000209050919050565b60006020601f8301049050919050565b600082821b905092915050565b6000600883026146427fffffffffffffffffffffffffffffffffffffffffffffffffffffffffffffffff82614605565b61464c8683614605565b95508019841693508086168417925050509392505050565b600061467f61467a61467584613199565b61374f565b613199565b9050919050565b6000819050919050565b61469983614664565b6146ad6146a582614686565b848454614612565b825550505050565b600090565b6146c26146b5565b6146cd818484614690565b505050565b5b818110156146f1576146e66000826146ba565b6001810190506146d3565b5050565b601f82111561473657614707816145e0565b614710846145f5565b8101602085101561471f578190505b61473361472b856145f5565b8301826146d2565b50505b505050565b600082821c905092915050565b60006147596000198460080261473b565b1980831691505092915050565b60006147728383614748565b9150826002028217905092915050565b61478b826130de565b67ffffffffffffffff8111156147a4576147a36132f3565b5b6147ae82546139aa565b6147b98282856146f5565b600060209050601f8311600181146147ec57600084156147da578287015190505b6147e48582614766565b86555061484c565b601f1984166147fa866145e0565b60005b82811015614822578489015182556001820191506020850194506020810190506147fd565b8683101561483f578489015161483b601f891682614748565b8355505b6001600288020188555050505b505050505050565b7f416363657373436f6e74726f6c3a206163636f756e7420000000000000000000600082015250565b600061488a60178361416e565b915061489582614854565b601782019050919050565b7f206973206d697373696e6720726f6c6520000000000000000000000000000000600082015250565b60006148d660118361416e565b91506148e1826148a0565b601182019050919050565b60006148f78261487d565b91506149038285614179565b915061490e826148c9565b915061491a8284614179565b91508190509392505050565b7f5061757361626c653a206e6f7420706175736564000000000000000000000000600082015250565b600061495c6014836130e9565b915061496782614926565b602082019050919050565b6000602082019050818103600083015261498b8161494f565b9050919050565b7f5061757361626c653a2070617573656400000000000000000000000000000000600082015250565b60006149c86010836130e9565b91506149d382614992565b602082019050919050565b600060208201905081810360008301526149f7816149bb565b9050919050565b600081519050919050565b600082825260208201905092915050565b6000614a25826149fe565b614a2f8185614a09565b9350614a3f8185602086016130fa565b614a488161312d565b840191505092915050565b6000608082019050614a68600083018761322e565b614a75602083018661322e565b614a8260408301856132c4565b8181036060830152614a948184614a1a565b905095945050505050565b600081519050614aae8161304f565b92915050565b600060208284031215614aca57614ac9613019565b5b6000614ad884828501614a9f565b91505092915050565b6000614aec82613199565b9150614af783613199565b925082614b0757614b066142cc565b5b828204905092915050565b6000614b1d82613199565b9150614b2883613199565b9250817fffffffffffffffffffffffffffffffffffffffffffffffffffffffffffffffff0483118215151615614b6157614b60613dfc565b5b828202905092915050565b6000614b7782613199565b915060008203614b8a57614b89613dfc565b5b600182039050919050565b7f537472696e67733a20686578206c656e67746820696e73756666696369656e74600082015250565b6000614bcb6020836130e9565b9150614bd682614b95565b602082019050919050565b60006020820190508181036000830152614bfa81614bbe565b9050919050565b7f4552433732313a206d696e7420746f20746865207a65726f2061646472657373600082015250565b6000614c376020836130e9565b9150614c4282614c01565b602082019050919050565b60006020820190508181036000830152614c6681614c2a565b9050919050565b7f4552433732313a20746f6b656e20616c7265616479206d696e74656400000000600082015250565b6000614ca3601c836130e9565b9150614cae82614c6d565b602082019050919050565b60006020820190508181036000830152614cd281614c96565b905091905056fea2646970667358221220a5cc2106722b4e008c20597f6067c3e2f9ecf4fab7feacda321bbadf40d0994164736f6c634300080f0033",
  "linkReferences": {},
  "deployedLinkReferences": {}
}