{
  "_format": "hh-sol-artifact-1",
  "contractName": "ABITO",
  "sourceName": "contracts/ABITO.sol",
  "abi": [
    {
      "inputs": [
        {
          "internalType": "uint256",
          "name": "_maxWhitelistedAddresses",
          "type": "uint256"
        },
        {
          "internalType": "uint256",
          "name": "_maxNFTLimit",
          "type": "uint256"
        }
      ],
      "stateMutability": "nonpayable",
      "type": "constructor"
    },
    {
      "anonymous": false,
      "inputs": [
        {
          "indexed": true,
          "internalType": "address",
          "name": "owner",
          "type": "address"
        },
        {
          "indexed": true,
          "internalType": "address",
          "name": "approved",
          "type": "address"
        },
        {
          "indexed": true,
          "internalType": "uint256",
          "name": "tokenId",
          "type": "uint256"
        }
      ],
      "name": "Approval",
      "type": "event"
    },
    {
      "anonymous": false,
      "inputs": [
        {
          "indexed": true,
          "internalType": "address",
          "name": "owner",
          "type": "address"
        },
        {
          "indexed": true,
          "internalType": "address",
          "name": "operator",
          "type": "address"
        },
        {
          "indexed": false,
          "internalType": "bool",
          "name": "approved",
          "type": "bool"
        }
      ],
      "name": "ApprovalForAll",
      "type": "event"
    },
    {
      "anonymous": false,
      "inputs": [
        {
          "indexed": false,
          "internalType": "address",
          "name": "account",
          "type": "address"
        }
      ],
      "name": "Paused",
      "type": "event"
    },
    {
      "anonymous": false,
      "inputs": [
        {
          "indexed": true,
          "internalType": "bytes32",
          "name": "role",
          "type": "bytes32"
        },
        {
          "indexed": true,
          "internalType": "bytes32",
          "name": "previousAdminRole",
          "type": "bytes32"
        },
        {
          "indexed": true,
          "internalType": "bytes32",
          "name": "newAdminRole",
          "type": "bytes32"
        }
      ],
      "name": "RoleAdminChanged",
      "type": "event"
    },
    {
      "anonymous": false,
      "inputs": [
        {
          "indexed": true,
          "internalType": "bytes32",
          "name": "role",
          "type": "bytes32"
        },
        {
          "indexed": true,
          "internalType": "address",
          "name": "account",
          "type": "address"
        },
        {
          "indexed": true,
          "internalType": "address",
          "name": "sender",
          "type": "address"
        }
      ],
      "name": "RoleGranted",
      "type": "event"
    },
    {
      "anonymous": false,
      "inputs": [
        {
          "indexed": true,
          "internalType": "bytes32",
          "name": "role",
          "type": "bytes32"
        },
        {
          "indexed": true,
          "internalType": "address",
          "name": "account",
          "type": "address"
        },
        {
          "indexed": true,
          "internalType": "address",
          "name": "sender",
          "type": "address"
        }
      ],
      "name": "RoleRevoked",
      "type": "event"
    },
    {
      "anonymous": false,
      "inputs": [
        {
          "indexed": true,
          "internalType": "address",
          "name": "from",
          "type": "address"
        },
        {
          "indexed": true,
          "internalType": "address",
          "name": "to",
          "type": "address"
        },
        {
          "indexed": true,
          "internalType": "uint256",
          "name": "tokenId",
          "type": "uint256"
        }
      ],
      "name": "Transfer",
      "type": "event"
    },
    {
      "anonymous": false,
      "inputs": [
        {
          "indexed": false,
          "internalType": "address",
          "name": "account",
          "type": "address"
        }
      ],
      "name": "Unpaused",
      "type": "event"
    },
    {
      "inputs": [],
      "name": "DEFAULT_ADMIN_ROLE",
      "outputs": [
        {
          "internalType": "bytes32",
          "name": "",
          "type": "bytes32"
        }
      ],
      "stateMutability": "view",
      "type": "function"
    },
    {
      "inputs": [],
      "name": "MINTER_ROLE",
      "outputs": [
        {
          "internalType": "bytes32",
          "name": "",
          "type": "bytes32"
        }
      ],
      "stateMutability": "view",
      "type": "function"
    },
    {
      "inputs": [],
      "name": "PAUSER_ROLE",
      "outputs": [
        {
          "internalType": "bytes32",
          "name": "",
          "type": "bytes32"
        }
      ],
      "stateMutability": "view",
      "type": "function"
    },
    {
      "inputs": [
        {
          "internalType": "address",
          "name": "_addressToWhitelist",
          "type": "address"
        }
      ],
      "name": "addUserAddressToWhitelist",
      "outputs": [],
      "stateMutability": "nonpayable",
      "type": "function"
    },
    {
      "inputs": [
        {
          "internalType": "address",
          "name": "to",
          "type": "address"
        },
        {
          "internalType": "uint256",
          "name": "tokenId",
          "type": "uint256"
        }
      ],
      "name": "approve",
      "outputs": [],
      "stateMutability": "nonpayable",
      "type": "function"
    },
    {
      "inputs": [
        {
          "internalType": "address",
          "name": "owner",
          "type": "address"
        }
      ],
      "name": "balanceOf",
      "outputs": [
        {
          "internalType": "uint256",
          "name": "",
          "type": "uint256"
        }
      ],
      "stateMutability": "view",
      "type": "function"
    },
    {
      "inputs": [
        {
          "internalType": "uint256",
          "name": "tokenId",
          "type": "uint256"
        }
      ],
      "name": "getApproved",
      "outputs": [
        {
          "internalType": "address",
          "name": "",
          "type": "address"
        }
      ],
      "stateMutability": "view",
      "type": "function"
    },
    {
      "inputs": [],
      "name": "getMaxNumberOfWhitelistedAddresses",
      "outputs": [
        {
          "internalType": "uint256",
          "name": "",
          "type": "uint256"
        }
      ],
      "stateMutability": "view",
      "type": "function"
    },
    {
      "inputs": [],
      "name": "getNumberOfWhitelistedAddresses",
      "outputs": [
        {
          "internalType": "uint256",
          "name": "",
          "type": "uint256"
        }
      ],
      "stateMutability": "view",
      "type": "function"
    },
    {
      "inputs": [
        {
          "internalType": "bytes32",
          "name": "role",
          "type": "bytes32"
        }
      ],
      "name": "getRoleAdmin",
      "outputs": [
        {
          "internalType": "bytes32",
          "name": "",
          "type": "bytes32"
        }
      ],
      "stateMutability": "view",
      "type": "function"
    },
    {
      "inputs": [
        {
          "internalType": "bytes32",
          "name": "role",
          "type": "bytes32"
        },
        {
          "internalType": "address",
          "name": "account",
          "type": "address"
        }
      ],
      "name": "grantRole",
      "outputs": [],
      "stateMutability": "nonpayable",
      "type": "function"
    },
    {
      "inputs": [
        {
          "internalType": "bytes32",
          "name": "role",
          "type": "bytes32"
        },
        {
          "internalType": "address",
          "name": "account",
          "type": "address"
        }
      ],
      "name": "hasRole",
      "outputs": [
        {
          "internalType": "bool",
          "name": "",
          "type": "bool"
        }
      ],
      "stateMutability": "view",
      "type": "function"
    },
    {
      "inputs": [
        {
          "internalType": "address",
          "name": "owner",
          "type": "address"
        },
        {
          "internalType": "address",
          "name": "operator",
          "type": "address"
        }
      ],
      "name": "isApprovedForAll",
      "outputs": [
        {
          "internalType": "bool",
          "name": "",
          "type": "bool"
        }
      ],
      "stateMutability": "view",
      "type": "function"
    },
    {
      "inputs": [
        {
          "internalType": "address",
          "name": "_whitelistedAddress",
          "type": "address"
        }
      ],
      "name": "isWhitelisted",
      "outputs": [
        {
          "internalType": "bool",
          "name": "",
          "type": "bool"
        }
      ],
      "stateMutability": "view",
      "type": "function"
    },
    {
      "inputs": [],
      "name": "maxNFTLimit",
      "outputs": [
        {
          "internalType": "uint256",
          "name": "",
          "type": "uint256"
        }
      ],
      "stateMutability": "view",
      "type": "function"
    },
    {
      "inputs": [],
      "name": "maxNumberOfWhitelistedAddresses",
      "outputs": [
        {
          "internalType": "uint256",
          "name": "",
          "type": "uint256"
        }
      ],
      "stateMutability": "view",
      "type": "function"
    },
    {
      "inputs": [
        {
          "internalType": "address",
          "name": "to",
          "type": "address"
        }
      ],
      "name": "mintWhiteList",
      "outputs": [],
      "stateMutability": "nonpayable",
      "type": "function"
    },
    {
      "inputs": [],
      "name": "name",
      "outputs": [
        {
          "internalType": "string",
          "name": "",
          "type": "string"
        }
      ],
      "stateMutability": "view",
      "type": "function"
    },
    {
      "inputs": [],
      "name": "nftMinted",
      "outputs": [
        {
          "internalType": "uint256",
          "name": "",
          "type": "uint256"
        }
      ],
      "stateMutability": "view",
      "type": "function"
    },
    {
      "inputs": [],
      "name": "numberOfAddressesWhitelisted",
      "outputs": [
        {
          "internalType": "uint256",
          "name": "",
          "type": "uint256"
        }
      ],
      "stateMutability": "view",
      "type": "function"
    },
    {
      "inputs": [
        {
          "internalType": "uint256",
          "name": "tokenId",
          "type": "uint256"
        }
      ],
      "name": "ownerOf",
      "outputs": [
        {
          "internalType": "address",
          "name": "",
          "type": "address"
        }
      ],
      "stateMutability": "view",
      "type": "function"
    },
    {
      "inputs": [],
      "name": "pause",
      "outputs": [],
      "stateMutability": "nonpayable",
      "type": "function"
    },
    {
      "inputs": [],
      "name": "paused",
      "outputs": [
        {
          "internalType": "bool",
          "name": "",
          "type": "bool"
        }
      ],
      "stateMutability": "view",
      "type": "function"
    },
    {
      "inputs": [
        {
          "internalType": "address",
          "name": "_addressToRemove",
          "type": "address"
        }
      ],
      "name": "removeUserAddressFromWhitelist",
      "outputs": [],
      "stateMutability": "nonpayable",
      "type": "function"
    },
    {
      "inputs": [
        {
          "internalType": "bytes32",
          "name": "role",
          "type": "bytes32"
        },
        {
          "internalType": "address",
          "name": "account",
          "type": "address"
        }
      ],
      "name": "renounceRole",
      "outputs": [],
      "stateMutability": "nonpayable",
      "type": "function"
    },
    {
      "inputs": [
        {
          "internalType": "bytes32",
          "name": "role",
          "type": "bytes32"
        },
        {
          "internalType": "address",
          "name": "account",
          "type": "address"
        }
      ],
      "name": "revokeRole",
      "outputs": [],
      "stateMutability": "nonpayable",
      "type": "function"
    },
    {
      "inputs": [
        {
          "internalType": "address",
          "name": "to",
          "type": "address"
        }
      ],
      "name": "safeMint",
      "outputs": [],
      "stateMutability": "nonpayable",
      "type": "function"
    },
    {
      "inputs": [
        {
          "internalType": "address",
          "name": "from",
          "type": "address"
        },
        {
          "internalType": "address",
          "name": "to",
          "type": "address"
        },
        {
          "internalType": "uint256",
          "name": "tokenId",
          "type": "uint256"
        }
      ],
      "name": "safeTransferFrom",
      "outputs": [],
      "stateMutability": "nonpayable",
      "type": "function"
    },
    {
      "inputs": [
        {
          "internalType": "address",
          "name": "from",
          "type": "address"
        },
        {
          "internalType": "address",
          "name": "to",
          "type": "address"
        },
        {
          "internalType": "uint256",
          "name": "tokenId",
          "type": "uint256"
        },
        {
          "internalType": "bytes",
          "name": "data",
          "type": "bytes"
        }
      ],
      "name": "safeTransferFrom",
      "outputs": [],
      "stateMutability": "nonpayable",
      "type": "function"
    },
    {
      "inputs": [
        {
          "internalType": "address",
          "name": "operator",
          "type": "address"
        },
        {
          "internalType": "bool",
          "name": "approved",
          "type": "bool"
        }
      ],
      "name": "setApprovalForAll",
      "outputs": [],
      "stateMutability": "nonpayable",
      "type": "function"
    },
    {
      "inputs": [
        {
          "internalType": "bytes4",
          "name": "interfaceId",
          "type": "bytes4"
        }
      ],
      "name": "supportsInterface",
      "outputs": [
        {
          "internalType": "bool",
          "name": "",
          "type": "bool"
        }
      ],
      "stateMutability": "view",
      "type": "function"
    },
    {
      "inputs": [],
      "name": "symbol",
      "outputs": [
        {
          "internalType": "string",
          "name": "",
          "type": "string"
        }
      ],
      "stateMutability": "view",
      "type": "function"
    },
    {
      "inputs": [
        {
          "internalType": "uint256",
          "name": "tokenId",
          "type": "uint256"
        }
      ],
      "name": "tokenURI",
      "outputs": [
        {
          "internalType": "string",
          "name": "",
          "type": "string"
        }
      ],
      "stateMutability": "view",
      "type": "function"
    },
    {
      "inputs": [
        {
          "internalType": "address",
          "name": "from",
          "type": "address"
        },
        {
          "internalType": "address",
          "name": "to",
          "type": "address"
        },
        {
          "internalType": "uint256",
          "name": "tokenId",
          "type": "uint256"
        }
      ],
      "name": "transferFrom",
      "outputs": [],
      "stateMutability": "nonpayable",
      "type": "function"
    },
    {
      "inputs": [],
      "name": "unpause",
      "outputs": [],
      "stateMutability": "nonpayable",
      "type": "function"
    },
    {
      "inputs": [
        {
          "internalType": "address",
          "name": "_whitelistedAddress",
          "type": "address"
        }
      ],
      "name": "verifyUserAddress",
      "outputs": [
        {
          "internalType": "bool",
          "name": "",
          "type": "bool"
        }
      ],
      "stateMutability": "view",
      "type": "function"
    }
  ],
  "bytecode": "0x60806040523480156200001157600080fd5b506040516200431738038062004317833981810160405281019062000037919062000316565b6040518060400160405280600581526020017f414249544f0000000000000000000000000000000000000000000000000000008152506040518060400160405280600381526020017f41424900000000000000000000000000000000000000000000000000000000008152508160019081620000b49190620005cd565b508060029081620000c69190620005cd565b5050506000600760006101000a81548160ff021916908315150217905550620000f96000801b336200017360201b60201c565b6200012b7f65d7a28e3265b37a6474929f336521b332c1681b933f6cb9f3376673440d862a336200017360201b60201c565b6200015d7f9f2df0fed2c77648de5860a4cc508cd0818c85b8b8a1ab4ceeef8d981c8956a6336200017360201b60201c565b8160098190555080600d819055505050620006b4565b6200018582826200026460201b60201c565b6200026057600160008084815260200190815260200160002060000160008373ffffffffffffffffffffffffffffffffffffffff1673ffffffffffffffffffffffffffffffffffffffff16815260200190815260200160002060006101000a81548160ff02191690831515021790555062000205620002ce60201b60201c565b73ffffffffffffffffffffffffffffffffffffffff168173ffffffffffffffffffffffffffffffffffffffff16837f2f8788117e7eff1d82e926ec794901d17c78024a50270940304540a733656f0d60405160405180910390a45b5050565b600080600084815260200190815260200160002060000160008373ffffffffffffffffffffffffffffffffffffffff1673ffffffffffffffffffffffffffffffffffffffff16815260200190815260200160002060009054906101000a900460ff16905092915050565b600033905090565b600080fd5b6000819050919050565b620002f081620002db565b8114620002fc57600080fd5b50565b6000815190506200031081620002e5565b92915050565b6000806040838503121562000330576200032f620002d6565b5b60006200034085828601620002ff565b92505060206200035385828601620002ff565b9150509250929050565b600081519050919050565b7f4e487b7100000000000000000000000000000000000000000000000000000000600052604160045260246000fd5b7f4e487b7100000000000000000000000000000000000000000000000000000000600052602260045260246000fd5b60006002820490506001821680620003df57607f821691505b602082108103620003f557620003f462000397565b5b50919050565b60008190508160005260206000209050919050565b60006020601f8301049050919050565b600082821b905092915050565b6000600883026200045f7fffffffffffffffffffffffffffffffffffffffffffffffffffffffffffffffff8262000420565b6200046b868362000420565b95508019841693508086168417925050509392505050565b6000819050919050565b6000620004ae620004a8620004a284620002db565b62000483565b620002db565b9050919050565b6000819050919050565b620004ca836200048d565b620004e2620004d982620004b5565b8484546200042d565b825550505050565b600090565b620004f9620004ea565b62000506818484620004bf565b505050565b5b818110156200052e5762000522600082620004ef565b6001810190506200050c565b5050565b601f8211156200057d576200054781620003fb565b620005528462000410565b8101602085101562000562578190505b6200057a620005718562000410565b8301826200050b565b50505b505050565b600082821c905092915050565b6000620005a26000198460080262000582565b1980831691505092915050565b6000620005bd83836200058f565b9150826002028217905092915050565b620005d8826200035d565b67ffffffffffffffff811115620005f457620005f362000368565b5b620006008254620003c6565b6200060d82828562000532565b600060209050601f83116001811462000645576000841562000630578287015190505b6200063c8582620005af565b865550620006ac565b601f1984166200065586620003fb565b60005b828110156200067f5784890151825560018201915060208501945060208101905062000658565b868310156200069f57848901516200069b601f8916826200058f565b8355505b6001600288020188555050505b505050505050565b613c5380620006c46000396000f3fe608060405234801561001057600080fd5b506004361061021c5760003560e01c80637a662f8f11610125578063a22cb465116100ad578063d53913931161007c578063d539139314610629578063d547741f14610647578063e63ab1e914610663578063e985e9c514610681578063f1eebee6146106b15761021c565b8063a22cb465146105a3578063b88d4fde146105bf578063ba436547146105db578063c87b56dd146105f95761021c565b806391b17349116100f457806391b17349146104e957806391d1485414610507578063921a5b481461053757806395d89b4114610567578063a217fddf146105855761021c565b80637a662f8f146104875780637fa638c8146104a55780638456cb59146104c35780638cd5a0b9146104cd5761021c565b80633af32abf116101a857806358ef67471161017757806358ef6747146103cf5780635c975abb146103eb5780636352211e1461040957806370a082311461043957806372353033146104695761021c565b80633af32abf1461035d5780633f4ba83a1461038d57806340d097c31461039757806342842e0e146103b35761021c565b806323b872dd116101ef57806323b872dd146102bb578063248a9ca3146102d75780632f2ff15d146103075780633651f5e41461032357806336568abe146103415761021c565b806301ffc9a71461022157806306fdde0314610251578063081812fc1461026f578063095ea7b31461029f575b600080fd5b61023b6004803603810190610236919061277a565b6106cd565b60405161024891906127c2565b60405180910390f35b6102596106df565b6040516102669190612876565b60405180910390f35b610289600480360381019061028491906128ce565b610771565b604051610296919061293c565b60405180910390f35b6102b960048036038101906102b49190612983565b6107b7565b005b6102d560048036038101906102d091906129c3565b6108ce565b005b6102f160048036038101906102ec9190612a4c565b61092e565b6040516102fe9190612a88565b60405180910390f35b610321600480360381019061031c9190612aa3565b61094d565b005b61032b61096e565b6040516103389190612af2565b60405180910390f35b61035b60048036038101906103569190612aa3565b610974565b005b61037760048036038101906103729190612b0d565b6109f7565b60405161038491906127c2565b60405180910390f35b610395610a4d565b005b6103b160048036038101906103ac9190612b0d565b610a82565b005b6103cd60048036038101906103c891906129c3565b610ad3565b005b6103e960048036038101906103e49190612b0d565b610af3565b005b6103f3610c49565b60405161040091906127c2565b60405180910390f35b610423600480360381019061041e91906128ce565b610c60565b604051610430919061293c565b60405180910390f35b610453600480360381019061044e9190612b0d565b610d11565b6040516104609190612af2565b60405180910390f35b610471610dc8565b60405161047e9190612af2565b60405180910390f35b61048f610dce565b60405161049c9190612af2565b60405180910390f35b6104ad610dd8565b6040516104ba9190612af2565b60405180910390f35b6104cb610dde565b005b6104e760048036038101906104e29190612b0d565b610e13565b005b6104f1610f22565b6040516104fe9190612af2565b60405180910390f35b610521600480360381019061051c9190612aa3565b610f2c565b60405161052e91906127c2565b60405180910390f35b610551600480360381019061054c9190612b0d565b610f96565b60405161055e91906127c2565b60405180910390f35b61056f610ff1565b60405161057c9190612876565b60405180910390f35b61058d611083565b60405161059a9190612a88565b60405180910390f35b6105bd60048036038101906105b89190612b66565b61108a565b005b6105d960048036038101906105d49190612cdb565b6110a0565b005b6105e3611102565b6040516105f09190612af2565b60405180910390f35b610613600480360381019061060e91906128ce565b611108565b6040516106209190612876565b60405180910390f35b610631611170565b60405161063e9190612a88565b60405180910390f35b610661600480360381019061065c9190612aa3565b611194565b005b61066b6111b5565b6040516106789190612a88565b60405180910390f35b61069b60048036038101906106969190612d5e565b6111d9565b6040516106a891906127c2565b60405180910390f35b6106cb60048036038101906106c69190612b0d565b61126d565b005b60006106d88261134d565b9050919050565b6060600180546106ee90612dcd565b80601f016020809104026020016040519081016040528092919081815260200182805461071a90612dcd565b80156107675780601f1061073c57610100808354040283529160200191610767565b820191906000526020600020905b81548152906001019060200180831161074a57829003601f168201915b5050505050905090565b600061077c8261142f565b6005600083815260200190815260200160002060009054906101000a900473ffffffffffffffffffffffffffffffffffffffff169050919050565b60006107c282610c60565b90508073ffffffffffffffffffffffffffffffffffffffff168373ffffffffffffffffffffffffffffffffffffffff1603610832576040517f08c379a000000000000000000000000000000000000000000000000000000000815260040161082990612e70565b60405180910390fd5b8073ffffffffffffffffffffffffffffffffffffffff1661085161147a565b73ffffffffffffffffffffffffffffffffffffffff161480610880575061087f8161087a61147a565b6111d9565b5b6108bf576040517f08c379a00000000000000000000000000000000000000000000000000000000081526004016108b690612f02565b60405180910390fd5b6108c98383611482565b505050565b6108df6108d961147a565b8261153b565b61091e576040517f08c379a000000000000000000000000000000000000000000000000000000000815260040161091590612f94565b60405180910390fd5b6109298383836115d0565b505050565b6000806000838152602001908152602001600020600101549050919050565b6109568261092e565b61095f81611836565b610969838361184a565b505050565b600e5481565b61097c61147a565b73ffffffffffffffffffffffffffffffffffffffff168173ffffffffffffffffffffffffffffffffffffffff16146109e9576040517f08c379a00000000000000000000000000000000000000000000000000000000081526004016109e090613026565b60405180910390fd5b6109f3828261192a565b5050565b6000600c60008373ffffffffffffffffffffffffffffffffffffffff1673ffffffffffffffffffffffffffffffffffffffff16815260200190815260200160002060009054906101000a900460ff169050919050565b7f65d7a28e3265b37a6474929f336521b332c1681b933f6cb9f3376673440d862a610a7781611836565b610a7f611a0b565b50565b7f9f2df0fed2c77648de5860a4cc508cd0818c85b8b8a1ab4ceeef8d981c8956a6610aac81611836565b6000610ab86008611a6e565b9050610ac46008611a7c565b610ace8382611a92565b505050565b610aee838383604051806020016040528060008152506110a0565b505050565b6000801b610b0081611836565b600c60008373ffffffffffffffffffffffffffffffffffffffff1673ffffffffffffffffffffffffffffffffffffffff16815260200190815260200160002060009054906101000a900460ff1615610b8d576040517f08c379a0000000000000000000000000000000000000000000000000000000008152600401610b84906130b8565b60405180910390fd5b600954600a5410610bd3576040517f08c379a0000000000000000000000000000000000000000000000000000000008152600401610bca90613124565b60405180910390fd5b6001600c60008473ffffffffffffffffffffffffffffffffffffffff1673ffffffffffffffffffffffffffffffffffffffff16815260200190815260200160002060006101000a81548160ff0219169083151502179055506001600a6000828254610c3e9190613173565b925050819055505050565b6000600760009054906101000a900460ff16905090565b6000806003600084815260200190815260200160002060009054906101000a900473ffffffffffffffffffffffffffffffffffffffff169050600073ffffffffffffffffffffffffffffffffffffffff168173ffffffffffffffffffffffffffffffffffffffff1603610d08576040517f08c379a0000000000000000000000000000000000000000000000000000000008152600401610cff90613215565b60405180910390fd5b80915050919050565b60008073ffffffffffffffffffffffffffffffffffffffff168273ffffffffffffffffffffffffffffffffffffffff1603610d81576040517f08c379a0000000000000000000000000000000000000000000000000000000008152600401610d78906132a7565b60405180910390fd5b600460008373ffffffffffffffffffffffffffffffffffffffff1673ffffffffffffffffffffffffffffffffffffffff168152602001908152602001600020549050919050565b600a5481565b6000600a54905090565b600d5481565b7f65d7a28e3265b37a6474929f336521b332c1681b933f6cb9f3376673440d862a610e0881611836565b610e10611ab0565b50565b6000801b610e2081611836565b600c60008373ffffffffffffffffffffffffffffffffffffffff1673ffffffffffffffffffffffffffffffffffffffff16815260200190815260200160002060009054906101000a900460ff16610eac576040517f08c379a0000000000000000000000000000000000000000000000000000000008152600401610ea390613313565b60405180910390fd5b6000600c60008473ffffffffffffffffffffffffffffffffffffffff1673ffffffffffffffffffffffffffffffffffffffff16815260200190815260200160002060006101000a81548160ff0219169083151502179055506001600a6000828254610f179190613333565b925050819055505050565b6000600954905090565b600080600084815260200190815260200160002060000160008373ffffffffffffffffffffffffffffffffffffffff1673ffffffffffffffffffffffffffffffffffffffff16815260200190815260200160002060009054906101000a900460ff16905092915050565b600080600c60008473ffffffffffffffffffffffffffffffffffffffff1673ffffffffffffffffffffffffffffffffffffffff16815260200190815260200160002060009054906101000a900460ff16905080915050919050565b60606002805461100090612dcd565b80601f016020809104026020016040519081016040528092919081815260200182805461102c90612dcd565b80156110795780601f1061104e57610100808354040283529160200191611079565b820191906000526020600020905b81548152906001019060200180831161105c57829003601f168201915b5050505050905090565b6000801b81565b61109c61109561147a565b8383611b13565b5050565b6110b16110ab61147a565b8361153b565b6110f0576040517f08c379a00000000000000000000000000000000000000000000000000000000081526004016110e790612f94565b60405180910390fd5b6110fc84848484611c7f565b50505050565b60095481565b60606111138261142f565b600061111d611cdb565b9050600081511161113d5760405180602001604052806000815250611168565b8061114784611cf2565b6040516020016111589291906133a3565b6040516020818303038152906040525b915050919050565b7f9f2df0fed2c77648de5860a4cc508cd0818c85b8b8a1ab4ceeef8d981c8956a681565b61119d8261092e565b6111a681611836565b6111b0838361192a565b505050565b7f65d7a28e3265b37a6474929f336521b332c1681b933f6cb9f3376673440d862a81565b6000600660008473ffffffffffffffffffffffffffffffffffffffff1673ffffffffffffffffffffffffffffffffffffffff16815260200190815260200160002060008373ffffffffffffffffffffffffffffffffffffffff1673ffffffffffffffffffffffffffffffffffffffff16815260200190815260200160002060009054906101000a900460ff16905092915050565b7f9f2df0fed2c77648de5860a4cc508cd0818c85b8b8a1ab4ceeef8d981c8956a661129781611836565b600e54600d5411156112de576040517f08c379a00000000000000000000000000000000000000000000000000000000081526004016112d590613413565b60405180910390fd5b60006112ea6008611a6e565b90506112f5836109f7565b611334576040517f08c379a000000000000000000000000000000000000000000000000000000000815260040161132b9061347f565b60405180910390fd5b61133e6008611a7c565b6113488382611a92565b505050565b60007f80ac58cd000000000000000000000000000000000000000000000000000000007bffffffffffffffffffffffffffffffffffffffffffffffffffffffff1916827bffffffffffffffffffffffffffffffffffffffffffffffffffffffff1916148061141857507f5b5e139f000000000000000000000000000000000000000000000000000000007bffffffffffffffffffffffffffffffffffffffffffffffffffffffff1916827bffffffffffffffffffffffffffffffffffffffffffffffffffffffff1916145b80611428575061142782611e52565b5b9050919050565b61143881611ecc565b611477576040517f08c379a000000000000000000000000000000000000000000000000000000000815260040161146e90613215565b60405180910390fd5b50565b600033905090565b816005600083815260200190815260200160002060006101000a81548173ffffffffffffffffffffffffffffffffffffffff021916908373ffffffffffffffffffffffffffffffffffffffff160217905550808273ffffffffffffffffffffffffffffffffffffffff166114f583610c60565b73ffffffffffffffffffffffffffffffffffffffff167f8c5be1e5ebec7d5bd14f71427d1e84f3dd0314c0f7b2291e5b200ac8c7c3b92560405160405180910390a45050565b60008061154783610c60565b90508073ffffffffffffffffffffffffffffffffffffffff168473ffffffffffffffffffffffffffffffffffffffff161480611589575061158881856111d9565b5b806115c757508373ffffffffffffffffffffffffffffffffffffffff166115af84610771565b73ffffffffffffffffffffffffffffffffffffffff16145b91505092915050565b8273ffffffffffffffffffffffffffffffffffffffff166115f082610c60565b73ffffffffffffffffffffffffffffffffffffffff1614611646576040517f08c379a000000000000000000000000000000000000000000000000000000000815260040161163d90613511565b60405180910390fd5b600073ffffffffffffffffffffffffffffffffffffffff168273ffffffffffffffffffffffffffffffffffffffff16036116b5576040517f08c379a00000000000000000000000000000000000000000000000000000000081526004016116ac906135a3565b60405180910390fd5b6116c0838383611f38565b6116cb600082611482565b6001600460008573ffffffffffffffffffffffffffffffffffffffff1673ffffffffffffffffffffffffffffffffffffffff168152602001908152602001600020600082825461171b9190613333565b925050819055506001600460008473ffffffffffffffffffffffffffffffffffffffff1673ffffffffffffffffffffffffffffffffffffffff16815260200190815260200160002060008282546117729190613173565b92505081905550816003600083815260200190815260200160002060006101000a81548173ffffffffffffffffffffffffffffffffffffffff021916908373ffffffffffffffffffffffffffffffffffffffff160217905550808273ffffffffffffffffffffffffffffffffffffffff168473ffffffffffffffffffffffffffffffffffffffff167fddf252ad1be2c89b69c2b068fc378daa952ba7f163c4a11628f55a4df523b3ef60405160405180910390a4611831838383611f50565b505050565b6118478161184261147a565b611f55565b50565b6118548282610f2c565b61192657600160008084815260200190815260200160002060000160008373ffffffffffffffffffffffffffffffffffffffff1673ffffffffffffffffffffffffffffffffffffffff16815260200190815260200160002060006101000a81548160ff0219169083151502179055506118cb61147a565b73ffffffffffffffffffffffffffffffffffffffff168173ffffffffffffffffffffffffffffffffffffffff16837f2f8788117e7eff1d82e926ec794901d17c78024a50270940304540a733656f0d60405160405180910390a45b5050565b6119348282610f2c565b15611a0757600080600084815260200190815260200160002060000160008373ffffffffffffffffffffffffffffffffffffffff1673ffffffffffffffffffffffffffffffffffffffff16815260200190815260200160002060006101000a81548160ff0219169083151502179055506119ac61147a565b73ffffffffffffffffffffffffffffffffffffffff168173ffffffffffffffffffffffffffffffffffffffff16837ff6391f5c32d9c69d2a47ea670b442974b53935d1edc7fd64eb21e047a839171b60405160405180910390a45b5050565b611a13611ff2565b6000600760006101000a81548160ff0219169083151502179055507f5db9ee0a495bf2e6ff9c91a7834c1ba4fdd244a5e8aa4e537bd38aeae4b073aa611a5761147a565b604051611a64919061293c565b60405180910390a1565b600081600001549050919050565b6001816000016000828254019250508190555050565b611aac82826040518060200160405280600081525061203b565b5050565b611ab8612096565b6001600760006101000a81548160ff0219169083151502179055507f62e78cea01bee320cd4e420270b5ea74000d11b0c9f74754ebdbfc544b05a258611afc61147a565b604051611b09919061293c565b60405180910390a1565b8173ffffffffffffffffffffffffffffffffffffffff168373ffffffffffffffffffffffffffffffffffffffff1603611b81576040517f08c379a0000000000000000000000000000000000000000000000000000000008152600401611b789061360f565b60405180910390fd5b80600660008573ffffffffffffffffffffffffffffffffffffffff1673ffffffffffffffffffffffffffffffffffffffff16815260200190815260200160002060008473ffffffffffffffffffffffffffffffffffffffff1673ffffffffffffffffffffffffffffffffffffffff16815260200190815260200160002060006101000a81548160ff0219169083151502179055508173ffffffffffffffffffffffffffffffffffffffff168373ffffffffffffffffffffffffffffffffffffffff167f17307eab39ab6107e8899845ad3d59bd9653f200f220920489ca2b5937696c3183604051611c7291906127c2565b60405180910390a3505050565b611c8a8484846115d0565b611c96848484846120e0565b611cd5576040517f08c379a0000000000000000000000000000000000000000000000000000000008152600401611ccc906136a1565b60405180910390fd5b50505050565b606060405180602001604052806000815250905090565b606060008203611d39576040518060400160405280600181526020017f30000000000000000000000000000000000000000000000000000000000000008152509050611e4d565b600082905060005b60008214611d6b578080611d54906136c1565b915050600a82611d649190613738565b9150611d41565b60008167ffffffffffffffff811115611d8757611d86612bb0565b5b6040519080825280601f01601f191660200182016040528015611db95781602001600182028036833780820191505090505b5090505b60008514611e4657600182611dd29190613333565b9150600a85611de19190613769565b6030611ded9190613173565b60f81b818381518110611e0357611e0261379a565b5b60200101907effffffffffffffffffffffffffffffffffffffffffffffffffffffffffffff1916908160001a905350600a85611e3f9190613738565b9450611dbd565b8093505050505b919050565b60007f7965db0b000000000000000000000000000000000000000000000000000000007bffffffffffffffffffffffffffffffffffffffffffffffffffffffff1916827bffffffffffffffffffffffffffffffffffffffffffffffffffffffff19161480611ec55750611ec482612267565b5b9050919050565b60008073ffffffffffffffffffffffffffffffffffffffff166003600084815260200190815260200160002060009054906101000a900473ffffffffffffffffffffffffffffffffffffffff1673ffffffffffffffffffffffffffffffffffffffff1614159050919050565b611f40612096565b611f4b8383836122d1565b505050565b505050565b611f5f8282610f2c565b611fee57611f848173ffffffffffffffffffffffffffffffffffffffff1660146122d6565b611f928360001c60206122d6565b604051602001611fa3929190613861565b6040516020818303038152906040526040517f08c379a0000000000000000000000000000000000000000000000000000000008152600401611fe59190612876565b60405180910390fd5b5050565b611ffa610c49565b612039576040517f08c379a0000000000000000000000000000000000000000000000000000000008152600401612030906138e7565b60405180910390fd5b565b6120458383612512565b61205260008484846120e0565b612091576040517f08c379a0000000000000000000000000000000000000000000000000000000008152600401612088906136a1565b60405180910390fd5b505050565b61209e610c49565b156120de576040517f08c379a00000000000000000000000000000000000000000000000000000000081526004016120d590613953565b60405180910390fd5b565b60006121018473ffffffffffffffffffffffffffffffffffffffff166126eb565b1561225a578373ffffffffffffffffffffffffffffffffffffffff1663150b7a0261212a61147a565b8786866040518563ffffffff1660e01b815260040161214c94939291906139c8565b6020604051808303816000875af192505050801561218857506040513d601f19601f820116820180604052508101906121859190613a29565b60015b61220a573d80600081146121b8576040519150601f19603f3d011682016040523d82523d6000602084013e6121bd565b606091505b506000815103612202576040517f08c379a00000000000000000000000000000000000000000000000000000000081526004016121f9906136a1565b60405180910390fd5b805181602001fd5b63150b7a0260e01b7bffffffffffffffffffffffffffffffffffffffffffffffffffffffff1916817bffffffffffffffffffffffffffffffffffffffffffffffffffffffff19161491505061225f565b600190505b949350505050565b60007f01ffc9a7000000000000000000000000000000000000000000000000000000007bffffffffffffffffffffffffffffffffffffffffffffffffffffffff1916827bffffffffffffffffffffffffffffffffffffffffffffffffffffffff1916149050919050565b505050565b6060600060028360026122e99190613a56565b6122f39190613173565b67ffffffffffffffff81111561230c5761230b612bb0565b5b6040519080825280601f01601f19166020018201604052801561233e5781602001600182028036833780820191505090505b5090507f3000000000000000000000000000000000000000000000000000000000000000816000815181106123765761237561379a565b5b60200101907effffffffffffffffffffffffffffffffffffffffffffffffffffffffffffff1916908160001a9053507f7800000000000000000000000000000000000000000000000000000000000000816001815181106123da576123d961379a565b5b60200101907effffffffffffffffffffffffffffffffffffffffffffffffffffffffffffff1916908160001a9053506000600184600261241a9190613a56565b6124249190613173565b90505b60018111156124c4577f3031323334353637383961626364656600000000000000000000000000000000600f8616601081106124665761246561379a565b5b1a60f81b82828151811061247d5761247c61379a565b5b60200101907effffffffffffffffffffffffffffffffffffffffffffffffffffffffffffff1916908160001a905350600485901c9450806124bd90613ab0565b9050612427565b5060008414612508576040517f08c379a00000000000000000000000000000000000000000000000000000000081526004016124ff90613b25565b60405180910390fd5b8091505092915050565b600073ffffffffffffffffffffffffffffffffffffffff168273ffffffffffffffffffffffffffffffffffffffff1603612581576040517f08c379a000000000000000000000000000000000000000000000000000000000815260040161257890613b91565b60405180910390fd5b61258a81611ecc565b156125ca576040517f08c379a00000000000000000000000000000000000000000000000000000000081526004016125c190613bfd565b60405180910390fd5b6125d660008383611f38565b6001600460008473ffffffffffffffffffffffffffffffffffffffff1673ffffffffffffffffffffffffffffffffffffffff16815260200190815260200160002060008282546126269190613173565b92505081905550816003600083815260200190815260200160002060006101000a81548173ffffffffffffffffffffffffffffffffffffffff021916908373ffffffffffffffffffffffffffffffffffffffff160217905550808273ffffffffffffffffffffffffffffffffffffffff16600073ffffffffffffffffffffffffffffffffffffffff167fddf252ad1be2c89b69c2b068fc378daa952ba7f163c4a11628f55a4df523b3ef60405160405180910390a46126e760008383611f50565b5050565b6000808273ffffffffffffffffffffffffffffffffffffffff163b119050919050565b6000604051905090565b600080fd5b600080fd5b60007fffffffff0000000000000000000000000000000000000000000000000000000082169050919050565b61275781612722565b811461276257600080fd5b50565b6000813590506127748161274e565b92915050565b6000602082840312156127905761278f612718565b5b600061279e84828501612765565b91505092915050565b60008115159050919050565b6127bc816127a7565b82525050565b60006020820190506127d760008301846127b3565b92915050565b600081519050919050565b600082825260208201905092915050565b60005b838110156128175780820151818401526020810190506127fc565b83811115612826576000848401525b50505050565b6000601f19601f8301169050919050565b6000612848826127dd565b61285281856127e8565b93506128628185602086016127f9565b61286b8161282c565b840191505092915050565b60006020820190508181036000830152612890818461283d565b905092915050565b6000819050919050565b6128ab81612898565b81146128b657600080fd5b50565b6000813590506128c8816128a2565b92915050565b6000602082840312156128e4576128e3612718565b5b60006128f2848285016128b9565b91505092915050565b600073ffffffffffffffffffffffffffffffffffffffff82169050919050565b6000612926826128fb565b9050919050565b6129368161291b565b82525050565b6000602082019050612951600083018461292d565b92915050565b6129608161291b565b811461296b57600080fd5b50565b60008135905061297d81612957565b92915050565b6000806040838503121561299a57612999612718565b5b60006129a88582860161296e565b92505060206129b9858286016128b9565b9150509250929050565b6000806000606084860312156129dc576129db612718565b5b60006129ea8682870161296e565b93505060206129fb8682870161296e565b9250506040612a0c868287016128b9565b9150509250925092565b6000819050919050565b612a2981612a16565b8114612a3457600080fd5b50565b600081359050612a4681612a20565b92915050565b600060208284031215612a6257612a61612718565b5b6000612a7084828501612a37565b91505092915050565b612a8281612a16565b82525050565b6000602082019050612a9d6000830184612a79565b92915050565b60008060408385031215612aba57612ab9612718565b5b6000612ac885828601612a37565b9250506020612ad98582860161296e565b9150509250929050565b612aec81612898565b82525050565b6000602082019050612b076000830184612ae3565b92915050565b600060208284031215612b2357612b22612718565b5b6000612b318482850161296e565b91505092915050565b612b43816127a7565b8114612b4e57600080fd5b50565b600081359050612b6081612b3a565b92915050565b60008060408385031215612b7d57612b7c612718565b5b6000612b8b8582860161296e565b9250506020612b9c85828601612b51565b9150509250929050565b600080fd5b600080fd5b7f4e487b7100000000000000000000000000000000000000000000000000000000600052604160045260246000fd5b612be88261282c565b810181811067ffffffffffffffff82111715612c0757612c06612bb0565b5b80604052505050565b6000612c1a61270e565b9050612c268282612bdf565b919050565b600067ffffffffffffffff821115612c4657612c45612bb0565b5b612c4f8261282c565b9050602081019050919050565b82818337600083830152505050565b6000612c7e612c7984612c2b565b612c10565b905082815260208101848484011115612c9a57612c99612bab565b5b612ca5848285612c5c565b509392505050565b600082601f830112612cc257612cc1612ba6565b5b8135612cd2848260208601612c6b565b91505092915050565b60008060008060808587031215612cf557612cf4612718565b5b6000612d038782880161296e565b9450506020612d148782880161296e565b9350506040612d25878288016128b9565b925050606085013567ffffffffffffffff811115612d4657612d4561271d565b5b612d5287828801612cad565b91505092959194509250565b60008060408385031215612d7557612d74612718565b5b6000612d838582860161296e565b9250506020612d948582860161296e565b9150509250929050565b7f4e487b7100000000000000000000000000000000000000000000000000000000600052602260045260246000fd5b60006002820490506001821680612de557607f821691505b602082108103612df857612df7612d9e565b5b50919050565b7f4552433732313a20617070726f76616c20746f2063757272656e74206f776e6560008201527f7200000000000000000000000000000000000000000000000000000000000000602082015250565b6000612e5a6021836127e8565b9150612e6582612dfe565b604082019050919050565b60006020820190508181036000830152612e8981612e4d565b9050919050565b7f4552433732313a20617070726f76652063616c6c6572206973206e6f7420746f60008201527f6b656e206f776e6572206e6f7220617070726f76656420666f7220616c6c0000602082015250565b6000612eec603e836127e8565b9150612ef782612e90565b604082019050919050565b60006020820190508181036000830152612f1b81612edf565b9050919050565b7f4552433732313a2063616c6c6572206973206e6f7420746f6b656e206f776e6560008201527f72206e6f7220617070726f766564000000000000000000000000000000000000602082015250565b6000612f7e602e836127e8565b9150612f8982612f22565b604082019050919050565b60006020820190508181036000830152612fad81612f71565b9050919050565b7f416363657373436f6e74726f6c3a2063616e206f6e6c792072656e6f756e636560008201527f20726f6c657320666f722073656c660000000000000000000000000000000000602082015250565b6000613010602f836127e8565b915061301b82612fb4565b604082019050919050565b6000602082019050818103600083015261303f81613003565b9050919050565b7f4572726f723a2053656e64657220616c7265616479206265656e20776869746560008201527f6c69737465640000000000000000000000000000000000000000000000000000602082015250565b60006130a26026836127e8565b91506130ad82613046565b604082019050919050565b600060208201905081810360008301526130d181613095565b9050919050565b7f4572726f723a2057686974656c697374204c696d697420657863656564656400600082015250565b600061310e601f836127e8565b9150613119826130d8565b602082019050919050565b6000602082019050818103600083015261313d81613101565b9050919050565b7f4e487b7100000000000000000000000000000000000000000000000000000000600052601160045260246000fd5b600061317e82612898565b915061318983612898565b9250827fffffffffffffffffffffffffffffffffffffffffffffffffffffffffffffffff038211156131be576131bd613144565b5b828201905092915050565b7f4552433732313a20696e76616c696420746f6b656e2049440000000000000000600082015250565b60006131ff6018836127e8565b915061320a826131c9565b602082019050919050565b6000602082019050818103600083015261322e816131f2565b9050919050565b7f4552433732313a2061646472657373207a65726f206973206e6f74206120766160008201527f6c6964206f776e65720000000000000000000000000000000000000000000000602082015250565b60006132916029836127e8565b915061329c82613235565b604082019050919050565b600060208201905081810360008301526132c081613284565b9050919050565b7f4572726f723a2053656e646572206973206e6f742077686974656c6973746564600082015250565b60006132fd6020836127e8565b9150613308826132c7565b602082019050919050565b6000602082019050818103600083015261332c816132f0565b9050919050565b600061333e82612898565b915061334983612898565b92508282101561335c5761335b613144565b5b828203905092915050565b600081905092915050565b600061337d826127dd565b6133878185613367565b93506133978185602086016127f9565b80840191505092915050565b60006133af8285613372565b91506133bb8284613372565b91508190509392505050565b7f536f72727920676f20746f20746865207075626c6963206d696e74696e672100600082015250565b60006133fd601f836127e8565b9150613408826133c7565b602082019050919050565b6000602082019050818103600083015261342c816133f0565b9050919050565b7f55736572206973206e6f742077686974656c6973746564000000000000000000600082015250565b60006134696017836127e8565b915061347482613433565b602082019050919050565b600060208201905081810360008301526134988161345c565b9050919050565b7f4552433732313a207472616e736665722066726f6d20696e636f72726563742060008201527f6f776e6572000000000000000000000000000000000000000000000000000000602082015250565b60006134fb6025836127e8565b91506135068261349f565b604082019050919050565b6000602082019050818103600083015261352a816134ee565b9050919050565b7f4552433732313a207472616e7366657220746f20746865207a65726f2061646460008201527f7265737300000000000000000000000000000000000000000000000000000000602082015250565b600061358d6024836127e8565b915061359882613531565b604082019050919050565b600060208201905081810360008301526135bc81613580565b9050919050565b7f4552433732313a20617070726f766520746f2063616c6c657200000000000000600082015250565b60006135f96019836127e8565b9150613604826135c3565b602082019050919050565b60006020820190508181036000830152613628816135ec565b9050919050565b7f4552433732313a207472616e7366657220746f206e6f6e20455243373231526560008201527f63656976657220696d706c656d656e7465720000000000000000000000000000602082015250565b600061368b6032836127e8565b91506136968261362f565b604082019050919050565b600060208201905081810360008301526136ba8161367e565b9050919050565b60006136cc82612898565b91507fffffffffffffffffffffffffffffffffffffffffffffffffffffffffffffffff82036136fe576136fd613144565b5b600182019050919050565b7f4e487b7100000000000000000000000000000000000000000000000000000000600052601260045260246000fd5b600061374382612898565b915061374e83612898565b92508261375e5761375d613709565b5b828204905092915050565b600061377482612898565b915061377f83612898565b92508261378f5761378e613709565b5b828206905092915050565b7f4e487b7100000000000000000000000000000000000000000000000000000000600052603260045260246000fd5b7f416363657373436f6e74726f6c3a206163636f756e7420000000000000000000600082015250565b60006137ff601783613367565b915061380a826137c9565b601782019050919050565b7f206973206d697373696e6720726f6c6520000000000000000000000000000000600082015250565b600061384b601183613367565b915061385682613815565b601182019050919050565b600061386c826137f2565b91506138788285613372565b91506138838261383e565b915061388f8284613372565b91508190509392505050565b7f5061757361626c653a206e6f7420706175736564000000000000000000000000600082015250565b60006138d16014836127e8565b91506138dc8261389b565b602082019050919050565b60006020820190508181036000830152613900816138c4565b9050919050565b7f5061757361626c653a2070617573656400000000000000000000000000000000600082015250565b600061393d6010836127e8565b915061394882613907565b602082019050919050565b6000602082019050818103600083015261396c81613930565b9050919050565b600081519050919050565b600082825260208201905092915050565b600061399a82613973565b6139a4818561397e565b93506139b48185602086016127f9565b6139bd8161282c565b840191505092915050565b60006080820190506139dd600083018761292d565b6139ea602083018661292d565b6139f76040830185612ae3565b8181036060830152613a09818461398f565b905095945050505050565b600081519050613a238161274e565b92915050565b600060208284031215613a3f57613a3e612718565b5b6000613a4d84828501613a14565b91505092915050565b6000613a6182612898565b9150613a6c83612898565b9250817fffffffffffffffffffffffffffffffffffffffffffffffffffffffffffffffff0483118215151615613aa557613aa4613144565b5b828202905092915050565b6000613abb82612898565b915060008203613ace57613acd613144565b5b600182039050919050565b7f537472696e67733a20686578206c656e67746820696e73756666696369656e74600082015250565b6000613b0f6020836127e8565b9150613b1a82613ad9565b602082019050919050565b60006020820190508181036000830152613b3e81613b02565b9050919050565b7f4552433732313a206d696e7420746f20746865207a65726f2061646472657373600082015250565b6000613b7b6020836127e8565b9150613b8682613b45565b602082019050919050565b60006020820190508181036000830152613baa81613b6e565b9050919050565b7f4552433732313a20746f6b656e20616c7265616479206d696e74656400000000600082015250565b6000613be7601c836127e8565b9150613bf282613bb1565b602082019050919050565b60006020820190508181036000830152613c1681613bda565b905091905056fea2646970667358221220641c6da42829a9664493c7ea25cdd84d8cb14f7bd6a97563f026a22247c8ddfa64736f6c634300080f0033",
  "linkReferences": {},
  "deployedLinkReferences": {}
}