{
  "address": "0x74eA74c0d471ACB88e979b1c6C24B2dE9F7ac4d3",
  "abi": [
    {
      "inputs": [
        {
          "internalType": "address",
          "name": "coordinator",
          "type": "address"
        },
        {
          "internalType": "uint64",
          "name": "subscriptionId",
          "type": "uint64"
        },
        {
          "internalType": "bytes32",
          "name": "gasLane",
          "type": "bytes32"
        },
        {
          "internalType": "uint32",
          "name": "callbackGasLimit",
          "type": "uint32"
        },
        {
          "internalType": "string[3]",
          "name": "tokenURIs",
          "type": "string[3]"
        },
        {
          "internalType": "uint256",
          "name": "mintFee",
          "type": "uint256"
        }
      ],
      "stateMutability": "nonpayable",
      "type": "constructor"
    },
    {
      "inputs": [
        {
          "internalType": "address",
          "name": "have",
          "type": "address"
        },
        {
          "internalType": "address",
          "name": "want",
          "type": "address"
        }
      ],
      "name": "OnlyCoordinatorCanFulfill",
      "type": "error"
    },
    {
      "inputs": [],
      "name": "RandomNFTGenerator__AlreadyInitialized",
      "type": "error"
    },
    {
      "inputs": [],
      "name": "RandomNFTGenerator__NotEnoughETHSent",
      "type": "error"
    },
    {
      "inputs": [],
      "name": "RandomNFTGenerator__RangeOutOfScope",
      "type": "error"
    },
    {
      "inputs": [],
      "name": "RandomNFTGenerator__TransferFailed",
      "type": "error"
    },
    {
      "anonymous": false,
      "inputs": [
        {
          "indexed": true,
          "internalType": "address",
          "name": "owner",
          "type": "address"
        },
        {
          "indexed": true,
          "internalType": "address",
          "name": "approved",
          "type": "address"
        },
        {
          "indexed": true,
          "internalType": "uint256",
          "name": "tokenId",
          "type": "uint256"
        }
      ],
      "name": "Approval",
      "type": "event"
    },
    {
      "anonymous": false,
      "inputs": [
        {
          "indexed": true,
          "internalType": "address",
          "name": "owner",
          "type": "address"
        },
        {
          "indexed": true,
          "internalType": "address",
          "name": "operator",
          "type": "address"
        },
        {
          "indexed": false,
          "internalType": "bool",
          "name": "approved",
          "type": "bool"
        }
      ],
      "name": "ApprovalForAll",
      "type": "event"
    },
    {
      "anonymous": false,
      "inputs": [
        {
          "indexed": false,
          "internalType": "enum RandomNFTGenerator.Selection",
          "name": "selection",
          "type": "uint8"
        },
        {
          "indexed": false,
          "internalType": "address",
          "name": "minter",
          "type": "address"
        }
      ],
      "name": "NFTMinted",
      "type": "event"
    },
    {
      "anonymous": false,
      "inputs": [
        {
          "indexed": true,
          "internalType": "uint256",
          "name": "requestId",
          "type": "uint256"
        },
        {
          "indexed": false,
          "internalType": "address",
          "name": "requester",
          "type": "address"
        }
      ],
      "name": "NFTRequested",
      "type": "event"
    },
    {
      "anonymous": false,
      "inputs": [
        {
          "indexed": true,
          "internalType": "address",
          "name": "previousOwner",
          "type": "address"
        },
        {
          "indexed": true,
          "internalType": "address",
          "name": "newOwner",
          "type": "address"
        }
      ],
      "name": "OwnershipTransferred",
      "type": "event"
    },
    {
      "anonymous": false,
      "inputs": [
        {
          "indexed": true,
          "internalType": "address",
          "name": "from",
          "type": "address"
        },
        {
          "indexed": true,
          "internalType": "address",
          "name": "to",
          "type": "address"
        },
        {
          "indexed": true,
          "internalType": "uint256",
          "name": "tokenId",
          "type": "uint256"
        }
      ],
      "name": "Transfer",
      "type": "event"
    },
    {
      "inputs": [
        {
          "internalType": "address",
          "name": "to",
          "type": "address"
        },
        {
          "internalType": "uint256",
          "name": "tokenId",
          "type": "uint256"
        }
      ],
      "name": "approve",
      "outputs": [],
      "stateMutability": "nonpayable",
      "type": "function"
    },
    {
      "inputs": [
        {
          "internalType": "address",
          "name": "owner",
          "type": "address"
        }
      ],
      "name": "balanceOf",
      "outputs": [
        {
          "internalType": "uint256",
          "name": "",
          "type": "uint256"
        }
      ],
      "stateMutability": "view",
      "type": "function"
    },
    {
      "inputs": [
        {
          "internalType": "uint256",
          "name": "tokenId",
          "type": "uint256"
        }
      ],
      "name": "getApproved",
      "outputs": [
        {
          "internalType": "address",
          "name": "",
          "type": "address"
        }
      ],
      "stateMutability": "view",
      "type": "function"
    },
    {
      "inputs": [],
      "name": "getInitialized",
      "outputs": [
        {
          "internalType": "bool",
          "name": "",
          "type": "bool"
        }
      ],
      "stateMutability": "view",
      "type": "function"
    },
    {
      "inputs": [],
      "name": "getMintFee",
      "outputs": [
        {
          "internalType": "uint256",
          "name": "",
          "type": "uint256"
        }
      ],
      "stateMutability": "view",
      "type": "function"
    },
    {
      "inputs": [],
      "name": "getTokenCounter",
      "outputs": [
        {
          "internalType": "uint256",
          "name": "",
          "type": "uint256"
        }
      ],
      "stateMutability": "view",
      "type": "function"
    },
    {
      "inputs": [
        {
          "internalType": "uint256",
          "name": "index",
          "type": "uint256"
        }
      ],
      "name": "getTokenURIs",
      "outputs": [
        {
          "internalType": "string",
          "name": "",
          "type": "string"
        }
      ],
      "stateMutability": "view",
      "type": "function"
    },
    {
      "inputs": [
        {
          "internalType": "address",
          "name": "owner",
          "type": "address"
        },
        {
          "internalType": "address",
          "name": "operator",
          "type": "address"
        }
      ],
      "name": "isApprovedForAll",
      "outputs": [
        {
          "internalType": "bool",
          "name": "",
          "type": "bool"
        }
      ],
      "stateMutability": "view",
      "type": "function"
    },
    {
      "inputs": [],
      "name": "name",
      "outputs": [
        {
          "internalType": "string",
          "name": "",
          "type": "string"
        }
      ],
      "stateMutability": "view",
      "type": "function"
    },
    {
      "inputs": [],
      "name": "owner",
      "outputs": [
        {
          "internalType": "address",
          "name": "",
          "type": "address"
        }
      ],
      "stateMutability": "view",
      "type": "function"
    },
    {
      "inputs": [
        {
          "internalType": "uint256",
          "name": "tokenId",
          "type": "uint256"
        }
      ],
      "name": "ownerOf",
      "outputs": [
        {
          "internalType": "address",
          "name": "",
          "type": "address"
        }
      ],
      "stateMutability": "view",
      "type": "function"
    },
    {
      "inputs": [
        {
          "internalType": "uint256",
          "name": "requestId",
          "type": "uint256"
        },
        {
          "internalType": "uint256[]",
          "name": "randomWords",
          "type": "uint256[]"
        }
      ],
      "name": "rawFulfillRandomWords",
      "outputs": [],
      "stateMutability": "nonpayable",
      "type": "function"
    },
    {
      "inputs": [],
      "name": "renounceOwnership",
      "outputs": [],
      "stateMutability": "nonpayable",
      "type": "function"
    },
    {
      "inputs": [],
      "name": "requestNFT",
      "outputs": [
        {
          "internalType": "uint256",
          "name": "requestId",
          "type": "uint256"
        }
      ],
      "stateMutability": "payable",
      "type": "function"
    },
    {
      "inputs": [
        {
          "internalType": "uint256",
          "name": "",
          "type": "uint256"
        }
      ],
      "name": "s_requestIdToSender",
      "outputs": [
        {
          "internalType": "address",
          "name": "",
          "type": "address"
        }
      ],
      "stateMutability": "view",
      "type": "function"
    },
    {
      "inputs": [],
      "name": "s_tokenCounter",
      "outputs": [
        {
          "internalType": "uint256",
          "name": "",
          "type": "uint256"
        }
      ],
      "stateMutability": "view",
      "type": "function"
    },
    {
      "inputs": [
        {
          "internalType": "address",
          "name": "from",
          "type": "address"
        },
        {
          "internalType": "address",
          "name": "to",
          "type": "address"
        },
        {
          "internalType": "uint256",
          "name": "tokenId",
          "type": "uint256"
        }
      ],
      "name": "safeTransferFrom",
      "outputs": [],
      "stateMutability": "nonpayable",
      "type": "function"
    },
    {
      "inputs": [
        {
          "internalType": "address",
          "name": "from",
          "type": "address"
        },
        {
          "internalType": "address",
          "name": "to",
          "type": "address"
        },
        {
          "internalType": "uint256",
          "name": "tokenId",
          "type": "uint256"
        },
        {
          "internalType": "bytes",
          "name": "data",
          "type": "bytes"
        }
      ],
      "name": "safeTransferFrom",
      "outputs": [],
      "stateMutability": "nonpayable",
      "type": "function"
    },
    {
      "inputs": [
        {
          "internalType": "uint256",
          "name": "moddedRNG",
          "type": "uint256"
        }
      ],
      "name": "selectionFromModdedRNG",
      "outputs": [
        {
          "internalType": "enum RandomNFTGenerator.Selection",
          "name": "",
          "type": "uint8"
        }
      ],
      "stateMutability": "pure",
      "type": "function"
    },
    {
      "inputs": [
        {
          "internalType": "address",
          "name": "operator",
          "type": "address"
        },
        {
          "internalType": "bool",
          "name": "approved",
          "type": "bool"
        }
      ],
      "name": "setApprovalForAll",
      "outputs": [],
      "stateMutability": "nonpayable",
      "type": "function"
    },
    {
      "inputs": [],
      "name": "setChanceArray",
      "outputs": [
        {
          "internalType": "uint256[3]",
          "name": "",
          "type": "uint256[3]"
        }
      ],
      "stateMutability": "pure",
      "type": "function"
    },
    {
      "inputs": [
        {
          "internalType": "bytes4",
          "name": "interfaceId",
          "type": "bytes4"
        }
      ],
      "name": "supportsInterface",
      "outputs": [
        {
          "internalType": "bool",
          "name": "",
          "type": "bool"
        }
      ],
      "stateMutability": "view",
      "type": "function"
    },
    {
      "inputs": [],
      "name": "symbol",
      "outputs": [
        {
          "internalType": "string",
          "name": "",
          "type": "string"
        }
      ],
      "stateMutability": "view",
      "type": "function"
    },
    {
      "inputs": [
        {
          "internalType": "uint256",
          "name": "tokenId",
          "type": "uint256"
        }
      ],
      "name": "tokenURI",
      "outputs": [
        {
          "internalType": "string",
          "name": "",
          "type": "string"
        }
      ],
      "stateMutability": "view",
      "type": "function"
    },
    {
      "inputs": [
        {
          "internalType": "address",
          "name": "from",
          "type": "address"
        },
        {
          "internalType": "address",
          "name": "to",
          "type": "address"
        },
        {
          "internalType": "uint256",
          "name": "tokenId",
          "type": "uint256"
        }
      ],
      "name": "transferFrom",
      "outputs": [],
      "stateMutability": "nonpayable",
      "type": "function"
    },
    {
      "inputs": [
        {
          "internalType": "address",
          "name": "newOwner",
          "type": "address"
        }
      ],
      "name": "transferOwnership",
      "outputs": [],
      "stateMutability": "nonpayable",
      "type": "function"
    },
    {
      "inputs": [],
      "name": "withdraw",
      "outputs": [],
      "stateMutability": "nonpayable",
      "type": "function"
    }
  ],
  "transactionHash": "0x55934e1a9ea5aea7d76fd907d7ab54388673a9208ca1302cbd9fb2dcb734db9f",
  "args": [
    "0x6168499c0cFfCaCD319c818142124B7A15E857ab",
    "9747",
    "0xd89b2bf150e3b9e13446986e571fb9cab24b13cea0a43ea20a6049a85cc807cc",
    "500000",
    [
      "ipfs://bafkreia35hmeoi2gbeib7louigapnicybxzhnu3ow7mrzjvjhy2lxh5nwq",
      "ipfs://bafkreiaulh6ope6bamhyhlzgwisc3djffjuclt5zxxamsypmqrulb3kkqa",
      "ipfs://bafkreiayes7ej5kzziio3fydpjjtdygtaxckjitka5z6txfgqgkfeticaq"
    ],
    "10000000000000000"
  ],
  "numDeployments": 1,
  "solcInputHash": "287ee0b295fdfcd61920fc1d7a6fedf5",
  "bytecode": "0x6101206040523480156200001257600080fd5b5060405162004740380380620047408339818101604052810190620000389190620007ce565b856040518060400160405280601d81526020017f4f70656e5a657070656c696e20426f6f7463616d702050726f6a6563740000008152506040518060400160405280600381526020017f4f425000000000000000000000000000000000000000000000000000000000008152508160009081620000b6919062000aca565b508060019081620000c8919062000aca565b505050620000eb620000df620001b160201b60201c565b620001b960201b60201c565b8073ffffffffffffffffffffffffffffffffffffffff1660808173ffffffffffffffffffffffffffffffffffffffff1681525050508573ffffffffffffffffffffffffffffffffffffffff1660a08173ffffffffffffffffffffffffffffffffffffffff16815250508467ffffffffffffffff1660c08167ffffffffffffffff16815250508360e08181525050806008819055508263ffffffff166101008163ffffffff1681525050620001a5826200027f60201b60201c565b50505050505062000bb1565b600033905090565b6000600760009054906101000a900473ffffffffffffffffffffffffffffffffffffffff16905081600760006101000a81548173ffffffffffffffffffffffffffffffffffffffff021916908373ffffffffffffffffffffffffffffffffffffffff1602179055508173ffffffffffffffffffffffffffffffffffffffff168173ffffffffffffffffffffffffffffffffffffffff167f8be0079c531659141344cd1fd0a4f28419497f9722a3daafe3b4186f6b6457e060405160405180910390a35050565b600c60009054906101000a900460ff1615620002c7576040517fb4e711c600000000000000000000000000000000000000000000000000000000815260040160405180910390fd5b80600b906003620002da929190620002f9565b506001600c60006101000a81548160ff02191690831515021790555050565b82805482825590600052602060002090810192821562000346579160200282015b828111156200034557825182908162000334919062000aca565b50916020019190600101906200031a565b5b50905062000355919062000359565b5090565b5b808211156200037d576000818162000373919062000381565b506001016200035a565b5090565b5080546200038f90620008c3565b6000825580601f10620003a35750620003c4565b601f016020900490600052602060002090810190620003c39190620003c7565b5b50565b5b80821115620003e2576000816000905550600101620003c8565b5090565b6000604051905090565b600080fd5b600080fd5b600073ffffffffffffffffffffffffffffffffffffffff82169050919050565b60006200042782620003fa565b9050919050565b62000439816200041a565b81146200044557600080fd5b50565b60008151905062000459816200042e565b92915050565b600067ffffffffffffffff82169050919050565b6200047e816200045f565b81146200048a57600080fd5b50565b6000815190506200049e8162000473565b92915050565b6000819050919050565b620004b981620004a4565b8114620004c557600080fd5b50565b600081519050620004d981620004ae565b92915050565b600063ffffffff82169050919050565b620004fa81620004df565b81146200050657600080fd5b50565b6000815190506200051a81620004ef565b92915050565b600080fd5b6000601f19601f8301169050919050565b7f4e487b7100000000000000000000000000000000000000000000000000000000600052604160045260246000fd5b620005708262000525565b810181811067ffffffffffffffff8211171562000592576200059162000536565b5b80604052505050565b6000620005a7620003e6565b9050620005b5828262000565565b919050565b600067ffffffffffffffff821115620005d857620005d762000536565b5b602082029050919050565b600080fd5b600080fd5b600067ffffffffffffffff8211156200060b576200060a62000536565b5b620006168262000525565b9050602081019050919050565b60005b838110156200064357808201518184015260208101905062000626565b8381111562000653576000848401525b50505050565b6000620006706200066a84620005ed565b6200059b565b9050828152602081018484840111156200068f576200068e620005e8565b5b6200069c84828562000623565b509392505050565b600082601f830112620006bc57620006bb62000520565b5b8151620006ce84826020860162000659565b91505092915050565b6000620006ee620006e884620005ba565b6200059b565b905080602084028301858111156200070b576200070a620005e3565b5b835b818110156200075957805167ffffffffffffffff81111562000734576200073362000520565b5b808601620007438982620006a4565b855260208501945050506020810190506200070d565b5050509392505050565b600082601f8301126200077b576200077a62000520565b5b60036200078a848285620006d7565b91505092915050565b6000819050919050565b620007a88162000793565b8114620007b457600080fd5b50565b600081519050620007c8816200079d565b92915050565b60008060008060008060c08789031215620007ee57620007ed620003f0565b5b6000620007fe89828a0162000448565b96505060206200081189828a016200048d565b95505060406200082489828a01620004c8565b94505060606200083789828a0162000509565b935050608087015167ffffffffffffffff8111156200085b576200085a620003f5565b5b6200086989828a0162000763565b92505060a06200087c89828a01620007b7565b9150509295509295509295565b600081519050919050565b7f4e487b7100000000000000000000000000000000000000000000000000000000600052602260045260246000fd5b60006002820490506001821680620008dc57607f821691505b602082108103620008f257620008f162000894565b5b50919050565b60008190508160005260206000209050919050565b60006020601f8301049050919050565b600082821b905092915050565b6000600883026200095c7fffffffffffffffffffffffffffffffffffffffffffffffffffffffffffffffff826200091d565b6200096886836200091d565b95508019841693508086168417925050509392505050565b6000819050919050565b6000620009ab620009a56200099f8462000793565b62000980565b62000793565b9050919050565b6000819050919050565b620009c7836200098a565b620009df620009d682620009b2565b8484546200092a565b825550505050565b600090565b620009f6620009e7565b62000a03818484620009bc565b505050565b5b8181101562000a2b5762000a1f600082620009ec565b60018101905062000a09565b5050565b601f82111562000a7a5762000a4481620008f8565b62000a4f846200090d565b8101602085101562000a5f578190505b62000a7762000a6e856200090d565b83018262000a08565b50505b505050565b600082821c905092915050565b600062000a9f6000198460080262000a7f565b1980831691505092915050565b600062000aba838362000a8c565b9150826002028217905092915050565b62000ad58262000889565b67ffffffffffffffff81111562000af15762000af062000536565b5b62000afd8254620008c3565b62000b0a82828562000a2f565b600060209050601f83116001811462000b42576000841562000b2d578287015190505b62000b39858262000aac565b86555062000ba9565b601f19841662000b5286620008f8565b60005b8281101562000b7c5784890151825560018201915060208501945060208101905062000b55565b8683101562000b9c578489015162000b98601f89168262000a8c565b8355505b6001600288020188555050505b505050505050565b60805160a05160c05160e05161010051613b4362000bfd6000396000610e8001526000610e3c01526000610e5d01526000610e0001526000818161096201526109b60152613b436000f3fe60806040526004361061019c5760003560e01c806370a08231116100ec578063a36f573b1161008a578063e985e9c511610064578063e985e9c5146105bb578063ee89dab4146105f8578063f2fde38b14610623578063f359462a1461064c5761019c565b8063a36f573b14610518578063b88d4fde14610555578063c87b56dd1461057e5761019c565b80637abd25d1116100c65780637abd25d11461047b5780638da5cb5b1461049957806395d89b41146104c4578063a22cb465146104ef5761019c565b806370a08231146103fc578063715018a6146104395780637a5caab3146104505761019c565b806323b872dd1161015957806342842e0e1161013357806342842e0e1461032e5780636352211e1461035757806364224120146103945780636e02007d146103d15761019c565b806323b872dd146102c35780633ca63262146102ec5780633ccfd60b146103175761019c565b806301ffc9a7146101a157806306fdde03146101de578063081812fc14610209578063095ea7b3146102465780630b21a83b1461026f5780631fe543e31461029a575b600080fd5b3480156101ad57600080fd5b506101c860048036038101906101c39190612475565b610689565b6040516101d591906124bd565b60405180910390f35b3480156101ea57600080fd5b506101f361076b565b6040516102009190612571565b60405180910390f35b34801561021557600080fd5b50610230600480360381019061022b91906125c9565b6107fd565b60405161023d9190612637565b60405180910390f35b34801561025257600080fd5b5061026d6004803603810190610268919061267e565b610843565b005b34801561027b57600080fd5b5061028461095a565b60405161029191906126cd565b60405180910390f35b3480156102a657600080fd5b506102c160048036038101906102bc9190612830565b610960565b005b3480156102cf57600080fd5b506102ea60048036038101906102e5919061288c565b610a20565b005b3480156102f857600080fd5b50610301610a80565b60405161030e919061298a565b60405180910390f35b34801561032357600080fd5b5061032c610aac565b005b34801561033a57600080fd5b506103556004803603810190610350919061288c565b610b60565b005b34801561036357600080fd5b5061037e600480360381019061037991906125c9565b610b80565b60405161038b9190612637565b60405180910390f35b3480156103a057600080fd5b506103bb60048036038101906103b691906125c9565b610c31565b6040516103c89190612571565b60405180910390f35b3480156103dd57600080fd5b506103e6610ce1565b6040516103f391906126cd565b60405180910390f35b34801561040857600080fd5b50610423600480360381019061041e91906129a5565b610ceb565b60405161043091906126cd565b60405180910390f35b34801561044557600080fd5b5061044e610da2565b005b34801561045c57600080fd5b50610465610db6565b60405161047291906126cd565b60405180910390f35b610483610dc0565b60405161049091906126cd565b60405180910390f35b3480156104a557600080fd5b506104ae610f93565b6040516104bb9190612637565b60405180910390f35b3480156104d057600080fd5b506104d9610fbd565b6040516104e69190612571565b60405180910390f35b3480156104fb57600080fd5b50610516600480360381019061051191906129fe565b61104f565b005b34801561052457600080fd5b5061053f600480360381019061053a91906125c9565b611065565b60405161054c9190612637565b60405180910390f35b34801561056157600080fd5b5061057c60048036038101906105779190612af3565b611098565b005b34801561058a57600080fd5b506105a560048036038101906105a091906125c9565b6110fa565b6040516105b29190612571565b60405180910390f35b3480156105c757600080fd5b506105e260048036038101906105dd9190612b76565b61120c565b6040516105ef91906124bd565b60405180910390f35b34801561060457600080fd5b5061060d6112a0565b60405161061a91906124bd565b60405180910390f35b34801561062f57600080fd5b5061064a600480360381019061064591906129a5565b6112b7565b005b34801561065857600080fd5b50610673600480360381019061066e91906125c9565b61133a565b6040516106809190612c2d565b60405180910390f35b60007f80ac58cd000000000000000000000000000000000000000000000000000000007bffffffffffffffffffffffffffffffffffffffffffffffffffffffff1916827bffffffffffffffffffffffffffffffffffffffffffffffffffffffff1916148061075457507f5b5e139f000000000000000000000000000000000000000000000000000000007bffffffffffffffffffffffffffffffffffffffffffffffffffffffff1916827bffffffffffffffffffffffffffffffffffffffffffffffffffffffff1916145b80610764575061076382611411565b5b9050919050565b60606000805461077a90612c77565b80601f01602080910402602001604051908101604052809291908181526020018280546107a690612c77565b80156107f35780601f106107c8576101008083540402835291602001916107f3565b820191906000526020600020905b8154815290600101906020018083116107d657829003601f168201915b5050505050905090565b60006108088261147b565b6004600083815260200190815260200160002060009054906101000a900473ffffffffffffffffffffffffffffffffffffffff169050919050565b600061084e82610b80565b90508073ffffffffffffffffffffffffffffffffffffffff168373ffffffffffffffffffffffffffffffffffffffff16036108be576040517f08c379a00000000000000000000000000000000000000000000000000000000081526004016108b590612d1a565b60405180910390fd5b8073ffffffffffffffffffffffffffffffffffffffff166108dd6114c6565b73ffffffffffffffffffffffffffffffffffffffff16148061090c575061090b816109066114c6565b61120c565b5b61094b576040517f08c379a000000000000000000000000000000000000000000000000000000000815260040161094290612dac565b60405180910390fd5b61095583836114ce565b505050565b60095481565b7f000000000000000000000000000000000000000000000000000000000000000073ffffffffffffffffffffffffffffffffffffffff163373ffffffffffffffffffffffffffffffffffffffff1614610a1257337f00000000000000000000000000000000000000000000000000000000000000006040517f1cf993f4000000000000000000000000000000000000000000000000000000008152600401610a09929190612dcc565b60405180910390fd5b610a1c8282611587565b5050565b610a31610a2b6114c6565b82611722565b610a70576040517f08c379a0000000000000000000000000000000000000000000000000000000008152600401610a6790612e67565b60405180910390fd5b610a7b8383836117b7565b505050565b610a886123e7565b6040518060600160405280600a8152602001606481526020016103e8815250905090565b610ab4611a1d565b600047905060003373ffffffffffffffffffffffffffffffffffffffff1682604051610adf90612eb8565b60006040518083038185875af1925050503d8060008114610b1c576040519150601f19603f3d011682016040523d82523d6000602084013e610b21565b606091505b5050905080610b5c576040517f8935afe200000000000000000000000000000000000000000000000000000000815260040160405180910390fd5b5050565b610b7b83838360405180602001604052806000815250611098565b505050565b6000806002600084815260200190815260200160002060009054906101000a900473ffffffffffffffffffffffffffffffffffffffff169050600073ffffffffffffffffffffffffffffffffffffffff168173ffffffffffffffffffffffffffffffffffffffff1603610c28576040517f08c379a0000000000000000000000000000000000000000000000000000000008152600401610c1f90612f19565b60405180910390fd5b80915050919050565b6060600b8281548110610c4757610c46612f39565b5b906000526020600020018054610c5c90612c77565b80601f0160208091040260200160405190810160405280929190818152602001828054610c8890612c77565b8015610cd55780601f10610caa57610100808354040283529160200191610cd5565b820191906000526020600020905b815481529060010190602001808311610cb857829003601f168201915b50505050509050919050565b6000600954905090565b60008073ffffffffffffffffffffffffffffffffffffffff168273ffffffffffffffffffffffffffffffffffffffff1603610d5b576040517f08c379a0000000000000000000000000000000000000000000000000000000008152600401610d5290612fda565b60405180910390fd5b600360008373ffffffffffffffffffffffffffffffffffffffff1673ffffffffffffffffffffffffffffffffffffffff168152602001908152602001600020549050919050565b610daa611a1d565b610db46000611a9b565b565b6000600854905090565b6000600854341015610dfe576040517fb302087800000000000000000000000000000000000000000000000000000000815260040160405180910390fd5b7f000000000000000000000000000000000000000000000000000000000000000073ffffffffffffffffffffffffffffffffffffffff16635d3b1d307f00000000000000000000000000000000000000000000000000000000000000007f000000000000000000000000000000000000000000000000000000000000000060037f000000000000000000000000000000000000000000000000000000000000000060016040518663ffffffff1660e01b8152600401610ec1959493929190613072565b6020604051808303816000875af1158015610ee0573d6000803e3d6000fd5b505050506040513d601f19601f82011682018060405250810190610f0491906130da565b905033600d600083815260200190815260200160002060006101000a81548173ffffffffffffffffffffffffffffffffffffffff021916908373ffffffffffffffffffffffffffffffffffffffff160217905550807f4e1c2f1eae56e29ec039a2b882eec626e6c420ed5a5b93a203c8b8b695e911b133604051610f889190612637565b60405180910390a290565b6000600760009054906101000a900473ffffffffffffffffffffffffffffffffffffffff16905090565b606060018054610fcc90612c77565b80601f0160208091040260200160405190810160405280929190818152602001828054610ff890612c77565b80156110455780601f1061101a57610100808354040283529160200191611045565b820191906000526020600020905b81548152906001019060200180831161102857829003601f168201915b5050505050905090565b61106161105a6114c6565b8383611b61565b5050565b600d6020528060005260406000206000915054906101000a900473ffffffffffffffffffffffffffffffffffffffff1681565b6110a96110a36114c6565b83611722565b6110e8576040517f08c379a00000000000000000000000000000000000000000000000000000000081526004016110df90612e67565b60405180910390fd5b6110f484848484611ccd565b50505050565b60606111058261147b565b600060066000848152602001908152602001600020805461112590612c77565b80601f016020809104026020016040519081016040528092919081815260200182805461115190612c77565b801561119e5780601f106111735761010080835404028352916020019161119e565b820191906000526020600020905b81548152906001019060200180831161118157829003601f168201915b5050505050905060006111af611d29565b905060008151036111c4578192505050611207565b6000825111156111f95780826040516020016111e1929190613143565b60405160208183030381529060405292505050611207565b61120284611d40565b925050505b919050565b6000600560008473ffffffffffffffffffffffffffffffffffffffff1673ffffffffffffffffffffffffffffffffffffffff16815260200190815260200160002060008373ffffffffffffffffffffffffffffffffffffffff1673ffffffffffffffffffffffffffffffffffffffff16815260200190815260200160002060009054906101000a900460ff16905092915050565b6000600c60009054906101000a900460ff16905090565b6112bf611a1d565b600073ffffffffffffffffffffffffffffffffffffffff168173ffffffffffffffffffffffffffffffffffffffff160361132e576040517f08c379a0000000000000000000000000000000000000000000000000000000008152600401611325906131d9565b60405180910390fd5b61133781611a9b565b50565b60008060009050600061134b610a80565b905060005b60038110156113d95782851015801561138a575081816003811061137757611376612f39565b5b6020020151836113879190613228565b85105b156113ac578060028111156113a2576113a1612bb6565b5b935050505061140c565b8181600381106113bf576113be612f39565b5b6020020151925080806113d19061327e565b915050611350565b506040517f7a00899900000000000000000000000000000000000000000000000000000000815260040160405180910390fd5b919050565b60007f01ffc9a7000000000000000000000000000000000000000000000000000000007bffffffffffffffffffffffffffffffffffffffffffffffffffffffff1916827bffffffffffffffffffffffffffffffffffffffffffffffffffffffff1916149050919050565b61148481611da8565b6114c3576040517f08c379a00000000000000000000000000000000000000000000000000000000081526004016114ba90612f19565b60405180910390fd5b50565b600033905090565b816004600083815260200190815260200160002060006101000a81548173ffffffffffffffffffffffffffffffffffffffff021916908373ffffffffffffffffffffffffffffffffffffffff160217905550808273ffffffffffffffffffffffffffffffffffffffff1661154183610b80565b73ffffffffffffffffffffffffffffffffffffffff167f8c5be1e5ebec7d5bd14f71427d1e84f3dd0314c0f7b2291e5b200ac8c7c3b92560405160405180910390a45050565b6000600d600084815260200190815260200160002060009054906101000a900473ffffffffffffffffffffffffffffffffffffffff1690506000600954905060016009546115d59190613228565b60098190555060006103e8846000815181106115f4576115f3612f39565b5b602002602001015161160691906132f5565b905060006116138261133a565b905061161f8484611e14565b6116e183600b83600281111561163857611637612bb6565b5b8154811061164957611648612f39565b5b90600052602060002001805461165e90612c77565b80601f016020809104026020016040519081016040528092919081815260200182805461168a90612c77565b80156116d75780601f106116ac576101008083540402835291602001916116d7565b820191906000526020600020905b8154815290600101906020018083116116ba57829003601f168201915b5050505050611e32565b7fab79897476febbd649710b1bd1dc3e93a316d3dee65f65b022ab89a4b7e206b58185604051611712929190613326565b60405180910390a1505050505050565b60008061172e83610b80565b90508073ffffffffffffffffffffffffffffffffffffffff168473ffffffffffffffffffffffffffffffffffffffff161480611770575061176f818561120c565b5b806117ae57508373ffffffffffffffffffffffffffffffffffffffff16611796846107fd565b73ffffffffffffffffffffffffffffffffffffffff16145b91505092915050565b8273ffffffffffffffffffffffffffffffffffffffff166117d782610b80565b73ffffffffffffffffffffffffffffffffffffffff161461182d576040517f08c379a0000000000000000000000000000000000000000000000000000000008152600401611824906133c1565b60405180910390fd5b600073ffffffffffffffffffffffffffffffffffffffff168273ffffffffffffffffffffffffffffffffffffffff160361189c576040517f08c379a000000000000000000000000000000000000000000000000000000000815260040161189390613453565b60405180910390fd5b6118a7838383611e9f565b6118b26000826114ce565b6001600360008573ffffffffffffffffffffffffffffffffffffffff1673ffffffffffffffffffffffffffffffffffffffff16815260200190815260200160002060008282546119029190613473565b925050819055506001600360008473ffffffffffffffffffffffffffffffffffffffff1673ffffffffffffffffffffffffffffffffffffffff16815260200190815260200160002060008282546119599190613228565b92505081905550816002600083815260200190815260200160002060006101000a81548173ffffffffffffffffffffffffffffffffffffffff021916908373ffffffffffffffffffffffffffffffffffffffff160217905550808273ffffffffffffffffffffffffffffffffffffffff168473ffffffffffffffffffffffffffffffffffffffff167fddf252ad1be2c89b69c2b068fc378daa952ba7f163c4a11628f55a4df523b3ef60405160405180910390a4611a18838383611ea4565b505050565b611a256114c6565b73ffffffffffffffffffffffffffffffffffffffff16611a43610f93565b73ffffffffffffffffffffffffffffffffffffffff1614611a99576040517f08c379a0000000000000000000000000000000000000000000000000000000008152600401611a90906134f3565b60405180910390fd5b565b6000600760009054906101000a900473ffffffffffffffffffffffffffffffffffffffff16905081600760006101000a81548173ffffffffffffffffffffffffffffffffffffffff021916908373ffffffffffffffffffffffffffffffffffffffff1602179055508173ffffffffffffffffffffffffffffffffffffffff168173ffffffffffffffffffffffffffffffffffffffff167f8be0079c531659141344cd1fd0a4f28419497f9722a3daafe3b4186f6b6457e060405160405180910390a35050565b8173ffffffffffffffffffffffffffffffffffffffff168373ffffffffffffffffffffffffffffffffffffffff1603611bcf576040517f08c379a0000000000000000000000000000000000000000000000000000000008152600401611bc69061355f565b60405180910390fd5b80600560008573ffffffffffffffffffffffffffffffffffffffff1673ffffffffffffffffffffffffffffffffffffffff16815260200190815260200160002060008473ffffffffffffffffffffffffffffffffffffffff1673ffffffffffffffffffffffffffffffffffffffff16815260200190815260200160002060006101000a81548160ff0219169083151502179055508173ffffffffffffffffffffffffffffffffffffffff168373ffffffffffffffffffffffffffffffffffffffff167f17307eab39ab6107e8899845ad3d59bd9653f200f220920489ca2b5937696c3183604051611cc091906124bd565b60405180910390a3505050565b611cd88484846117b7565b611ce484848484611ea9565b611d23576040517f08c379a0000000000000000000000000000000000000000000000000000000008152600401611d1a906135f1565b60405180910390fd5b50505050565b606060405180602001604052806000815250905090565b6060611d4b8261147b565b6000611d55611d29565b90506000815111611d755760405180602001604052806000815250611da0565b80611d7f84612030565b604051602001611d90929190613143565b6040516020818303038152906040525b915050919050565b60008073ffffffffffffffffffffffffffffffffffffffff166002600084815260200190815260200160002060009054906101000a900473ffffffffffffffffffffffffffffffffffffffff1673ffffffffffffffffffffffffffffffffffffffff1614159050919050565b611e2e828260405180602001604052806000815250612190565b5050565b611e3b82611da8565b611e7a576040517f08c379a0000000000000000000000000000000000000000000000000000000008152600401611e7190613683565b60405180910390fd5b80600660008481526020019081526020016000209081611e9a919061384f565b505050565b505050565b505050565b6000611eca8473ffffffffffffffffffffffffffffffffffffffff166121eb565b15612023578373ffffffffffffffffffffffffffffffffffffffff1663150b7a02611ef36114c6565b8786866040518563ffffffff1660e01b8152600401611f159493929190613976565b6020604051808303816000875af1925050508015611f5157506040513d601f19601f82011682018060405250810190611f4e91906139d7565b60015b611fd3573d8060008114611f81576040519150601f19603f3d011682016040523d82523d6000602084013e611f86565b606091505b506000815103611fcb576040517f08c379a0000000000000000000000000000000000000000000000000000000008152600401611fc2906135f1565b60405180910390fd5b805181602001fd5b63150b7a0260e01b7bffffffffffffffffffffffffffffffffffffffffffffffffffffffff1916817bffffffffffffffffffffffffffffffffffffffffffffffffffffffff191614915050612028565b600190505b949350505050565b606060008203612077576040518060400160405280600181526020017f3000000000000000000000000000000000000000000000000000000000000000815250905061218b565b600082905060005b600082146120a95780806120929061327e565b915050600a826120a29190613a04565b915061207f565b60008167ffffffffffffffff8111156120c5576120c46126ed565b5b6040519080825280601f01601f1916602001820160405280156120f75781602001600182028036833780820191505090505b5090505b60008514612184576001826121109190613473565b9150600a8561211f91906132f5565b603061212b9190613228565b60f81b81838151811061214157612140612f39565b5b60200101907effffffffffffffffffffffffffffffffffffffffffffffffffffffffffffff1916908160001a905350600a8561217d9190613a04565b94506120fb565b8093505050505b919050565b61219a838361220e565b6121a76000848484611ea9565b6121e6576040517f08c379a00000000000000000000000000000000000000000000000000000000081526004016121dd906135f1565b60405180910390fd5b505050565b6000808273ffffffffffffffffffffffffffffffffffffffff163b119050919050565b600073ffffffffffffffffffffffffffffffffffffffff168273ffffffffffffffffffffffffffffffffffffffff160361227d576040517f08c379a000000000000000000000000000000000000000000000000000000000815260040161227490613a81565b60405180910390fd5b61228681611da8565b156122c6576040517f08c379a00000000000000000000000000000000000000000000000000000000081526004016122bd90613aed565b60405180910390fd5b6122d260008383611e9f565b6001600360008473ffffffffffffffffffffffffffffffffffffffff1673ffffffffffffffffffffffffffffffffffffffff16815260200190815260200160002060008282546123229190613228565b92505081905550816002600083815260200190815260200160002060006101000a81548173ffffffffffffffffffffffffffffffffffffffff021916908373ffffffffffffffffffffffffffffffffffffffff160217905550808273ffffffffffffffffffffffffffffffffffffffff16600073ffffffffffffffffffffffffffffffffffffffff167fddf252ad1be2c89b69c2b068fc378daa952ba7f163c4a11628f55a4df523b3ef60405160405180910390a46123e360008383611ea4565b5050565b6040518060600160405280600390602082028036833780820191505090505090565b6000604051905090565b600080fd5b600080fd5b60007fffffffff0000000000000000000000000000000000000000000000000000000082169050919050565b6124528161241d565b811461245d57600080fd5b50565b60008135905061246f81612449565b92915050565b60006020828403121561248b5761248a612413565b5b600061249984828501612460565b91505092915050565b60008115159050919050565b6124b7816124a2565b82525050565b60006020820190506124d260008301846124ae565b92915050565b600081519050919050565b600082825260208201905092915050565b60005b838110156125125780820151818401526020810190506124f7565b83811115612521576000848401525b50505050565b6000601f19601f8301169050919050565b6000612543826124d8565b61254d81856124e3565b935061255d8185602086016124f4565b61256681612527565b840191505092915050565b6000602082019050818103600083015261258b8184612538565b905092915050565b6000819050919050565b6125a681612593565b81146125b157600080fd5b50565b6000813590506125c38161259d565b92915050565b6000602082840312156125df576125de612413565b5b60006125ed848285016125b4565b91505092915050565b600073ffffffffffffffffffffffffffffffffffffffff82169050919050565b6000612621826125f6565b9050919050565b61263181612616565b82525050565b600060208201905061264c6000830184612628565b92915050565b61265b81612616565b811461266657600080fd5b50565b60008135905061267881612652565b92915050565b6000806040838503121561269557612694612413565b5b60006126a385828601612669565b92505060206126b4858286016125b4565b9150509250929050565b6126c781612593565b82525050565b60006020820190506126e260008301846126be565b92915050565b600080fd5b7f4e487b7100000000000000000000000000000000000000000000000000000000600052604160045260246000fd5b61272582612527565b810181811067ffffffffffffffff82111715612744576127436126ed565b5b80604052505050565b6000612757612409565b9050612763828261271c565b919050565b600067ffffffffffffffff821115612783576127826126ed565b5b602082029050602081019050919050565b600080fd5b60006127ac6127a784612768565b61274d565b905080838252602082019050602084028301858111156127cf576127ce612794565b5b835b818110156127f857806127e488826125b4565b8452602084019350506020810190506127d1565b5050509392505050565b600082601f830112612817576128166126e8565b5b8135612827848260208601612799565b91505092915050565b6000806040838503121561284757612846612413565b5b6000612855858286016125b4565b925050602083013567ffffffffffffffff81111561287657612875612418565b5b61288285828601612802565b9150509250929050565b6000806000606084860312156128a5576128a4612413565b5b60006128b386828701612669565b93505060206128c486828701612669565b92505060406128d5868287016125b4565b9150509250925092565b600060039050919050565b600081905092915050565b6000819050919050565b61290881612593565b82525050565b600061291a83836128ff565b60208301905092915050565b6000602082019050919050565b61293c816128df565b61294681846128ea565b9250612951826128f5565b8060005b83811015612982578151612969878261290e565b965061297483612926565b925050600181019050612955565b505050505050565b600060608201905061299f6000830184612933565b92915050565b6000602082840312156129bb576129ba612413565b5b60006129c984828501612669565b91505092915050565b6129db816124a2565b81146129e657600080fd5b50565b6000813590506129f8816129d2565b92915050565b60008060408385031215612a1557612a14612413565b5b6000612a2385828601612669565b9250506020612a34858286016129e9565b9150509250929050565b600080fd5b600067ffffffffffffffff821115612a5e57612a5d6126ed565b5b612a6782612527565b9050602081019050919050565b82818337600083830152505050565b6000612a96612a9184612a43565b61274d565b905082815260208101848484011115612ab257612ab1612a3e565b5b612abd848285612a74565b509392505050565b600082601f830112612ada57612ad96126e8565b5b8135612aea848260208601612a83565b91505092915050565b60008060008060808587031215612b0d57612b0c612413565b5b6000612b1b87828801612669565b9450506020612b2c87828801612669565b9350506040612b3d878288016125b4565b925050606085013567ffffffffffffffff811115612b5e57612b5d612418565b5b612b6a87828801612ac5565b91505092959194509250565b60008060408385031215612b8d57612b8c612413565b5b6000612b9b85828601612669565b9250506020612bac85828601612669565b9150509250929050565b7f4e487b7100000000000000000000000000000000000000000000000000000000600052602160045260246000fd5b60038110612bf657612bf5612bb6565b5b50565b6000819050612c0782612be5565b919050565b6000612c1782612bf9565b9050919050565b612c2781612c0c565b82525050565b6000602082019050612c426000830184612c1e565b92915050565b7f4e487b7100000000000000000000000000000000000000000000000000000000600052602260045260246000fd5b60006002820490506001821680612c8f57607f821691505b602082108103612ca257612ca1612c48565b5b50919050565b7f4552433732313a20617070726f76616c20746f2063757272656e74206f776e6560008201527f7200000000000000000000000000000000000000000000000000000000000000602082015250565b6000612d046021836124e3565b9150612d0f82612ca8565b604082019050919050565b60006020820190508181036000830152612d3381612cf7565b9050919050565b7f4552433732313a20617070726f76652063616c6c6572206973206e6f7420746f60008201527f6b656e206f776e6572206e6f7220617070726f76656420666f7220616c6c0000602082015250565b6000612d96603e836124e3565b9150612da182612d3a565b604082019050919050565b60006020820190508181036000830152612dc581612d89565b9050919050565b6000604082019050612de16000830185612628565b612dee6020830184612628565b9392505050565b7f4552433732313a2063616c6c6572206973206e6f7420746f6b656e206f776e6560008201527f72206e6f7220617070726f766564000000000000000000000000000000000000602082015250565b6000612e51602e836124e3565b9150612e5c82612df5565b604082019050919050565b60006020820190508181036000830152612e8081612e44565b9050919050565b600081905092915050565b50565b6000612ea2600083612e87565b9150612ead82612e92565b600082019050919050565b6000612ec382612e95565b9150819050919050565b7f4552433732313a20696e76616c696420746f6b656e2049440000000000000000600082015250565b6000612f036018836124e3565b9150612f0e82612ecd565b602082019050919050565b60006020820190508181036000830152612f3281612ef6565b9050919050565b7f4e487b7100000000000000000000000000000000000000000000000000000000600052603260045260246000fd5b7f4552433732313a2061646472657373207a65726f206973206e6f74206120766160008201527f6c6964206f776e65720000000000000000000000000000000000000000000000602082015250565b6000612fc46029836124e3565b9150612fcf82612f68565b604082019050919050565b60006020820190508181036000830152612ff381612fb7565b9050919050565b6000819050919050565b61300d81612ffa565b82525050565b600067ffffffffffffffff82169050919050565b61303081613013565b82525050565b600061ffff82169050919050565b61304d81613036565b82525050565b600063ffffffff82169050919050565b61306c81613053565b82525050565b600060a0820190506130876000830188613004565b6130946020830187613027565b6130a16040830186613044565b6130ae6060830185613063565b6130bb6080830184613063565b9695505050505050565b6000815190506130d48161259d565b92915050565b6000602082840312156130f0576130ef612413565b5b60006130fe848285016130c5565b91505092915050565b600081905092915050565b600061311d826124d8565b6131278185613107565b93506131378185602086016124f4565b80840191505092915050565b600061314f8285613112565b915061315b8284613112565b91508190509392505050565b7f4f776e61626c653a206e6577206f776e657220697320746865207a65726f206160008201527f6464726573730000000000000000000000000000000000000000000000000000602082015250565b60006131c36026836124e3565b91506131ce82613167565b604082019050919050565b600060208201905081810360008301526131f2816131b6565b9050919050565b7f4e487b7100000000000000000000000000000000000000000000000000000000600052601160045260246000fd5b600061323382612593565b915061323e83612593565b9250827fffffffffffffffffffffffffffffffffffffffffffffffffffffffffffffffff03821115613273576132726131f9565b5b828201905092915050565b600061328982612593565b91507fffffffffffffffffffffffffffffffffffffffffffffffffffffffffffffffff82036132bb576132ba6131f9565b5b600182019050919050565b7f4e487b7100000000000000000000000000000000000000000000000000000000600052601260045260246000fd5b600061330082612593565b915061330b83612593565b92508261331b5761331a6132c6565b5b828206905092915050565b600060408201905061333b6000830185612c1e565b6133486020830184612628565b9392505050565b7f4552433732313a207472616e736665722066726f6d20696e636f72726563742060008201527f6f776e6572000000000000000000000000000000000000000000000000000000602082015250565b60006133ab6025836124e3565b91506133b68261334f565b604082019050919050565b600060208201905081810360008301526133da8161339e565b9050919050565b7f4552433732313a207472616e7366657220746f20746865207a65726f2061646460008201527f7265737300000000000000000000000000000000000000000000000000000000602082015250565b600061343d6024836124e3565b9150613448826133e1565b604082019050919050565b6000602082019050818103600083015261346c81613430565b9050919050565b600061347e82612593565b915061348983612593565b92508282101561349c5761349b6131f9565b5b828203905092915050565b7f4f776e61626c653a2063616c6c6572206973206e6f7420746865206f776e6572600082015250565b60006134dd6020836124e3565b91506134e8826134a7565b602082019050919050565b6000602082019050818103600083015261350c816134d0565b9050919050565b7f4552433732313a20617070726f766520746f2063616c6c657200000000000000600082015250565b60006135496019836124e3565b915061355482613513565b602082019050919050565b600060208201905081810360008301526135788161353c565b9050919050565b7f4552433732313a207472616e7366657220746f206e6f6e20455243373231526560008201527f63656976657220696d706c656d656e7465720000000000000000000000000000602082015250565b60006135db6032836124e3565b91506135e68261357f565b604082019050919050565b6000602082019050818103600083015261360a816135ce565b9050919050565b7f45524337323155524953746f726167653a2055524920736574206f66206e6f6e60008201527f6578697374656e7420746f6b656e000000000000000000000000000000000000602082015250565b600061366d602e836124e3565b915061367882613611565b604082019050919050565b6000602082019050818103600083015261369c81613660565b9050919050565b60008190508160005260206000209050919050565b60006020601f8301049050919050565b600082821b905092915050565b6000600883026137057fffffffffffffffffffffffffffffffffffffffffffffffffffffffffffffffff826136c8565b61370f86836136c8565b95508019841693508086168417925050509392505050565b6000819050919050565b600061374c61374761374284612593565b613727565b612593565b9050919050565b6000819050919050565b61376683613731565b61377a61377282613753565b8484546136d5565b825550505050565b600090565b61378f613782565b61379a81848461375d565b505050565b5b818110156137be576137b3600082613787565b6001810190506137a0565b5050565b601f821115613803576137d4816136a3565b6137dd846136b8565b810160208510156137ec578190505b6138006137f8856136b8565b83018261379f565b50505b505050565b600082821c905092915050565b600061382660001984600802613808565b1980831691505092915050565b600061383f8383613815565b9150826002028217905092915050565b613858826124d8565b67ffffffffffffffff811115613871576138706126ed565b5b61387b8254612c77565b6138868282856137c2565b600060209050601f8311600181146138b957600084156138a7578287015190505b6138b18582613833565b865550613919565b601f1984166138c7866136a3565b60005b828110156138ef578489015182556001820191506020850194506020810190506138ca565b8683101561390c5784890151613908601f891682613815565b8355505b6001600288020188555050505b505050505050565b600081519050919050565b600082825260208201905092915050565b600061394882613921565b613952818561392c565b93506139628185602086016124f4565b61396b81612527565b840191505092915050565b600060808201905061398b6000830187612628565b6139986020830186612628565b6139a560408301856126be565b81810360608301526139b7818461393d565b905095945050505050565b6000815190506139d181612449565b92915050565b6000602082840312156139ed576139ec612413565b5b60006139fb848285016139c2565b91505092915050565b6000613a0f82612593565b9150613a1a83612593565b925082613a2a57613a296132c6565b5b828204905092915050565b7f4552433732313a206d696e7420746f20746865207a65726f2061646472657373600082015250565b6000613a6b6020836124e3565b9150613a7682613a35565b602082019050919050565b60006020820190508181036000830152613a9a81613a5e565b9050919050565b7f4552433732313a20746f6b656e20616c7265616479206d696e74656400000000600082015250565b6000613ad7601c836124e3565b9150613ae282613aa1565b602082019050919050565b60006020820190508181036000830152613b0681613aca565b905091905056fea26469706673582212202a91232505f6eedb7f079ad11ae058c9ef5d99959ab2f223493762848d515fd964736f6c634300080f0033",
  "devdoc": {
    "author": "antovanFI, Elizao, irwingtello, leandrogavidia, mektigboy",
    "details": "This contract utilizes Chainlink VRF v2 for randomness. URIs point to IPFS. Imports contracts from OpenZeppelin.",
    "kind": "dev",
    "methods": {
      "approve(address,uint256)": {
        "details": "See {IERC721-approve}."
      },
      "balanceOf(address)": {
        "details": "See {IERC721-balanceOf}."
      },
      "getApproved(uint256)": {
        "details": "See {IERC721-getApproved}."
      },
      "isApprovedForAll(address,address)": {
        "details": "See {IERC721-isApprovedForAll}."
      },
      "name()": {
        "details": "See {IERC721Metadata-name}."
      },
      "owner()": {
        "details": "Returns the address of the current owner."
      },
      "ownerOf(uint256)": {
        "details": "See {IERC721-ownerOf}."
      },
      "renounceOwnership()": {
        "details": "Leaves the contract without owner. It will not be possible to call `onlyOwner` functions anymore. Can only be called by the current owner. NOTE: Renouncing ownership will leave the contract without an owner, thereby removing any functionality that is only available to the owner."
      },
      "safeTransferFrom(address,address,uint256)": {
        "details": "See {IERC721-safeTransferFrom}."
      },
      "safeTransferFrom(address,address,uint256,bytes)": {
        "details": "See {IERC721-safeTransferFrom}."
      },
      "setApprovalForAll(address,bool)": {
        "details": "See {IERC721-setApprovalForAll}."
      },
      "supportsInterface(bytes4)": {
        "details": "See {IERC165-supportsInterface}."
      },
      "symbol()": {
        "details": "See {IERC721Metadata-symbol}."
      },
      "tokenURI(uint256)": {
        "details": "See {IERC721Metadata-tokenURI}."
      },
      "transferFrom(address,address,uint256)": {
        "details": "See {IERC721-transferFrom}."
      },
      "transferOwnership(address)": {
        "details": "Transfers ownership of the contract to a new account (`newOwner`). Can only be called by the current owner."
      }
    },
    "title": "Random NFT Generator",
    "version": 1
  },
  "userdoc": {
    "kind": "user",
    "methods": {},
    "notice": "Generates NFTs with randomness, and it stores them in a decentralized way.",
    "version": 1
  },
  "storageLayout": {
    "storage": [
      {
        "astId": 1460,
        "contract": "contracts/RandomNFTGenerator.sol:RandomNFTGenerator",
        "label": "_name",
        "offset": 0,
        "slot": "0",
        "type": "t_string_storage"
      },
      {
        "astId": 1462,
        "contract": "contracts/RandomNFTGenerator.sol:RandomNFTGenerator",
        "label": "_symbol",
        "offset": 0,
        "slot": "1",
        "type": "t_string_storage"
      },
      {
        "astId": 1466,
        "contract": "contracts/RandomNFTGenerator.sol:RandomNFTGenerator",
        "label": "_owners",
        "offset": 0,
        "slot": "2",
        "type": "t_mapping(t_uint256,t_address)"
      },
      {
        "astId": 1470,
        "contract": "contracts/RandomNFTGenerator.sol:RandomNFTGenerator",
        "label": "_balances",
        "offset": 0,
        "slot": "3",
        "type": "t_mapping(t_address,t_uint256)"
      },
      {
        "astId": 1474,
        "contract": "contracts/RandomNFTGenerator.sol:RandomNFTGenerator",
        "label": "_tokenApprovals",
        "offset": 0,
        "slot": "4",
        "type": "t_mapping(t_uint256,t_address)"
      },
      {
        "astId": 1480,
        "contract": "contracts/RandomNFTGenerator.sol:RandomNFTGenerator",
        "label": "_operatorApprovals",
        "offset": 0,
        "slot": "5",
        "type": "t_mapping(t_address,t_mapping(t_address,t_bool))"
      },
      {
        "astId": 2448,
        "contract": "contracts/RandomNFTGenerator.sol:RandomNFTGenerator",
        "label": "_tokenURIs",
        "offset": 0,
        "slot": "6",
        "type": "t_mapping(t_uint256,t_string_storage)"
      },
      {
        "astId": 1221,
        "contract": "contracts/RandomNFTGenerator.sol:RandomNFTGenerator",
        "label": "_owner",
        "offset": 0,
        "slot": "7",
        "type": "t_address"
      },
      {
        "astId": 3597,
        "contract": "contracts/RandomNFTGenerator.sol:RandomNFTGenerator",
        "label": "i_mintFee",
        "offset": 0,
        "slot": "8",
        "type": "t_uint256"
      },
      {
        "astId": 3599,
        "contract": "contracts/RandomNFTGenerator.sol:RandomNFTGenerator",
        "label": "s_tokenCounter",
        "offset": 0,
        "slot": "9",
        "type": "t_uint256"
      },
      {
        "astId": 3604,
        "contract": "contracts/RandomNFTGenerator.sol:RandomNFTGenerator",
        "label": "s_tokenIdToBreed",
        "offset": 0,
        "slot": "10",
        "type": "t_mapping(t_uint256,t_enum(Selection)3580)"
      },
      {
        "astId": 3610,
        "contract": "contracts/RandomNFTGenerator.sol:RandomNFTGenerator",
        "label": "s_tokenURIs",
        "offset": 0,
        "slot": "11",
        "type": "t_array(t_string_storage)dyn_storage"
      },
      {
        "astId": 3612,
        "contract": "contracts/RandomNFTGenerator.sol:RandomNFTGenerator",
        "label": "s_initialized",
        "offset": 0,
        "slot": "12",
        "type": "t_bool"
      },
      {
        "astId": 3616,
        "contract": "contracts/RandomNFTGenerator.sol:RandomNFTGenerator",
        "label": "s_requestIdToSender",
        "offset": 0,
        "slot": "13",
        "type": "t_mapping(t_uint256,t_address)"
      }
    ],
    "types": {
      "t_address": {
        "encoding": "inplace",
        "label": "address",
        "numberOfBytes": "20"
      },
      "t_array(t_string_storage)dyn_storage": {
        "base": "t_string_storage",
        "encoding": "dynamic_array",
        "label": "string[]",
        "numberOfBytes": "32"
      },
      "t_bool": {
        "encoding": "inplace",
        "label": "bool",
        "numberOfBytes": "1"
      },
      "t_enum(Selection)3580": {
        "encoding": "inplace",
        "label": "enum RandomNFTGenerator.Selection",
        "numberOfBytes": "1"
      },
      "t_mapping(t_address,t_bool)": {
        "encoding": "mapping",
        "key": "t_address",
        "label": "mapping(address => bool)",
        "numberOfBytes": "32",
        "value": "t_bool"
      },
      "t_mapping(t_address,t_mapping(t_address,t_bool))": {
        "encoding": "mapping",
        "key": "t_address",
        "label": "mapping(address => mapping(address => bool))",
        "numberOfBytes": "32",
        "value": "t_mapping(t_address,t_bool)"
      },
      "t_mapping(t_address,t_uint256)": {
        "encoding": "mapping",
        "key": "t_address",
        "label": "mapping(address => uint256)",
        "numberOfBytes": "32",
        "value": "t_uint256"
      },
      "t_mapping(t_uint256,t_address)": {
        "encoding": "mapping",
        "key": "t_uint256",
        "label": "mapping(uint256 => address)",
        "numberOfBytes": "32",
        "value": "t_address"
      },
      "t_mapping(t_uint256,t_enum(Selection)3580)": {
        "encoding": "mapping",
        "key": "t_uint256",
        "label": "mapping(uint256 => enum RandomNFTGenerator.Selection)",
        "numberOfBytes": "32",
        "value": "t_enum(Selection)3580"
      },
      "t_mapping(t_uint256,t_string_storage)": {
        "encoding": "mapping",
        "key": "t_uint256",
        "label": "mapping(uint256 => string)",
        "numberOfBytes": "32",
        "value": "t_string_storage"
      },
      "t_string_storage": {
        "encoding": "bytes",
        "label": "string",
        "numberOfBytes": "32"
      },
      "t_uint256": {
        "encoding": "inplace",
        "label": "uint256",
        "numberOfBytes": "32"
      }
    }
  }
}