{
  "_format": "hh-sol-artifact-1",
  "contractName": "RandomNFTGenerator",
  "sourceName": "contracts/RandomNFTGenerator.sol",
  "abi": [
    {
      "inputs": [
        {
          "internalType": "address",
          "name": "VRFCoordinatorV2",
          "type": "address"
        },
        {
          "internalType": "bytes32",
          "name": "gasLane",
          "type": "bytes32"
        },
        {
          "internalType": "uint64",
          "name": "subscriptionId",
          "type": "uint64"
        },
        {
          "internalType": "uint32",
          "name": "callbackGasLimit",
          "type": "uint32"
        },
        {
          "internalType": "string[3]",
          "name": "tokenURIs",
          "type": "string[3]"
        }
      ],
      "stateMutability": "nonpayable",
      "type": "constructor"
    },
    {
      "inputs": [
        {
          "internalType": "address",
          "name": "have",
          "type": "address"
        },
        {
          "internalType": "address",
          "name": "want",
          "type": "address"
        }
      ],
      "name": "OnlyCoordinatorCanFulfill",
      "type": "error"
    },
    {
      "anonymous": false,
      "inputs": [
        {
          "indexed": true,
          "internalType": "address",
          "name": "owner",
          "type": "address"
        },
        {
          "indexed": true,
          "internalType": "address",
          "name": "approved",
          "type": "address"
        },
        {
          "indexed": true,
          "internalType": "uint256",
          "name": "tokenId",
          "type": "uint256"
        }
      ],
      "name": "Approval",
      "type": "event"
    },
    {
      "anonymous": false,
      "inputs": [
        {
          "indexed": true,
          "internalType": "address",
          "name": "owner",
          "type": "address"
        },
        {
          "indexed": true,
          "internalType": "address",
          "name": "operator",
          "type": "address"
        },
        {
          "indexed": false,
          "internalType": "bool",
          "name": "approved",
          "type": "bool"
        }
      ],
      "name": "ApprovalForAll",
      "type": "event"
    },
    {
      "anonymous": false,
      "inputs": [
        {
          "indexed": true,
          "internalType": "address",
          "name": "from",
          "type": "address"
        },
        {
          "indexed": true,
          "internalType": "address",
          "name": "to",
          "type": "address"
        },
        {
          "indexed": true,
          "internalType": "uint256",
          "name": "tokenId",
          "type": "uint256"
        }
      ],
      "name": "Transfer",
      "type": "event"
    },
    {
      "inputs": [
        {
          "internalType": "address",
          "name": "to",
          "type": "address"
        },
        {
          "internalType": "uint256",
          "name": "tokenId",
          "type": "uint256"
        }
      ],
      "name": "approve",
      "outputs": [],
      "stateMutability": "nonpayable",
      "type": "function"
    },
    {
      "inputs": [
        {
          "internalType": "address",
          "name": "owner",
          "type": "address"
        }
      ],
      "name": "balanceOf",
      "outputs": [
        {
          "internalType": "uint256",
          "name": "",
          "type": "uint256"
        }
      ],
      "stateMutability": "view",
      "type": "function"
    },
    {
      "inputs": [
        {
          "internalType": "uint256",
          "name": "tokenId",
          "type": "uint256"
        }
      ],
      "name": "getApproved",
      "outputs": [
        {
          "internalType": "address",
          "name": "",
          "type": "address"
        }
      ],
      "stateMutability": "view",
      "type": "function"
    },
    {
      "inputs": [],
      "name": "getCallbackGasLimit",
      "outputs": [
        {
          "internalType": "uint32",
          "name": "",
          "type": "uint32"
        }
      ],
      "stateMutability": "view",
      "type": "function"
    },
    {
      "inputs": [],
      "name": "getChanceArray",
      "outputs": [
        {
          "internalType": "uint256[3]",
          "name": "",
          "type": "uint256[3]"
        }
      ],
      "stateMutability": "pure",
      "type": "function"
    },
    {
      "inputs": [],
      "name": "getGasLane",
      "outputs": [
        {
          "internalType": "bytes32",
          "name": "",
          "type": "bytes32"
        }
      ],
      "stateMutability": "view",
      "type": "function"
    },
    {
      "inputs": [],
      "name": "getSubscriptionID",
      "outputs": [
        {
          "internalType": "uint64",
          "name": "",
          "type": "uint64"
        }
      ],
      "stateMutability": "view",
      "type": "function"
    },
    {
      "inputs": [],
      "name": "getVRFCoordinator",
      "outputs": [
        {
          "internalType": "contract VRFCoordinatorV2Interface",
          "name": "",
          "type": "address"
        }
      ],
      "stateMutability": "view",
      "type": "function"
    },
    {
      "inputs": [
        {
          "internalType": "address",
          "name": "owner",
          "type": "address"
        },
        {
          "internalType": "address",
          "name": "operator",
          "type": "address"
        }
      ],
      "name": "isApprovedForAll",
      "outputs": [
        {
          "internalType": "bool",
          "name": "",
          "type": "bool"
        }
      ],
      "stateMutability": "view",
      "type": "function"
    },
    {
      "inputs": [],
      "name": "name",
      "outputs": [
        {
          "internalType": "string",
          "name": "",
          "type": "string"
        }
      ],
      "stateMutability": "view",
      "type": "function"
    },
    {
      "inputs": [
        {
          "internalType": "uint256",
          "name": "tokenId",
          "type": "uint256"
        }
      ],
      "name": "ownerOf",
      "outputs": [
        {
          "internalType": "address",
          "name": "",
          "type": "address"
        }
      ],
      "stateMutability": "view",
      "type": "function"
    },
    {
      "inputs": [
        {
          "internalType": "uint256",
          "name": "requestId",
          "type": "uint256"
        },
        {
          "internalType": "uint256[]",
          "name": "randomWords",
          "type": "uint256[]"
        }
      ],
      "name": "rawFulfillRandomWords",
      "outputs": [],
      "stateMutability": "nonpayable",
      "type": "function"
    },
    {
      "inputs": [],
      "name": "requestObject",
      "outputs": [
        {
          "internalType": "uint256",
          "name": "requestId",
          "type": "uint256"
        }
      ],
      "stateMutability": "nonpayable",
      "type": "function"
    },
    {
      "inputs": [],
      "name": "s_tokenCounter",
      "outputs": [
        {
          "internalType": "uint256",
          "name": "",
          "type": "uint256"
        }
      ],
      "stateMutability": "view",
      "type": "function"
    },
    {
      "inputs": [
        {
          "internalType": "uint256",
          "name": "",
          "type": "uint256"
        }
      ],
      "name": "s_tokenURIs",
      "outputs": [
        {
          "internalType": "string",
          "name": "",
          "type": "string"
        }
      ],
      "stateMutability": "view",
      "type": "function"
    },
    {
      "inputs": [
        {
          "internalType": "address",
          "name": "from",
          "type": "address"
        },
        {
          "internalType": "address",
          "name": "to",
          "type": "address"
        },
        {
          "internalType": "uint256",
          "name": "tokenId",
          "type": "uint256"
        }
      ],
      "name": "safeTransferFrom",
      "outputs": [],
      "stateMutability": "nonpayable",
      "type": "function"
    },
    {
      "inputs": [
        {
          "internalType": "address",
          "name": "from",
          "type": "address"
        },
        {
          "internalType": "address",
          "name": "to",
          "type": "address"
        },
        {
          "internalType": "uint256",
          "name": "tokenId",
          "type": "uint256"
        },
        {
          "internalType": "bytes",
          "name": "data",
          "type": "bytes"
        }
      ],
      "name": "safeTransferFrom",
      "outputs": [],
      "stateMutability": "nonpayable",
      "type": "function"
    },
    {
      "inputs": [
        {
          "internalType": "uint256",
          "name": "moddedRng",
          "type": "uint256"
        }
      ],
      "name": "selectFromModdedRng",
      "outputs": [
        {
          "internalType": "uint256",
          "name": "",
          "type": "uint256"
        }
      ],
      "stateMutability": "pure",
      "type": "function"
    },
    {
      "inputs": [
        {
          "internalType": "address",
          "name": "operator",
          "type": "address"
        },
        {
          "internalType": "bool",
          "name": "approved",
          "type": "bool"
        }
      ],
      "name": "setApprovalForAll",
      "outputs": [],
      "stateMutability": "nonpayable",
      "type": "function"
    },
    {
      "inputs": [
        {
          "internalType": "bytes4",
          "name": "interfaceId",
          "type": "bytes4"
        }
      ],
      "name": "supportsInterface",
      "outputs": [
        {
          "internalType": "bool",
          "name": "",
          "type": "bool"
        }
      ],
      "stateMutability": "view",
      "type": "function"
    },
    {
      "inputs": [],
      "name": "symbol",
      "outputs": [
        {
          "internalType": "string",
          "name": "",
          "type": "string"
        }
      ],
      "stateMutability": "view",
      "type": "function"
    },
    {
      "inputs": [
        {
          "internalType": "uint256",
          "name": "tokenId",
          "type": "uint256"
        }
      ],
      "name": "tokenURI",
      "outputs": [
        {
          "internalType": "string",
          "name": "",
          "type": "string"
        }
      ],
      "stateMutability": "view",
      "type": "function"
    },
    {
      "inputs": [
        {
          "internalType": "address",
          "name": "from",
          "type": "address"
        },
        {
          "internalType": "address",
          "name": "to",
          "type": "address"
        },
        {
          "internalType": "uint256",
          "name": "tokenId",
          "type": "uint256"
        }
      ],
      "name": "transferFrom",
      "outputs": [],
      "stateMutability": "nonpayable",
      "type": "function"
    }
  ],
  "bytecode": "0x6101206040523480156200001257600080fd5b5060405162003ee438038062003ee4833981810160405281019062000038919062000621565b846040518060400160405280601d81526020017f4f70656e5a657070656c696e20426f6f7463616d702050726f6a6563740000008152506040518060400160405280600381526020017f4f425000000000000000000000000000000000000000000000000000000000008152508160009081620000b6919062000913565b508060019081620000c8919062000913565b5050508073ffffffffffffffffffffffffffffffffffffffff1660808173ffffffffffffffffffffffffffffffffffffffff1681525050508473ffffffffffffffffffffffffffffffffffffffff1660a08173ffffffffffffffffffffffffffffffffffffffff16815250508360c081815250508267ffffffffffffffff1660e08167ffffffffffffffff16815250508163ffffffff166101008163ffffffff16815250506000600b819055508060089060036200018892919062000194565b505050505050620009fa565b8260038101928215620001d4579160200282015b82811115620001d3578251829081620001c2919062000913565b5091602001919060010190620001a8565b5b509050620001e39190620001e7565b5090565b5b808211156200020b57600081816200020191906200020f565b50600101620001e8565b5090565b5080546200021d9062000702565b6000825580601f1062000231575062000252565b601f01602090049060005260206000209081019062000251919062000255565b5b50565b5b808211156200027057600081600090555060010162000256565b5090565b6000604051905090565b600080fd5b600080fd5b600073ffffffffffffffffffffffffffffffffffffffff82169050919050565b6000620002b58262000288565b9050919050565b620002c781620002a8565b8114620002d357600080fd5b50565b600081519050620002e781620002bc565b92915050565b6000819050919050565b6200030281620002ed565b81146200030e57600080fd5b50565b6000815190506200032281620002f7565b92915050565b600067ffffffffffffffff82169050919050565b620003478162000328565b81146200035357600080fd5b50565b60008151905062000367816200033c565b92915050565b600063ffffffff82169050919050565b62000388816200036d565b81146200039457600080fd5b50565b600081519050620003a8816200037d565b92915050565b600080fd5b6000601f19601f8301169050919050565b7f4e487b7100000000000000000000000000000000000000000000000000000000600052604160045260246000fd5b620003fe82620003b3565b810181811067ffffffffffffffff8211171562000420576200041f620003c4565b5b80604052505050565b60006200043562000274565b9050620004438282620003f3565b919050565b600067ffffffffffffffff821115620004665762000465620003c4565b5b602082029050919050565b600080fd5b600080fd5b600067ffffffffffffffff821115620004995762000498620003c4565b5b620004a482620003b3565b9050602081019050919050565b60005b83811015620004d1578082015181840152602081019050620004b4565b83811115620004e1576000848401525b50505050565b6000620004fe620004f8846200047b565b62000429565b9050828152602081018484840111156200051d576200051c62000476565b5b6200052a848285620004b1565b509392505050565b600082601f8301126200054a5762000549620003ae565b5b81516200055c848260208601620004e7565b91505092915050565b60006200057c620005768462000448565b62000429565b9050806020840283018581111562000599576200059862000471565b5b835b81811015620005e757805167ffffffffffffffff811115620005c257620005c1620003ae565b5b808601620005d1898262000532565b855260208501945050506020810190506200059b565b5050509392505050565b600082601f830112620006095762000608620003ae565b5b60036200061884828562000565565b91505092915050565b600080600080600060a0868803121562000640576200063f6200027e565b5b60006200065088828901620002d6565b9550506020620006638882890162000311565b9450506040620006768882890162000356565b9350506060620006898882890162000397565b925050608086015167ffffffffffffffff811115620006ad57620006ac62000283565b5b620006bb88828901620005f1565b9150509295509295909350565b600081519050919050565b7f4e487b7100000000000000000000000000000000000000000000000000000000600052602260045260246000fd5b600060028204905060018216806200071b57607f821691505b602082108103620007315762000730620006d3565b5b50919050565b60008190508160005260206000209050919050565b60006020601f8301049050919050565b600082821b905092915050565b6000600883026200079b7fffffffffffffffffffffffffffffffffffffffffffffffffffffffffffffffff826200075c565b620007a786836200075c565b95508019841693508086168417925050509392505050565b6000819050919050565b6000819050919050565b6000620007f4620007ee620007e884620007bf565b620007c9565b620007bf565b9050919050565b6000819050919050565b6200081083620007d3565b620008286200081f82620007fb565b84845462000769565b825550505050565b600090565b6200083f62000830565b6200084c81848462000805565b505050565b5b8181101562000874576200086860008262000835565b60018101905062000852565b5050565b601f821115620008c3576200088d8162000737565b62000898846200074c565b81016020851015620008a8578190505b620008c0620008b7856200074c565b83018262000851565b50505b505050565b600082821c905092915050565b6000620008e860001984600802620008c8565b1980831691505092915050565b6000620009038383620008d5565b9150826002028217905092915050565b6200091e82620006c8565b67ffffffffffffffff8111156200093a5762000939620003c4565b5b62000946825462000702565b6200095382828562000878565b600060209050601f8311600181146200098b576000841562000976578287015190505b620009828582620008f5565b865550620009f2565b601f1984166200099b8662000737565b60005b82811015620009c5578489015182556001820191506020850194506020810190506200099e565b86831015620009e55784890151620009e1601f891682620008d5565b8355505b6001600288020188555050505b505050505050565b60805160a05160c05160e0516101005161348262000a62600039600081816107e30152610f6e0152600081816107c00152610cda01526000818161079f0152610e340152600081816107630152610daa0152600081816108c0015261091401526134826000f3fe608060405234801561001057600080fd5b506004361061014d5760003560e01c80636352211e116100c3578063a378f3711161007c578063a378f371146103b2578063b88d4fde146103d0578063c19dd76b146103ec578063c87b56dd1461040a578063de8be8e71461043a578063e985e9c5146104585761014d565b80636352211e146102ca57806370a08231146102fa5780637de44c631461032a57806395d7427a1461035a57806395d89b4114610378578063a22cb465146103965761014d565b806318225b641161011557806318225b641461020a5780631fe543e31461022857806323b872dd1461024457806342842e0e146102605780635c0148631461027c5780635dacf5f4146102ac5761014d565b806301ffc9a71461015257806306fdde0314610182578063081812fc146101a0578063095ea7b3146101d05780630b21a83b146101ec575b600080fd5b61016c60048036038101906101679190611ef2565b610488565b6040516101799190611f3a565b60405180910390f35b61018a61056a565b6040516101979190611fee565b60405180910390f35b6101ba60048036038101906101b59190612046565b6105fc565b6040516101c791906120b4565b60405180910390f35b6101ea60048036038101906101e591906120fb565b610642565b005b6101f4610759565b604051610201919061214a565b60405180910390f35b61021261075f565b60405161021f919061214a565b60405180910390f35b610242600480360381019061023d91906122ad565b6108be565b005b61025e60048036038101906102599190612309565b61097e565b005b61027a60048036038101906102759190612309565b6109de565b005b61029660048036038101906102919190612046565b6109fe565b6040516102a39190611fee565b60405180910390f35b6102b4610aa1565b6040516102c19190612407565b60405180910390f35b6102e460048036038101906102df9190612046565b610acd565b6040516102f191906120b4565b60405180910390f35b610314600480360381019061030f9190612422565b610b7e565b604051610321919061214a565b60405180910390f35b610344600480360381019061033f9190612046565b610c35565b604051610351919061214a565b60405180910390f35b610362610cd6565b60405161036f9190612472565b60405180910390f35b610380610cfe565b60405161038d9190611fee565b60405180910390f35b6103b060048036038101906103ab91906124b9565b610d90565b005b6103ba610da6565b6040516103c79190612558565b60405180910390f35b6103ea60048036038101906103e59190612628565b610dce565b005b6103f4610e30565b60405161040191906126c4565b60405180910390f35b610424600480360381019061041f9190612046565b610e58565b6040516104319190611fee565b60405180910390f35b610442610f6a565b60405161044f91906126fe565b60405180910390f35b610472600480360381019061046d9190612719565b610f92565b60405161047f9190611f3a565b60405180910390f35b60007f80ac58cd000000000000000000000000000000000000000000000000000000007bffffffffffffffffffffffffffffffffffffffffffffffffffffffff1916827bffffffffffffffffffffffffffffffffffffffffffffffffffffffff1916148061055357507f5b5e139f000000000000000000000000000000000000000000000000000000007bffffffffffffffffffffffffffffffffffffffffffffffffffffffff1916827bffffffffffffffffffffffffffffffffffffffffffffffffffffffff1916145b80610563575061056282611026565b5b9050919050565b60606000805461057990612788565b80601f01602080910402602001604051908101604052809291908181526020018280546105a590612788565b80156105f25780601f106105c7576101008083540402835291602001916105f2565b820191906000526020600020905b8154815290600101906020018083116105d557829003601f168201915b5050505050905090565b600061060782611090565b6004600083815260200190815260200160002060009054906101000a900473ffffffffffffffffffffffffffffffffffffffff169050919050565b600061064d82610acd565b90508073ffffffffffffffffffffffffffffffffffffffff168373ffffffffffffffffffffffffffffffffffffffff16036106bd576040517f08c379a00000000000000000000000000000000000000000000000000000000081526004016106b49061282b565b60405180910390fd5b8073ffffffffffffffffffffffffffffffffffffffff166106dc6110db565b73ffffffffffffffffffffffffffffffffffffffff16148061070b575061070a816107056110db565b610f92565b5b61074a576040517f08c379a0000000000000000000000000000000000000000000000000000000008152600401610741906128bd565b60405180910390fd5b61075483836110e3565b505050565b600b5481565b60007f000000000000000000000000000000000000000000000000000000000000000073ffffffffffffffffffffffffffffffffffffffff16635d3b1d307f00000000000000000000000000000000000000000000000000000000000000007f000000000000000000000000000000000000000000000000000000000000000060037f000000000000000000000000000000000000000000000000000000000000000060016040518663ffffffff1660e01b81526004016108249594939291906128fa565b6020604051808303816000875af1158015610843573d6000803e3d6000fd5b505050506040513d601f19601f820116820180604052508101906108679190612962565b9050336007600083815260200190815260200160002060006101000a81548173ffffffffffffffffffffffffffffffffffffffff021916908373ffffffffffffffffffffffffffffffffffffffff16021790555090565b7f000000000000000000000000000000000000000000000000000000000000000073ffffffffffffffffffffffffffffffffffffffff163373ffffffffffffffffffffffffffffffffffffffff161461097057337f00000000000000000000000000000000000000000000000000000000000000006040517f1cf993f400000000000000000000000000000000000000000000000000000000815260040161096792919061298f565b60405180910390fd5b61097a828261119c565b5050565b61098f6109896110db565b826112e3565b6109ce576040517f08c379a00000000000000000000000000000000000000000000000000000000081526004016109c590612a2a565b60405180910390fd5b6109d9838383611378565b505050565b6109f983838360405180602001604052806000815250610dce565b505050565b60088160038110610a0e57600080fd5b016000915090508054610a2090612788565b80601f0160208091040260200160405190810160405280929190818152602001828054610a4c90612788565b8015610a995780601f10610a6e57610100808354040283529160200191610a99565b820191906000526020600020905b815481529060010190602001808311610a7c57829003601f168201915b505050505081565b610aa9611e64565b6040518060600160405280600a8152602001606481526020016103e8815250905090565b6000806002600084815260200190815260200160002060009054906101000a900473ffffffffffffffffffffffffffffffffffffffff169050600073ffffffffffffffffffffffffffffffffffffffff168173ffffffffffffffffffffffffffffffffffffffff1603610b75576040517f08c379a0000000000000000000000000000000000000000000000000000000008152600401610b6c90612a96565b60405180910390fd5b80915050919050565b60008073ffffffffffffffffffffffffffffffffffffffff168273ffffffffffffffffffffffffffffffffffffffff1603610bee576040517f08c379a0000000000000000000000000000000000000000000000000000000008152600401610be590612b28565b60405180910390fd5b600360008373ffffffffffffffffffffffffffffffffffffffff1673ffffffffffffffffffffffffffffffffffffffff168152602001908152602001600020549050919050565b600080600090506000610c46610aa1565b905060005b6003811015610ccd57828510158015610c855750818160038110610c7257610c71612b48565b5b602002015183610c829190612ba6565b85105b15610c9557809350505050610cd1565b818160038110610ca857610ca7612b48565b5b602002015183610cb89190612ba6565b92508080610cc590612bfc565b915050610c4b565b5050505b919050565b60007f0000000000000000000000000000000000000000000000000000000000000000905090565b606060018054610d0d90612788565b80601f0160208091040260200160405190810160405280929190818152602001828054610d3990612788565b8015610d865780601f10610d5b57610100808354040283529160200191610d86565b820191906000526020600020905b815481529060010190602001808311610d6957829003601f168201915b5050505050905090565b610da2610d9b6110db565b83836115de565b5050565b60007f0000000000000000000000000000000000000000000000000000000000000000905090565b610ddf610dd96110db565b836112e3565b610e1e576040517f08c379a0000000000000000000000000000000000000000000000000000000008152600401610e1590612a2a565b60405180910390fd5b610e2a8484848461174a565b50505050565b60007f0000000000000000000000000000000000000000000000000000000000000000905090565b6060610e6382611090565b6000600660008481526020019081526020016000208054610e8390612788565b80601f0160208091040260200160405190810160405280929190818152602001828054610eaf90612788565b8015610efc5780601f10610ed157610100808354040283529160200191610efc565b820191906000526020600020905b815481529060010190602001808311610edf57829003601f168201915b505050505090506000610f0d6117a6565b90506000815103610f22578192505050610f65565b600082511115610f57578082604051602001610f3f929190612c80565b60405160208183030381529060405292505050610f65565b610f60846117bd565b925050505b919050565b60007f0000000000000000000000000000000000000000000000000000000000000000905090565b6000600560008473ffffffffffffffffffffffffffffffffffffffff1673ffffffffffffffffffffffffffffffffffffffff16815260200190815260200160002060008373ffffffffffffffffffffffffffffffffffffffff1673ffffffffffffffffffffffffffffffffffffffff16815260200190815260200160002060009054906101000a900460ff16905092915050565b60007f01ffc9a7000000000000000000000000000000000000000000000000000000007bffffffffffffffffffffffffffffffffffffffffffffffffffffffff1916827bffffffffffffffffffffffffffffffffffffffffffffffffffffffff1916149050919050565b61109981611825565b6110d8576040517f08c379a00000000000000000000000000000000000000000000000000000000081526004016110cf90612a96565b60405180910390fd5b50565b600033905090565b816004600083815260200190815260200160002060006101000a81548173ffffffffffffffffffffffffffffffffffffffff021916908373ffffffffffffffffffffffffffffffffffffffff160217905550808273ffffffffffffffffffffffffffffffffffffffff1661115683610acd565b73ffffffffffffffffffffffffffffffffffffffff167f8c5be1e5ebec7d5bd14f71427d1e84f3dd0314c0f7b2291e5b200ac8c7c3b92560405160405180910390a45050565b60006007600084815260200190815260200160002060009054906101000a900473ffffffffffffffffffffffffffffffffffffffff1690506000600b5490506001600b546111ea9190612ba6565b600b8190555060006103e88460008151811061120957611208612b48565b5b602002602001015161121b9190612cd3565b9050600061122882610c35565b90506112348484611891565b6112db836008836003811061124c5761124b612b48565b5b01805461125890612788565b80601f016020809104026020016040519081016040528092919081815260200182805461128490612788565b80156112d15780601f106112a6576101008083540402835291602001916112d1565b820191906000526020600020905b8154815290600101906020018083116112b457829003601f168201915b50505050506118af565b505050505050565b6000806112ef83610acd565b90508073ffffffffffffffffffffffffffffffffffffffff168473ffffffffffffffffffffffffffffffffffffffff16148061133157506113308185610f92565b5b8061136f57508373ffffffffffffffffffffffffffffffffffffffff16611357846105fc565b73ffffffffffffffffffffffffffffffffffffffff16145b91505092915050565b8273ffffffffffffffffffffffffffffffffffffffff1661139882610acd565b73ffffffffffffffffffffffffffffffffffffffff16146113ee576040517f08c379a00000000000000000000000000000000000000000000000000000000081526004016113e590612d76565b60405180910390fd5b600073ffffffffffffffffffffffffffffffffffffffff168273ffffffffffffffffffffffffffffffffffffffff160361145d576040517f08c379a000000000000000000000000000000000000000000000000000000000815260040161145490612e08565b60405180910390fd5b61146883838361191c565b6114736000826110e3565b6001600360008573ffffffffffffffffffffffffffffffffffffffff1673ffffffffffffffffffffffffffffffffffffffff16815260200190815260200160002060008282546114c39190612e28565b925050819055506001600360008473ffffffffffffffffffffffffffffffffffffffff1673ffffffffffffffffffffffffffffffffffffffff168152602001908152602001600020600082825461151a9190612ba6565b92505081905550816002600083815260200190815260200160002060006101000a81548173ffffffffffffffffffffffffffffffffffffffff021916908373ffffffffffffffffffffffffffffffffffffffff160217905550808273ffffffffffffffffffffffffffffffffffffffff168473ffffffffffffffffffffffffffffffffffffffff167fddf252ad1be2c89b69c2b068fc378daa952ba7f163c4a11628f55a4df523b3ef60405160405180910390a46115d9838383611921565b505050565b8173ffffffffffffffffffffffffffffffffffffffff168373ffffffffffffffffffffffffffffffffffffffff160361164c576040517f08c379a000000000000000000000000000000000000000000000000000000000815260040161164390612ea8565b60405180910390fd5b80600560008573ffffffffffffffffffffffffffffffffffffffff1673ffffffffffffffffffffffffffffffffffffffff16815260200190815260200160002060008473ffffffffffffffffffffffffffffffffffffffff1673ffffffffffffffffffffffffffffffffffffffff16815260200190815260200160002060006101000a81548160ff0219169083151502179055508173ffffffffffffffffffffffffffffffffffffffff168373ffffffffffffffffffffffffffffffffffffffff167f17307eab39ab6107e8899845ad3d59bd9653f200f220920489ca2b5937696c318360405161173d9190611f3a565b60405180910390a3505050565b611755848484611378565b61176184848484611926565b6117a0576040517f08c379a000000000000000000000000000000000000000000000000000000000815260040161179790612f3a565b60405180910390fd5b50505050565b606060405180602001604052806000815250905090565b60606117c882611090565b60006117d26117a6565b905060008151116117f2576040518060200160405280600081525061181d565b806117fc84611aad565b60405160200161180d929190612c80565b6040516020818303038152906040525b915050919050565b60008073ffffffffffffffffffffffffffffffffffffffff166002600084815260200190815260200160002060009054906101000a900473ffffffffffffffffffffffffffffffffffffffff1673ffffffffffffffffffffffffffffffffffffffff1614159050919050565b6118ab828260405180602001604052806000815250611c0d565b5050565b6118b882611825565b6118f7576040517f08c379a00000000000000000000000000000000000000000000000000000000081526004016118ee90612fcc565b60405180910390fd5b80600660008481526020019081526020016000209081611917919061318e565b505050565b505050565b505050565b60006119478473ffffffffffffffffffffffffffffffffffffffff16611c68565b15611aa0578373ffffffffffffffffffffffffffffffffffffffff1663150b7a026119706110db565b8786866040518563ffffffff1660e01b815260040161199294939291906132b5565b6020604051808303816000875af19250505080156119ce57506040513d601f19601f820116820180604052508101906119cb9190613316565b60015b611a50573d80600081146119fe576040519150601f19603f3d011682016040523d82523d6000602084013e611a03565b606091505b506000815103611a48576040517f08c379a0000000000000000000000000000000000000000000000000000000008152600401611a3f90612f3a565b60405180910390fd5b805181602001fd5b63150b7a0260e01b7bffffffffffffffffffffffffffffffffffffffffffffffffffffffff1916817bffffffffffffffffffffffffffffffffffffffffffffffffffffffff191614915050611aa5565b600190505b949350505050565b606060008203611af4576040518060400160405280600181526020017f30000000000000000000000000000000000000000000000000000000000000008152509050611c08565b600082905060005b60008214611b26578080611b0f90612bfc565b915050600a82611b1f9190613343565b9150611afc565b60008167ffffffffffffffff811115611b4257611b4161216a565b5b6040519080825280601f01601f191660200182016040528015611b745781602001600182028036833780820191505090505b5090505b60008514611c0157600182611b8d9190612e28565b9150600a85611b9c9190612cd3565b6030611ba89190612ba6565b60f81b818381518110611bbe57611bbd612b48565b5b60200101907effffffffffffffffffffffffffffffffffffffffffffffffffffffffffffff1916908160001a905350600a85611bfa9190613343565b9450611b78565b8093505050505b919050565b611c178383611c8b565b611c246000848484611926565b611c63576040517f08c379a0000000000000000000000000000000000000000000000000000000008152600401611c5a90612f3a565b60405180910390fd5b505050565b6000808273ffffffffffffffffffffffffffffffffffffffff163b119050919050565b600073ffffffffffffffffffffffffffffffffffffffff168273ffffffffffffffffffffffffffffffffffffffff1603611cfa576040517f08c379a0000000000000000000000000000000000000000000000000000000008152600401611cf1906133c0565b60405180910390fd5b611d0381611825565b15611d43576040517f08c379a0000000000000000000000000000000000000000000000000000000008152600401611d3a9061342c565b60405180910390fd5b611d4f6000838361191c565b6001600360008473ffffffffffffffffffffffffffffffffffffffff1673ffffffffffffffffffffffffffffffffffffffff1681526020019081526020016000206000828254611d9f9190612ba6565b92505081905550816002600083815260200190815260200160002060006101000a81548173ffffffffffffffffffffffffffffffffffffffff021916908373ffffffffffffffffffffffffffffffffffffffff160217905550808273ffffffffffffffffffffffffffffffffffffffff16600073ffffffffffffffffffffffffffffffffffffffff167fddf252ad1be2c89b69c2b068fc378daa952ba7f163c4a11628f55a4df523b3ef60405160405180910390a4611e6060008383611921565b5050565b6040518060600160405280600390602082028036833780820191505090505090565b6000604051905090565b600080fd5b600080fd5b60007fffffffff0000000000000000000000000000000000000000000000000000000082169050919050565b611ecf81611e9a565b8114611eda57600080fd5b50565b600081359050611eec81611ec6565b92915050565b600060208284031215611f0857611f07611e90565b5b6000611f1684828501611edd565b91505092915050565b60008115159050919050565b611f3481611f1f565b82525050565b6000602082019050611f4f6000830184611f2b565b92915050565b600081519050919050565b600082825260208201905092915050565b60005b83811015611f8f578082015181840152602081019050611f74565b83811115611f9e576000848401525b50505050565b6000601f19601f8301169050919050565b6000611fc082611f55565b611fca8185611f60565b9350611fda818560208601611f71565b611fe381611fa4565b840191505092915050565b600060208201905081810360008301526120088184611fb5565b905092915050565b6000819050919050565b61202381612010565b811461202e57600080fd5b50565b6000813590506120408161201a565b92915050565b60006020828403121561205c5761205b611e90565b5b600061206a84828501612031565b91505092915050565b600073ffffffffffffffffffffffffffffffffffffffff82169050919050565b600061209e82612073565b9050919050565b6120ae81612093565b82525050565b60006020820190506120c960008301846120a5565b92915050565b6120d881612093565b81146120e357600080fd5b50565b6000813590506120f5816120cf565b92915050565b6000806040838503121561211257612111611e90565b5b6000612120858286016120e6565b925050602061213185828601612031565b9150509250929050565b61214481612010565b82525050565b600060208201905061215f600083018461213b565b92915050565b600080fd5b7f4e487b7100000000000000000000000000000000000000000000000000000000600052604160045260246000fd5b6121a282611fa4565b810181811067ffffffffffffffff821117156121c1576121c061216a565b5b80604052505050565b60006121d4611e86565b90506121e08282612199565b919050565b600067ffffffffffffffff821115612200576121ff61216a565b5b602082029050602081019050919050565b600080fd5b6000612229612224846121e5565b6121ca565b9050808382526020820190506020840283018581111561224c5761224b612211565b5b835b8181101561227557806122618882612031565b84526020840193505060208101905061224e565b5050509392505050565b600082601f83011261229457612293612165565b5b81356122a4848260208601612216565b91505092915050565b600080604083850312156122c4576122c3611e90565b5b60006122d285828601612031565b925050602083013567ffffffffffffffff8111156122f3576122f2611e95565b5b6122ff8582860161227f565b9150509250929050565b60008060006060848603121561232257612321611e90565b5b6000612330868287016120e6565b9350506020612341868287016120e6565b925050604061235286828701612031565b9150509250925092565b600060039050919050565b600081905092915050565b6000819050919050565b61238581612010565b82525050565b6000612397838361237c565b60208301905092915050565b6000602082019050919050565b6123b98161235c565b6123c38184612367565b92506123ce82612372565b8060005b838110156123ff5781516123e6878261238b565b96506123f1836123a3565b9250506001810190506123d2565b505050505050565b600060608201905061241c60008301846123b0565b92915050565b60006020828403121561243857612437611e90565b5b6000612446848285016120e6565b91505092915050565b600067ffffffffffffffff82169050919050565b61246c8161244f565b82525050565b60006020820190506124876000830184612463565b92915050565b61249681611f1f565b81146124a157600080fd5b50565b6000813590506124b38161248d565b92915050565b600080604083850312156124d0576124cf611e90565b5b60006124de858286016120e6565b92505060206124ef858286016124a4565b9150509250929050565b6000819050919050565b600061251e61251961251484612073565b6124f9565b612073565b9050919050565b600061253082612503565b9050919050565b600061254282612525565b9050919050565b61255281612537565b82525050565b600060208201905061256d6000830184612549565b92915050565b600080fd5b600067ffffffffffffffff8211156125935761259261216a565b5b61259c82611fa4565b9050602081019050919050565b82818337600083830152505050565b60006125cb6125c684612578565b6121ca565b9050828152602081018484840111156125e7576125e6612573565b5b6125f28482856125a9565b509392505050565b600082601f83011261260f5761260e612165565b5b813561261f8482602086016125b8565b91505092915050565b6000806000806080858703121561264257612641611e90565b5b6000612650878288016120e6565b9450506020612661878288016120e6565b935050604061267287828801612031565b925050606085013567ffffffffffffffff81111561269357612692611e95565b5b61269f878288016125fa565b91505092959194509250565b6000819050919050565b6126be816126ab565b82525050565b60006020820190506126d960008301846126b5565b92915050565b600063ffffffff82169050919050565b6126f8816126df565b82525050565b600060208201905061271360008301846126ef565b92915050565b600080604083850312156127305761272f611e90565b5b600061273e858286016120e6565b925050602061274f858286016120e6565b9150509250929050565b7f4e487b7100000000000000000000000000000000000000000000000000000000600052602260045260246000fd5b600060028204905060018216806127a057607f821691505b6020821081036127b3576127b2612759565b5b50919050565b7f4552433732313a20617070726f76616c20746f2063757272656e74206f776e6560008201527f7200000000000000000000000000000000000000000000000000000000000000602082015250565b6000612815602183611f60565b9150612820826127b9565b604082019050919050565b6000602082019050818103600083015261284481612808565b9050919050565b7f4552433732313a20617070726f76652063616c6c6572206973206e6f7420746f60008201527f6b656e206f776e6572206e6f7220617070726f76656420666f7220616c6c0000602082015250565b60006128a7603e83611f60565b91506128b28261284b565b604082019050919050565b600060208201905081810360008301526128d68161289a565b9050919050565b600061ffff82169050919050565b6128f4816128dd565b82525050565b600060a08201905061290f60008301886126b5565b61291c6020830187612463565b61292960408301866128eb565b61293660608301856126ef565b61294360808301846126ef565b9695505050505050565b60008151905061295c8161201a565b92915050565b60006020828403121561297857612977611e90565b5b60006129868482850161294d565b91505092915050565b60006040820190506129a460008301856120a5565b6129b160208301846120a5565b9392505050565b7f4552433732313a2063616c6c6572206973206e6f7420746f6b656e206f776e6560008201527f72206e6f7220617070726f766564000000000000000000000000000000000000602082015250565b6000612a14602e83611f60565b9150612a1f826129b8565b604082019050919050565b60006020820190508181036000830152612a4381612a07565b9050919050565b7f4552433732313a20696e76616c696420746f6b656e2049440000000000000000600082015250565b6000612a80601883611f60565b9150612a8b82612a4a565b602082019050919050565b60006020820190508181036000830152612aaf81612a73565b9050919050565b7f4552433732313a2061646472657373207a65726f206973206e6f74206120766160008201527f6c6964206f776e65720000000000000000000000000000000000000000000000602082015250565b6000612b12602983611f60565b9150612b1d82612ab6565b604082019050919050565b60006020820190508181036000830152612b4181612b05565b9050919050565b7f4e487b7100000000000000000000000000000000000000000000000000000000600052603260045260246000fd5b7f4e487b7100000000000000000000000000000000000000000000000000000000600052601160045260246000fd5b6000612bb182612010565b9150612bbc83612010565b9250827fffffffffffffffffffffffffffffffffffffffffffffffffffffffffffffffff03821115612bf157612bf0612b77565b5b828201905092915050565b6000612c0782612010565b91507fffffffffffffffffffffffffffffffffffffffffffffffffffffffffffffffff8203612c3957612c38612b77565b5b600182019050919050565b600081905092915050565b6000612c5a82611f55565b612c648185612c44565b9350612c74818560208601611f71565b80840191505092915050565b6000612c8c8285612c4f565b9150612c988284612c4f565b91508190509392505050565b7f4e487b7100000000000000000000000000000000000000000000000000000000600052601260045260246000fd5b6000612cde82612010565b9150612ce983612010565b925082612cf957612cf8612ca4565b5b828206905092915050565b7f4552433732313a207472616e736665722066726f6d20696e636f72726563742060008201527f6f776e6572000000000000000000000000000000000000000000000000000000602082015250565b6000612d60602583611f60565b9150612d6b82612d04565b604082019050919050565b60006020820190508181036000830152612d8f81612d53565b9050919050565b7f4552433732313a207472616e7366657220746f20746865207a65726f2061646460008201527f7265737300000000000000000000000000000000000000000000000000000000602082015250565b6000612df2602483611f60565b9150612dfd82612d96565b604082019050919050565b60006020820190508181036000830152612e2181612de5565b9050919050565b6000612e3382612010565b9150612e3e83612010565b925082821015612e5157612e50612b77565b5b828203905092915050565b7f4552433732313a20617070726f766520746f2063616c6c657200000000000000600082015250565b6000612e92601983611f60565b9150612e9d82612e5c565b602082019050919050565b60006020820190508181036000830152612ec181612e85565b9050919050565b7f4552433732313a207472616e7366657220746f206e6f6e20455243373231526560008201527f63656976657220696d706c656d656e7465720000000000000000000000000000602082015250565b6000612f24603283611f60565b9150612f2f82612ec8565b604082019050919050565b60006020820190508181036000830152612f5381612f17565b9050919050565b7f45524337323155524953746f726167653a2055524920736574206f66206e6f6e60008201527f6578697374656e7420746f6b656e000000000000000000000000000000000000602082015250565b6000612fb6602e83611f60565b9150612fc182612f5a565b604082019050919050565b60006020820190508181036000830152612fe581612fa9565b9050919050565b60008190508160005260206000209050919050565b60006020601f8301049050919050565b600082821b905092915050565b60006008830261304e7fffffffffffffffffffffffffffffffffffffffffffffffffffffffffffffffff82613011565b6130588683613011565b95508019841693508086168417925050509392505050565b600061308b61308661308184612010565b6124f9565b612010565b9050919050565b6000819050919050565b6130a583613070565b6130b96130b182613092565b84845461301e565b825550505050565b600090565b6130ce6130c1565b6130d981848461309c565b505050565b5b818110156130fd576130f26000826130c6565b6001810190506130df565b5050565b601f8211156131425761311381612fec565b61311c84613001565b8101602085101561312b578190505b61313f61313785613001565b8301826130de565b50505b505050565b600082821c905092915050565b600061316560001984600802613147565b1980831691505092915050565b600061317e8383613154565b9150826002028217905092915050565b61319782611f55565b67ffffffffffffffff8111156131b0576131af61216a565b5b6131ba8254612788565b6131c5828285613101565b600060209050601f8311600181146131f857600084156131e6578287015190505b6131f08582613172565b865550613258565b601f19841661320686612fec565b60005b8281101561322e57848901518255600182019150602085019450602081019050613209565b8683101561324b5784890151613247601f891682613154565b8355505b6001600288020188555050505b505050505050565b600081519050919050565b600082825260208201905092915050565b600061328782613260565b613291818561326b565b93506132a1818560208601611f71565b6132aa81611fa4565b840191505092915050565b60006080820190506132ca60008301876120a5565b6132d760208301866120a5565b6132e4604083018561213b565b81810360608301526132f6818461327c565b905095945050505050565b60008151905061331081611ec6565b92915050565b60006020828403121561332c5761332b611e90565b5b600061333a84828501613301565b91505092915050565b600061334e82612010565b915061335983612010565b92508261336957613368612ca4565b5b828204905092915050565b7f4552433732313a206d696e7420746f20746865207a65726f2061646472657373600082015250565b60006133aa602083611f60565b91506133b582613374565b602082019050919050565b600060208201905081810360008301526133d98161339d565b9050919050565b7f4552433732313a20746f6b656e20616c7265616479206d696e74656400000000600082015250565b6000613416601c83611f60565b9150613421826133e0565b602082019050919050565b6000602082019050818103600083015261344581613409565b905091905056fea2646970667358221220201cfa4bb1c57bd396bdfa6bc14583b9821953f00aa981fa7954c21c97c1aa2b64736f6c634300080f0033",
  "linkReferences": {},
  "deployedLinkReferences": {}
}